{
	"contracts/FunctionConsumer.sol": {
		"FunctionsConsumer": {
			"abi": [
				{
					"inputs": [],
					"stateMutability": "nonpayable",
					"type": "constructor"
				},
				{
					"inputs": [],
					"name": "EmptyArgs",
					"type": "error"
				},
				{
					"inputs": [],
					"name": "EmptySource",
					"type": "error"
				},
				{
					"inputs": [],
					"name": "NoInlineSecrets",
					"type": "error"
				},
				{
					"inputs": [],
					"name": "OnlyRouterCanFulfill",
					"type": "error"
				},
				{
					"inputs": [
						{
							"internalType": "bytes32",
							"name": "requestId",
							"type": "bytes32"
						}
					],
					"name": "UnexpectedRequestID",
					"type": "error"
				},
				{
					"anonymous": false,
					"inputs": [
						{
							"indexed": true,
							"internalType": "bytes32",
							"name": "id",
							"type": "bytes32"
						}
					],
					"name": "RequestFulfilled",
					"type": "event"
				},
				{
					"anonymous": false,
					"inputs": [
						{
							"indexed": true,
							"internalType": "bytes32",
							"name": "id",
							"type": "bytes32"
						}
					],
					"name": "RequestSent",
					"type": "event"
				},
				{
					"anonymous": false,
					"inputs": [
						{
							"indexed": true,
							"internalType": "bytes32",
							"name": "requestId",
							"type": "bytes32"
						},
						{
							"indexed": false,
							"internalType": "string",
							"name": "temperature",
							"type": "string"
						},
						{
							"indexed": false,
							"internalType": "bytes",
							"name": "response",
							"type": "bytes"
						},
						{
							"indexed": false,
							"internalType": "bytes",
							"name": "err",
							"type": "bytes"
						}
					],
					"name": "Response",
					"type": "event"
				},
				{
					"inputs": [],
					"name": "SOURCE",
					"outputs": [
						{
							"internalType": "string",
							"name": "",
							"type": "string"
						}
					],
					"stateMutability": "view",
					"type": "function"
				},
				{
					"inputs": [
						{
							"internalType": "string",
							"name": "city",
							"type": "string"
						},
						{
							"internalType": "uint64",
							"name": "subscriptionId",
							"type": "uint64"
						}
					],
					"name": "getTemperature",
					"outputs": [
						{
							"internalType": "bytes32",
							"name": "requestId",
							"type": "bytes32"
						}
					],
					"stateMutability": "nonpayable",
					"type": "function"
				},
				{
					"inputs": [
						{
							"internalType": "bytes32",
							"name": "requestId",
							"type": "bytes32"
						},
						{
							"internalType": "bytes",
							"name": "response",
							"type": "bytes"
						},
						{
							"internalType": "bytes",
							"name": "err",
							"type": "bytes"
						}
					],
					"name": "handleOracleFulfillment",
					"outputs": [],
					"stateMutability": "nonpayable",
					"type": "function"
				},
				{
					"inputs": [],
					"name": "s_lastCity",
					"outputs": [
						{
							"internalType": "string",
							"name": "",
							"type": "string"
						}
					],
					"stateMutability": "view",
					"type": "function"
				},
				{
					"inputs": [],
					"name": "s_lastError",
					"outputs": [
						{
							"internalType": "bytes",
							"name": "",
							"type": "bytes"
						}
					],
					"stateMutability": "view",
					"type": "function"
				},
				{
					"inputs": [],
					"name": "s_lastRequestId",
					"outputs": [
						{
							"internalType": "bytes32",
							"name": "",
							"type": "bytes32"
						}
					],
					"stateMutability": "view",
					"type": "function"
				},
				{
					"inputs": [],
					"name": "s_lastResponse",
					"outputs": [
						{
							"internalType": "bytes",
							"name": "",
							"type": "bytes"
						}
					],
					"stateMutability": "view",
					"type": "function"
				},
				{
					"inputs": [],
					"name": "s_lastTemperature",
					"outputs": [
						{
							"internalType": "string",
							"name": "",
							"type": "string"
						}
					],
					"stateMutability": "view",
					"type": "function"
				},
				{
					"inputs": [],
					"name": "s_requestedCity",
					"outputs": [
						{
							"internalType": "string",
							"name": "",
							"type": "string"
						}
					],
					"stateMutability": "view",
					"type": "function"
				}
			],
			"devdoc": {
				"kind": "dev",
				"methods": {
					"handleOracleFulfillment(bytes32,bytes,bytes)": {
						"details": "Either response or error parameter will be set, but never both.",
						"params": {
							"err": "Aggregated error either from the request's source code or from the execution pipeline.",
							"requestId": "The requestId returned by FunctionsClient.sendRequest().",
							"response": "Aggregated response from the request's source code."
						}
					}
				},
				"version": 1
			},
			"evm": {
				"assembly": "    /* \"contracts/FunctionConsumer.sol\":313:3214  contract FunctionsConsumer is FunctionsClient {... */\n  mstore(0x40, 0xa0)\n    /* \"contracts/FunctionConsumer.sol\":1767:1807  constructor() FunctionsClient(ROUTER) {} */\n  callvalue\n  dup1\n  iszero\n  tag_1\n  jumpi\n  revert(0x00, 0x00)\ntag_1:\n  pop\n    /* \"contracts/FunctionConsumer.sol\":860:902  0xb83E47C2bC239B3bf370bc41e1459A34b41238D0 */\n  0xb83e47c2bc239b3bf370bc41e1459a34b41238d0\n    /* \"@chainlink/contracts@1.3.0/src/v0.8/functions/v1_0_0/FunctionsClient.sol\":764:770  router */\n  dup1\n    /* \"@chainlink/contracts@1.3.0/src/v0.8/functions/v1_0_0/FunctionsClient.sol\":736:771  i_router = IFunctionsRouter(router) */\n  0xffffffffffffffffffffffffffffffffffffffff\n  and\n  0x80\n  dup2\n  0xffffffffffffffffffffffffffffffffffffffff\n  and\n  dup2\n  mstore\n  pop\n  pop\n    /* \"@chainlink/contracts@1.3.0/src/v0.8/functions/v1_0_0/FunctionsClient.sol\":702:776  constructor(address router) {... */\n  pop\n    /* \"contracts/FunctionConsumer.sol\":313:3214  contract FunctionsConsumer is FunctionsClient {... */\n  mload(0x80)\n  codecopy(0x00, dataOffset(sub_0), dataSize(sub_0))\n  0x00\n  assignImmutable(\"0x8e8fab5f003314da8d1873ea7720e8d9f47650136d916064d1edb8a11d682624\")\n  return(0x00, dataSize(sub_0))\nstop\n\nsub_0: assembly {\n        /* \"contracts/FunctionConsumer.sol\":313:3214  contract FunctionsConsumer is FunctionsClient {... */\n      mstore(0x40, 0x80)\n      callvalue\n      dup1\n      iszero\n      tag_1\n      jumpi\n      revert(0x00, 0x00)\n    tag_1:\n      pop\n      jumpi(tag_2, lt(calldatasize, 0x04))\n      shr(0xe0, calldataload(0x00))\n      dup1\n      0x6e0e7c3b\n      gt\n      tag_12\n      jumpi\n      dup1\n      0x6e0e7c3b\n      eq\n      tag_7\n      jumpi\n      dup1\n      0xb1e21749\n      eq\n      tag_8\n      jumpi\n      dup1\n      0xd50cbe98\n      eq\n      tag_9\n      jumpi\n      dup1\n      0xf230b4c2\n      eq\n      tag_10\n      jumpi\n      dup1\n      0xf343f1e1\n      eq\n      tag_11\n      jumpi\n      jump(tag_2)\n    tag_12:\n      dup1\n      0x0845284e\n      eq\n      tag_3\n      jumpi\n      dup1\n      0x0ca76175\n      eq\n      tag_4\n      jumpi\n      dup1\n      0x3944ea3a\n      eq\n      tag_5\n      jumpi\n      dup1\n      0x4b0795a8\n      eq\n      tag_6\n      jumpi\n    tag_2:\n      revert(0x00, 0x00)\n        /* \"contracts/FunctionConsumer.sol\":426:450  string public s_lastCity */\n    tag_3:\n      tag_13\n      tag_14\n      jump\t// in\n    tag_13:\n      mload(0x40)\n      tag_15\n      swap2\n      swap1\n      tag_16\n      jump\t// in\n    tag_15:\n      mload(0x40)\n      dup1\n      swap2\n      sub\n      swap1\n      return\n        /* \"@chainlink/contracts@1.3.0/src/v0.8/functions/v1_0_0/FunctionsClient.sol\":2078:2364  function handleOracleFulfillment(bytes32 requestId, bytes memory response, bytes memory err) external override {... */\n    tag_4:\n      tag_17\n      0x04\n      dup1\n      calldatasize\n      sub\n      dup2\n      add\n      swap1\n      tag_18\n      swap2\n      swap1\n      tag_19\n      jump\t// in\n    tag_18:\n      tag_20\n      jump\t// in\n    tag_17:\n      stop\n        /* \"contracts/FunctionConsumer.sol\":647:674  bytes public s_lastResponse */\n    tag_5:\n      tag_21\n      tag_22\n      jump\t// in\n    tag_21:\n      mload(0x40)\n      tag_23\n      swap2\n      swap1\n      tag_24\n      jump\t// in\n    tag_23:\n      mload(0x40)\n      dup1\n      swap2\n      sub\n      swap1\n      return\n        /* \"contracts/FunctionConsumer.sol\":681:705  bytes public s_lastError */\n    tag_6:\n      tag_25\n      tag_26\n      jump\t// in\n    tag_25:\n      mload(0x40)\n      tag_27\n      swap2\n      swap1\n      tag_24\n      jump\t// in\n    tag_27:\n      mload(0x40)\n      dup1\n      swap2\n      sub\n      swap1\n      return\n        /* \"contracts/FunctionConsumer.sol\":460:489  string public s_requestedCity */\n    tag_7:\n      tag_28\n      tag_29\n      jump\t// in\n    tag_28:\n      mload(0x40)\n      tag_30\n      swap2\n      swap1\n      tag_16\n      jump\t// in\n    tag_30:\n      mload(0x40)\n      dup1\n      swap2\n      sub\n      swap1\n      return\n        /* \"contracts/FunctionConsumer.sol\":610:640  bytes32 public s_lastRequestId */\n    tag_8:\n      tag_31\n      tag_32\n      jump\t// in\n    tag_31:\n      mload(0x40)\n      tag_33\n      swap2\n      swap1\n      tag_34\n      jump\t// in\n    tag_33:\n      mload(0x40)\n      dup1\n      swap2\n      sub\n      swap1\n      return\n        /* \"contracts/FunctionConsumer.sol\":496:527  string public s_lastTemperature */\n    tag_9:\n      tag_35\n      tag_36\n      jump\t// in\n    tag_35:\n      mload(0x40)\n      tag_37\n      swap2\n      swap1\n      tag_16\n      jump\t// in\n    tag_37:\n      mload(0x40)\n      dup1\n      swap2\n      sub\n      swap1\n      return\n        /* \"contracts/FunctionConsumer.sol\":1115:1526  string public  constant SOURCE =... */\n    tag_10:\n      tag_38\n      tag_39\n      jump\t// in\n    tag_38:\n      mload(0x40)\n      tag_40\n      swap2\n      swap1\n      tag_16\n      jump\t// in\n    tag_40:\n      mload(0x40)\n      dup1\n      swap2\n      sub\n      swap1\n      return\n        /* \"contracts/FunctionConsumer.sol\":1815:2586  function getTemperature(... */\n    tag_11:\n      tag_41\n      0x04\n      dup1\n      calldatasize\n      sub\n      dup2\n      add\n      swap1\n      tag_42\n      swap2\n      swap1\n      tag_43\n      jump\t// in\n    tag_42:\n      tag_44\n      jump\t// in\n    tag_41:\n      mload(0x40)\n      tag_45\n      swap2\n      swap1\n      tag_34\n      jump\t// in\n    tag_45:\n      mload(0x40)\n      dup1\n      swap2\n      sub\n      swap1\n      return\n        /* \"contracts/FunctionConsumer.sol\":426:450  string public s_lastCity */\n    tag_14:\n      0x00\n      dup1\n      sload\n      tag_46\n      swap1\n      tag_47\n      jump\t// in\n    tag_46:\n      dup1\n      0x1f\n      add\n      0x20\n      dup1\n      swap2\n      div\n      mul\n      0x20\n      add\n      mload(0x40)\n      swap1\n      dup2\n      add\n      0x40\n      mstore\n      dup1\n      swap3\n      swap2\n      swap1\n      dup2\n      dup2\n      mstore\n      0x20\n      add\n      dup3\n      dup1\n      sload\n      tag_48\n      swap1\n      tag_47\n      jump\t// in\n    tag_48:\n      dup1\n      iszero\n      tag_49\n      jumpi\n      dup1\n      0x1f\n      lt\n      tag_50\n      jumpi\n      0x0100\n      dup1\n      dup4\n      sload\n      div\n      mul\n      dup4\n      mstore\n      swap2\n      0x20\n      add\n      swap2\n      jump(tag_49)\n    tag_50:\n      dup3\n      add\n      swap2\n      swap1\n      0x00\n      mstore\n      keccak256(0x00, 0x20)\n      swap1\n    tag_51:\n      dup2\n      sload\n      dup2\n      mstore\n      swap1\n      0x01\n      add\n      swap1\n      0x20\n      add\n      dup1\n      dup4\n      gt\n      tag_51\n      jumpi\n      dup3\n      swap1\n      sub\n      0x1f\n      and\n      dup3\n      add\n      swap2\n    tag_49:\n      pop\n      pop\n      pop\n      pop\n      pop\n      dup2\n      jump\t// out\n        /* \"@chainlink/contracts@1.3.0/src/v0.8/functions/v1_0_0/FunctionsClient.sol\":2078:2364  function handleOracleFulfillment(bytes32 requestId, bytes memory response, bytes memory err) external override {... */\n    tag_20:\n        /* \"@chainlink/contracts@1.3.0/src/v0.8/functions/v1_0_0/FunctionsClient.sol\":2221:2229  i_router */\n      immutable(\"0x8e8fab5f003314da8d1873ea7720e8d9f47650136d916064d1edb8a11d682624\")\n        /* \"@chainlink/contracts@1.3.0/src/v0.8/functions/v1_0_0/FunctionsClient.sol\":2199:2230  msg.sender != address(i_router) */\n      0xffffffffffffffffffffffffffffffffffffffff\n      and\n        /* \"@chainlink/contracts@1.3.0/src/v0.8/functions/v1_0_0/FunctionsClient.sol\":2199:2209  msg.sender */\n      caller\n        /* \"@chainlink/contracts@1.3.0/src/v0.8/functions/v1_0_0/FunctionsClient.sol\":2199:2230  msg.sender != address(i_router) */\n      0xffffffffffffffffffffffffffffffffffffffff\n      and\n      eq\n        /* \"@chainlink/contracts@1.3.0/src/v0.8/functions/v1_0_0/FunctionsClient.sol\":2195:2276  if (msg.sender != address(i_router)) {... */\n      tag_53\n      jumpi\n        /* \"@chainlink/contracts@1.3.0/src/v0.8/functions/v1_0_0/FunctionsClient.sol\":2247:2269  OnlyRouterCanFulfill() */\n      mload(0x40)\n      0xc6829f8300000000000000000000000000000000000000000000000000000000\n      dup2\n      mstore\n      0x04\n      add\n      mload(0x40)\n      dup1\n      swap2\n      sub\n      swap1\n      revert\n        /* \"@chainlink/contracts@1.3.0/src/v0.8/functions/v1_0_0/FunctionsClient.sol\":2195:2276  if (msg.sender != address(i_router)) {... */\n    tag_53:\n        /* \"@chainlink/contracts@1.3.0/src/v0.8/functions/v1_0_0/FunctionsClient.sol\":2281:2321  fulfillRequest(requestId, response, err) */\n      tag_54\n        /* \"@chainlink/contracts@1.3.0/src/v0.8/functions/v1_0_0/FunctionsClient.sol\":2296:2305  requestId */\n      dup4\n        /* \"@chainlink/contracts@1.3.0/src/v0.8/functions/v1_0_0/FunctionsClient.sol\":2307:2315  response */\n      dup4\n        /* \"@chainlink/contracts@1.3.0/src/v0.8/functions/v1_0_0/FunctionsClient.sol\":2317:2320  err */\n      dup4\n        /* \"@chainlink/contracts@1.3.0/src/v0.8/functions/v1_0_0/FunctionsClient.sol\":2281:2295  fulfillRequest */\n      tag_55\n        /* \"@chainlink/contracts@1.3.0/src/v0.8/functions/v1_0_0/FunctionsClient.sol\":2281:2321  fulfillRequest(requestId, response, err) */\n      jump\t// in\n    tag_54:\n        /* \"@chainlink/contracts@1.3.0/src/v0.8/functions/v1_0_0/FunctionsClient.sol\":2349:2358  requestId */\n      dup3\n        /* \"@chainlink/contracts@1.3.0/src/v0.8/functions/v1_0_0/FunctionsClient.sol\":2332:2359  RequestFulfilled(requestId) */\n      0x85e1543bf2f84fe80c6badbce3648c8539ad1df4d2b3d822938ca0538be727e6\n      mload(0x40)\n      mload(0x40)\n      dup1\n      swap2\n      sub\n      swap1\n      log2\n        /* \"@chainlink/contracts@1.3.0/src/v0.8/functions/v1_0_0/FunctionsClient.sol\":2078:2364  function handleOracleFulfillment(bytes32 requestId, bytes memory response, bytes memory err) external override {... */\n      pop\n      pop\n      pop\n      jump\t// out\n        /* \"contracts/FunctionConsumer.sol\":647:674  bytes public s_lastResponse */\n    tag_22:\n      0x04\n      dup1\n      sload\n      tag_56\n      swap1\n      tag_47\n      jump\t// in\n    tag_56:\n      dup1\n      0x1f\n      add\n      0x20\n      dup1\n      swap2\n      div\n      mul\n      0x20\n      add\n      mload(0x40)\n      swap1\n      dup2\n      add\n      0x40\n      mstore\n      dup1\n      swap3\n      swap2\n      swap1\n      dup2\n      dup2\n      mstore\n      0x20\n      add\n      dup3\n      dup1\n      sload\n      tag_57\n      swap1\n      tag_47\n      jump\t// in\n    tag_57:\n      dup1\n      iszero\n      tag_58\n      jumpi\n      dup1\n      0x1f\n      lt\n      tag_59\n      jumpi\n      0x0100\n      dup1\n      dup4\n      sload\n      div\n      mul\n      dup4\n      mstore\n      swap2\n      0x20\n      add\n      swap2\n      jump(tag_58)\n    tag_59:\n      dup3\n      add\n      swap2\n      swap1\n      0x00\n      mstore\n      keccak256(0x00, 0x20)\n      swap1\n    tag_60:\n      dup2\n      sload\n      dup2\n      mstore\n      swap1\n      0x01\n      add\n      swap1\n      0x20\n      add\n      dup1\n      dup4\n      gt\n      tag_60\n      jumpi\n      dup3\n      swap1\n      sub\n      0x1f\n      and\n      dup3\n      add\n      swap2\n    tag_58:\n      pop\n      pop\n      pop\n      pop\n      pop\n      dup2\n      jump\t// out\n        /* \"contracts/FunctionConsumer.sol\":681:705  bytes public s_lastError */\n    tag_26:\n      0x05\n      dup1\n      sload\n      tag_61\n      swap1\n      tag_47\n      jump\t// in\n    tag_61:\n      dup1\n      0x1f\n      add\n      0x20\n      dup1\n      swap2\n      div\n      mul\n      0x20\n      add\n      mload(0x40)\n      swap1\n      dup2\n      add\n      0x40\n      mstore\n      dup1\n      swap3\n      swap2\n      swap1\n      dup2\n      dup2\n      mstore\n      0x20\n      add\n      dup3\n      dup1\n      sload\n      tag_62\n      swap1\n      tag_47\n      jump\t// in\n    tag_62:\n      dup1\n      iszero\n      tag_63\n      jumpi\n      dup1\n      0x1f\n      lt\n      tag_64\n      jumpi\n      0x0100\n      dup1\n      dup4\n      sload\n      div\n      mul\n      dup4\n      mstore\n      swap2\n      0x20\n      add\n      swap2\n      jump(tag_63)\n    tag_64:\n      dup3\n      add\n      swap2\n      swap1\n      0x00\n      mstore\n      keccak256(0x00, 0x20)\n      swap1\n    tag_65:\n      dup2\n      sload\n      dup2\n      mstore\n      swap1\n      0x01\n      add\n      swap1\n      0x20\n      add\n      dup1\n      dup4\n      gt\n      tag_65\n      jumpi\n      dup3\n      swap1\n      sub\n      0x1f\n      and\n      dup3\n      add\n      swap2\n    tag_63:\n      pop\n      pop\n      pop\n      pop\n      pop\n      dup2\n      jump\t// out\n        /* \"contracts/FunctionConsumer.sol\":460:489  string public s_requestedCity */\n    tag_29:\n      0x01\n      dup1\n      sload\n      tag_66\n      swap1\n      tag_47\n      jump\t// in\n    tag_66:\n      dup1\n      0x1f\n      add\n      0x20\n      dup1\n      swap2\n      div\n      mul\n      0x20\n      add\n      mload(0x40)\n      swap1\n      dup2\n      add\n      0x40\n      mstore\n      dup1\n      swap3\n      swap2\n      swap1\n      dup2\n      dup2\n      mstore\n      0x20\n      add\n      dup3\n      dup1\n      sload\n      tag_67\n      swap1\n      tag_47\n      jump\t// in\n    tag_67:\n      dup1\n      iszero\n      tag_68\n      jumpi\n      dup1\n      0x1f\n      lt\n      tag_69\n      jumpi\n      0x0100\n      dup1\n      dup4\n      sload\n      div\n      mul\n      dup4\n      mstore\n      swap2\n      0x20\n      add\n      swap2\n      jump(tag_68)\n    tag_69:\n      dup3\n      add\n      swap2\n      swap1\n      0x00\n      mstore\n      keccak256(0x00, 0x20)\n      swap1\n    tag_70:\n      dup2\n      sload\n      dup2\n      mstore\n      swap1\n      0x01\n      add\n      swap1\n      0x20\n      add\n      dup1\n      dup4\n      gt\n      tag_70\n      jumpi\n      dup3\n      swap1\n      sub\n      0x1f\n      and\n      dup3\n      add\n      swap2\n    tag_68:\n      pop\n      pop\n      pop\n      pop\n      pop\n      dup2\n      jump\t// out\n        /* \"contracts/FunctionConsumer.sol\":610:640  bytes32 public s_lastRequestId */\n    tag_32:\n      sload(0x03)\n      dup2\n      jump\t// out\n        /* \"contracts/FunctionConsumer.sol\":496:527  string public s_lastTemperature */\n    tag_36:\n      0x02\n      dup1\n      sload\n      tag_71\n      swap1\n      tag_47\n      jump\t// in\n    tag_71:\n      dup1\n      0x1f\n      add\n      0x20\n      dup1\n      swap2\n      div\n      mul\n      0x20\n      add\n      mload(0x40)\n      swap1\n      dup2\n      add\n      0x40\n      mstore\n      dup1\n      swap3\n      swap2\n      swap1\n      dup2\n      dup2\n      mstore\n      0x20\n      add\n      dup3\n      dup1\n      sload\n      tag_72\n      swap1\n      tag_47\n      jump\t// in\n    tag_72:\n      dup1\n      iszero\n      tag_73\n      jumpi\n      dup1\n      0x1f\n      lt\n      tag_74\n      jumpi\n      0x0100\n      dup1\n      dup4\n      sload\n      div\n      mul\n      dup4\n      mstore\n      swap2\n      0x20\n      add\n      swap2\n      jump(tag_73)\n    tag_74:\n      dup3\n      add\n      swap2\n      swap1\n      0x00\n      mstore\n      keccak256(0x00, 0x20)\n      swap1\n    tag_75:\n      dup2\n      sload\n      dup2\n      mstore\n      swap1\n      0x01\n      add\n      swap1\n      0x20\n      add\n      dup1\n      dup4\n      gt\n      tag_75\n      jumpi\n      dup3\n      swap1\n      sub\n      0x1f\n      and\n      dup3\n      add\n      swap2\n    tag_73:\n      pop\n      pop\n      pop\n      pop\n      pop\n      dup2\n      jump\t// out\n        /* \"contracts/FunctionConsumer.sol\":1115:1526  string public  constant SOURCE =... */\n    tag_39:\n      mload(0x40)\n      dup1\n      0x0140\n      add\n      0x40\n      mstore\n      dup1\n      0x0103\n      dup2\n      mstore\n      0x20\n      add\n      data_6ed21e9c87a8dfef6fdf85f2f7bdf69a9b42c764c66081ff64c14457b3f6fcc6\n      0x0103\n      swap2\n      codecopy\n      dup2\n      jump\t// out\n        /* \"contracts/FunctionConsumer.sol\":1815:2586  function getTemperature(... */\n    tag_44:\n        /* \"contracts/FunctionConsumer.sol\":1925:1942  bytes32 requestId */\n      0x00\n        /* \"contracts/FunctionConsumer.sol\":1955:1990  FunctionsRequest.Request memory req */\n      tag_77\n      tag_78\n      jump\t// in\n    tag_77:\n        /* \"contracts/FunctionConsumer.sol\":2001:2049  req.initializeRequestForInlineJavaScript(SOURCE) */\n      tag_79\n        /* \"contracts/FunctionConsumer.sol\":2042:2048  SOURCE */\n      mload(0x40)\n      dup1\n      0x0140\n      add\n      0x40\n      mstore\n      dup1\n      0x0103\n      dup2\n      mstore\n      0x20\n      add\n      data_6ed21e9c87a8dfef6fdf85f2f7bdf69a9b42c764c66081ff64c14457b3f6fcc6\n      0x0103\n      swap2\n      codecopy\n        /* \"contracts/FunctionConsumer.sol\":2001:2004  req */\n      dup3\n        /* \"contracts/FunctionConsumer.sol\":2001:2041  req.initializeRequestForInlineJavaScript */\n      tag_80\n      swap1\n        /* \"contracts/FunctionConsumer.sol\":2001:2049  req.initializeRequestForInlineJavaScript(SOURCE) */\n      swap2\n      swap1\n      0xffffffff\n      and\n      jump\t// in\n    tag_79:\n        /* \"contracts/FunctionConsumer.sol\":2101:2121  string[] memory args */\n      0x00\n        /* \"contracts/FunctionConsumer.sol\":2137:2138  1 */\n      0x01\n        /* \"contracts/FunctionConsumer.sol\":2124:2139  new string[](1) */\n      0xffffffffffffffff\n      dup2\n      gt\n      iszero\n      tag_81\n      jumpi\n      tag_82\n      tag_83\n      jump\t// in\n    tag_82:\n    tag_81:\n      mload(0x40)\n      swap1\n      dup1\n      dup3\n      mstore\n      dup1\n      0x20\n      mul\n      0x20\n      add\n      dup3\n      add\n      0x40\n      mstore\n      dup1\n      iszero\n      tag_84\n      jumpi\n      dup2\n      0x20\n      add\n    tag_85:\n      0x60\n      dup2\n      mstore\n      0x20\n      add\n      swap1\n      0x01\n      swap1\n      sub\n      swap1\n      dup2\n      tag_85\n      jumpi\n      swap1\n      pop\n    tag_84:\n      pop\n        /* \"contracts/FunctionConsumer.sol\":2101:2139  string[] memory args = new string[](1) */\n      swap1\n      pop\n        /* \"contracts/FunctionConsumer.sol\":2160:2164  city */\n      dup5\n        /* \"contracts/FunctionConsumer.sol\":2150:2154  args */\n      dup2\n        /* \"contracts/FunctionConsumer.sol\":2155:2156  0 */\n      0x00\n        /* \"contracts/FunctionConsumer.sol\":2150:2157  args[0] */\n      dup2\n      mload\n      dup2\n      lt\n      tag_86\n      jumpi\n      tag_87\n      tag_88\n      jump\t// in\n    tag_87:\n    tag_86:\n      0x20\n      mul\n      0x20\n      add\n      add\n        /* \"contracts/FunctionConsumer.sol\":2150:2164  args[0] = city */\n      dup2\n      swap1\n      mstore\n      pop\n        /* \"contracts/FunctionConsumer.sol\":2175:2192  req.setArgs(args) */\n      tag_89\n        /* \"contracts/FunctionConsumer.sol\":2187:2191  args */\n      dup2\n        /* \"contracts/FunctionConsumer.sol\":2175:2178  req */\n      dup4\n        /* \"contracts/FunctionConsumer.sol\":2175:2186  req.setArgs */\n      tag_90\n      swap1\n        /* \"contracts/FunctionConsumer.sol\":2175:2192  req.setArgs(args) */\n      swap2\n      swap1\n      0xffffffff\n      and\n      jump\t// in\n    tag_89:\n        /* \"contracts/FunctionConsumer.sol\":2314:2442  _sendRequest(... */\n      tag_91\n        /* \"contracts/FunctionConsumer.sol\":2341:2357  req.encodeCBOR() */\n      tag_92\n        /* \"contracts/FunctionConsumer.sol\":2341:2344  req */\n      dup4\n        /* \"contracts/FunctionConsumer.sol\":2341:2355  req.encodeCBOR */\n      tag_93\n        /* \"contracts/FunctionConsumer.sol\":2341:2357  req.encodeCBOR() */\n      jump\t// in\n    tag_92:\n        /* \"contracts/FunctionConsumer.sol\":2372:2386  subscriptionId */\n      dup6\n        /* \"contracts/FunctionConsumer.sol\":1071:1077  300000 */\n      0x0493e0\n        /* \"contracts/FunctionConsumer.sol\":944:1010  0x66756e2d657468657265756d2d7365706f6c69612d3100000000000000000000 */\n      0x66756e2d657468657265756d2d7365706f6c69612d3100000000000000000000\n        /* \"contracts/FunctionConsumer.sol\":2425:2431  DON_ID */\n      0x00\n      shl\n        /* \"contracts/FunctionConsumer.sol\":2314:2326  _sendRequest */\n      tag_94\n        /* \"contracts/FunctionConsumer.sol\":2314:2442  _sendRequest(... */\n      jump\t// in\n    tag_91:\n        /* \"contracts/FunctionConsumer.sol\":2296:2311  s_lastRequestId */\n      0x03\n        /* \"contracts/FunctionConsumer.sol\":2296:2442  s_lastRequestId = _sendRequest(... */\n      dup2\n      swap1\n      sstore\n      pop\n        /* \"contracts/FunctionConsumer.sol\":2541:2545  city */\n      dup5\n        /* \"contracts/FunctionConsumer.sol\":2523:2538  s_requestedCity */\n      0x01\n        /* \"contracts/FunctionConsumer.sol\":2523:2545  s_requestedCity = city */\n      swap1\n      dup2\n      tag_95\n      swap2\n      swap1\n      tag_96\n      jump\t// in\n    tag_95:\n      pop\n        /* \"contracts/FunctionConsumer.sol\":2563:2578  s_lastRequestId */\n      sload(0x03)\n        /* \"contracts/FunctionConsumer.sol\":2556:2578  return s_lastRequestId */\n      swap3\n      pop\n      pop\n      pop\n        /* \"contracts/FunctionConsumer.sol\":1815:2586  function getTemperature(... */\n      swap3\n      swap2\n      pop\n      pop\n      jump\t// out\n        /* \"contracts/FunctionConsumer.sol\":2644:3211  function fulfillRequest(... */\n    tag_55:\n        /* \"contracts/FunctionConsumer.sol\":2814:2823  requestId */\n      dup3\n        /* \"contracts/FunctionConsumer.sol\":2795:2810  s_lastRequestId */\n      sload(0x03)\n        /* \"contracts/FunctionConsumer.sol\":2795:2823  s_lastRequestId != requestId */\n      eq\n        /* \"contracts/FunctionConsumer.sol\":2791:2919  if (s_lastRequestId != requestId) {... */\n      tag_98\n      jumpi\n        /* \"contracts/FunctionConsumer.sol\":2867:2876  requestId */\n      dup3\n        /* \"contracts/FunctionConsumer.sol\":2847:2877  UnexpectedRequestID(requestId) */\n      mload(0x40)\n      0xd068bf5b00000000000000000000000000000000000000000000000000000000\n      dup2\n      mstore\n      0x04\n      add\n      tag_99\n      swap2\n      swap1\n      tag_34\n      jump\t// in\n    tag_99:\n      mload(0x40)\n      dup1\n      swap2\n      sub\n      swap1\n      revert\n        /* \"contracts/FunctionConsumer.sol\":2791:2919  if (s_lastRequestId != requestId) {... */\n    tag_98:\n        /* \"contracts/FunctionConsumer.sol\":2945:2948  err */\n      dup1\n        /* \"contracts/FunctionConsumer.sol\":2931:2942  s_lastError */\n      0x05\n        /* \"contracts/FunctionConsumer.sol\":2931:2948  s_lastError = err */\n      swap1\n      dup2\n      tag_100\n      swap2\n      swap1\n      tag_101\n      jump\t// in\n    tag_100:\n      pop\n        /* \"contracts/FunctionConsumer.sol\":2976:2984  response */\n      dup2\n        /* \"contracts/FunctionConsumer.sol\":2959:2973  s_lastResponse */\n      0x04\n        /* \"contracts/FunctionConsumer.sol\":2959:2984  s_lastResponse = response */\n      swap1\n      dup2\n      tag_102\n      swap2\n      swap1\n      tag_101\n      jump\t// in\n    tag_102:\n      pop\n        /* \"contracts/FunctionConsumer.sol\":3024:3032  response */\n      dup2\n        /* \"contracts/FunctionConsumer.sol\":2997:3014  s_lastTemperature */\n      0x02\n        /* \"contracts/FunctionConsumer.sol\":2997:3033  s_lastTemperature = string(response) */\n      swap1\n      dup2\n      tag_103\n      swap2\n      swap1\n      tag_96\n      jump\t// in\n    tag_103:\n      pop\n        /* \"contracts/FunctionConsumer.sol\":3057:3072  s_requestedCity */\n      0x01\n        /* \"contracts/FunctionConsumer.sol\":3044:3054  s_lastCity */\n      0x00\n        /* \"contracts/FunctionConsumer.sol\":3044:3072  s_lastCity = s_requestedCity */\n      swap1\n      dup2\n      tag_104\n      swap2\n      swap1\n      tag_105\n      jump\t// in\n    tag_104:\n      pop\n        /* \"contracts/FunctionConsumer.sol\":3145:3154  requestId */\n      dup3\n        /* \"contracts/FunctionConsumer.sol\":3136:3203  Response(requestId, s_lastTemperature, s_lastResponse, s_lastError) */\n      0x160ed0aaffbef6885155188b91459cb5a97d5daadccf7561d8c46deea6641b50\n        /* \"contracts/FunctionConsumer.sol\":3156:3173  s_lastTemperature */\n      0x02\n        /* \"contracts/FunctionConsumer.sol\":3175:3189  s_lastResponse */\n      0x04\n        /* \"contracts/FunctionConsumer.sol\":3191:3202  s_lastError */\n      0x05\n        /* \"contracts/FunctionConsumer.sol\":3136:3203  Response(requestId, s_lastTemperature, s_lastResponse, s_lastError) */\n      mload(0x40)\n      tag_106\n      swap4\n      swap3\n      swap2\n      swap1\n      tag_107\n      jump\t// in\n    tag_106:\n      mload(0x40)\n      dup1\n      swap2\n      sub\n      swap1\n      log2\n        /* \"contracts/FunctionConsumer.sol\":2644:3211  function fulfillRequest(... */\n      pop\n      pop\n      pop\n      jump\t// out\n        /* \"@chainlink/contracts@1.3.0/src/v0.8/functions/v1_0_0/libraries/FunctionsRequest.sol\":4323:4530  function initializeRequestForInlineJavaScript(Request memory self, string memory javaScriptSource) internal pure {... */\n    tag_80:\n        /* \"@chainlink/contracts@1.3.0/src/v0.8/functions/v1_0_0/libraries/FunctionsRequest.sol\":4442:4525  initializeRequest(self, Location.Inline, CodeLanguage.JavaScript, javaScriptSource) */\n      tag_109\n        /* \"@chainlink/contracts@1.3.0/src/v0.8/functions/v1_0_0/libraries/FunctionsRequest.sol\":4460:4464  self */\n      dup3\n        /* \"@chainlink/contracts@1.3.0/src/v0.8/functions/v1_0_0/libraries/FunctionsRequest.sol\":4466:4481  Location.Inline */\n      0x00\n        /* \"@chainlink/contracts@1.3.0/src/v0.8/functions/v1_0_0/libraries/FunctionsRequest.sol\":4483:4506  CodeLanguage.JavaScript */\n      0x00\n        /* \"@chainlink/contracts@1.3.0/src/v0.8/functions/v1_0_0/libraries/FunctionsRequest.sol\":4508:4524  javaScriptSource */\n      dup5\n        /* \"@chainlink/contracts@1.3.0/src/v0.8/functions/v1_0_0/libraries/FunctionsRequest.sol\":4442:4459  initializeRequest */\n      tag_110\n        /* \"@chainlink/contracts@1.3.0/src/v0.8/functions/v1_0_0/libraries/FunctionsRequest.sol\":4442:4525  initializeRequest(self, Location.Inline, CodeLanguage.JavaScript, javaScriptSource) */\n      jump\t// in\n    tag_109:\n        /* \"@chainlink/contracts@1.3.0/src/v0.8/functions/v1_0_0/libraries/FunctionsRequest.sol\":4323:4530  function initializeRequestForInlineJavaScript(Request memory self, string memory javaScriptSource) internal pure {... */\n      pop\n      pop\n      jump\t// out\n        /* \"@chainlink/contracts@1.3.0/src/v0.8/functions/v1_0_0/libraries/FunctionsRequest.sol\":5827:5975  function setArgs(Request memory self, string[] memory args) internal pure {... */\n    tag_90:\n        /* \"@chainlink/contracts@1.3.0/src/v0.8/functions/v1_0_0/libraries/FunctionsRequest.sol\":5926:5927  0 */\n      0x00\n        /* \"@chainlink/contracts@1.3.0/src/v0.8/functions/v1_0_0/libraries/FunctionsRequest.sol\":5911:5915  args */\n      dup2\n        /* \"@chainlink/contracts@1.3.0/src/v0.8/functions/v1_0_0/libraries/FunctionsRequest.sol\":5911:5922  args.length */\n      mload\n        /* \"@chainlink/contracts@1.3.0/src/v0.8/functions/v1_0_0/libraries/FunctionsRequest.sol\":5911:5927  args.length == 0 */\n      sub\n        /* \"@chainlink/contracts@1.3.0/src/v0.8/functions/v1_0_0/libraries/FunctionsRequest.sol\":5907:5947  if (args.length == 0) revert EmptyArgs() */\n      tag_112\n      jumpi\n        /* \"@chainlink/contracts@1.3.0/src/v0.8/functions/v1_0_0/libraries/FunctionsRequest.sol\":5936:5947  EmptyArgs() */\n      mload(0x40)\n      0xfe936cb700000000000000000000000000000000000000000000000000000000\n      dup2\n      mstore\n      0x04\n      add\n      mload(0x40)\n      dup1\n      swap2\n      sub\n      swap1\n      revert\n        /* \"@chainlink/contracts@1.3.0/src/v0.8/functions/v1_0_0/libraries/FunctionsRequest.sol\":5907:5947  if (args.length == 0) revert EmptyArgs() */\n    tag_112:\n        /* \"@chainlink/contracts@1.3.0/src/v0.8/functions/v1_0_0/libraries/FunctionsRequest.sol\":5966:5970  args */\n      dup1\n        /* \"@chainlink/contracts@1.3.0/src/v0.8/functions/v1_0_0/libraries/FunctionsRequest.sol\":5954:5958  self */\n      dup3\n        /* \"@chainlink/contracts@1.3.0/src/v0.8/functions/v1_0_0/libraries/FunctionsRequest.sol\":5954:5963  self.args */\n      0xa0\n      add\n        /* \"@chainlink/contracts@1.3.0/src/v0.8/functions/v1_0_0/libraries/FunctionsRequest.sol\":5954:5970  self.args = args */\n      dup2\n      swap1\n      mstore\n      pop\n        /* \"@chainlink/contracts@1.3.0/src/v0.8/functions/v1_0_0/libraries/FunctionsRequest.sol\":5827:5975  function setArgs(Request memory self, string[] memory args) internal pure {... */\n      pop\n      pop\n      jump\t// out\n        /* \"@chainlink/contracts@1.3.0/src/v0.8/functions/v1_0_0/libraries/FunctionsRequest.sol\":2158:3428  function encodeCBOR(Request memory self) internal pure returns (bytes memory) {... */\n    tag_93:\n        /* \"@chainlink/contracts@1.3.0/src/v0.8/functions/v1_0_0/libraries/FunctionsRequest.sol\":2222:2234  bytes memory */\n      0x60\n        /* \"@chainlink/contracts@1.3.0/src/v0.8/functions/v1_0_0/libraries/FunctionsRequest.sol\":2242:2271  CBOR.CBORBuffer memory buffer */\n      0x00\n        /* \"@chainlink/contracts@1.3.0/src/v0.8/functions/v1_0_0/libraries/FunctionsRequest.sol\":2274:2306  CBOR.create(DEFAULT_BUFFER_SIZE) */\n      tag_114\n        /* \"@chainlink/contracts@1.3.0/src/v0.8/functions/v1_0_0/libraries/FunctionsRequest.sol\":375:378  256 */\n      0x0100\n        /* \"@chainlink/contracts@1.3.0/src/v0.8/functions/v1_0_0/libraries/FunctionsRequest.sol\":2274:2285  CBOR.create */\n      tag_115\n        /* \"@chainlink/contracts@1.3.0/src/v0.8/functions/v1_0_0/libraries/FunctionsRequest.sol\":2274:2306  CBOR.create(DEFAULT_BUFFER_SIZE) */\n      jump\t// in\n    tag_114:\n        /* \"@chainlink/contracts@1.3.0/src/v0.8/functions/v1_0_0/libraries/FunctionsRequest.sol\":2242:2306  CBOR.CBORBuffer memory buffer = CBOR.create(DEFAULT_BUFFER_SIZE) */\n      swap1\n      pop\n        /* \"@chainlink/contracts@1.3.0/src/v0.8/functions/v1_0_0/libraries/FunctionsRequest.sol\":2313:2347  buffer.writeString(\"codeLocation\") */\n      tag_116\n      mload(0x40)\n      dup1\n      0x40\n      add\n      0x40\n      mstore\n      dup1\n      0x0c\n      dup2\n      mstore\n      0x20\n      add\n      0x636f64654c6f636174696f6e0000000000000000000000000000000000000000\n      dup2\n      mstore\n      pop\n        /* \"@chainlink/contracts@1.3.0/src/v0.8/functions/v1_0_0/libraries/FunctionsRequest.sol\":2313:2319  buffer */\n      dup3\n        /* \"@chainlink/contracts@1.3.0/src/v0.8/functions/v1_0_0/libraries/FunctionsRequest.sol\":2313:2331  buffer.writeString */\n      tag_117\n      swap1\n        /* \"@chainlink/contracts@1.3.0/src/v0.8/functions/v1_0_0/libraries/FunctionsRequest.sol\":2313:2347  buffer.writeString(\"codeLocation\") */\n      swap2\n      swap1\n      0xffffffff\n      and\n      jump\t// in\n    tag_116:\n        /* \"@chainlink/contracts@1.3.0/src/v0.8/functions/v1_0_0/libraries/FunctionsRequest.sol\":2353:2400  buffer.writeUInt256(uint256(self.codeLocation)) */\n      tag_118\n        /* \"@chainlink/contracts@1.3.0/src/v0.8/functions/v1_0_0/libraries/FunctionsRequest.sol\":2381:2385  self */\n      dup4\n        /* \"@chainlink/contracts@1.3.0/src/v0.8/functions/v1_0_0/libraries/FunctionsRequest.sol\":2381:2398  self.codeLocation */\n      0x00\n      add\n      mload\n        /* \"@chainlink/contracts@1.3.0/src/v0.8/functions/v1_0_0/libraries/FunctionsRequest.sol\":2373:2399  uint256(self.codeLocation) */\n      0x02\n      dup2\n      gt\n      iszero\n      tag_119\n      jumpi\n      tag_120\n      tag_121\n      jump\t// in\n    tag_120:\n    tag_119:\n        /* \"@chainlink/contracts@1.3.0/src/v0.8/functions/v1_0_0/libraries/FunctionsRequest.sol\":2353:2359  buffer */\n      dup3\n        /* \"@chainlink/contracts@1.3.0/src/v0.8/functions/v1_0_0/libraries/FunctionsRequest.sol\":2353:2372  buffer.writeUInt256 */\n      tag_122\n      swap1\n        /* \"@chainlink/contracts@1.3.0/src/v0.8/functions/v1_0_0/libraries/FunctionsRequest.sol\":2353:2400  buffer.writeUInt256(uint256(self.codeLocation)) */\n      swap2\n      swap1\n      0xffffffff\n      and\n      jump\t// in\n    tag_118:\n        /* \"@chainlink/contracts@1.3.0/src/v0.8/functions/v1_0_0/libraries/FunctionsRequest.sol\":2407:2437  buffer.writeString(\"language\") */\n      tag_123\n      mload(0x40)\n      dup1\n      0x40\n      add\n      0x40\n      mstore\n      dup1\n      0x08\n      dup2\n      mstore\n      0x20\n      add\n      0x6c616e6775616765000000000000000000000000000000000000000000000000\n      dup2\n      mstore\n      pop\n        /* \"@chainlink/contracts@1.3.0/src/v0.8/functions/v1_0_0/libraries/FunctionsRequest.sol\":2407:2413  buffer */\n      dup3\n        /* \"@chainlink/contracts@1.3.0/src/v0.8/functions/v1_0_0/libraries/FunctionsRequest.sol\":2407:2425  buffer.writeString */\n      tag_117\n      swap1\n        /* \"@chainlink/contracts@1.3.0/src/v0.8/functions/v1_0_0/libraries/FunctionsRequest.sol\":2407:2437  buffer.writeString(\"language\") */\n      swap2\n      swap1\n      0xffffffff\n      and\n      jump\t// in\n    tag_123:\n        /* \"@chainlink/contracts@1.3.0/src/v0.8/functions/v1_0_0/libraries/FunctionsRequest.sol\":2443:2486  buffer.writeUInt256(uint256(self.language)) */\n      tag_124\n        /* \"@chainlink/contracts@1.3.0/src/v0.8/functions/v1_0_0/libraries/FunctionsRequest.sol\":2471:2475  self */\n      dup4\n        /* \"@chainlink/contracts@1.3.0/src/v0.8/functions/v1_0_0/libraries/FunctionsRequest.sol\":2471:2484  self.language */\n      0x40\n      add\n      mload\n        /* \"@chainlink/contracts@1.3.0/src/v0.8/functions/v1_0_0/libraries/FunctionsRequest.sol\":2463:2485  uint256(self.language) */\n      0x00\n      dup2\n      gt\n      iszero\n      tag_125\n      jumpi\n      tag_126\n      tag_121\n      jump\t// in\n    tag_126:\n    tag_125:\n        /* \"@chainlink/contracts@1.3.0/src/v0.8/functions/v1_0_0/libraries/FunctionsRequest.sol\":2443:2449  buffer */\n      dup3\n        /* \"@chainlink/contracts@1.3.0/src/v0.8/functions/v1_0_0/libraries/FunctionsRequest.sol\":2443:2462  buffer.writeUInt256 */\n      tag_122\n      swap1\n        /* \"@chainlink/contracts@1.3.0/src/v0.8/functions/v1_0_0/libraries/FunctionsRequest.sol\":2443:2486  buffer.writeUInt256(uint256(self.language)) */\n      swap2\n      swap1\n      0xffffffff\n      and\n      jump\t// in\n    tag_124:\n        /* \"@chainlink/contracts@1.3.0/src/v0.8/functions/v1_0_0/libraries/FunctionsRequest.sol\":2493:2521  buffer.writeString(\"source\") */\n      tag_127\n      mload(0x40)\n      dup1\n      0x40\n      add\n      0x40\n      mstore\n      dup1\n      0x06\n      dup2\n      mstore\n      0x20\n      add\n      0x736f757263650000000000000000000000000000000000000000000000000000\n      dup2\n      mstore\n      pop\n        /* \"@chainlink/contracts@1.3.0/src/v0.8/functions/v1_0_0/libraries/FunctionsRequest.sol\":2493:2499  buffer */\n      dup3\n        /* \"@chainlink/contracts@1.3.0/src/v0.8/functions/v1_0_0/libraries/FunctionsRequest.sol\":2493:2511  buffer.writeString */\n      tag_117\n      swap1\n        /* \"@chainlink/contracts@1.3.0/src/v0.8/functions/v1_0_0/libraries/FunctionsRequest.sol\":2493:2521  buffer.writeString(\"source\") */\n      swap2\n      swap1\n      0xffffffff\n      and\n      jump\t// in\n    tag_127:\n        /* \"@chainlink/contracts@1.3.0/src/v0.8/functions/v1_0_0/libraries/FunctionsRequest.sol\":2527:2558  buffer.writeString(self.source) */\n      tag_128\n        /* \"@chainlink/contracts@1.3.0/src/v0.8/functions/v1_0_0/libraries/FunctionsRequest.sol\":2546:2550  self */\n      dup4\n        /* \"@chainlink/contracts@1.3.0/src/v0.8/functions/v1_0_0/libraries/FunctionsRequest.sol\":2546:2557  self.source */\n      0x60\n      add\n      mload\n        /* \"@chainlink/contracts@1.3.0/src/v0.8/functions/v1_0_0/libraries/FunctionsRequest.sol\":2527:2533  buffer */\n      dup3\n        /* \"@chainlink/contracts@1.3.0/src/v0.8/functions/v1_0_0/libraries/FunctionsRequest.sol\":2527:2545  buffer.writeString */\n      tag_117\n      swap1\n        /* \"@chainlink/contracts@1.3.0/src/v0.8/functions/v1_0_0/libraries/FunctionsRequest.sol\":2527:2558  buffer.writeString(self.source) */\n      swap2\n      swap1\n      0xffffffff\n      and\n      jump\t// in\n    tag_128:\n        /* \"@chainlink/contracts@1.3.0/src/v0.8/functions/v1_0_0/libraries/FunctionsRequest.sol\":2588:2589  0 */\n      0x00\n        /* \"@chainlink/contracts@1.3.0/src/v0.8/functions/v1_0_0/libraries/FunctionsRequest.sol\":2569:2573  self */\n      dup4\n        /* \"@chainlink/contracts@1.3.0/src/v0.8/functions/v1_0_0/libraries/FunctionsRequest.sol\":2569:2578  self.args */\n      0xa0\n      add\n      mload\n        /* \"@chainlink/contracts@1.3.0/src/v0.8/functions/v1_0_0/libraries/FunctionsRequest.sol\":2569:2585  self.args.length */\n      mload\n        /* \"@chainlink/contracts@1.3.0/src/v0.8/functions/v1_0_0/libraries/FunctionsRequest.sol\":2569:2589  self.args.length > 0 */\n      gt\n        /* \"@chainlink/contracts@1.3.0/src/v0.8/functions/v1_0_0/libraries/FunctionsRequest.sol\":2565:2792  if (self.args.length > 0) {... */\n      iszero\n      tag_129\n      jumpi\n        /* \"@chainlink/contracts@1.3.0/src/v0.8/functions/v1_0_0/libraries/FunctionsRequest.sol\":2599:2625  buffer.writeString(\"args\") */\n      tag_130\n      mload(0x40)\n      dup1\n      0x40\n      add\n      0x40\n      mstore\n      dup1\n      0x04\n      dup2\n      mstore\n      0x20\n      add\n      0x6172677300000000000000000000000000000000000000000000000000000000\n      dup2\n      mstore\n      pop\n        /* \"@chainlink/contracts@1.3.0/src/v0.8/functions/v1_0_0/libraries/FunctionsRequest.sol\":2599:2605  buffer */\n      dup3\n        /* \"@chainlink/contracts@1.3.0/src/v0.8/functions/v1_0_0/libraries/FunctionsRequest.sol\":2599:2617  buffer.writeString */\n      tag_117\n      swap1\n        /* \"@chainlink/contracts@1.3.0/src/v0.8/functions/v1_0_0/libraries/FunctionsRequest.sol\":2599:2625  buffer.writeString(\"args\") */\n      swap2\n      swap1\n      0xffffffff\n      and\n      jump\t// in\n    tag_130:\n        /* \"@chainlink/contracts@1.3.0/src/v0.8/functions/v1_0_0/libraries/FunctionsRequest.sol\":2633:2652  buffer.startArray() */\n      tag_131\n        /* \"@chainlink/contracts@1.3.0/src/v0.8/functions/v1_0_0/libraries/FunctionsRequest.sol\":2633:2639  buffer */\n      dup2\n        /* \"@chainlink/contracts@1.3.0/src/v0.8/functions/v1_0_0/libraries/FunctionsRequest.sol\":2633:2650  buffer.startArray */\n      tag_132\n        /* \"@chainlink/contracts@1.3.0/src/v0.8/functions/v1_0_0/libraries/FunctionsRequest.sol\":2633:2652  buffer.startArray() */\n      jump\t// in\n    tag_131:\n        /* \"@chainlink/contracts@1.3.0/src/v0.8/functions/v1_0_0/libraries/FunctionsRequest.sol\":2665:2674  uint256 i */\n      0x00\n        /* \"@chainlink/contracts@1.3.0/src/v0.8/functions/v1_0_0/libraries/FunctionsRequest.sol\":2677:2678  0 */\n      0x00\n        /* \"@chainlink/contracts@1.3.0/src/v0.8/functions/v1_0_0/libraries/FunctionsRequest.sol\":2665:2678  uint256 i = 0 */\n      swap1\n      pop\n        /* \"@chainlink/contracts@1.3.0/src/v0.8/functions/v1_0_0/libraries/FunctionsRequest.sol\":2660:2758  for (uint256 i = 0; i < self.args.length; ++i) {... */\n    tag_133:\n        /* \"@chainlink/contracts@1.3.0/src/v0.8/functions/v1_0_0/libraries/FunctionsRequest.sol\":2684:2688  self */\n      dup4\n        /* \"@chainlink/contracts@1.3.0/src/v0.8/functions/v1_0_0/libraries/FunctionsRequest.sol\":2684:2693  self.args */\n      0xa0\n      add\n      mload\n        /* \"@chainlink/contracts@1.3.0/src/v0.8/functions/v1_0_0/libraries/FunctionsRequest.sol\":2684:2700  self.args.length */\n      mload\n        /* \"@chainlink/contracts@1.3.0/src/v0.8/functions/v1_0_0/libraries/FunctionsRequest.sol\":2680:2681  i */\n      dup2\n        /* \"@chainlink/contracts@1.3.0/src/v0.8/functions/v1_0_0/libraries/FunctionsRequest.sol\":2680:2700  i < self.args.length */\n      lt\n        /* \"@chainlink/contracts@1.3.0/src/v0.8/functions/v1_0_0/libraries/FunctionsRequest.sol\":2660:2758  for (uint256 i = 0; i < self.args.length; ++i) {... */\n      iszero\n      tag_134\n      jumpi\n        /* \"@chainlink/contracts@1.3.0/src/v0.8/functions/v1_0_0/libraries/FunctionsRequest.sol\":2717:2749  buffer.writeString(self.args[i]) */\n      tag_136\n        /* \"@chainlink/contracts@1.3.0/src/v0.8/functions/v1_0_0/libraries/FunctionsRequest.sol\":2736:2740  self */\n      dup5\n        /* \"@chainlink/contracts@1.3.0/src/v0.8/functions/v1_0_0/libraries/FunctionsRequest.sol\":2736:2745  self.args */\n      0xa0\n      add\n      mload\n        /* \"@chainlink/contracts@1.3.0/src/v0.8/functions/v1_0_0/libraries/FunctionsRequest.sol\":2746:2747  i */\n      dup3\n        /* \"@chainlink/contracts@1.3.0/src/v0.8/functions/v1_0_0/libraries/FunctionsRequest.sol\":2736:2748  self.args[i] */\n      dup2\n      mload\n      dup2\n      lt\n      tag_137\n      jumpi\n      tag_138\n      tag_88\n      jump\t// in\n    tag_138:\n    tag_137:\n      0x20\n      mul\n      0x20\n      add\n      add\n      mload\n        /* \"@chainlink/contracts@1.3.0/src/v0.8/functions/v1_0_0/libraries/FunctionsRequest.sol\":2717:2723  buffer */\n      dup4\n        /* \"@chainlink/contracts@1.3.0/src/v0.8/functions/v1_0_0/libraries/FunctionsRequest.sol\":2717:2735  buffer.writeString */\n      tag_117\n      swap1\n        /* \"@chainlink/contracts@1.3.0/src/v0.8/functions/v1_0_0/libraries/FunctionsRequest.sol\":2717:2749  buffer.writeString(self.args[i]) */\n      swap2\n      swap1\n      0xffffffff\n      and\n      jump\t// in\n    tag_136:\n        /* \"@chainlink/contracts@1.3.0/src/v0.8/functions/v1_0_0/libraries/FunctionsRequest.sol\":2702:2705  ++i */\n      dup1\n      0x01\n      add\n      swap1\n      pop\n        /* \"@chainlink/contracts@1.3.0/src/v0.8/functions/v1_0_0/libraries/FunctionsRequest.sol\":2660:2758  for (uint256 i = 0; i < self.args.length; ++i) {... */\n      jump(tag_133)\n    tag_134:\n      pop\n        /* \"@chainlink/contracts@1.3.0/src/v0.8/functions/v1_0_0/libraries/FunctionsRequest.sol\":2765:2785  buffer.endSequence() */\n      tag_139\n        /* \"@chainlink/contracts@1.3.0/src/v0.8/functions/v1_0_0/libraries/FunctionsRequest.sol\":2765:2771  buffer */\n      dup2\n        /* \"@chainlink/contracts@1.3.0/src/v0.8/functions/v1_0_0/libraries/FunctionsRequest.sol\":2765:2783  buffer.endSequence */\n      tag_140\n        /* \"@chainlink/contracts@1.3.0/src/v0.8/functions/v1_0_0/libraries/FunctionsRequest.sol\":2765:2785  buffer.endSequence() */\n      jump\t// in\n    tag_139:\n        /* \"@chainlink/contracts@1.3.0/src/v0.8/functions/v1_0_0/libraries/FunctionsRequest.sol\":2565:2792  if (self.args.length > 0) {... */\n    tag_129:\n        /* \"@chainlink/contracts@1.3.0/src/v0.8/functions/v1_0_0/libraries/FunctionsRequest.sol\":2842:2843  0 */\n      0x00\n        /* \"@chainlink/contracts@1.3.0/src/v0.8/functions/v1_0_0/libraries/FunctionsRequest.sol\":2802:2806  self */\n      dup4\n        /* \"@chainlink/contracts@1.3.0/src/v0.8/functions/v1_0_0/libraries/FunctionsRequest.sol\":2802:2832  self.encryptedSecretsReference */\n      0x80\n      add\n      mload\n        /* \"@chainlink/contracts@1.3.0/src/v0.8/functions/v1_0_0/libraries/FunctionsRequest.sol\":2802:2839  self.encryptedSecretsReference.length */\n      mload\n        /* \"@chainlink/contracts@1.3.0/src/v0.8/functions/v1_0_0/libraries/FunctionsRequest.sol\":2802:2843  self.encryptedSecretsReference.length > 0 */\n      gt\n        /* \"@chainlink/contracts@1.3.0/src/v0.8/functions/v1_0_0/libraries/FunctionsRequest.sol\":2798:3144  if (self.encryptedSecretsReference.length > 0) {... */\n      iszero\n      tag_141\n      jumpi\n        /* \"@chainlink/contracts@1.3.0/src/v0.8/functions/v1_0_0/libraries/FunctionsRequest.sol\":2881:2896  Location.Inline */\n      0x00\n        /* \"@chainlink/contracts@1.3.0/src/v0.8/functions/v1_0_0/libraries/FunctionsRequest.sol\":2857:2896  self.secretsLocation == Location.Inline */\n      0x02\n      dup2\n      gt\n      iszero\n      tag_142\n      jumpi\n      tag_143\n      tag_121\n      jump\t// in\n    tag_143:\n    tag_142:\n        /* \"@chainlink/contracts@1.3.0/src/v0.8/functions/v1_0_0/libraries/FunctionsRequest.sol\":2857:2861  self */\n      dup4\n        /* \"@chainlink/contracts@1.3.0/src/v0.8/functions/v1_0_0/libraries/FunctionsRequest.sol\":2857:2877  self.secretsLocation */\n      0x20\n      add\n      mload\n        /* \"@chainlink/contracts@1.3.0/src/v0.8/functions/v1_0_0/libraries/FunctionsRequest.sol\":2857:2896  self.secretsLocation == Location.Inline */\n      0x02\n      dup2\n      gt\n      iszero\n      tag_144\n      jumpi\n      tag_145\n      tag_121\n      jump\t// in\n    tag_145:\n    tag_144:\n      sub\n        /* \"@chainlink/contracts@1.3.0/src/v0.8/functions/v1_0_0/libraries/FunctionsRequest.sol\":2853:2941  if (self.secretsLocation == Location.Inline) {... */\n      tag_146\n      jumpi\n        /* \"@chainlink/contracts@1.3.0/src/v0.8/functions/v1_0_0/libraries/FunctionsRequest.sol\":2915:2932  NoInlineSecrets() */\n      mload(0x40)\n      0xa80d31f700000000000000000000000000000000000000000000000000000000\n      dup2\n      mstore\n      0x04\n      add\n      mload(0x40)\n      dup1\n      swap2\n      sub\n      swap1\n      revert\n        /* \"@chainlink/contracts@1.3.0/src/v0.8/functions/v1_0_0/libraries/FunctionsRequest.sol\":2853:2941  if (self.secretsLocation == Location.Inline) {... */\n    tag_146:\n        /* \"@chainlink/contracts@1.3.0/src/v0.8/functions/v1_0_0/libraries/FunctionsRequest.sol\":2948:2985  buffer.writeString(\"secretsLocation\") */\n      tag_147\n      mload(0x40)\n      dup1\n      0x40\n      add\n      0x40\n      mstore\n      dup1\n      0x0f\n      dup2\n      mstore\n      0x20\n      add\n      0x736563726574734c6f636174696f6e0000000000000000000000000000000000\n      dup2\n      mstore\n      pop\n        /* \"@chainlink/contracts@1.3.0/src/v0.8/functions/v1_0_0/libraries/FunctionsRequest.sol\":2948:2954  buffer */\n      dup3\n        /* \"@chainlink/contracts@1.3.0/src/v0.8/functions/v1_0_0/libraries/FunctionsRequest.sol\":2948:2966  buffer.writeString */\n      tag_117\n      swap1\n        /* \"@chainlink/contracts@1.3.0/src/v0.8/functions/v1_0_0/libraries/FunctionsRequest.sol\":2948:2985  buffer.writeString(\"secretsLocation\") */\n      swap2\n      swap1\n      0xffffffff\n      and\n      jump\t// in\n    tag_147:\n        /* \"@chainlink/contracts@1.3.0/src/v0.8/functions/v1_0_0/libraries/FunctionsRequest.sol\":2993:3043  buffer.writeUInt256(uint256(self.secretsLocation)) */\n      tag_148\n        /* \"@chainlink/contracts@1.3.0/src/v0.8/functions/v1_0_0/libraries/FunctionsRequest.sol\":3021:3025  self */\n      dup4\n        /* \"@chainlink/contracts@1.3.0/src/v0.8/functions/v1_0_0/libraries/FunctionsRequest.sol\":3021:3041  self.secretsLocation */\n      0x20\n      add\n      mload\n        /* \"@chainlink/contracts@1.3.0/src/v0.8/functions/v1_0_0/libraries/FunctionsRequest.sol\":3013:3042  uint256(self.secretsLocation) */\n      0x02\n      dup2\n      gt\n      iszero\n      tag_149\n      jumpi\n      tag_150\n      tag_121\n      jump\t// in\n    tag_150:\n    tag_149:\n        /* \"@chainlink/contracts@1.3.0/src/v0.8/functions/v1_0_0/libraries/FunctionsRequest.sol\":2993:2999  buffer */\n      dup3\n        /* \"@chainlink/contracts@1.3.0/src/v0.8/functions/v1_0_0/libraries/FunctionsRequest.sol\":2993:3012  buffer.writeUInt256 */\n      tag_122\n      swap1\n        /* \"@chainlink/contracts@1.3.0/src/v0.8/functions/v1_0_0/libraries/FunctionsRequest.sol\":2993:3043  buffer.writeUInt256(uint256(self.secretsLocation)) */\n      swap2\n      swap1\n      0xffffffff\n      and\n      jump\t// in\n    tag_148:\n        /* \"@chainlink/contracts@1.3.0/src/v0.8/functions/v1_0_0/libraries/FunctionsRequest.sol\":3051:3080  buffer.writeString(\"secrets\") */\n      tag_151\n      mload(0x40)\n      dup1\n      0x40\n      add\n      0x40\n      mstore\n      dup1\n      0x07\n      dup2\n      mstore\n      0x20\n      add\n      0x7365637265747300000000000000000000000000000000000000000000000000\n      dup2\n      mstore\n      pop\n        /* \"@chainlink/contracts@1.3.0/src/v0.8/functions/v1_0_0/libraries/FunctionsRequest.sol\":3051:3057  buffer */\n      dup3\n        /* \"@chainlink/contracts@1.3.0/src/v0.8/functions/v1_0_0/libraries/FunctionsRequest.sol\":3051:3069  buffer.writeString */\n      tag_117\n      swap1\n        /* \"@chainlink/contracts@1.3.0/src/v0.8/functions/v1_0_0/libraries/FunctionsRequest.sol\":3051:3080  buffer.writeString(\"secrets\") */\n      swap2\n      swap1\n      0xffffffff\n      and\n      jump\t// in\n    tag_151:\n        /* \"@chainlink/contracts@1.3.0/src/v0.8/functions/v1_0_0/libraries/FunctionsRequest.sol\":3088:3137  buffer.writeBytes(self.encryptedSecretsReference) */\n      tag_152\n        /* \"@chainlink/contracts@1.3.0/src/v0.8/functions/v1_0_0/libraries/FunctionsRequest.sol\":3106:3110  self */\n      dup4\n        /* \"@chainlink/contracts@1.3.0/src/v0.8/functions/v1_0_0/libraries/FunctionsRequest.sol\":3106:3136  self.encryptedSecretsReference */\n      0x80\n      add\n      mload\n        /* \"@chainlink/contracts@1.3.0/src/v0.8/functions/v1_0_0/libraries/FunctionsRequest.sol\":3088:3094  buffer */\n      dup3\n        /* \"@chainlink/contracts@1.3.0/src/v0.8/functions/v1_0_0/libraries/FunctionsRequest.sol\":3088:3105  buffer.writeBytes */\n      tag_153\n      swap1\n        /* \"@chainlink/contracts@1.3.0/src/v0.8/functions/v1_0_0/libraries/FunctionsRequest.sol\":3088:3137  buffer.writeBytes(self.encryptedSecretsReference) */\n      swap2\n      swap1\n      0xffffffff\n      and\n      jump\t// in\n    tag_152:\n        /* \"@chainlink/contracts@1.3.0/src/v0.8/functions/v1_0_0/libraries/FunctionsRequest.sol\":2798:3144  if (self.encryptedSecretsReference.length > 0) {... */\n    tag_141:\n        /* \"@chainlink/contracts@1.3.0/src/v0.8/functions/v1_0_0/libraries/FunctionsRequest.sol\":3178:3179  0 */\n      0x00\n        /* \"@chainlink/contracts@1.3.0/src/v0.8/functions/v1_0_0/libraries/FunctionsRequest.sol\":3154:3158  self */\n      dup4\n        /* \"@chainlink/contracts@1.3.0/src/v0.8/functions/v1_0_0/libraries/FunctionsRequest.sol\":3154:3168  self.bytesArgs */\n      0xc0\n      add\n      mload\n        /* \"@chainlink/contracts@1.3.0/src/v0.8/functions/v1_0_0/libraries/FunctionsRequest.sol\":3154:3175  self.bytesArgs.length */\n      mload\n        /* \"@chainlink/contracts@1.3.0/src/v0.8/functions/v1_0_0/libraries/FunctionsRequest.sol\":3154:3179  self.bytesArgs.length > 0 */\n      gt\n        /* \"@chainlink/contracts@1.3.0/src/v0.8/functions/v1_0_0/libraries/FunctionsRequest.sol\":3150:3396  if (self.bytesArgs.length > 0) {... */\n      iszero\n      tag_154\n      jumpi\n        /* \"@chainlink/contracts@1.3.0/src/v0.8/functions/v1_0_0/libraries/FunctionsRequest.sol\":3189:3220  buffer.writeString(\"bytesArgs\") */\n      tag_155\n      mload(0x40)\n      dup1\n      0x40\n      add\n      0x40\n      mstore\n      dup1\n      0x09\n      dup2\n      mstore\n      0x20\n      add\n      0x6279746573417267730000000000000000000000000000000000000000000000\n      dup2\n      mstore\n      pop\n        /* \"@chainlink/contracts@1.3.0/src/v0.8/functions/v1_0_0/libraries/FunctionsRequest.sol\":3189:3195  buffer */\n      dup3\n        /* \"@chainlink/contracts@1.3.0/src/v0.8/functions/v1_0_0/libraries/FunctionsRequest.sol\":3189:3207  buffer.writeString */\n      tag_117\n      swap1\n        /* \"@chainlink/contracts@1.3.0/src/v0.8/functions/v1_0_0/libraries/FunctionsRequest.sol\":3189:3220  buffer.writeString(\"bytesArgs\") */\n      swap2\n      swap1\n      0xffffffff\n      and\n      jump\t// in\n    tag_155:\n        /* \"@chainlink/contracts@1.3.0/src/v0.8/functions/v1_0_0/libraries/FunctionsRequest.sol\":3228:3247  buffer.startArray() */\n      tag_156\n        /* \"@chainlink/contracts@1.3.0/src/v0.8/functions/v1_0_0/libraries/FunctionsRequest.sol\":3228:3234  buffer */\n      dup2\n        /* \"@chainlink/contracts@1.3.0/src/v0.8/functions/v1_0_0/libraries/FunctionsRequest.sol\":3228:3245  buffer.startArray */\n      tag_132\n        /* \"@chainlink/contracts@1.3.0/src/v0.8/functions/v1_0_0/libraries/FunctionsRequest.sol\":3228:3247  buffer.startArray() */\n      jump\t// in\n    tag_156:\n        /* \"@chainlink/contracts@1.3.0/src/v0.8/functions/v1_0_0/libraries/FunctionsRequest.sol\":3260:3269  uint256 i */\n      0x00\n        /* \"@chainlink/contracts@1.3.0/src/v0.8/functions/v1_0_0/libraries/FunctionsRequest.sol\":3272:3273  0 */\n      0x00\n        /* \"@chainlink/contracts@1.3.0/src/v0.8/functions/v1_0_0/libraries/FunctionsRequest.sol\":3260:3273  uint256 i = 0 */\n      swap1\n      pop\n        /* \"@chainlink/contracts@1.3.0/src/v0.8/functions/v1_0_0/libraries/FunctionsRequest.sol\":3255:3362  for (uint256 i = 0; i < self.bytesArgs.length; ++i) {... */\n    tag_157:\n        /* \"@chainlink/contracts@1.3.0/src/v0.8/functions/v1_0_0/libraries/FunctionsRequest.sol\":3279:3283  self */\n      dup4\n        /* \"@chainlink/contracts@1.3.0/src/v0.8/functions/v1_0_0/libraries/FunctionsRequest.sol\":3279:3293  self.bytesArgs */\n      0xc0\n      add\n      mload\n        /* \"@chainlink/contracts@1.3.0/src/v0.8/functions/v1_0_0/libraries/FunctionsRequest.sol\":3279:3300  self.bytesArgs.length */\n      mload\n        /* \"@chainlink/contracts@1.3.0/src/v0.8/functions/v1_0_0/libraries/FunctionsRequest.sol\":3275:3276  i */\n      dup2\n        /* \"@chainlink/contracts@1.3.0/src/v0.8/functions/v1_0_0/libraries/FunctionsRequest.sol\":3275:3300  i < self.bytesArgs.length */\n      lt\n        /* \"@chainlink/contracts@1.3.0/src/v0.8/functions/v1_0_0/libraries/FunctionsRequest.sol\":3255:3362  for (uint256 i = 0; i < self.bytesArgs.length; ++i) {... */\n      iszero\n      tag_158\n      jumpi\n        /* \"@chainlink/contracts@1.3.0/src/v0.8/functions/v1_0_0/libraries/FunctionsRequest.sol\":3317:3353  buffer.writeBytes(self.bytesArgs[i]) */\n      tag_160\n        /* \"@chainlink/contracts@1.3.0/src/v0.8/functions/v1_0_0/libraries/FunctionsRequest.sol\":3335:3339  self */\n      dup5\n        /* \"@chainlink/contracts@1.3.0/src/v0.8/functions/v1_0_0/libraries/FunctionsRequest.sol\":3335:3349  self.bytesArgs */\n      0xc0\n      add\n      mload\n        /* \"@chainlink/contracts@1.3.0/src/v0.8/functions/v1_0_0/libraries/FunctionsRequest.sol\":3350:3351  i */\n      dup3\n        /* \"@chainlink/contracts@1.3.0/src/v0.8/functions/v1_0_0/libraries/FunctionsRequest.sol\":3335:3352  self.bytesArgs[i] */\n      dup2\n      mload\n      dup2\n      lt\n      tag_161\n      jumpi\n      tag_162\n      tag_88\n      jump\t// in\n    tag_162:\n    tag_161:\n      0x20\n      mul\n      0x20\n      add\n      add\n      mload\n        /* \"@chainlink/contracts@1.3.0/src/v0.8/functions/v1_0_0/libraries/FunctionsRequest.sol\":3317:3323  buffer */\n      dup4\n        /* \"@chainlink/contracts@1.3.0/src/v0.8/functions/v1_0_0/libraries/FunctionsRequest.sol\":3317:3334  buffer.writeBytes */\n      tag_153\n      swap1\n        /* \"@chainlink/contracts@1.3.0/src/v0.8/functions/v1_0_0/libraries/FunctionsRequest.sol\":3317:3353  buffer.writeBytes(self.bytesArgs[i]) */\n      swap2\n      swap1\n      0xffffffff\n      and\n      jump\t// in\n    tag_160:\n        /* \"@chainlink/contracts@1.3.0/src/v0.8/functions/v1_0_0/libraries/FunctionsRequest.sol\":3302:3305  ++i */\n      dup1\n      0x01\n      add\n      swap1\n      pop\n        /* \"@chainlink/contracts@1.3.0/src/v0.8/functions/v1_0_0/libraries/FunctionsRequest.sol\":3255:3362  for (uint256 i = 0; i < self.bytesArgs.length; ++i) {... */\n      jump(tag_157)\n    tag_158:\n      pop\n        /* \"@chainlink/contracts@1.3.0/src/v0.8/functions/v1_0_0/libraries/FunctionsRequest.sol\":3369:3389  buffer.endSequence() */\n      tag_163\n        /* \"@chainlink/contracts@1.3.0/src/v0.8/functions/v1_0_0/libraries/FunctionsRequest.sol\":3369:3375  buffer */\n      dup2\n        /* \"@chainlink/contracts@1.3.0/src/v0.8/functions/v1_0_0/libraries/FunctionsRequest.sol\":3369:3387  buffer.endSequence */\n      tag_140\n        /* \"@chainlink/contracts@1.3.0/src/v0.8/functions/v1_0_0/libraries/FunctionsRequest.sol\":3369:3389  buffer.endSequence() */\n      jump\t// in\n    tag_163:\n        /* \"@chainlink/contracts@1.3.0/src/v0.8/functions/v1_0_0/libraries/FunctionsRequest.sol\":3150:3396  if (self.bytesArgs.length > 0) {... */\n    tag_154:\n        /* \"@chainlink/contracts@1.3.0/src/v0.8/functions/v1_0_0/libraries/FunctionsRequest.sol\":3409:3415  buffer */\n      dup1\n        /* \"@chainlink/contracts@1.3.0/src/v0.8/functions/v1_0_0/libraries/FunctionsRequest.sol\":3409:3419  buffer.buf */\n      0x00\n      add\n      mload\n        /* \"@chainlink/contracts@1.3.0/src/v0.8/functions/v1_0_0/libraries/FunctionsRequest.sol\":3409:3423  buffer.buf.buf */\n      0x00\n      add\n      mload\n        /* \"@chainlink/contracts@1.3.0/src/v0.8/functions/v1_0_0/libraries/FunctionsRequest.sol\":3402:3423  return buffer.buf.buf */\n      swap2\n      pop\n      pop\n        /* \"@chainlink/contracts@1.3.0/src/v0.8/functions/v1_0_0/libraries/FunctionsRequest.sol\":2158:3428  function encodeCBOR(Request memory self) internal pure returns (bytes memory) {... */\n      swap2\n      swap1\n      pop\n      jump\t// out\n        /* \"@chainlink/contracts@1.3.0/src/v0.8/functions/v1_0_0/FunctionsClient.sol\":1158:1537  function _sendRequest(... */\n    tag_94:\n        /* \"@chainlink/contracts@1.3.0/src/v0.8/functions/v1_0_0/FunctionsClient.sol\":1300:1307  bytes32 */\n      0x00\n        /* \"@chainlink/contracts@1.3.0/src/v0.8/functions/v1_0_0/FunctionsClient.sol\":1315:1332  bytes32 requestId */\n      0x00\n        /* \"@chainlink/contracts@1.3.0/src/v0.8/functions/v1_0_0/FunctionsClient.sol\":1335:1343  i_router */\n      immutable(\"0x8e8fab5f003314da8d1873ea7720e8d9f47650136d916064d1edb8a11d682624\")\n        /* \"@chainlink/contracts@1.3.0/src/v0.8/functions/v1_0_0/FunctionsClient.sol\":1335:1355  i_router.sendRequest */\n      0xffffffffffffffffffffffffffffffffffffffff\n      and\n      0x461d2762\n        /* \"@chainlink/contracts@1.3.0/src/v0.8/functions/v1_0_0/FunctionsClient.sol\":1363:1377  subscriptionId */\n      dup7\n        /* \"@chainlink/contracts@1.3.0/src/v0.8/functions/v1_0_0/FunctionsClient.sol\":1385:1389  data */\n      dup9\n        /* \"@chainlink/contracts@1.3.0/src/v0.8/functions/v1_0_0/libraries/FunctionsRequest.sol\":322:323  1 */\n      0x01\n        /* \"@chainlink/contracts@1.3.0/src/v0.8/functions/v1_0_0/FunctionsClient.sol\":1442:1458  callbackGasLimit */\n      dup9\n        /* \"@chainlink/contracts@1.3.0/src/v0.8/functions/v1_0_0/FunctionsClient.sol\":1466:1471  donId */\n      dup9\n        /* \"@chainlink/contracts@1.3.0/src/v0.8/functions/v1_0_0/FunctionsClient.sol\":1335:1477  i_router.sendRequest(... */\n      mload(0x40)\n      dup7\n      0xffffffff\n      and\n      0xe0\n      shl\n      dup2\n      mstore\n      0x04\n      add\n      tag_165\n      swap6\n      swap5\n      swap4\n      swap3\n      swap2\n      swap1\n      tag_166\n      jump\t// in\n    tag_165:\n      0x20\n      mload(0x40)\n      dup1\n      dup4\n      sub\n      dup2\n      0x00\n      dup8\n      gas\n      call\n      iszero\n      dup1\n      iszero\n      tag_168\n      jumpi\n      returndatacopy(0x00, 0x00, returndatasize)\n      revert(0x00, returndatasize)\n    tag_168:\n      pop\n      pop\n      pop\n      pop\n      mload(0x40)\n      returndatasize\n      not(0x1f)\n      0x1f\n      dup3\n      add\n      and\n      dup3\n      add\n      dup1\n      0x40\n      mstore\n      pop\n      dup2\n      add\n      swap1\n      tag_169\n      swap2\n      swap1\n      tag_170\n      jump\t// in\n    tag_169:\n        /* \"@chainlink/contracts@1.3.0/src/v0.8/functions/v1_0_0/FunctionsClient.sol\":1315:1477  bytes32 requestId = i_router.sendRequest(... */\n      swap1\n      pop\n        /* \"@chainlink/contracts@1.3.0/src/v0.8/functions/v1_0_0/FunctionsClient.sol\":1500:1509  requestId */\n      dup1\n        /* \"@chainlink/contracts@1.3.0/src/v0.8/functions/v1_0_0/FunctionsClient.sol\":1488:1510  RequestSent(requestId) */\n      0x1131472297a800fee664d1d89cfa8f7676ff07189ecc53f80bbb5f4969099db8\n      mload(0x40)\n      mload(0x40)\n      dup1\n      swap2\n      sub\n      swap1\n      log2\n        /* \"@chainlink/contracts@1.3.0/src/v0.8/functions/v1_0_0/FunctionsClient.sol\":1523:1532  requestId */\n      dup1\n        /* \"@chainlink/contracts@1.3.0/src/v0.8/functions/v1_0_0/FunctionsClient.sol\":1516:1532  return requestId */\n      swap2\n      pop\n      pop\n        /* \"@chainlink/contracts@1.3.0/src/v0.8/functions/v1_0_0/FunctionsClient.sol\":1158:1537  function _sendRequest(... */\n      swap5\n      swap4\n      pop\n      pop\n      pop\n      pop\n      jump\t// out\n        /* \"@chainlink/contracts@1.3.0/src/v0.8/functions/v1_0_0/libraries/FunctionsRequest.sol\":3777:4084  function initializeRequest(... */\n    tag_110:\n        /* \"@chainlink/contracts@1.3.0/src/v0.8/functions/v1_0_0/libraries/FunctionsRequest.sol\":3961:3962  0 */\n      0x00\n        /* \"@chainlink/contracts@1.3.0/src/v0.8/functions/v1_0_0/libraries/FunctionsRequest.sol\":3943:3949  source */\n      dup2\n        /* \"@chainlink/contracts@1.3.0/src/v0.8/functions/v1_0_0/libraries/FunctionsRequest.sol\":3937:3957  bytes(source).length */\n      mload\n        /* \"@chainlink/contracts@1.3.0/src/v0.8/functions/v1_0_0/libraries/FunctionsRequest.sol\":3937:3962  bytes(source).length == 0 */\n      sub\n        /* \"@chainlink/contracts@1.3.0/src/v0.8/functions/v1_0_0/libraries/FunctionsRequest.sol\":3933:3984  if (bytes(source).length == 0) revert EmptySource() */\n      tag_172\n      jumpi\n        /* \"@chainlink/contracts@1.3.0/src/v0.8/functions/v1_0_0/libraries/FunctionsRequest.sol\":3971:3984  EmptySource() */\n      mload(0x40)\n      0x22ce3edd00000000000000000000000000000000000000000000000000000000\n      dup2\n      mstore\n      0x04\n      add\n      mload(0x40)\n      dup1\n      swap2\n      sub\n      swap1\n      revert\n        /* \"@chainlink/contracts@1.3.0/src/v0.8/functions/v1_0_0/libraries/FunctionsRequest.sol\":3933:3984  if (bytes(source).length == 0) revert EmptySource() */\n    tag_172:\n        /* \"@chainlink/contracts@1.3.0/src/v0.8/functions/v1_0_0/libraries/FunctionsRequest.sol\":4011:4023  codeLocation */\n      dup3\n        /* \"@chainlink/contracts@1.3.0/src/v0.8/functions/v1_0_0/libraries/FunctionsRequest.sol\":3991:3995  self */\n      dup5\n        /* \"@chainlink/contracts@1.3.0/src/v0.8/functions/v1_0_0/libraries/FunctionsRequest.sol\":3991:4008  self.codeLocation */\n      0x00\n      add\n        /* \"@chainlink/contracts@1.3.0/src/v0.8/functions/v1_0_0/libraries/FunctionsRequest.sol\":3991:4023  self.codeLocation = codeLocation */\n      swap1\n      0x02\n      dup2\n      gt\n      iszero\n      tag_173\n      jumpi\n      tag_174\n      tag_121\n      jump\t// in\n    tag_174:\n    tag_173:\n      swap1\n      dup2\n      0x02\n      dup2\n      gt\n      iszero\n      tag_175\n      jumpi\n      tag_176\n      tag_121\n      jump\t// in\n    tag_176:\n    tag_175:\n      dup2\n      mstore\n      pop\n      pop\n        /* \"@chainlink/contracts@1.3.0/src/v0.8/functions/v1_0_0/libraries/FunctionsRequest.sol\":4045:4053  language */\n      dup2\n        /* \"@chainlink/contracts@1.3.0/src/v0.8/functions/v1_0_0/libraries/FunctionsRequest.sol\":4029:4033  self */\n      dup5\n        /* \"@chainlink/contracts@1.3.0/src/v0.8/functions/v1_0_0/libraries/FunctionsRequest.sol\":4029:4042  self.language */\n      0x40\n      add\n        /* \"@chainlink/contracts@1.3.0/src/v0.8/functions/v1_0_0/libraries/FunctionsRequest.sol\":4029:4053  self.language = language */\n      swap1\n      0x00\n      dup2\n      gt\n      iszero\n      tag_177\n      jumpi\n      tag_178\n      tag_121\n      jump\t// in\n    tag_178:\n    tag_177:\n      swap1\n      dup2\n      0x00\n      dup2\n      gt\n      iszero\n      tag_179\n      jumpi\n      tag_180\n      tag_121\n      jump\t// in\n    tag_180:\n    tag_179:\n      dup2\n      mstore\n      pop\n      pop\n        /* \"@chainlink/contracts@1.3.0/src/v0.8/functions/v1_0_0/libraries/FunctionsRequest.sol\":4073:4079  source */\n      dup1\n        /* \"@chainlink/contracts@1.3.0/src/v0.8/functions/v1_0_0/libraries/FunctionsRequest.sol\":4059:4063  self */\n      dup5\n        /* \"@chainlink/contracts@1.3.0/src/v0.8/functions/v1_0_0/libraries/FunctionsRequest.sol\":4059:4070  self.source */\n      0x60\n      add\n        /* \"@chainlink/contracts@1.3.0/src/v0.8/functions/v1_0_0/libraries/FunctionsRequest.sol\":4059:4079  self.source = source */\n      dup2\n      swap1\n      mstore\n      pop\n        /* \"@chainlink/contracts@1.3.0/src/v0.8/functions/v1_0_0/libraries/FunctionsRequest.sol\":3777:4084  function initializeRequest(... */\n      pop\n      pop\n      pop\n      pop\n      jump\t// out\n        /* \"@chainlink/contracts@1.3.0/src/v0.8/vendor/solidity-cborutils/v2.0.0/CBOR.sol\":1490:1663  function create(uint256 capacity) internal pure returns(CBORBuffer memory cbor) {... */\n    tag_115:\n        /* \"@chainlink/contracts@1.3.0/src/v0.8/vendor/solidity-cborutils/v2.0.0/CBOR.sol\":1546:1568  CBORBuffer memory cbor */\n      tag_181\n      tag_182\n      jump\t// in\n    tag_181:\n        /* \"@chainlink/contracts@1.3.0/src/v0.8/vendor/solidity-cborutils/v2.0.0/CBOR.sol\":1580:1611  Buffer.init(cbor.buf, capacity) */\n      tag_184\n        /* \"@chainlink/contracts@1.3.0/src/v0.8/vendor/solidity-cborutils/v2.0.0/CBOR.sol\":1592:1596  cbor */\n      dup2\n        /* \"@chainlink/contracts@1.3.0/src/v0.8/vendor/solidity-cborutils/v2.0.0/CBOR.sol\":1592:1600  cbor.buf */\n      0x00\n      add\n      mload\n        /* \"@chainlink/contracts@1.3.0/src/v0.8/vendor/solidity-cborutils/v2.0.0/CBOR.sol\":1602:1610  capacity */\n      dup4\n        /* \"@chainlink/contracts@1.3.0/src/v0.8/vendor/solidity-cborutils/v2.0.0/CBOR.sol\":1580:1591  Buffer.init */\n      tag_185\n        /* \"@chainlink/contracts@1.3.0/src/v0.8/vendor/solidity-cborutils/v2.0.0/CBOR.sol\":1580:1611  Buffer.init(cbor.buf, capacity) */\n      jump\t// in\n    tag_184:\n      pop\n        /* \"@chainlink/contracts@1.3.0/src/v0.8/vendor/solidity-cborutils/v2.0.0/CBOR.sol\":1634:1635  0 */\n      0x00\n        /* \"@chainlink/contracts@1.3.0/src/v0.8/vendor/solidity-cborutils/v2.0.0/CBOR.sol\":1621:1625  cbor */\n      dup2\n        /* \"@chainlink/contracts@1.3.0/src/v0.8/vendor/solidity-cborutils/v2.0.0/CBOR.sol\":1621:1631  cbor.depth */\n      0x20\n      add\n        /* \"@chainlink/contracts@1.3.0/src/v0.8/vendor/solidity-cborutils/v2.0.0/CBOR.sol\":1621:1635  cbor.depth = 0 */\n      dup2\n      dup2\n      mstore\n      pop\n      pop\n        /* \"@chainlink/contracts@1.3.0/src/v0.8/vendor/solidity-cborutils/v2.0.0/CBOR.sol\":1490:1663  function create(uint256 capacity) internal pure returns(CBORBuffer memory cbor) {... */\n      swap2\n      swap1\n      pop\n      jump\t// out\n        /* \"@chainlink/contracts@1.3.0/src/v0.8/vendor/solidity-cborutils/v2.0.0/CBOR.sol\":3021:3225  function writeString(CBORBuffer memory buf, string memory value) internal pure {... */\n    tag_117:\n        /* \"@chainlink/contracts@1.3.0/src/v0.8/vendor/solidity-cborutils/v2.0.0/CBOR.sol\":3110:3180  writeFixedNumeric(buf, MAJOR_TYPE_STRING, uint64(bytes(value).length)) */\n      tag_187\n        /* \"@chainlink/contracts@1.3.0/src/v0.8/vendor/solidity-cborutils/v2.0.0/CBOR.sol\":3128:3131  buf */\n      dup3\n        /* \"@chainlink/contracts@1.3.0/src/v0.8/vendor/solidity-cborutils/v2.0.0/CBOR.sol\":998:999  3 */\n      0x03\n        /* \"@chainlink/contracts@1.3.0/src/v0.8/vendor/solidity-cborutils/v2.0.0/CBOR.sol\":3165:3170  value */\n      dup4\n        /* \"@chainlink/contracts@1.3.0/src/v0.8/vendor/solidity-cborutils/v2.0.0/CBOR.sol\":3159:3178  bytes(value).length */\n      mload\n        /* \"@chainlink/contracts@1.3.0/src/v0.8/vendor/solidity-cborutils/v2.0.0/CBOR.sol\":3110:3127  writeFixedNumeric */\n      tag_188\n        /* \"@chainlink/contracts@1.3.0/src/v0.8/vendor/solidity-cborutils/v2.0.0/CBOR.sol\":3110:3180  writeFixedNumeric(buf, MAJOR_TYPE_STRING, uint64(bytes(value).length)) */\n      jump\t// in\n    tag_187:\n        /* \"@chainlink/contracts@1.3.0/src/v0.8/vendor/solidity-cborutils/v2.0.0/CBOR.sol\":3190:3218  buf.buf.append(bytes(value)) */\n      tag_189\n        /* \"@chainlink/contracts@1.3.0/src/v0.8/vendor/solidity-cborutils/v2.0.0/CBOR.sol\":3211:3216  value */\n      dup2\n        /* \"@chainlink/contracts@1.3.0/src/v0.8/vendor/solidity-cborutils/v2.0.0/CBOR.sol\":3190:3193  buf */\n      dup4\n        /* \"@chainlink/contracts@1.3.0/src/v0.8/vendor/solidity-cborutils/v2.0.0/CBOR.sol\":3190:3197  buf.buf */\n      0x00\n      add\n      mload\n        /* \"@chainlink/contracts@1.3.0/src/v0.8/vendor/solidity-cborutils/v2.0.0/CBOR.sol\":3190:3204  buf.buf.append */\n      tag_190\n      swap1\n        /* \"@chainlink/contracts@1.3.0/src/v0.8/vendor/solidity-cborutils/v2.0.0/CBOR.sol\":3190:3218  buf.buf.append(bytes(value)) */\n      swap2\n      swap1\n      0xffffffff\n      and\n      jump\t// in\n    tag_189:\n      pop\n        /* \"@chainlink/contracts@1.3.0/src/v0.8/vendor/solidity-cborutils/v2.0.0/CBOR.sol\":3021:3225  function writeString(CBORBuffer memory buf, string memory value) internal pure {... */\n      pop\n      pop\n      jump\t// out\n        /* \"@chainlink/contracts@1.3.0/src/v0.8/vendor/solidity-cborutils/v2.0.0/CBOR.sol\":1832:2034  function writeUInt256(CBORBuffer memory buf, uint256 value) internal pure {... */\n    tag_122:\n        /* \"@chainlink/contracts@1.3.0/src/v0.8/vendor/solidity-cborutils/v2.0.0/CBOR.sol\":1916:1983  buf.buf.appendUint8(uint8((MAJOR_TYPE_TAG << 5) | TAG_TYPE_BIGNUM)) */\n      tag_192\n        /* \"@chainlink/contracts@1.3.0/src/v0.8/vendor/solidity-cborutils/v2.0.0/CBOR.sol\":1246:1247  2 */\n      0x02\n        /* \"@chainlink/contracts@1.3.0/src/v0.8/vendor/solidity-cborutils/v2.0.0/CBOR.sol\":1961:1962  5 */\n      0x05\n        /* \"@chainlink/contracts@1.3.0/src/v0.8/vendor/solidity-cborutils/v2.0.0/CBOR.sol\":1141:1142  6 */\n      0x06\n        /* \"@chainlink/contracts@1.3.0/src/v0.8/vendor/solidity-cborutils/v2.0.0/CBOR.sol\":1943:1962  MAJOR_TYPE_TAG << 5 */\n      0xff\n      and\n      swap1\n      shl\n        /* \"@chainlink/contracts@1.3.0/src/v0.8/vendor/solidity-cborutils/v2.0.0/CBOR.sol\":1942:1981  (MAJOR_TYPE_TAG << 5) | TAG_TYPE_BIGNUM */\n      or\n        /* \"@chainlink/contracts@1.3.0/src/v0.8/vendor/solidity-cborutils/v2.0.0/CBOR.sol\":1916:1919  buf */\n      dup4\n        /* \"@chainlink/contracts@1.3.0/src/v0.8/vendor/solidity-cborutils/v2.0.0/CBOR.sol\":1916:1923  buf.buf */\n      0x00\n      add\n      mload\n        /* \"@chainlink/contracts@1.3.0/src/v0.8/vendor/solidity-cborutils/v2.0.0/CBOR.sol\":1916:1935  buf.buf.appendUint8 */\n      tag_193\n      swap1\n        /* \"@chainlink/contracts@1.3.0/src/v0.8/vendor/solidity-cborutils/v2.0.0/CBOR.sol\":1916:1983  buf.buf.appendUint8(uint8((MAJOR_TYPE_TAG << 5) | TAG_TYPE_BIGNUM)) */\n      swap2\n      swap1\n      0xffffffff\n      and\n      jump\t// in\n    tag_192:\n      pop\n        /* \"@chainlink/contracts@1.3.0/src/v0.8/vendor/solidity-cborutils/v2.0.0/CBOR.sol\":1993:2027  writeBytes(buf, abi.encode(value)) */\n      tag_194\n        /* \"@chainlink/contracts@1.3.0/src/v0.8/vendor/solidity-cborutils/v2.0.0/CBOR.sol\":2004:2007  buf */\n      dup3\n        /* \"@chainlink/contracts@1.3.0/src/v0.8/vendor/solidity-cborutils/v2.0.0/CBOR.sol\":2020:2025  value */\n      dup3\n        /* \"@chainlink/contracts@1.3.0/src/v0.8/vendor/solidity-cborutils/v2.0.0/CBOR.sol\":2009:2026  abi.encode(value) */\n      add(0x20, mload(0x40))\n      tag_195\n      swap2\n      swap1\n      tag_196\n      jump\t// in\n    tag_195:\n      mload(0x40)\n      0x20\n      dup2\n      dup4\n      sub\n      sub\n      dup2\n      mstore\n      swap1\n      0x40\n      mstore\n        /* \"@chainlink/contracts@1.3.0/src/v0.8/vendor/solidity-cborutils/v2.0.0/CBOR.sol\":1993:2003  writeBytes */\n      tag_153\n        /* \"@chainlink/contracts@1.3.0/src/v0.8/vendor/solidity-cborutils/v2.0.0/CBOR.sol\":1993:2027  writeBytes(buf, abi.encode(value)) */\n      jump\t// in\n    tag_194:\n        /* \"@chainlink/contracts@1.3.0/src/v0.8/vendor/solidity-cborutils/v2.0.0/CBOR.sol\":1832:2034  function writeUInt256(CBORBuffer memory buf, uint256 value) internal pure {... */\n      pop\n      pop\n      jump\t// out\n        /* \"@chainlink/contracts@1.3.0/src/v0.8/vendor/solidity-cborutils/v2.0.0/CBOR.sol\":3607:3753  function startArray(CBORBuffer memory buf) internal pure {... */\n    tag_132:\n        /* \"@chainlink/contracts@1.3.0/src/v0.8/vendor/solidity-cborutils/v2.0.0/CBOR.sol\":3674:3722  writeIndefiniteLengthType(buf, MAJOR_TYPE_ARRAY) */\n      tag_198\n        /* \"@chainlink/contracts@1.3.0/src/v0.8/vendor/solidity-cborutils/v2.0.0/CBOR.sol\":3700:3703  buf */\n      dup2\n        /* \"@chainlink/contracts@1.3.0/src/v0.8/vendor/solidity-cborutils/v2.0.0/CBOR.sol\":1047:1048  4 */\n      0x04\n        /* \"@chainlink/contracts@1.3.0/src/v0.8/vendor/solidity-cborutils/v2.0.0/CBOR.sol\":3674:3699  writeIndefiniteLengthType */\n      tag_199\n        /* \"@chainlink/contracts@1.3.0/src/v0.8/vendor/solidity-cborutils/v2.0.0/CBOR.sol\":3674:3722  writeIndefiniteLengthType(buf, MAJOR_TYPE_ARRAY) */\n      jump\t// in\n    tag_198:\n        /* \"@chainlink/contracts@1.3.0/src/v0.8/vendor/solidity-cborutils/v2.0.0/CBOR.sol\":3745:3746  1 */\n      0x01\n        /* \"@chainlink/contracts@1.3.0/src/v0.8/vendor/solidity-cborutils/v2.0.0/CBOR.sol\":3732:3735  buf */\n      dup2\n        /* \"@chainlink/contracts@1.3.0/src/v0.8/vendor/solidity-cborutils/v2.0.0/CBOR.sol\":3732:3741  buf.depth */\n      0x20\n      add\n        /* \"@chainlink/contracts@1.3.0/src/v0.8/vendor/solidity-cborutils/v2.0.0/CBOR.sol\":3732:3746  buf.depth += 1 */\n      dup2\n      dup2\n      mload\n      tag_200\n      swap2\n      swap1\n      tag_201\n      jump\t// in\n    tag_200:\n      swap2\n      pop\n      dup2\n      dup2\n      mstore\n      pop\n      pop\n        /* \"@chainlink/contracts@1.3.0/src/v0.8/vendor/solidity-cborutils/v2.0.0/CBOR.sol\":3607:3753  function startArray(CBORBuffer memory buf) internal pure {... */\n      pop\n      jump\t// out\n        /* \"@chainlink/contracts@1.3.0/src/v0.8/vendor/solidity-cborutils/v2.0.0/CBOR.sol\":4211:4365  function endSequence(CBORBuffer memory buf) internal pure {... */\n    tag_140:\n        /* \"@chainlink/contracts@1.3.0/src/v0.8/vendor/solidity-cborutils/v2.0.0/CBOR.sol\":4279:4334  writeIndefiniteLengthType(buf, MAJOR_TYPE_CONTENT_FREE) */\n      tag_203\n        /* \"@chainlink/contracts@1.3.0/src/v0.8/vendor/solidity-cborutils/v2.0.0/CBOR.sol\":4305:4308  buf */\n      dup2\n        /* \"@chainlink/contracts@1.3.0/src/v0.8/vendor/solidity-cborutils/v2.0.0/CBOR.sol\":1197:1198  7 */\n      0x07\n        /* \"@chainlink/contracts@1.3.0/src/v0.8/vendor/solidity-cborutils/v2.0.0/CBOR.sol\":4279:4304  writeIndefiniteLengthType */\n      tag_199\n        /* \"@chainlink/contracts@1.3.0/src/v0.8/vendor/solidity-cborutils/v2.0.0/CBOR.sol\":4279:4334  writeIndefiniteLengthType(buf, MAJOR_TYPE_CONTENT_FREE) */\n      jump\t// in\n    tag_203:\n        /* \"@chainlink/contracts@1.3.0/src/v0.8/vendor/solidity-cborutils/v2.0.0/CBOR.sol\":4357:4358  1 */\n      0x01\n        /* \"@chainlink/contracts@1.3.0/src/v0.8/vendor/solidity-cborutils/v2.0.0/CBOR.sol\":4344:4347  buf */\n      dup2\n        /* \"@chainlink/contracts@1.3.0/src/v0.8/vendor/solidity-cborutils/v2.0.0/CBOR.sol\":4344:4353  buf.depth */\n      0x20\n      add\n        /* \"@chainlink/contracts@1.3.0/src/v0.8/vendor/solidity-cborutils/v2.0.0/CBOR.sol\":4344:4358  buf.depth -= 1 */\n      dup2\n      dup2\n      mload\n      tag_204\n      swap2\n      swap1\n      tag_205\n      jump\t// in\n    tag_204:\n      swap2\n      pop\n      dup2\n      dup2\n      mstore\n      pop\n      pop\n        /* \"@chainlink/contracts@1.3.0/src/v0.8/vendor/solidity-cborutils/v2.0.0/CBOR.sol\":4211:4365  function endSequence(CBORBuffer memory buf) internal pure {... */\n      pop\n      jump\t// out\n        /* \"@chainlink/contracts@1.3.0/src/v0.8/vendor/solidity-cborutils/v2.0.0/CBOR.sol\":2828:3015  function writeBytes(CBORBuffer memory buf, bytes memory value) internal pure {... */\n    tag_153:\n        /* \"@chainlink/contracts@1.3.0/src/v0.8/vendor/solidity-cborutils/v2.0.0/CBOR.sol\":2915:2977  writeFixedNumeric(buf, MAJOR_TYPE_BYTES, uint64(value.length)) */\n      tag_207\n        /* \"@chainlink/contracts@1.3.0/src/v0.8/vendor/solidity-cborutils/v2.0.0/CBOR.sol\":2933:2936  buf */\n      dup3\n        /* \"@chainlink/contracts@1.3.0/src/v0.8/vendor/solidity-cborutils/v2.0.0/CBOR.sol\":948:949  2 */\n      0x02\n        /* \"@chainlink/contracts@1.3.0/src/v0.8/vendor/solidity-cborutils/v2.0.0/CBOR.sol\":2963:2968  value */\n      dup4\n        /* \"@chainlink/contracts@1.3.0/src/v0.8/vendor/solidity-cborutils/v2.0.0/CBOR.sol\":2963:2975  value.length */\n      mload\n        /* \"@chainlink/contracts@1.3.0/src/v0.8/vendor/solidity-cborutils/v2.0.0/CBOR.sol\":2915:2932  writeFixedNumeric */\n      tag_188\n        /* \"@chainlink/contracts@1.3.0/src/v0.8/vendor/solidity-cborutils/v2.0.0/CBOR.sol\":2915:2977  writeFixedNumeric(buf, MAJOR_TYPE_BYTES, uint64(value.length)) */\n      jump\t// in\n    tag_207:\n        /* \"@chainlink/contracts@1.3.0/src/v0.8/vendor/solidity-cborutils/v2.0.0/CBOR.sol\":2987:3008  buf.buf.append(value) */\n      tag_208\n        /* \"@chainlink/contracts@1.3.0/src/v0.8/vendor/solidity-cborutils/v2.0.0/CBOR.sol\":3002:3007  value */\n      dup2\n        /* \"@chainlink/contracts@1.3.0/src/v0.8/vendor/solidity-cborutils/v2.0.0/CBOR.sol\":2987:2990  buf */\n      dup4\n        /* \"@chainlink/contracts@1.3.0/src/v0.8/vendor/solidity-cborutils/v2.0.0/CBOR.sol\":2987:2994  buf.buf */\n      0x00\n      add\n      mload\n        /* \"@chainlink/contracts@1.3.0/src/v0.8/vendor/solidity-cborutils/v2.0.0/CBOR.sol\":2987:3001  buf.buf.append */\n      tag_190\n      swap1\n        /* \"@chainlink/contracts@1.3.0/src/v0.8/vendor/solidity-cborutils/v2.0.0/CBOR.sol\":2987:3008  buf.buf.append(value) */\n      swap2\n      swap1\n      0xffffffff\n      and\n      jump\t// in\n    tag_208:\n      pop\n        /* \"@chainlink/contracts@1.3.0/src/v0.8/vendor/solidity-cborutils/v2.0.0/CBOR.sol\":2828:3015  function writeBytes(CBORBuffer memory buf, bytes memory value) internal pure {... */\n      pop\n      pop\n      jump\t// out\n        /* \"@chainlink/contracts@1.3.0/src/v0.8/vendor/@ensdomains/buffer/v0.1.0/Buffer.sol\":1020:1575  function init(buffer memory buf, uint capacity) internal pure returns(buffer memory) {... */\n    tag_185:\n        /* \"@chainlink/contracts@1.3.0/src/v0.8/vendor/@ensdomains/buffer/v0.1.0/Buffer.sol\":1090:1103  buffer memory */\n      tag_209\n      tag_210\n      jump\t// in\n    tag_209:\n        /* \"@chainlink/contracts@1.3.0/src/v0.8/vendor/@ensdomains/buffer/v0.1.0/Buffer.sol\":1136:1137  0 */\n      0x00\n        /* \"@chainlink/contracts@1.3.0/src/v0.8/vendor/@ensdomains/buffer/v0.1.0/Buffer.sol\":1130:1132  32 */\n      0x20\n        /* \"@chainlink/contracts@1.3.0/src/v0.8/vendor/@ensdomains/buffer/v0.1.0/Buffer.sol\":1119:1127  capacity */\n      dup4\n        /* \"@chainlink/contracts@1.3.0/src/v0.8/vendor/@ensdomains/buffer/v0.1.0/Buffer.sol\":1119:1132  capacity % 32 */\n      tag_212\n      swap2\n      swap1\n      tag_213\n      jump\t// in\n    tag_212:\n        /* \"@chainlink/contracts@1.3.0/src/v0.8/vendor/@ensdomains/buffer/v0.1.0/Buffer.sol\":1119:1137  capacity % 32 != 0 */\n      eq\n        /* \"@chainlink/contracts@1.3.0/src/v0.8/vendor/@ensdomains/buffer/v0.1.0/Buffer.sol\":1115:1196  if (capacity % 32 != 0) {... */\n      tag_214\n      jumpi\n        /* \"@chainlink/contracts@1.3.0/src/v0.8/vendor/@ensdomains/buffer/v0.1.0/Buffer.sol\":1182:1184  32 */\n      0x20\n        /* \"@chainlink/contracts@1.3.0/src/v0.8/vendor/@ensdomains/buffer/v0.1.0/Buffer.sol\":1171:1179  capacity */\n      dup3\n        /* \"@chainlink/contracts@1.3.0/src/v0.8/vendor/@ensdomains/buffer/v0.1.0/Buffer.sol\":1171:1184  capacity % 32 */\n      tag_215\n      swap2\n      swap1\n      tag_213\n      jump\t// in\n    tag_215:\n        /* \"@chainlink/contracts@1.3.0/src/v0.8/vendor/@ensdomains/buffer/v0.1.0/Buffer.sol\":1165:1167  32 */\n      0x20\n        /* \"@chainlink/contracts@1.3.0/src/v0.8/vendor/@ensdomains/buffer/v0.1.0/Buffer.sol\":1165:1185  32 - (capacity % 32) */\n      tag_216\n      swap2\n      swap1\n      tag_205\n      jump\t// in\n    tag_216:\n        /* \"@chainlink/contracts@1.3.0/src/v0.8/vendor/@ensdomains/buffer/v0.1.0/Buffer.sol\":1153:1185  capacity += 32 - (capacity % 32) */\n      dup3\n      tag_217\n      swap2\n      swap1\n      tag_201\n      jump\t// in\n    tag_217:\n      swap2\n      pop\n        /* \"@chainlink/contracts@1.3.0/src/v0.8/vendor/@ensdomains/buffer/v0.1.0/Buffer.sol\":1115:1196  if (capacity % 32 != 0) {... */\n    tag_214:\n        /* \"@chainlink/contracts@1.3.0/src/v0.8/vendor/@ensdomains/buffer/v0.1.0/Buffer.sol\":1266:1274  capacity */\n      dup2\n        /* \"@chainlink/contracts@1.3.0/src/v0.8/vendor/@ensdomains/buffer/v0.1.0/Buffer.sol\":1251:1254  buf */\n      dup4\n        /* \"@chainlink/contracts@1.3.0/src/v0.8/vendor/@ensdomains/buffer/v0.1.0/Buffer.sol\":1251:1263  buf.capacity */\n      0x20\n      add\n        /* \"@chainlink/contracts@1.3.0/src/v0.8/vendor/@ensdomains/buffer/v0.1.0/Buffer.sol\":1251:1274  buf.capacity = capacity */\n      dup2\n      dup2\n      mstore\n      pop\n      pop\n        /* \"@chainlink/contracts@1.3.0/src/v0.8/vendor/@ensdomains/buffer/v0.1.0/Buffer.sol\":1324:1328  0x40 */\n      0x40\n        /* \"@chainlink/contracts@1.3.0/src/v0.8/vendor/@ensdomains/buffer/v0.1.0/Buffer.sol\":1318:1329  mload(0x40) */\n      mload\n        /* \"@chainlink/contracts@1.3.0/src/v0.8/vendor/@ensdomains/buffer/v0.1.0/Buffer.sol\":1354:1357  ptr */\n      dup1\n        /* \"@chainlink/contracts@1.3.0/src/v0.8/vendor/@ensdomains/buffer/v0.1.0/Buffer.sol\":1349:1352  buf */\n      dup5\n        /* \"@chainlink/contracts@1.3.0/src/v0.8/vendor/@ensdomains/buffer/v0.1.0/Buffer.sol\":1342:1358  mstore(buf, ptr) */\n      mstore\n        /* \"@chainlink/contracts@1.3.0/src/v0.8/vendor/@ensdomains/buffer/v0.1.0/Buffer.sol\":1383:1384  0 */\n      0x00\n        /* \"@chainlink/contracts@1.3.0/src/v0.8/vendor/@ensdomains/buffer/v0.1.0/Buffer.sol\":1378:1381  ptr */\n      dup2\n        /* \"@chainlink/contracts@1.3.0/src/v0.8/vendor/@ensdomains/buffer/v0.1.0/Buffer.sol\":1371:1385  mstore(ptr, 0) */\n      mstore\n        /* \"@chainlink/contracts@1.3.0/src/v0.8/vendor/@ensdomains/buffer/v0.1.0/Buffer.sol\":1426:1434  capacity */\n      dup3\n        /* \"@chainlink/contracts@1.3.0/src/v0.8/vendor/@ensdomains/buffer/v0.1.0/Buffer.sol\":1421:1424  ptr */\n      dup2\n        /* \"@chainlink/contracts@1.3.0/src/v0.8/vendor/@ensdomains/buffer/v0.1.0/Buffer.sol\":1417:1435  add(ptr, capacity) */\n      add\n        /* \"@chainlink/contracts@1.3.0/src/v0.8/vendor/@ensdomains/buffer/v0.1.0/Buffer.sol\":1413:1415  32 */\n      0x20\n        /* \"@chainlink/contracts@1.3.0/src/v0.8/vendor/@ensdomains/buffer/v0.1.0/Buffer.sol\":1409:1436  add(32, add(ptr, capacity)) */\n      add\n        /* \"@chainlink/contracts@1.3.0/src/v0.8/vendor/@ensdomains/buffer/v0.1.0/Buffer.sol\":1460:1463  ptr */\n      dup2\n        /* \"@chainlink/contracts@1.3.0/src/v0.8/vendor/@ensdomains/buffer/v0.1.0/Buffer.sol\":1455:1458  fpm */\n      dup2\n        /* \"@chainlink/contracts@1.3.0/src/v0.8/vendor/@ensdomains/buffer/v0.1.0/Buffer.sol\":1452:1464  lt(fpm, ptr) */\n      lt\n        /* \"@chainlink/contracts@1.3.0/src/v0.8/vendor/@ensdomains/buffer/v0.1.0/Buffer.sol\":1449:1509  if lt(fpm, ptr) {... */\n      iszero\n      tag_218\n      jumpi\n        /* \"@chainlink/contracts@1.3.0/src/v0.8/vendor/@ensdomains/buffer/v0.1.0/Buffer.sol\":1493:1494  0 */\n      0x00\n        /* \"@chainlink/contracts@1.3.0/src/v0.8/vendor/@ensdomains/buffer/v0.1.0/Buffer.sol\":1490:1491  0 */\n      0x00\n        /* \"@chainlink/contracts@1.3.0/src/v0.8/vendor/@ensdomains/buffer/v0.1.0/Buffer.sol\":1483:1495  revert(0, 0) */\n      revert\n        /* \"@chainlink/contracts@1.3.0/src/v0.8/vendor/@ensdomains/buffer/v0.1.0/Buffer.sol\":1449:1509  if lt(fpm, ptr) {... */\n    tag_218:\n        /* \"@chainlink/contracts@1.3.0/src/v0.8/vendor/@ensdomains/buffer/v0.1.0/Buffer.sol\":1535:1538  fpm */\n      dup1\n        /* \"@chainlink/contracts@1.3.0/src/v0.8/vendor/@ensdomains/buffer/v0.1.0/Buffer.sol\":1529:1533  0x40 */\n      0x40\n        /* \"@chainlink/contracts@1.3.0/src/v0.8/vendor/@ensdomains/buffer/v0.1.0/Buffer.sol\":1522:1539  mstore(0x40, fpm) */\n      mstore\n        /* \"@chainlink/contracts@1.3.0/src/v0.8/vendor/@ensdomains/buffer/v0.1.0/Buffer.sol\":1293:1549  {... */\n      pop\n      pop\n        /* \"@chainlink/contracts@1.3.0/src/v0.8/vendor/@ensdomains/buffer/v0.1.0/Buffer.sol\":1565:1568  buf */\n      dup3\n        /* \"@chainlink/contracts@1.3.0/src/v0.8/vendor/@ensdomains/buffer/v0.1.0/Buffer.sol\":1558:1568  return buf */\n      swap1\n      pop\n        /* \"@chainlink/contracts@1.3.0/src/v0.8/vendor/@ensdomains/buffer/v0.1.0/Buffer.sol\":1020:1575  function init(buffer memory buf, uint capacity) internal pure returns(buffer memory) {... */\n      swap3\n      swap2\n      pop\n      pop\n      jump\t// out\n        /* \"@chainlink/contracts@1.3.0/src/v0.8/vendor/solidity-cborutils/v2.0.0/CBOR.sol\":6156:6915  function writeFixedNumeric(... */\n    tag_188:\n        /* \"@chainlink/contracts@1.3.0/src/v0.8/vendor/solidity-cborutils/v2.0.0/CBOR.sol\":6299:6301  23 */\n      0x17\n        /* \"@chainlink/contracts@1.3.0/src/v0.8/vendor/solidity-cborutils/v2.0.0/CBOR.sol\":6290:6295  value */\n      dup2\n        /* \"@chainlink/contracts@1.3.0/src/v0.8/vendor/solidity-cborutils/v2.0.0/CBOR.sol\":6290:6301  value <= 23 */\n      0xffffffffffffffff\n      and\n      gt\n        /* \"@chainlink/contracts@1.3.0/src/v0.8/vendor/solidity-cborutils/v2.0.0/CBOR.sol\":6286:6909  if (value <= 23) {... */\n      tag_220\n      jumpi\n        /* \"@chainlink/contracts@1.3.0/src/v0.8/vendor/solidity-cborutils/v2.0.0/CBOR.sol\":6317:6365  buf.buf.appendUint8(uint8((major << 5) | value)) */\n      tag_221\n        /* \"@chainlink/contracts@1.3.0/src/v0.8/vendor/solidity-cborutils/v2.0.0/CBOR.sol\":6358:6363  value */\n      dup2\n        /* \"@chainlink/contracts@1.3.0/src/v0.8/vendor/solidity-cborutils/v2.0.0/CBOR.sol\":6353:6354  5 */\n      0x05\n        /* \"@chainlink/contracts@1.3.0/src/v0.8/vendor/solidity-cborutils/v2.0.0/CBOR.sol\":6344:6349  major */\n      dup5\n        /* \"@chainlink/contracts@1.3.0/src/v0.8/vendor/solidity-cborutils/v2.0.0/CBOR.sol\":6344:6354  major << 5 */\n      0xff\n      and\n      swap1\n      shl\n        /* \"@chainlink/contracts@1.3.0/src/v0.8/vendor/solidity-cborutils/v2.0.0/CBOR.sol\":6343:6363  (major << 5) | value */\n      0xff\n      and\n      or\n        /* \"@chainlink/contracts@1.3.0/src/v0.8/vendor/solidity-cborutils/v2.0.0/CBOR.sol\":6317:6320  buf */\n      dup5\n        /* \"@chainlink/contracts@1.3.0/src/v0.8/vendor/solidity-cborutils/v2.0.0/CBOR.sol\":6317:6324  buf.buf */\n      0x00\n      add\n      mload\n        /* \"@chainlink/contracts@1.3.0/src/v0.8/vendor/solidity-cborutils/v2.0.0/CBOR.sol\":6317:6336  buf.buf.appendUint8 */\n      tag_193\n      swap1\n        /* \"@chainlink/contracts@1.3.0/src/v0.8/vendor/solidity-cborutils/v2.0.0/CBOR.sol\":6317:6365  buf.buf.appendUint8(uint8((major << 5) | value)) */\n      swap2\n      swap1\n      0xffffffff\n      and\n      jump\t// in\n    tag_221:\n      pop\n        /* \"@chainlink/contracts@1.3.0/src/v0.8/vendor/solidity-cborutils/v2.0.0/CBOR.sol\":6286:6909  if (value <= 23) {... */\n      jump(tag_222)\n    tag_220:\n        /* \"@chainlink/contracts@1.3.0/src/v0.8/vendor/solidity-cborutils/v2.0.0/CBOR.sol\":6395:6399  0xFF */\n      0xff\n        /* \"@chainlink/contracts@1.3.0/src/v0.8/vendor/solidity-cborutils/v2.0.0/CBOR.sol\":6386:6391  value */\n      dup2\n        /* \"@chainlink/contracts@1.3.0/src/v0.8/vendor/solidity-cborutils/v2.0.0/CBOR.sol\":6386:6399  value <= 0xFF */\n      0xffffffffffffffff\n      and\n      gt\n        /* \"@chainlink/contracts@1.3.0/src/v0.8/vendor/solidity-cborutils/v2.0.0/CBOR.sol\":6382:6909  if (value <= 0xFF) {... */\n      tag_223\n      jumpi\n        /* \"@chainlink/contracts@1.3.0/src/v0.8/vendor/solidity-cborutils/v2.0.0/CBOR.sol\":6415:6460  buf.buf.appendUint8(uint8((major << 5) | 24)) */\n      tag_224\n        /* \"@chainlink/contracts@1.3.0/src/v0.8/vendor/solidity-cborutils/v2.0.0/CBOR.sol\":6456:6458  24 */\n      0x18\n        /* \"@chainlink/contracts@1.3.0/src/v0.8/vendor/solidity-cborutils/v2.0.0/CBOR.sol\":6451:6452  5 */\n      0x05\n        /* \"@chainlink/contracts@1.3.0/src/v0.8/vendor/solidity-cborutils/v2.0.0/CBOR.sol\":6442:6447  major */\n      dup5\n        /* \"@chainlink/contracts@1.3.0/src/v0.8/vendor/solidity-cborutils/v2.0.0/CBOR.sol\":6442:6452  major << 5 */\n      0xff\n      and\n      swap1\n      shl\n        /* \"@chainlink/contracts@1.3.0/src/v0.8/vendor/solidity-cborutils/v2.0.0/CBOR.sol\":6441:6458  (major << 5) | 24 */\n      or\n        /* \"@chainlink/contracts@1.3.0/src/v0.8/vendor/solidity-cborutils/v2.0.0/CBOR.sol\":6415:6418  buf */\n      dup5\n        /* \"@chainlink/contracts@1.3.0/src/v0.8/vendor/solidity-cborutils/v2.0.0/CBOR.sol\":6415:6422  buf.buf */\n      0x00\n      add\n      mload\n        /* \"@chainlink/contracts@1.3.0/src/v0.8/vendor/solidity-cborutils/v2.0.0/CBOR.sol\":6415:6434  buf.buf.appendUint8 */\n      tag_193\n      swap1\n        /* \"@chainlink/contracts@1.3.0/src/v0.8/vendor/solidity-cborutils/v2.0.0/CBOR.sol\":6415:6460  buf.buf.appendUint8(uint8((major << 5) | 24)) */\n      swap2\n      swap1\n      0xffffffff\n      and\n      jump\t// in\n    tag_224:\n      pop\n        /* \"@chainlink/contracts@1.3.0/src/v0.8/vendor/solidity-cborutils/v2.0.0/CBOR.sol\":6474:6501  buf.buf.appendInt(value, 1) */\n      tag_225\n        /* \"@chainlink/contracts@1.3.0/src/v0.8/vendor/solidity-cborutils/v2.0.0/CBOR.sol\":6492:6497  value */\n      dup2\n        /* \"@chainlink/contracts@1.3.0/src/v0.8/vendor/solidity-cborutils/v2.0.0/CBOR.sol\":6474:6501  buf.buf.appendInt(value, 1) */\n      0xffffffffffffffff\n      and\n        /* \"@chainlink/contracts@1.3.0/src/v0.8/vendor/solidity-cborutils/v2.0.0/CBOR.sol\":6499:6500  1 */\n      0x01\n        /* \"@chainlink/contracts@1.3.0/src/v0.8/vendor/solidity-cborutils/v2.0.0/CBOR.sol\":6474:6477  buf */\n      dup6\n        /* \"@chainlink/contracts@1.3.0/src/v0.8/vendor/solidity-cborutils/v2.0.0/CBOR.sol\":6474:6481  buf.buf */\n      0x00\n      add\n      mload\n        /* \"@chainlink/contracts@1.3.0/src/v0.8/vendor/solidity-cborutils/v2.0.0/CBOR.sol\":6474:6491  buf.buf.appendInt */\n      tag_226\n      swap1\n        /* \"@chainlink/contracts@1.3.0/src/v0.8/vendor/solidity-cborutils/v2.0.0/CBOR.sol\":6474:6501  buf.buf.appendInt(value, 1) */\n      swap3\n      swap2\n      swap1\n      0xffffffff\n      and\n      jump\t// in\n    tag_225:\n      pop\n        /* \"@chainlink/contracts@1.3.0/src/v0.8/vendor/solidity-cborutils/v2.0.0/CBOR.sol\":6382:6909  if (value <= 0xFF) {... */\n      jump(tag_227)\n    tag_223:\n        /* \"@chainlink/contracts@1.3.0/src/v0.8/vendor/solidity-cborutils/v2.0.0/CBOR.sol\":6531:6537  0xFFFF */\n      0xffff\n        /* \"@chainlink/contracts@1.3.0/src/v0.8/vendor/solidity-cborutils/v2.0.0/CBOR.sol\":6522:6527  value */\n      dup2\n        /* \"@chainlink/contracts@1.3.0/src/v0.8/vendor/solidity-cborutils/v2.0.0/CBOR.sol\":6522:6537  value <= 0xFFFF */\n      0xffffffffffffffff\n      and\n      gt\n        /* \"@chainlink/contracts@1.3.0/src/v0.8/vendor/solidity-cborutils/v2.0.0/CBOR.sol\":6518:6909  if (value <= 0xFFFF) {... */\n      tag_228\n      jumpi\n        /* \"@chainlink/contracts@1.3.0/src/v0.8/vendor/solidity-cborutils/v2.0.0/CBOR.sol\":6553:6598  buf.buf.appendUint8(uint8((major << 5) | 25)) */\n      tag_229\n        /* \"@chainlink/contracts@1.3.0/src/v0.8/vendor/solidity-cborutils/v2.0.0/CBOR.sol\":6594:6596  25 */\n      0x19\n        /* \"@chainlink/contracts@1.3.0/src/v0.8/vendor/solidity-cborutils/v2.0.0/CBOR.sol\":6589:6590  5 */\n      0x05\n        /* \"@chainlink/contracts@1.3.0/src/v0.8/vendor/solidity-cborutils/v2.0.0/CBOR.sol\":6580:6585  major */\n      dup5\n        /* \"@chainlink/contracts@1.3.0/src/v0.8/vendor/solidity-cborutils/v2.0.0/CBOR.sol\":6580:6590  major << 5 */\n      0xff\n      and\n      swap1\n      shl\n        /* \"@chainlink/contracts@1.3.0/src/v0.8/vendor/solidity-cborutils/v2.0.0/CBOR.sol\":6579:6596  (major << 5) | 25 */\n      or\n        /* \"@chainlink/contracts@1.3.0/src/v0.8/vendor/solidity-cborutils/v2.0.0/CBOR.sol\":6553:6556  buf */\n      dup5\n        /* \"@chainlink/contracts@1.3.0/src/v0.8/vendor/solidity-cborutils/v2.0.0/CBOR.sol\":6553:6560  buf.buf */\n      0x00\n      add\n      mload\n        /* \"@chainlink/contracts@1.3.0/src/v0.8/vendor/solidity-cborutils/v2.0.0/CBOR.sol\":6553:6572  buf.buf.appendUint8 */\n      tag_193\n      swap1\n        /* \"@chainlink/contracts@1.3.0/src/v0.8/vendor/solidity-cborutils/v2.0.0/CBOR.sol\":6553:6598  buf.buf.appendUint8(uint8((major << 5) | 25)) */\n      swap2\n      swap1\n      0xffffffff\n      and\n      jump\t// in\n    tag_229:\n      pop\n        /* \"@chainlink/contracts@1.3.0/src/v0.8/vendor/solidity-cborutils/v2.0.0/CBOR.sol\":6612:6639  buf.buf.appendInt(value, 2) */\n      tag_230\n        /* \"@chainlink/contracts@1.3.0/src/v0.8/vendor/solidity-cborutils/v2.0.0/CBOR.sol\":6630:6635  value */\n      dup2\n        /* \"@chainlink/contracts@1.3.0/src/v0.8/vendor/solidity-cborutils/v2.0.0/CBOR.sol\":6612:6639  buf.buf.appendInt(value, 2) */\n      0xffffffffffffffff\n      and\n        /* \"@chainlink/contracts@1.3.0/src/v0.8/vendor/solidity-cborutils/v2.0.0/CBOR.sol\":6637:6638  2 */\n      0x02\n        /* \"@chainlink/contracts@1.3.0/src/v0.8/vendor/solidity-cborutils/v2.0.0/CBOR.sol\":6612:6615  buf */\n      dup6\n        /* \"@chainlink/contracts@1.3.0/src/v0.8/vendor/solidity-cborutils/v2.0.0/CBOR.sol\":6612:6619  buf.buf */\n      0x00\n      add\n      mload\n        /* \"@chainlink/contracts@1.3.0/src/v0.8/vendor/solidity-cborutils/v2.0.0/CBOR.sol\":6612:6629  buf.buf.appendInt */\n      tag_226\n      swap1\n        /* \"@chainlink/contracts@1.3.0/src/v0.8/vendor/solidity-cborutils/v2.0.0/CBOR.sol\":6612:6639  buf.buf.appendInt(value, 2) */\n      swap3\n      swap2\n      swap1\n      0xffffffff\n      and\n      jump\t// in\n    tag_230:\n      pop\n        /* \"@chainlink/contracts@1.3.0/src/v0.8/vendor/solidity-cborutils/v2.0.0/CBOR.sol\":6518:6909  if (value <= 0xFFFF) {... */\n      jump(tag_231)\n    tag_228:\n        /* \"@chainlink/contracts@1.3.0/src/v0.8/vendor/solidity-cborutils/v2.0.0/CBOR.sol\":6669:6679  0xFFFFFFFF */\n      0xffffffff\n        /* \"@chainlink/contracts@1.3.0/src/v0.8/vendor/solidity-cborutils/v2.0.0/CBOR.sol\":6660:6665  value */\n      dup2\n        /* \"@chainlink/contracts@1.3.0/src/v0.8/vendor/solidity-cborutils/v2.0.0/CBOR.sol\":6660:6679  value <= 0xFFFFFFFF */\n      0xffffffffffffffff\n      and\n      gt\n        /* \"@chainlink/contracts@1.3.0/src/v0.8/vendor/solidity-cborutils/v2.0.0/CBOR.sol\":6656:6909  if (value <= 0xFFFFFFFF) {... */\n      tag_232\n      jumpi\n        /* \"@chainlink/contracts@1.3.0/src/v0.8/vendor/solidity-cborutils/v2.0.0/CBOR.sol\":6695:6740  buf.buf.appendUint8(uint8((major << 5) | 26)) */\n      tag_233\n        /* \"@chainlink/contracts@1.3.0/src/v0.8/vendor/solidity-cborutils/v2.0.0/CBOR.sol\":6736:6738  26 */\n      0x1a\n        /* \"@chainlink/contracts@1.3.0/src/v0.8/vendor/solidity-cborutils/v2.0.0/CBOR.sol\":6731:6732  5 */\n      0x05\n        /* \"@chainlink/contracts@1.3.0/src/v0.8/vendor/solidity-cborutils/v2.0.0/CBOR.sol\":6722:6727  major */\n      dup5\n        /* \"@chainlink/contracts@1.3.0/src/v0.8/vendor/solidity-cborutils/v2.0.0/CBOR.sol\":6722:6732  major << 5 */\n      0xff\n      and\n      swap1\n      shl\n        /* \"@chainlink/contracts@1.3.0/src/v0.8/vendor/solidity-cborutils/v2.0.0/CBOR.sol\":6721:6738  (major << 5) | 26 */\n      or\n        /* \"@chainlink/contracts@1.3.0/src/v0.8/vendor/solidity-cborutils/v2.0.0/CBOR.sol\":6695:6698  buf */\n      dup5\n        /* \"@chainlink/contracts@1.3.0/src/v0.8/vendor/solidity-cborutils/v2.0.0/CBOR.sol\":6695:6702  buf.buf */\n      0x00\n      add\n      mload\n        /* \"@chainlink/contracts@1.3.0/src/v0.8/vendor/solidity-cborutils/v2.0.0/CBOR.sol\":6695:6714  buf.buf.appendUint8 */\n      tag_193\n      swap1\n        /* \"@chainlink/contracts@1.3.0/src/v0.8/vendor/solidity-cborutils/v2.0.0/CBOR.sol\":6695:6740  buf.buf.appendUint8(uint8((major << 5) | 26)) */\n      swap2\n      swap1\n      0xffffffff\n      and\n      jump\t// in\n    tag_233:\n      pop\n        /* \"@chainlink/contracts@1.3.0/src/v0.8/vendor/solidity-cborutils/v2.0.0/CBOR.sol\":6754:6781  buf.buf.appendInt(value, 4) */\n      tag_234\n        /* \"@chainlink/contracts@1.3.0/src/v0.8/vendor/solidity-cborutils/v2.0.0/CBOR.sol\":6772:6777  value */\n      dup2\n        /* \"@chainlink/contracts@1.3.0/src/v0.8/vendor/solidity-cborutils/v2.0.0/CBOR.sol\":6754:6781  buf.buf.appendInt(value, 4) */\n      0xffffffffffffffff\n      and\n        /* \"@chainlink/contracts@1.3.0/src/v0.8/vendor/solidity-cborutils/v2.0.0/CBOR.sol\":6779:6780  4 */\n      0x04\n        /* \"@chainlink/contracts@1.3.0/src/v0.8/vendor/solidity-cborutils/v2.0.0/CBOR.sol\":6754:6757  buf */\n      dup6\n        /* \"@chainlink/contracts@1.3.0/src/v0.8/vendor/solidity-cborutils/v2.0.0/CBOR.sol\":6754:6761  buf.buf */\n      0x00\n      add\n      mload\n        /* \"@chainlink/contracts@1.3.0/src/v0.8/vendor/solidity-cborutils/v2.0.0/CBOR.sol\":6754:6771  buf.buf.appendInt */\n      tag_226\n      swap1\n        /* \"@chainlink/contracts@1.3.0/src/v0.8/vendor/solidity-cborutils/v2.0.0/CBOR.sol\":6754:6781  buf.buf.appendInt(value, 4) */\n      swap3\n      swap2\n      swap1\n      0xffffffff\n      and\n      jump\t// in\n    tag_234:\n      pop\n        /* \"@chainlink/contracts@1.3.0/src/v0.8/vendor/solidity-cborutils/v2.0.0/CBOR.sol\":6656:6909  if (value <= 0xFFFFFFFF) {... */\n      jump(tag_235)\n    tag_232:\n        /* \"@chainlink/contracts@1.3.0/src/v0.8/vendor/solidity-cborutils/v2.0.0/CBOR.sol\":6812:6857  buf.buf.appendUint8(uint8((major << 5) | 27)) */\n      tag_236\n        /* \"@chainlink/contracts@1.3.0/src/v0.8/vendor/solidity-cborutils/v2.0.0/CBOR.sol\":6853:6855  27 */\n      0x1b\n        /* \"@chainlink/contracts@1.3.0/src/v0.8/vendor/solidity-cborutils/v2.0.0/CBOR.sol\":6848:6849  5 */\n      0x05\n        /* \"@chainlink/contracts@1.3.0/src/v0.8/vendor/solidity-cborutils/v2.0.0/CBOR.sol\":6839:6844  major */\n      dup5\n        /* \"@chainlink/contracts@1.3.0/src/v0.8/vendor/solidity-cborutils/v2.0.0/CBOR.sol\":6839:6849  major << 5 */\n      0xff\n      and\n      swap1\n      shl\n        /* \"@chainlink/contracts@1.3.0/src/v0.8/vendor/solidity-cborutils/v2.0.0/CBOR.sol\":6838:6855  (major << 5) | 27 */\n      or\n        /* \"@chainlink/contracts@1.3.0/src/v0.8/vendor/solidity-cborutils/v2.0.0/CBOR.sol\":6812:6815  buf */\n      dup5\n        /* \"@chainlink/contracts@1.3.0/src/v0.8/vendor/solidity-cborutils/v2.0.0/CBOR.sol\":6812:6819  buf.buf */\n      0x00\n      add\n      mload\n        /* \"@chainlink/contracts@1.3.0/src/v0.8/vendor/solidity-cborutils/v2.0.0/CBOR.sol\":6812:6831  buf.buf.appendUint8 */\n      tag_193\n      swap1\n        /* \"@chainlink/contracts@1.3.0/src/v0.8/vendor/solidity-cborutils/v2.0.0/CBOR.sol\":6812:6857  buf.buf.appendUint8(uint8((major << 5) | 27)) */\n      swap2\n      swap1\n      0xffffffff\n      and\n      jump\t// in\n    tag_236:\n      pop\n        /* \"@chainlink/contracts@1.3.0/src/v0.8/vendor/solidity-cborutils/v2.0.0/CBOR.sol\":6871:6898  buf.buf.appendInt(value, 8) */\n      tag_237\n        /* \"@chainlink/contracts@1.3.0/src/v0.8/vendor/solidity-cborutils/v2.0.0/CBOR.sol\":6889:6894  value */\n      dup2\n        /* \"@chainlink/contracts@1.3.0/src/v0.8/vendor/solidity-cborutils/v2.0.0/CBOR.sol\":6871:6898  buf.buf.appendInt(value, 8) */\n      0xffffffffffffffff\n      and\n        /* \"@chainlink/contracts@1.3.0/src/v0.8/vendor/solidity-cborutils/v2.0.0/CBOR.sol\":6896:6897  8 */\n      0x08\n        /* \"@chainlink/contracts@1.3.0/src/v0.8/vendor/solidity-cborutils/v2.0.0/CBOR.sol\":6871:6874  buf */\n      dup6\n        /* \"@chainlink/contracts@1.3.0/src/v0.8/vendor/solidity-cborutils/v2.0.0/CBOR.sol\":6871:6878  buf.buf */\n      0x00\n      add\n      mload\n        /* \"@chainlink/contracts@1.3.0/src/v0.8/vendor/solidity-cborutils/v2.0.0/CBOR.sol\":6871:6888  buf.buf.appendInt */\n      tag_226\n      swap1\n        /* \"@chainlink/contracts@1.3.0/src/v0.8/vendor/solidity-cborutils/v2.0.0/CBOR.sol\":6871:6898  buf.buf.appendInt(value, 8) */\n      swap3\n      swap2\n      swap1\n      0xffffffff\n      and\n      jump\t// in\n    tag_237:\n      pop\n        /* \"@chainlink/contracts@1.3.0/src/v0.8/vendor/solidity-cborutils/v2.0.0/CBOR.sol\":6656:6909  if (value <= 0xFFFFFFFF) {... */\n    tag_235:\n        /* \"@chainlink/contracts@1.3.0/src/v0.8/vendor/solidity-cborutils/v2.0.0/CBOR.sol\":6518:6909  if (value <= 0xFFFF) {... */\n    tag_231:\n        /* \"@chainlink/contracts@1.3.0/src/v0.8/vendor/solidity-cborutils/v2.0.0/CBOR.sol\":6382:6909  if (value <= 0xFF) {... */\n    tag_227:\n        /* \"@chainlink/contracts@1.3.0/src/v0.8/vendor/solidity-cborutils/v2.0.0/CBOR.sol\":6286:6909  if (value <= 23) {... */\n    tag_222:\n        /* \"@chainlink/contracts@1.3.0/src/v0.8/vendor/solidity-cborutils/v2.0.0/CBOR.sol\":6156:6915  function writeFixedNumeric(... */\n      pop\n      pop\n      pop\n      jump\t// out\n        /* \"@chainlink/contracts@1.3.0/src/v0.8/vendor/@ensdomains/buffer/v0.1.0/Buffer.sol\":4539:4685  function append(buffer memory buf, bytes memory data) internal pure returns (buffer memory) {... */\n    tag_190:\n        /* \"@chainlink/contracts@1.3.0/src/v0.8/vendor/@ensdomains/buffer/v0.1.0/Buffer.sol\":4616:4629  buffer memory */\n      tag_238\n      tag_210\n      jump\t// in\n    tag_238:\n        /* \"@chainlink/contracts@1.3.0/src/v0.8/vendor/@ensdomains/buffer/v0.1.0/Buffer.sol\":4648:4678  append(buf, data, data.length) */\n      tag_240\n        /* \"@chainlink/contracts@1.3.0/src/v0.8/vendor/@ensdomains/buffer/v0.1.0/Buffer.sol\":4655:4658  buf */\n      dup4\n        /* \"@chainlink/contracts@1.3.0/src/v0.8/vendor/@ensdomains/buffer/v0.1.0/Buffer.sol\":4660:4664  data */\n      dup4\n        /* \"@chainlink/contracts@1.3.0/src/v0.8/vendor/@ensdomains/buffer/v0.1.0/Buffer.sol\":4666:4670  data */\n      dup5\n        /* \"@chainlink/contracts@1.3.0/src/v0.8/vendor/@ensdomains/buffer/v0.1.0/Buffer.sol\":4666:4677  data.length */\n      mload\n        /* \"@chainlink/contracts@1.3.0/src/v0.8/vendor/@ensdomains/buffer/v0.1.0/Buffer.sol\":4648:4654  append */\n      tag_241\n        /* \"@chainlink/contracts@1.3.0/src/v0.8/vendor/@ensdomains/buffer/v0.1.0/Buffer.sol\":4648:4678  append(buf, data, data.length) */\n      jump\t// in\n    tag_240:\n        /* \"@chainlink/contracts@1.3.0/src/v0.8/vendor/@ensdomains/buffer/v0.1.0/Buffer.sol\":4641:4678  return append(buf, data, data.length) */\n      swap1\n      pop\n        /* \"@chainlink/contracts@1.3.0/src/v0.8/vendor/@ensdomains/buffer/v0.1.0/Buffer.sol\":4539:4685  function append(buffer memory buf, bytes memory data) internal pure returns (buffer memory) {... */\n      swap3\n      swap2\n      pop\n      pop\n      jump\t// out\n        /* \"@chainlink/contracts@1.3.0/src/v0.8/vendor/@ensdomains/buffer/v0.1.0/Buffer.sol\":4948:5647  function appendUint8(buffer memory buf, uint8 data) internal pure returns(buffer memory) {... */\n    tag_193:\n        /* \"@chainlink/contracts@1.3.0/src/v0.8/vendor/@ensdomains/buffer/v0.1.0/Buffer.sol\":5022:5035  buffer memory */\n      tag_242\n      tag_210\n      jump\t// in\n    tag_242:\n        /* \"@chainlink/contracts@1.3.0/src/v0.8/vendor/@ensdomains/buffer/v0.1.0/Buffer.sol\":5047:5055  uint off */\n      0x00\n        /* \"@chainlink/contracts@1.3.0/src/v0.8/vendor/@ensdomains/buffer/v0.1.0/Buffer.sol\":5058:5061  buf */\n      dup4\n        /* \"@chainlink/contracts@1.3.0/src/v0.8/vendor/@ensdomains/buffer/v0.1.0/Buffer.sol\":5058:5065  buf.buf */\n      0x00\n      add\n      mload\n        /* \"@chainlink/contracts@1.3.0/src/v0.8/vendor/@ensdomains/buffer/v0.1.0/Buffer.sol\":5058:5072  buf.buf.length */\n      mload\n        /* \"@chainlink/contracts@1.3.0/src/v0.8/vendor/@ensdomains/buffer/v0.1.0/Buffer.sol\":5047:5072  uint off = buf.buf.length */\n      swap1\n      pop\n        /* \"@chainlink/contracts@1.3.0/src/v0.8/vendor/@ensdomains/buffer/v0.1.0/Buffer.sol\":5082:5097  uint offPlusOne */\n      0x00\n        /* \"@chainlink/contracts@1.3.0/src/v0.8/vendor/@ensdomains/buffer/v0.1.0/Buffer.sol\":5106:5107  1 */\n      0x01\n        /* \"@chainlink/contracts@1.3.0/src/v0.8/vendor/@ensdomains/buffer/v0.1.0/Buffer.sol\":5100:5103  off */\n      dup3\n        /* \"@chainlink/contracts@1.3.0/src/v0.8/vendor/@ensdomains/buffer/v0.1.0/Buffer.sol\":5100:5107  off + 1 */\n      tag_244\n      swap2\n      swap1\n      tag_201\n      jump\t// in\n    tag_244:\n        /* \"@chainlink/contracts@1.3.0/src/v0.8/vendor/@ensdomains/buffer/v0.1.0/Buffer.sol\":5082:5107  uint offPlusOne = off + 1 */\n      swap1\n      pop\n        /* \"@chainlink/contracts@1.3.0/src/v0.8/vendor/@ensdomains/buffer/v0.1.0/Buffer.sol\":5128:5131  buf */\n      dup5\n        /* \"@chainlink/contracts@1.3.0/src/v0.8/vendor/@ensdomains/buffer/v0.1.0/Buffer.sol\":5128:5140  buf.capacity */\n      0x20\n      add\n      mload\n        /* \"@chainlink/contracts@1.3.0/src/v0.8/vendor/@ensdomains/buffer/v0.1.0/Buffer.sol\":5121:5124  off */\n      dup3\n        /* \"@chainlink/contracts@1.3.0/src/v0.8/vendor/@ensdomains/buffer/v0.1.0/Buffer.sol\":5121:5140  off >= buf.capacity */\n      lt\n        /* \"@chainlink/contracts@1.3.0/src/v0.8/vendor/@ensdomains/buffer/v0.1.0/Buffer.sol\":5117:5194  if (off >= buf.capacity) {... */\n      tag_245\n      jumpi\n        /* \"@chainlink/contracts@1.3.0/src/v0.8/vendor/@ensdomains/buffer/v0.1.0/Buffer.sol\":5156:5183  resize(buf, offPlusOne * 2) */\n      tag_246\n        /* \"@chainlink/contracts@1.3.0/src/v0.8/vendor/@ensdomains/buffer/v0.1.0/Buffer.sol\":5163:5166  buf */\n      dup6\n        /* \"@chainlink/contracts@1.3.0/src/v0.8/vendor/@ensdomains/buffer/v0.1.0/Buffer.sol\":5181:5182  2 */\n      0x02\n        /* \"@chainlink/contracts@1.3.0/src/v0.8/vendor/@ensdomains/buffer/v0.1.0/Buffer.sol\":5168:5178  offPlusOne */\n      dup4\n        /* \"@chainlink/contracts@1.3.0/src/v0.8/vendor/@ensdomains/buffer/v0.1.0/Buffer.sol\":5168:5182  offPlusOne * 2 */\n      tag_247\n      swap2\n      swap1\n      tag_248\n      jump\t// in\n    tag_247:\n        /* \"@chainlink/contracts@1.3.0/src/v0.8/vendor/@ensdomains/buffer/v0.1.0/Buffer.sol\":5156:5162  resize */\n      tag_249\n        /* \"@chainlink/contracts@1.3.0/src/v0.8/vendor/@ensdomains/buffer/v0.1.0/Buffer.sol\":5156:5183  resize(buf, offPlusOne * 2) */\n      jump\t// in\n    tag_246:\n        /* \"@chainlink/contracts@1.3.0/src/v0.8/vendor/@ensdomains/buffer/v0.1.0/Buffer.sol\":5117:5194  if (off >= buf.capacity) {... */\n    tag_245:\n        /* \"@chainlink/contracts@1.3.0/src/v0.8/vendor/@ensdomains/buffer/v0.1.0/Buffer.sol\":5296:5299  buf */\n      dup5\n        /* \"@chainlink/contracts@1.3.0/src/v0.8/vendor/@ensdomains/buffer/v0.1.0/Buffer.sol\":5290:5300  mload(buf) */\n      mload\n        /* \"@chainlink/contracts@1.3.0/src/v0.8/vendor/@ensdomains/buffer/v0.1.0/Buffer.sol\":5417:5419  32 */\n      0x20\n        /* \"@chainlink/contracts@1.3.0/src/v0.8/vendor/@ensdomains/buffer/v0.1.0/Buffer.sol\":5411:5414  off */\n      dup4\n        /* \"@chainlink/contracts@1.3.0/src/v0.8/vendor/@ensdomains/buffer/v0.1.0/Buffer.sol\":5403:5409  bufptr */\n      dup3\n        /* \"@chainlink/contracts@1.3.0/src/v0.8/vendor/@ensdomains/buffer/v0.1.0/Buffer.sol\":5399:5415  add(bufptr, off) */\n      add\n        /* \"@chainlink/contracts@1.3.0/src/v0.8/vendor/@ensdomains/buffer/v0.1.0/Buffer.sol\":5395:5420  add(add(bufptr, off), 32) */\n      add\n        /* \"@chainlink/contracts@1.3.0/src/v0.8/vendor/@ensdomains/buffer/v0.1.0/Buffer.sol\":5447:5451  data */\n      dup6\n        /* \"@chainlink/contracts@1.3.0/src/v0.8/vendor/@ensdomains/buffer/v0.1.0/Buffer.sol\":5441:5445  dest */\n      dup2\n        /* \"@chainlink/contracts@1.3.0/src/v0.8/vendor/@ensdomains/buffer/v0.1.0/Buffer.sol\":5433:5452  mstore8(dest, data) */\n      mstore8\n        /* \"@chainlink/contracts@1.3.0/src/v0.8/vendor/@ensdomains/buffer/v0.1.0/Buffer.sol\":5543:5549  bufptr */\n      dup2\n        /* \"@chainlink/contracts@1.3.0/src/v0.8/vendor/@ensdomains/buffer/v0.1.0/Buffer.sol\":5537:5550  mload(bufptr) */\n      mload\n        /* \"@chainlink/contracts@1.3.0/src/v0.8/vendor/@ensdomains/buffer/v0.1.0/Buffer.sol\":5525:5535  offPlusOne */\n      dup4\n        /* \"@chainlink/contracts@1.3.0/src/v0.8/vendor/@ensdomains/buffer/v0.1.0/Buffer.sol\":5522:5551  gt(offPlusOne, mload(bufptr)) */\n      gt\n        /* \"@chainlink/contracts@1.3.0/src/v0.8/vendor/@ensdomains/buffer/v0.1.0/Buffer.sol\":5519:5610  if gt(offPlusOne, mload(bufptr)) {... */\n      iszero\n      tag_250\n      jumpi\n        /* \"@chainlink/contracts@1.3.0/src/v0.8/vendor/@ensdomains/buffer/v0.1.0/Buffer.sol\":5585:5595  offPlusOne */\n      dup3\n        /* \"@chainlink/contracts@1.3.0/src/v0.8/vendor/@ensdomains/buffer/v0.1.0/Buffer.sol\":5577:5583  bufptr */\n      dup3\n        /* \"@chainlink/contracts@1.3.0/src/v0.8/vendor/@ensdomains/buffer/v0.1.0/Buffer.sol\":5570:5596  mstore(bufptr, offPlusOne) */\n      mstore\n        /* \"@chainlink/contracts@1.3.0/src/v0.8/vendor/@ensdomains/buffer/v0.1.0/Buffer.sol\":5519:5610  if gt(offPlusOne, mload(bufptr)) {... */\n    tag_250:\n        /* \"@chainlink/contracts@1.3.0/src/v0.8/vendor/@ensdomains/buffer/v0.1.0/Buffer.sol\":5213:5620  {... */\n      pop\n      pop\n        /* \"@chainlink/contracts@1.3.0/src/v0.8/vendor/@ensdomains/buffer/v0.1.0/Buffer.sol\":5637:5640  buf */\n      dup5\n        /* \"@chainlink/contracts@1.3.0/src/v0.8/vendor/@ensdomains/buffer/v0.1.0/Buffer.sol\":5630:5640  return buf */\n      swap3\n      pop\n      pop\n      pop\n        /* \"@chainlink/contracts@1.3.0/src/v0.8/vendor/@ensdomains/buffer/v0.1.0/Buffer.sol\":4948:5647  function appendUint8(buffer memory buf, uint8 data) internal pure returns(buffer memory) {... */\n      swap3\n      swap2\n      pop\n      pop\n      jump\t// out\n        /* \"@chainlink/contracts@1.3.0/src/v0.8/vendor/solidity-cborutils/v2.0.0/CBOR.sol\":6921:7087  function writeIndefiniteLengthType(CBORBuffer memory buf, uint8 major)... */\n    tag_199:\n        /* \"@chainlink/contracts@1.3.0/src/v0.8/vendor/solidity-cborutils/v2.0.0/CBOR.sol\":7035:7080  buf.buf.appendUint8(uint8((major << 5) | 31)) */\n      tag_252\n        /* \"@chainlink/contracts@1.3.0/src/v0.8/vendor/solidity-cborutils/v2.0.0/CBOR.sol\":7076:7078  31 */\n      0x1f\n        /* \"@chainlink/contracts@1.3.0/src/v0.8/vendor/solidity-cborutils/v2.0.0/CBOR.sol\":7071:7072  5 */\n      0x05\n        /* \"@chainlink/contracts@1.3.0/src/v0.8/vendor/solidity-cborutils/v2.0.0/CBOR.sol\":7062:7067  major */\n      dup4\n        /* \"@chainlink/contracts@1.3.0/src/v0.8/vendor/solidity-cborutils/v2.0.0/CBOR.sol\":7062:7072  major << 5 */\n      0xff\n      and\n      swap1\n      shl\n        /* \"@chainlink/contracts@1.3.0/src/v0.8/vendor/solidity-cborutils/v2.0.0/CBOR.sol\":7061:7078  (major << 5) | 31 */\n      or\n        /* \"@chainlink/contracts@1.3.0/src/v0.8/vendor/solidity-cborutils/v2.0.0/CBOR.sol\":7035:7038  buf */\n      dup4\n        /* \"@chainlink/contracts@1.3.0/src/v0.8/vendor/solidity-cborutils/v2.0.0/CBOR.sol\":7035:7042  buf.buf */\n      0x00\n      add\n      mload\n        /* \"@chainlink/contracts@1.3.0/src/v0.8/vendor/solidity-cborutils/v2.0.0/CBOR.sol\":7035:7054  buf.buf.appendUint8 */\n      tag_193\n      swap1\n        /* \"@chainlink/contracts@1.3.0/src/v0.8/vendor/solidity-cborutils/v2.0.0/CBOR.sol\":7035:7080  buf.buf.appendUint8(uint8((major << 5) | 31)) */\n      swap2\n      swap1\n      0xffffffff\n      and\n      jump\t// in\n    tag_252:\n      pop\n        /* \"@chainlink/contracts@1.3.0/src/v0.8/vendor/solidity-cborutils/v2.0.0/CBOR.sol\":6921:7087  function writeIndefiniteLengthType(CBORBuffer memory buf, uint8 major)... */\n      pop\n      pop\n      jump\t// out\n        /* \"@chainlink/contracts@1.3.0/src/v0.8/vendor/@ensdomains/buffer/v0.1.0/Buffer.sol\":8083:8878  function appendInt(buffer memory buf, uint data, uint len) internal pure returns(buffer memory) {... */\n    tag_226:\n        /* \"@chainlink/contracts@1.3.0/src/v0.8/vendor/@ensdomains/buffer/v0.1.0/Buffer.sol\":8164:8177  buffer memory */\n      tag_253\n      tag_210\n      jump\t// in\n    tag_253:\n        /* \"@chainlink/contracts@1.3.0/src/v0.8/vendor/@ensdomains/buffer/v0.1.0/Buffer.sol\":8189:8197  uint off */\n      0x00\n        /* \"@chainlink/contracts@1.3.0/src/v0.8/vendor/@ensdomains/buffer/v0.1.0/Buffer.sol\":8200:8203  buf */\n      dup5\n        /* \"@chainlink/contracts@1.3.0/src/v0.8/vendor/@ensdomains/buffer/v0.1.0/Buffer.sol\":8200:8207  buf.buf */\n      0x00\n      add\n      mload\n        /* \"@chainlink/contracts@1.3.0/src/v0.8/vendor/@ensdomains/buffer/v0.1.0/Buffer.sol\":8200:8214  buf.buf.length */\n      mload\n        /* \"@chainlink/contracts@1.3.0/src/v0.8/vendor/@ensdomains/buffer/v0.1.0/Buffer.sol\":8189:8214  uint off = buf.buf.length */\n      swap1\n      pop\n        /* \"@chainlink/contracts@1.3.0/src/v0.8/vendor/@ensdomains/buffer/v0.1.0/Buffer.sol\":8224:8240  uint newCapacity */\n      0x00\n        /* \"@chainlink/contracts@1.3.0/src/v0.8/vendor/@ensdomains/buffer/v0.1.0/Buffer.sol\":8249:8252  off */\n      dup2\n        /* \"@chainlink/contracts@1.3.0/src/v0.8/vendor/@ensdomains/buffer/v0.1.0/Buffer.sol\":8243:8246  len */\n      dup5\n        /* \"@chainlink/contracts@1.3.0/src/v0.8/vendor/@ensdomains/buffer/v0.1.0/Buffer.sol\":8243:8252  len + off */\n      tag_255\n      swap2\n      swap1\n      tag_201\n      jump\t// in\n    tag_255:\n        /* \"@chainlink/contracts@1.3.0/src/v0.8/vendor/@ensdomains/buffer/v0.1.0/Buffer.sol\":8224:8252  uint newCapacity = len + off */\n      swap1\n      pop\n        /* \"@chainlink/contracts@1.3.0/src/v0.8/vendor/@ensdomains/buffer/v0.1.0/Buffer.sol\":8280:8283  buf */\n      dup6\n        /* \"@chainlink/contracts@1.3.0/src/v0.8/vendor/@ensdomains/buffer/v0.1.0/Buffer.sol\":8280:8292  buf.capacity */\n      0x20\n      add\n      mload\n        /* \"@chainlink/contracts@1.3.0/src/v0.8/vendor/@ensdomains/buffer/v0.1.0/Buffer.sol\":8266:8277  newCapacity */\n      dup2\n        /* \"@chainlink/contracts@1.3.0/src/v0.8/vendor/@ensdomains/buffer/v0.1.0/Buffer.sol\":8266:8292  newCapacity > buf.capacity */\n      gt\n        /* \"@chainlink/contracts@1.3.0/src/v0.8/vendor/@ensdomains/buffer/v0.1.0/Buffer.sol\":8262:8347  if (newCapacity > buf.capacity) {... */\n      iszero\n      tag_256\n      jumpi\n        /* \"@chainlink/contracts@1.3.0/src/v0.8/vendor/@ensdomains/buffer/v0.1.0/Buffer.sol\":8308:8336  resize(buf, newCapacity * 2) */\n      tag_257\n        /* \"@chainlink/contracts@1.3.0/src/v0.8/vendor/@ensdomains/buffer/v0.1.0/Buffer.sol\":8315:8318  buf */\n      dup7\n        /* \"@chainlink/contracts@1.3.0/src/v0.8/vendor/@ensdomains/buffer/v0.1.0/Buffer.sol\":8334:8335  2 */\n      0x02\n        /* \"@chainlink/contracts@1.3.0/src/v0.8/vendor/@ensdomains/buffer/v0.1.0/Buffer.sol\":8320:8331  newCapacity */\n      dup4\n        /* \"@chainlink/contracts@1.3.0/src/v0.8/vendor/@ensdomains/buffer/v0.1.0/Buffer.sol\":8320:8335  newCapacity * 2 */\n      tag_258\n      swap2\n      swap1\n      tag_248\n      jump\t// in\n    tag_258:\n        /* \"@chainlink/contracts@1.3.0/src/v0.8/vendor/@ensdomains/buffer/v0.1.0/Buffer.sol\":8308:8314  resize */\n      tag_249\n        /* \"@chainlink/contracts@1.3.0/src/v0.8/vendor/@ensdomains/buffer/v0.1.0/Buffer.sol\":8308:8336  resize(buf, newCapacity * 2) */\n      jump\t// in\n    tag_257:\n        /* \"@chainlink/contracts@1.3.0/src/v0.8/vendor/@ensdomains/buffer/v0.1.0/Buffer.sol\":8262:8347  if (newCapacity > buf.capacity) {... */\n    tag_256:\n        /* \"@chainlink/contracts@1.3.0/src/v0.8/vendor/@ensdomains/buffer/v0.1.0/Buffer.sol\":8357:8366  uint mask */\n      0x00\n        /* \"@chainlink/contracts@1.3.0/src/v0.8/vendor/@ensdomains/buffer/v0.1.0/Buffer.sol\":8384:8385  1 */\n      0x01\n        /* \"@chainlink/contracts@1.3.0/src/v0.8/vendor/@ensdomains/buffer/v0.1.0/Buffer.sol\":8377:8380  len */\n      dup6\n        /* \"@chainlink/contracts@1.3.0/src/v0.8/vendor/@ensdomains/buffer/v0.1.0/Buffer.sol\":8370:8373  256 */\n      0x0100\n        /* \"@chainlink/contracts@1.3.0/src/v0.8/vendor/@ensdomains/buffer/v0.1.0/Buffer.sol\":8370:8380  256 ** len */\n      tag_259\n      swap2\n      swap1\n      tag_260\n      jump\t// in\n    tag_259:\n        /* \"@chainlink/contracts@1.3.0/src/v0.8/vendor/@ensdomains/buffer/v0.1.0/Buffer.sol\":8369:8385  (256 ** len) - 1 */\n      tag_261\n      swap2\n      swap1\n      tag_205\n      jump\t// in\n    tag_261:\n        /* \"@chainlink/contracts@1.3.0/src/v0.8/vendor/@ensdomains/buffer/v0.1.0/Buffer.sol\":8357:8385  uint mask = (256 ** len) - 1 */\n      swap1\n      pop\n        /* \"@chainlink/contracts@1.3.0/src/v0.8/vendor/@ensdomains/buffer/v0.1.0/Buffer.sol\":8487:8490  buf */\n      dup7\n        /* \"@chainlink/contracts@1.3.0/src/v0.8/vendor/@ensdomains/buffer/v0.1.0/Buffer.sol\":8481:8491  mload(buf) */\n      mload\n        /* \"@chainlink/contracts@1.3.0/src/v0.8/vendor/@ensdomains/buffer/v0.1.0/Buffer.sol\":8606:8617  newCapacity */\n      dup3\n        /* \"@chainlink/contracts@1.3.0/src/v0.8/vendor/@ensdomains/buffer/v0.1.0/Buffer.sol\":8598:8604  bufptr */\n      dup2\n        /* \"@chainlink/contracts@1.3.0/src/v0.8/vendor/@ensdomains/buffer/v0.1.0/Buffer.sol\":8594:8618  add(bufptr, newCapacity) */\n      add\n        /* \"@chainlink/contracts@1.3.0/src/v0.8/vendor/@ensdomains/buffer/v0.1.0/Buffer.sol\":8676:8680  data */\n      dup8\n        /* \"@chainlink/contracts@1.3.0/src/v0.8/vendor/@ensdomains/buffer/v0.1.0/Buffer.sol\":8668:8672  mask */\n      dup4\n        /* \"@chainlink/contracts@1.3.0/src/v0.8/vendor/@ensdomains/buffer/v0.1.0/Buffer.sol\":8664:8673  not(mask) */\n      not\n        /* \"@chainlink/contracts@1.3.0/src/v0.8/vendor/@ensdomains/buffer/v0.1.0/Buffer.sol\":8657:8661  dest */\n      dup3\n        /* \"@chainlink/contracts@1.3.0/src/v0.8/vendor/@ensdomains/buffer/v0.1.0/Buffer.sol\":8651:8662  mload(dest) */\n      mload\n        /* \"@chainlink/contracts@1.3.0/src/v0.8/vendor/@ensdomains/buffer/v0.1.0/Buffer.sol\":8647:8674  and(mload(dest), not(mask)) */\n      and\n        /* \"@chainlink/contracts@1.3.0/src/v0.8/vendor/@ensdomains/buffer/v0.1.0/Buffer.sol\":8644:8681  or(and(mload(dest), not(mask)), data) */\n      or\n        /* \"@chainlink/contracts@1.3.0/src/v0.8/vendor/@ensdomains/buffer/v0.1.0/Buffer.sol\":8638:8642  dest */\n      dup2\n        /* \"@chainlink/contracts@1.3.0/src/v0.8/vendor/@ensdomains/buffer/v0.1.0/Buffer.sol\":8631:8682  mstore(dest, or(and(mload(dest), not(mask)), data)) */\n      mstore\n        /* \"@chainlink/contracts@1.3.0/src/v0.8/vendor/@ensdomains/buffer/v0.1.0/Buffer.sol\":8774:8780  bufptr */\n      dup2\n        /* \"@chainlink/contracts@1.3.0/src/v0.8/vendor/@ensdomains/buffer/v0.1.0/Buffer.sol\":8768:8781  mload(bufptr) */\n      mload\n        /* \"@chainlink/contracts@1.3.0/src/v0.8/vendor/@ensdomains/buffer/v0.1.0/Buffer.sol\":8755:8766  newCapacity */\n      dup5\n        /* \"@chainlink/contracts@1.3.0/src/v0.8/vendor/@ensdomains/buffer/v0.1.0/Buffer.sol\":8752:8782  gt(newCapacity, mload(bufptr)) */\n      gt\n        /* \"@chainlink/contracts@1.3.0/src/v0.8/vendor/@ensdomains/buffer/v0.1.0/Buffer.sol\":8749:8842  if gt(newCapacity, mload(bufptr)) {... */\n      iszero\n      tag_262\n      jumpi\n        /* \"@chainlink/contracts@1.3.0/src/v0.8/vendor/@ensdomains/buffer/v0.1.0/Buffer.sol\":8816:8827  newCapacity */\n      dup4\n        /* \"@chainlink/contracts@1.3.0/src/v0.8/vendor/@ensdomains/buffer/v0.1.0/Buffer.sol\":8808:8814  bufptr */\n      dup3\n        /* \"@chainlink/contracts@1.3.0/src/v0.8/vendor/@ensdomains/buffer/v0.1.0/Buffer.sol\":8801:8828  mstore(bufptr, newCapacity) */\n      mstore\n        /* \"@chainlink/contracts@1.3.0/src/v0.8/vendor/@ensdomains/buffer/v0.1.0/Buffer.sol\":8749:8842  if gt(newCapacity, mload(bufptr)) {... */\n    tag_262:\n        /* \"@chainlink/contracts@1.3.0/src/v0.8/vendor/@ensdomains/buffer/v0.1.0/Buffer.sol\":8404:8852  {... */\n      pop\n      pop\n        /* \"@chainlink/contracts@1.3.0/src/v0.8/vendor/@ensdomains/buffer/v0.1.0/Buffer.sol\":8868:8871  buf */\n      dup7\n        /* \"@chainlink/contracts@1.3.0/src/v0.8/vendor/@ensdomains/buffer/v0.1.0/Buffer.sol\":8861:8871  return buf */\n      swap4\n      pop\n      pop\n      pop\n      pop\n        /* \"@chainlink/contracts@1.3.0/src/v0.8/vendor/@ensdomains/buffer/v0.1.0/Buffer.sol\":8083:8878  function appendInt(buffer memory buf, uint data, uint len) internal pure returns(buffer memory) {... */\n      swap4\n      swap3\n      pop\n      pop\n      pop\n      jump\t// out\n        /* \"@chainlink/contracts@1.3.0/src/v0.8/vendor/@ensdomains/buffer/v0.1.0/Buffer.sol\":2844:4271  function append(buffer memory buf, bytes memory data, uint len) internal pure returns(buffer memory) {... */\n    tag_241:\n        /* \"@chainlink/contracts@1.3.0/src/v0.8/vendor/@ensdomains/buffer/v0.1.0/Buffer.sol\":2930:2943  buffer memory */\n      tag_263\n      tag_210\n      jump\t// in\n    tag_263:\n        /* \"@chainlink/contracts@1.3.0/src/v0.8/vendor/@ensdomains/buffer/v0.1.0/Buffer.sol\":2970:2974  data */\n      dup3\n        /* \"@chainlink/contracts@1.3.0/src/v0.8/vendor/@ensdomains/buffer/v0.1.0/Buffer.sol\":2970:2981  data.length */\n      mload\n        /* \"@chainlink/contracts@1.3.0/src/v0.8/vendor/@ensdomains/buffer/v0.1.0/Buffer.sol\":2963:2966  len */\n      dup3\n        /* \"@chainlink/contracts@1.3.0/src/v0.8/vendor/@ensdomains/buffer/v0.1.0/Buffer.sol\":2963:2981  len <= data.length */\n      gt\n      iszero\n        /* \"@chainlink/contracts@1.3.0/src/v0.8/vendor/@ensdomains/buffer/v0.1.0/Buffer.sol\":2955:2982  require(len <= data.length) */\n      tag_265\n      jumpi\n      revert(0x00, 0x00)\n    tag_265:\n        /* \"@chainlink/contracts@1.3.0/src/v0.8/vendor/@ensdomains/buffer/v0.1.0/Buffer.sol\":2993:3001  uint off */\n      0x00\n        /* \"@chainlink/contracts@1.3.0/src/v0.8/vendor/@ensdomains/buffer/v0.1.0/Buffer.sol\":3004:3007  buf */\n      dup5\n        /* \"@chainlink/contracts@1.3.0/src/v0.8/vendor/@ensdomains/buffer/v0.1.0/Buffer.sol\":3004:3011  buf.buf */\n      0x00\n      add\n      mload\n        /* \"@chainlink/contracts@1.3.0/src/v0.8/vendor/@ensdomains/buffer/v0.1.0/Buffer.sol\":3004:3018  buf.buf.length */\n      mload\n        /* \"@chainlink/contracts@1.3.0/src/v0.8/vendor/@ensdomains/buffer/v0.1.0/Buffer.sol\":2993:3018  uint off = buf.buf.length */\n      swap1\n      pop\n        /* \"@chainlink/contracts@1.3.0/src/v0.8/vendor/@ensdomains/buffer/v0.1.0/Buffer.sol\":3028:3044  uint newCapacity */\n      0x00\n        /* \"@chainlink/contracts@1.3.0/src/v0.8/vendor/@ensdomains/buffer/v0.1.0/Buffer.sol\":3053:3056  len */\n      dup4\n        /* \"@chainlink/contracts@1.3.0/src/v0.8/vendor/@ensdomains/buffer/v0.1.0/Buffer.sol\":3047:3050  off */\n      dup3\n        /* \"@chainlink/contracts@1.3.0/src/v0.8/vendor/@ensdomains/buffer/v0.1.0/Buffer.sol\":3047:3056  off + len */\n      tag_266\n      swap2\n      swap1\n      tag_201\n      jump\t// in\n    tag_266:\n        /* \"@chainlink/contracts@1.3.0/src/v0.8/vendor/@ensdomains/buffer/v0.1.0/Buffer.sol\":3028:3056  uint newCapacity = off + len */\n      swap1\n      pop\n        /* \"@chainlink/contracts@1.3.0/src/v0.8/vendor/@ensdomains/buffer/v0.1.0/Buffer.sol\":3084:3087  buf */\n      dup6\n        /* \"@chainlink/contracts@1.3.0/src/v0.8/vendor/@ensdomains/buffer/v0.1.0/Buffer.sol\":3084:3096  buf.capacity */\n      0x20\n      add\n      mload\n        /* \"@chainlink/contracts@1.3.0/src/v0.8/vendor/@ensdomains/buffer/v0.1.0/Buffer.sol\":3070:3081  newCapacity */\n      dup2\n        /* \"@chainlink/contracts@1.3.0/src/v0.8/vendor/@ensdomains/buffer/v0.1.0/Buffer.sol\":3070:3096  newCapacity > buf.capacity */\n      gt\n        /* \"@chainlink/contracts@1.3.0/src/v0.8/vendor/@ensdomains/buffer/v0.1.0/Buffer.sol\":3066:3151  if (newCapacity > buf.capacity) {... */\n      iszero\n      tag_267\n      jumpi\n        /* \"@chainlink/contracts@1.3.0/src/v0.8/vendor/@ensdomains/buffer/v0.1.0/Buffer.sol\":3112:3140  resize(buf, newCapacity * 2) */\n      tag_268\n        /* \"@chainlink/contracts@1.3.0/src/v0.8/vendor/@ensdomains/buffer/v0.1.0/Buffer.sol\":3119:3122  buf */\n      dup7\n        /* \"@chainlink/contracts@1.3.0/src/v0.8/vendor/@ensdomains/buffer/v0.1.0/Buffer.sol\":3138:3139  2 */\n      0x02\n        /* \"@chainlink/contracts@1.3.0/src/v0.8/vendor/@ensdomains/buffer/v0.1.0/Buffer.sol\":3124:3135  newCapacity */\n      dup4\n        /* \"@chainlink/contracts@1.3.0/src/v0.8/vendor/@ensdomains/buffer/v0.1.0/Buffer.sol\":3124:3139  newCapacity * 2 */\n      tag_269\n      swap2\n      swap1\n      tag_248\n      jump\t// in\n    tag_269:\n        /* \"@chainlink/contracts@1.3.0/src/v0.8/vendor/@ensdomains/buffer/v0.1.0/Buffer.sol\":3112:3118  resize */\n      tag_249\n        /* \"@chainlink/contracts@1.3.0/src/v0.8/vendor/@ensdomains/buffer/v0.1.0/Buffer.sol\":3112:3140  resize(buf, newCapacity * 2) */\n      jump\t// in\n    tag_268:\n        /* \"@chainlink/contracts@1.3.0/src/v0.8/vendor/@ensdomains/buffer/v0.1.0/Buffer.sol\":3066:3151  if (newCapacity > buf.capacity) {... */\n    tag_267:\n        /* \"@chainlink/contracts@1.3.0/src/v0.8/vendor/@ensdomains/buffer/v0.1.0/Buffer.sol\":3161:3170  uint dest */\n      0x00\n        /* \"@chainlink/contracts@1.3.0/src/v0.8/vendor/@ensdomains/buffer/v0.1.0/Buffer.sol\":3180:3188  uint src */\n      0x00\n        /* \"@chainlink/contracts@1.3.0/src/v0.8/vendor/@ensdomains/buffer/v0.1.0/Buffer.sol\":3290:3293  buf */\n      dup8\n        /* \"@chainlink/contracts@1.3.0/src/v0.8/vendor/@ensdomains/buffer/v0.1.0/Buffer.sol\":3284:3294  mload(buf) */\n      mload\n        /* \"@chainlink/contracts@1.3.0/src/v0.8/vendor/@ensdomains/buffer/v0.1.0/Buffer.sol\":3373:3379  bufptr */\n      dup1\n        /* \"@chainlink/contracts@1.3.0/src/v0.8/vendor/@ensdomains/buffer/v0.1.0/Buffer.sol\":3367:3380  mload(bufptr) */\n      mload\n        /* \"@chainlink/contracts@1.3.0/src/v0.8/vendor/@ensdomains/buffer/v0.1.0/Buffer.sol\":3501:3504  off */\n      dup6\n        /* \"@chainlink/contracts@1.3.0/src/v0.8/vendor/@ensdomains/buffer/v0.1.0/Buffer.sol\":3496:3498  32 */\n      0x20\n        /* \"@chainlink/contracts@1.3.0/src/v0.8/vendor/@ensdomains/buffer/v0.1.0/Buffer.sol\":3488:3494  bufptr */\n      dup4\n        /* \"@chainlink/contracts@1.3.0/src/v0.8/vendor/@ensdomains/buffer/v0.1.0/Buffer.sol\":3484:3499  add(bufptr, 32) */\n      add\n        /* \"@chainlink/contracts@1.3.0/src/v0.8/vendor/@ensdomains/buffer/v0.1.0/Buffer.sol\":3480:3505  add(add(bufptr, 32), off) */\n      add\n        /* \"@chainlink/contracts@1.3.0/src/v0.8/vendor/@ensdomains/buffer/v0.1.0/Buffer.sol\":3472:3505  dest := add(add(bufptr, 32), off) */\n      swap4\n      pop\n        /* \"@chainlink/contracts@1.3.0/src/v0.8/vendor/@ensdomains/buffer/v0.1.0/Buffer.sol\":3595:3601  buflen */\n      dup1\n        /* \"@chainlink/contracts@1.3.0/src/v0.8/vendor/@ensdomains/buffer/v0.1.0/Buffer.sol\":3582:3593  newCapacity */\n      dup6\n        /* \"@chainlink/contracts@1.3.0/src/v0.8/vendor/@ensdomains/buffer/v0.1.0/Buffer.sol\":3579:3602  gt(newCapacity, buflen) */\n      gt\n        /* \"@chainlink/contracts@1.3.0/src/v0.8/vendor/@ensdomains/buffer/v0.1.0/Buffer.sol\":3576:3662  if gt(newCapacity, buflen) {... */\n      iszero\n      tag_270\n      jumpi\n        /* \"@chainlink/contracts@1.3.0/src/v0.8/vendor/@ensdomains/buffer/v0.1.0/Buffer.sol\":3636:3647  newCapacity */\n      dup5\n        /* \"@chainlink/contracts@1.3.0/src/v0.8/vendor/@ensdomains/buffer/v0.1.0/Buffer.sol\":3628:3634  bufptr */\n      dup3\n        /* \"@chainlink/contracts@1.3.0/src/v0.8/vendor/@ensdomains/buffer/v0.1.0/Buffer.sol\":3621:3648  mstore(bufptr, newCapacity) */\n      mstore\n        /* \"@chainlink/contracts@1.3.0/src/v0.8/vendor/@ensdomains/buffer/v0.1.0/Buffer.sol\":3576:3662  if gt(newCapacity, buflen) {... */\n    tag_270:\n        /* \"@chainlink/contracts@1.3.0/src/v0.8/vendor/@ensdomains/buffer/v0.1.0/Buffer.sol\":3692:3694  32 */\n      0x20\n        /* \"@chainlink/contracts@1.3.0/src/v0.8/vendor/@ensdomains/buffer/v0.1.0/Buffer.sol\":3686:3690  data */\n      dup10\n        /* \"@chainlink/contracts@1.3.0/src/v0.8/vendor/@ensdomains/buffer/v0.1.0/Buffer.sol\":3682:3695  add(data, 32) */\n      add\n        /* \"@chainlink/contracts@1.3.0/src/v0.8/vendor/@ensdomains/buffer/v0.1.0/Buffer.sol\":3675:3695  src := add(data, 32) */\n      swap3\n      pop\n        /* \"@chainlink/contracts@1.3.0/src/v0.8/vendor/@ensdomains/buffer/v0.1.0/Buffer.sol\":3207:3705  {... */\n      pop\n      pop\n        /* \"@chainlink/contracts@1.3.0/src/v0.8/vendor/@ensdomains/buffer/v0.1.0/Buffer.sol\":3765:3930  for (; len >= 32; len -= 32) {... */\n    tag_271:\n        /* \"@chainlink/contracts@1.3.0/src/v0.8/vendor/@ensdomains/buffer/v0.1.0/Buffer.sol\":3779:3781  32 */\n      0x20\n        /* \"@chainlink/contracts@1.3.0/src/v0.8/vendor/@ensdomains/buffer/v0.1.0/Buffer.sol\":3772:3775  len */\n      dup7\n        /* \"@chainlink/contracts@1.3.0/src/v0.8/vendor/@ensdomains/buffer/v0.1.0/Buffer.sol\":3772:3781  len >= 32 */\n      lt\n        /* \"@chainlink/contracts@1.3.0/src/v0.8/vendor/@ensdomains/buffer/v0.1.0/Buffer.sol\":3765:3930  for (; len >= 32; len -= 32) {... */\n      tag_272\n      jumpi\n        /* \"@chainlink/contracts@1.3.0/src/v0.8/vendor/@ensdomains/buffer/v0.1.0/Buffer.sol\":3854:3857  src */\n      dup1\n        /* \"@chainlink/contracts@1.3.0/src/v0.8/vendor/@ensdomains/buffer/v0.1.0/Buffer.sol\":3848:3858  mload(src) */\n      mload\n        /* \"@chainlink/contracts@1.3.0/src/v0.8/vendor/@ensdomains/buffer/v0.1.0/Buffer.sol\":3842:3846  dest */\n      dup3\n        /* \"@chainlink/contracts@1.3.0/src/v0.8/vendor/@ensdomains/buffer/v0.1.0/Buffer.sol\":3835:3859  mstore(dest, mload(src)) */\n      mstore\n        /* \"@chainlink/contracts@1.3.0/src/v0.8/vendor/@ensdomains/buffer/v0.1.0/Buffer.sol\":3894:3896  32 */\n      0x20\n        /* \"@chainlink/contracts@1.3.0/src/v0.8/vendor/@ensdomains/buffer/v0.1.0/Buffer.sol\":3886:3896  dest += 32 */\n      dup3\n      tag_274\n      swap2\n      swap1\n      tag_201\n      jump\t// in\n    tag_274:\n      swap2\n      pop\n        /* \"@chainlink/contracts@1.3.0/src/v0.8/vendor/@ensdomains/buffer/v0.1.0/Buffer.sol\":3917:3919  32 */\n      0x20\n        /* \"@chainlink/contracts@1.3.0/src/v0.8/vendor/@ensdomains/buffer/v0.1.0/Buffer.sol\":3910:3919  src += 32 */\n      dup2\n      tag_275\n      swap2\n      swap1\n      tag_201\n      jump\t// in\n    tag_275:\n      swap1\n      pop\n        /* \"@chainlink/contracts@1.3.0/src/v0.8/vendor/@ensdomains/buffer/v0.1.0/Buffer.sol\":3790:3792  32 */\n      0x20\n        /* \"@chainlink/contracts@1.3.0/src/v0.8/vendor/@ensdomains/buffer/v0.1.0/Buffer.sol\":3783:3792  len -= 32 */\n      dup7\n      tag_276\n      swap2\n      swap1\n      tag_205\n      jump\t// in\n    tag_276:\n      swap6\n      pop\n        /* \"@chainlink/contracts@1.3.0/src/v0.8/vendor/@ensdomains/buffer/v0.1.0/Buffer.sol\":3765:3930  for (; len >= 32; len -= 32) {... */\n      jump(tag_271)\n    tag_272:\n        /* \"@chainlink/contracts@1.3.0/src/v0.8/vendor/@ensdomains/buffer/v0.1.0/Buffer.sol\":3996:4005  uint mask */\n      0x00\n        /* \"@chainlink/contracts@1.3.0/src/v0.8/vendor/@ensdomains/buffer/v0.1.0/Buffer.sol\":4030:4031  1 */\n      0x01\n        /* \"@chainlink/contracts@1.3.0/src/v0.8/vendor/@ensdomains/buffer/v0.1.0/Buffer.sol\":4022:4025  len */\n      dup8\n        /* \"@chainlink/contracts@1.3.0/src/v0.8/vendor/@ensdomains/buffer/v0.1.0/Buffer.sol\":4017:4019  32 */\n      0x20\n        /* \"@chainlink/contracts@1.3.0/src/v0.8/vendor/@ensdomains/buffer/v0.1.0/Buffer.sol\":4017:4025  32 - len */\n      sub\n        /* \"@chainlink/contracts@1.3.0/src/v0.8/vendor/@ensdomains/buffer/v0.1.0/Buffer.sol\":4009:4012  256 */\n      0x0100\n        /* \"@chainlink/contracts@1.3.0/src/v0.8/vendor/@ensdomains/buffer/v0.1.0/Buffer.sol\":4009:4026  256 ** (32 - len) */\n      exp\n        /* \"@chainlink/contracts@1.3.0/src/v0.8/vendor/@ensdomains/buffer/v0.1.0/Buffer.sol\":4008:4031  (256 ** (32 - len)) - 1 */\n      sub\n        /* \"@chainlink/contracts@1.3.0/src/v0.8/vendor/@ensdomains/buffer/v0.1.0/Buffer.sol\":3996:4031  uint mask = (256 ** (32 - len)) - 1 */\n      swap1\n      pop\n        /* \"@chainlink/contracts@1.3.0/src/v0.8/vendor/@ensdomains/buffer/v0.1.0/Buffer.sol\":4107:4111  mask */\n      dup1\n        /* \"@chainlink/contracts@1.3.0/src/v0.8/vendor/@ensdomains/buffer/v0.1.0/Buffer.sol\":4103:4112  not(mask) */\n      not\n        /* \"@chainlink/contracts@1.3.0/src/v0.8/vendor/@ensdomains/buffer/v0.1.0/Buffer.sol\":4097:4100  src */\n      dup3\n        /* \"@chainlink/contracts@1.3.0/src/v0.8/vendor/@ensdomains/buffer/v0.1.0/Buffer.sol\":4091:4101  mload(src) */\n      mload\n        /* \"@chainlink/contracts@1.3.0/src/v0.8/vendor/@ensdomains/buffer/v0.1.0/Buffer.sol\":4087:4113  and(mload(src), not(mask)) */\n      and\n        /* \"@chainlink/contracts@1.3.0/src/v0.8/vendor/@ensdomains/buffer/v0.1.0/Buffer.sol\":4163:4167  mask */\n      dup2\n        /* \"@chainlink/contracts@1.3.0/src/v0.8/vendor/@ensdomains/buffer/v0.1.0/Buffer.sol\":4156:4160  dest */\n      dup5\n        /* \"@chainlink/contracts@1.3.0/src/v0.8/vendor/@ensdomains/buffer/v0.1.0/Buffer.sol\":4150:4161  mload(dest) */\n      mload\n        /* \"@chainlink/contracts@1.3.0/src/v0.8/vendor/@ensdomains/buffer/v0.1.0/Buffer.sol\":4146:4168  and(mload(dest), mask) */\n      and\n        /* \"@chainlink/contracts@1.3.0/src/v0.8/vendor/@ensdomains/buffer/v0.1.0/Buffer.sol\":4211:4218  srcpart */\n      dup2\n        /* \"@chainlink/contracts@1.3.0/src/v0.8/vendor/@ensdomains/buffer/v0.1.0/Buffer.sol\":4201:4209  destpart */\n      dup2\n        /* \"@chainlink/contracts@1.3.0/src/v0.8/vendor/@ensdomains/buffer/v0.1.0/Buffer.sol\":4198:4219  or(destpart, srcpart) */\n      or\n        /* \"@chainlink/contracts@1.3.0/src/v0.8/vendor/@ensdomains/buffer/v0.1.0/Buffer.sol\":4192:4196  dest */\n      dup6\n        /* \"@chainlink/contracts@1.3.0/src/v0.8/vendor/@ensdomains/buffer/v0.1.0/Buffer.sol\":4185:4220  mstore(dest, or(destpart, srcpart)) */\n      mstore\n        /* \"@chainlink/contracts@1.3.0/src/v0.8/vendor/@ensdomains/buffer/v0.1.0/Buffer.sol\":4054:4234  {... */\n      pop\n      pop\n      pop\n        /* \"@chainlink/contracts@1.3.0/src/v0.8/vendor/@ensdomains/buffer/v0.1.0/Buffer.sol\":4261:4264  buf */\n      dup8\n        /* \"@chainlink/contracts@1.3.0/src/v0.8/vendor/@ensdomains/buffer/v0.1.0/Buffer.sol\":4254:4264  return buf */\n      swap5\n      pop\n      pop\n      pop\n      pop\n      pop\n        /* \"@chainlink/contracts@1.3.0/src/v0.8/vendor/@ensdomains/buffer/v0.1.0/Buffer.sol\":2844:4271  function append(buffer memory buf, bytes memory data, uint len) internal pure returns(buffer memory) {... */\n      swap4\n      swap3\n      pop\n      pop\n      pop\n      jump\t// out\n        /* \"@chainlink/contracts@1.3.0/src/v0.8/vendor/@ensdomains/buffer/v0.1.0/Buffer.sol\":2004:2171  function resize(buffer memory buf, uint capacity) private pure {... */\n    tag_249:\n        /* \"@chainlink/contracts@1.3.0/src/v0.8/vendor/@ensdomains/buffer/v0.1.0/Buffer.sol\":2077:2096  bytes memory oldbuf */\n      0x00\n        /* \"@chainlink/contracts@1.3.0/src/v0.8/vendor/@ensdomains/buffer/v0.1.0/Buffer.sol\":2099:2102  buf */\n      dup3\n        /* \"@chainlink/contracts@1.3.0/src/v0.8/vendor/@ensdomains/buffer/v0.1.0/Buffer.sol\":2099:2106  buf.buf */\n      0x00\n      add\n      mload\n        /* \"@chainlink/contracts@1.3.0/src/v0.8/vendor/@ensdomains/buffer/v0.1.0/Buffer.sol\":2077:2106  bytes memory oldbuf = buf.buf */\n      swap1\n      pop\n        /* \"@chainlink/contracts@1.3.0/src/v0.8/vendor/@ensdomains/buffer/v0.1.0/Buffer.sol\":2116:2135  init(buf, capacity) */\n      tag_278\n        /* \"@chainlink/contracts@1.3.0/src/v0.8/vendor/@ensdomains/buffer/v0.1.0/Buffer.sol\":2121:2124  buf */\n      dup4\n        /* \"@chainlink/contracts@1.3.0/src/v0.8/vendor/@ensdomains/buffer/v0.1.0/Buffer.sol\":2126:2134  capacity */\n      dup4\n        /* \"@chainlink/contracts@1.3.0/src/v0.8/vendor/@ensdomains/buffer/v0.1.0/Buffer.sol\":2116:2120  init */\n      tag_185\n        /* \"@chainlink/contracts@1.3.0/src/v0.8/vendor/@ensdomains/buffer/v0.1.0/Buffer.sol\":2116:2135  init(buf, capacity) */\n      jump\t// in\n    tag_278:\n      pop\n        /* \"@chainlink/contracts@1.3.0/src/v0.8/vendor/@ensdomains/buffer/v0.1.0/Buffer.sol\":2145:2164  append(buf, oldbuf) */\n      tag_279\n        /* \"@chainlink/contracts@1.3.0/src/v0.8/vendor/@ensdomains/buffer/v0.1.0/Buffer.sol\":2152:2155  buf */\n      dup4\n        /* \"@chainlink/contracts@1.3.0/src/v0.8/vendor/@ensdomains/buffer/v0.1.0/Buffer.sol\":2157:2163  oldbuf */\n      dup3\n        /* \"@chainlink/contracts@1.3.0/src/v0.8/vendor/@ensdomains/buffer/v0.1.0/Buffer.sol\":2145:2151  append */\n      tag_190\n        /* \"@chainlink/contracts@1.3.0/src/v0.8/vendor/@ensdomains/buffer/v0.1.0/Buffer.sol\":2145:2164  append(buf, oldbuf) */\n      jump\t// in\n    tag_279:\n      pop\n        /* \"@chainlink/contracts@1.3.0/src/v0.8/vendor/@ensdomains/buffer/v0.1.0/Buffer.sol\":2067:2171  {... */\n      pop\n        /* \"@chainlink/contracts@1.3.0/src/v0.8/vendor/@ensdomains/buffer/v0.1.0/Buffer.sol\":2004:2171  function resize(buffer memory buf, uint capacity) private pure {... */\n      pop\n      pop\n      jump\t// out\n    tag_78:\n      mload(0x40)\n      dup1\n      0xe0\n      add\n      0x40\n      mstore\n      dup1\n      0x00\n      0x02\n      dup2\n      gt\n      iszero\n      tag_280\n      jumpi\n      tag_281\n      tag_121\n      jump\t// in\n    tag_281:\n    tag_280:\n      dup2\n      mstore\n      0x20\n      add\n      0x00\n      0x02\n      dup2\n      gt\n      iszero\n      tag_282\n      jumpi\n      tag_283\n      tag_121\n      jump\t// in\n    tag_283:\n    tag_282:\n      dup2\n      mstore\n      0x20\n      add\n      0x00\n      0x00\n      dup2\n      gt\n      iszero\n      tag_284\n      jumpi\n      tag_285\n      tag_121\n      jump\t// in\n    tag_285:\n    tag_284:\n      dup2\n      mstore\n      0x20\n      add\n      0x60\n      dup2\n      mstore\n      0x20\n      add\n      0x60\n      dup2\n      mstore\n      0x20\n      add\n      0x60\n      dup2\n      mstore\n      0x20\n      add\n      0x60\n      dup2\n      mstore\n      pop\n      swap1\n      jump\t// out\n    tag_182:\n      mload(0x40)\n      dup1\n      0x40\n      add\n      0x40\n      mstore\n      dup1\n      tag_286\n      tag_210\n      jump\t// in\n    tag_286:\n      dup2\n      mstore\n      0x20\n      add\n      0x00\n      dup2\n      mstore\n      pop\n      swap1\n      jump\t// out\n    tag_210:\n      mload(0x40)\n      dup1\n      0x40\n      add\n      0x40\n      mstore\n      dup1\n      0x60\n      dup2\n      mstore\n      0x20\n      add\n      0x00\n      dup2\n      mstore\n      pop\n      swap1\n      jump\t// out\n        /* \"#utility.yul\":7:106   */\n    tag_287:\n        /* \"#utility.yul\":59:65   */\n      0x00\n        /* \"#utility.yul\":93:98   */\n      dup2\n        /* \"#utility.yul\":87:99   */\n      mload\n        /* \"#utility.yul\":77:99   */\n      swap1\n      pop\n        /* \"#utility.yul\":7:106   */\n      swap2\n      swap1\n      pop\n      jump\t// out\n        /* \"#utility.yul\":112:281   */\n    tag_288:\n        /* \"#utility.yul\":196:207   */\n      0x00\n        /* \"#utility.yul\":230:236   */\n      dup3\n        /* \"#utility.yul\":225:228   */\n      dup3\n        /* \"#utility.yul\":218:237   */\n      mstore\n        /* \"#utility.yul\":270:274   */\n      0x20\n        /* \"#utility.yul\":265:268   */\n      dup3\n        /* \"#utility.yul\":261:275   */\n      add\n        /* \"#utility.yul\":246:275   */\n      swap1\n      pop\n        /* \"#utility.yul\":112:281   */\n      swap3\n      swap2\n      pop\n      pop\n      jump\t// out\n        /* \"#utility.yul\":287:426   */\n    tag_289:\n        /* \"#utility.yul\":376:382   */\n      dup3\n        /* \"#utility.yul\":371:374   */\n      dup2\n        /* \"#utility.yul\":366:369   */\n      dup4\n        /* \"#utility.yul\":360:383   */\n      mcopy\n        /* \"#utility.yul\":417:418   */\n      0x00\n        /* \"#utility.yul\":408:414   */\n      dup4\n        /* \"#utility.yul\":403:406   */\n      dup4\n        /* \"#utility.yul\":399:415   */\n      add\n        /* \"#utility.yul\":392:419   */\n      mstore\n        /* \"#utility.yul\":287:426   */\n      pop\n      pop\n      pop\n      jump\t// out\n        /* \"#utility.yul\":432:534   */\n    tag_290:\n        /* \"#utility.yul\":473:479   */\n      0x00\n        /* \"#utility.yul\":524:526   */\n      0x1f\n        /* \"#utility.yul\":520:527   */\n      not\n        /* \"#utility.yul\":515:517   */\n      0x1f\n        /* \"#utility.yul\":508:513   */\n      dup4\n        /* \"#utility.yul\":504:518   */\n      add\n        /* \"#utility.yul\":500:528   */\n      and\n        /* \"#utility.yul\":490:528   */\n      swap1\n      pop\n        /* \"#utility.yul\":432:534   */\n      swap2\n      swap1\n      pop\n      jump\t// out\n        /* \"#utility.yul\":540:917   */\n    tag_291:\n        /* \"#utility.yul\":628:631   */\n      0x00\n        /* \"#utility.yul\":656:695   */\n      tag_357\n        /* \"#utility.yul\":689:694   */\n      dup3\n        /* \"#utility.yul\":656:695   */\n      tag_287\n      jump\t// in\n    tag_357:\n        /* \"#utility.yul\":711:782   */\n      tag_358\n        /* \"#utility.yul\":775:781   */\n      dup2\n        /* \"#utility.yul\":770:773   */\n      dup6\n        /* \"#utility.yul\":711:782   */\n      tag_288\n      jump\t// in\n    tag_358:\n        /* \"#utility.yul\":704:782   */\n      swap4\n      pop\n        /* \"#utility.yul\":791:856   */\n      tag_359\n        /* \"#utility.yul\":849:855   */\n      dup2\n        /* \"#utility.yul\":844:847   */\n      dup6\n        /* \"#utility.yul\":837:841   */\n      0x20\n        /* \"#utility.yul\":830:835   */\n      dup7\n        /* \"#utility.yul\":826:842   */\n      add\n        /* \"#utility.yul\":791:856   */\n      tag_289\n      jump\t// in\n    tag_359:\n        /* \"#utility.yul\":881:910   */\n      tag_360\n        /* \"#utility.yul\":903:909   */\n      dup2\n        /* \"#utility.yul\":881:910   */\n      tag_290\n      jump\t// in\n    tag_360:\n        /* \"#utility.yul\":876:879   */\n      dup5\n        /* \"#utility.yul\":872:911   */\n      add\n        /* \"#utility.yul\":865:911   */\n      swap2\n      pop\n        /* \"#utility.yul\":632:917   */\n      pop\n        /* \"#utility.yul\":540:917   */\n      swap3\n      swap2\n      pop\n      pop\n      jump\t// out\n        /* \"#utility.yul\":923:1236   */\n    tag_16:\n        /* \"#utility.yul\":1036:1040   */\n      0x00\n        /* \"#utility.yul\":1074:1076   */\n      0x20\n        /* \"#utility.yul\":1063:1072   */\n      dup3\n        /* \"#utility.yul\":1059:1077   */\n      add\n        /* \"#utility.yul\":1051:1077   */\n      swap1\n      pop\n        /* \"#utility.yul\":1123:1132   */\n      dup2\n        /* \"#utility.yul\":1117:1121   */\n      dup2\n        /* \"#utility.yul\":1113:1133   */\n      sub\n        /* \"#utility.yul\":1109:1110   */\n      0x00\n        /* \"#utility.yul\":1098:1107   */\n      dup4\n        /* \"#utility.yul\":1094:1111   */\n      add\n        /* \"#utility.yul\":1087:1134   */\n      mstore\n        /* \"#utility.yul\":1151:1229   */\n      tag_362\n        /* \"#utility.yul\":1224:1228   */\n      dup2\n        /* \"#utility.yul\":1215:1221   */\n      dup5\n        /* \"#utility.yul\":1151:1229   */\n      tag_291\n      jump\t// in\n    tag_362:\n        /* \"#utility.yul\":1143:1229   */\n      swap1\n      pop\n        /* \"#utility.yul\":923:1236   */\n      swap3\n      swap2\n      pop\n      pop\n      jump\t// out\n        /* \"#utility.yul\":1242:1317   */\n    tag_292:\n        /* \"#utility.yul\":1275:1281   */\n      0x00\n        /* \"#utility.yul\":1308:1310   */\n      0x40\n        /* \"#utility.yul\":1302:1311   */\n      mload\n        /* \"#utility.yul\":1292:1311   */\n      swap1\n      pop\n        /* \"#utility.yul\":1242:1317   */\n      swap1\n      jump\t// out\n        /* \"#utility.yul\":1323:1440   */\n    tag_293:\n        /* \"#utility.yul\":1432:1433   */\n      0x00\n        /* \"#utility.yul\":1429:1430   */\n      0x00\n        /* \"#utility.yul\":1422:1434   */\n      revert\n        /* \"#utility.yul\":1446:1563   */\n    tag_294:\n        /* \"#utility.yul\":1555:1556   */\n      0x00\n        /* \"#utility.yul\":1552:1553   */\n      0x00\n        /* \"#utility.yul\":1545:1557   */\n      revert\n        /* \"#utility.yul\":1569:1646   */\n    tag_295:\n        /* \"#utility.yul\":1606:1613   */\n      0x00\n        /* \"#utility.yul\":1635:1640   */\n      dup2\n        /* \"#utility.yul\":1624:1640   */\n      swap1\n      pop\n        /* \"#utility.yul\":1569:1646   */\n      swap2\n      swap1\n      pop\n      jump\t// out\n        /* \"#utility.yul\":1652:1774   */\n    tag_296:\n        /* \"#utility.yul\":1725:1749   */\n      tag_368\n        /* \"#utility.yul\":1743:1748   */\n      dup2\n        /* \"#utility.yul\":1725:1749   */\n      tag_295\n      jump\t// in\n    tag_368:\n        /* \"#utility.yul\":1718:1723   */\n      dup2\n        /* \"#utility.yul\":1715:1750   */\n      eq\n        /* \"#utility.yul\":1705:1768   */\n      tag_369\n      jumpi\n        /* \"#utility.yul\":1764:1765   */\n      0x00\n        /* \"#utility.yul\":1761:1762   */\n      0x00\n        /* \"#utility.yul\":1754:1766   */\n      revert\n        /* \"#utility.yul\":1705:1768   */\n    tag_369:\n        /* \"#utility.yul\":1652:1774   */\n      pop\n      jump\t// out\n        /* \"#utility.yul\":1780:1919   */\n    tag_297:\n        /* \"#utility.yul\":1826:1831   */\n      0x00\n        /* \"#utility.yul\":1864:1870   */\n      dup2\n        /* \"#utility.yul\":1851:1871   */\n      calldataload\n        /* \"#utility.yul\":1842:1871   */\n      swap1\n      pop\n        /* \"#utility.yul\":1880:1913   */\n      tag_371\n        /* \"#utility.yul\":1907:1912   */\n      dup2\n        /* \"#utility.yul\":1880:1913   */\n      tag_296\n      jump\t// in\n    tag_371:\n        /* \"#utility.yul\":1780:1919   */\n      swap3\n      swap2\n      pop\n      pop\n      jump\t// out\n        /* \"#utility.yul\":1925:2042   */\n    tag_298:\n        /* \"#utility.yul\":2034:2035   */\n      0x00\n        /* \"#utility.yul\":2031:2032   */\n      0x00\n        /* \"#utility.yul\":2024:2036   */\n      revert\n        /* \"#utility.yul\":2048:2165   */\n    tag_299:\n        /* \"#utility.yul\":2157:2158   */\n      0x00\n        /* \"#utility.yul\":2154:2155   */\n      0x00\n        /* \"#utility.yul\":2147:2159   */\n      revert\n        /* \"#utility.yul\":2171:2351   */\n    tag_83:\n        /* \"#utility.yul\":2219:2296   */\n      0x4e487b7100000000000000000000000000000000000000000000000000000000\n        /* \"#utility.yul\":2216:2217   */\n      0x00\n        /* \"#utility.yul\":2209:2297   */\n      mstore\n        /* \"#utility.yul\":2316:2320   */\n      0x41\n        /* \"#utility.yul\":2313:2314   */\n      0x04\n        /* \"#utility.yul\":2306:2321   */\n      mstore\n        /* \"#utility.yul\":2340:2344   */\n      0x24\n        /* \"#utility.yul\":2337:2338   */\n      0x00\n        /* \"#utility.yul\":2330:2345   */\n      revert\n        /* \"#utility.yul\":2357:2638   */\n    tag_300:\n        /* \"#utility.yul\":2440:2467   */\n      tag_376\n        /* \"#utility.yul\":2462:2466   */\n      dup3\n        /* \"#utility.yul\":2440:2467   */\n      tag_290\n      jump\t// in\n    tag_376:\n        /* \"#utility.yul\":2432:2438   */\n      dup2\n        /* \"#utility.yul\":2428:2468   */\n      add\n        /* \"#utility.yul\":2570:2576   */\n      dup2\n        /* \"#utility.yul\":2558:2568   */\n      dup2\n        /* \"#utility.yul\":2555:2577   */\n      lt\n        /* \"#utility.yul\":2534:2552   */\n      0xffffffffffffffff\n        /* \"#utility.yul\":2522:2532   */\n      dup3\n        /* \"#utility.yul\":2519:2553   */\n      gt\n        /* \"#utility.yul\":2516:2578   */\n      or\n        /* \"#utility.yul\":2513:2601   */\n      iszero\n      tag_377\n      jumpi\n        /* \"#utility.yul\":2581:2599   */\n      tag_378\n      tag_83\n      jump\t// in\n    tag_378:\n        /* \"#utility.yul\":2513:2601   */\n    tag_377:\n        /* \"#utility.yul\":2621:2631   */\n      dup1\n        /* \"#utility.yul\":2617:2619   */\n      0x40\n        /* \"#utility.yul\":2610:2632   */\n      mstore\n        /* \"#utility.yul\":2400:2638   */\n      pop\n        /* \"#utility.yul\":2357:2638   */\n      pop\n      pop\n      jump\t// out\n        /* \"#utility.yul\":2644:2773   */\n    tag_301:\n        /* \"#utility.yul\":2678:2684   */\n      0x00\n        /* \"#utility.yul\":2705:2725   */\n      tag_380\n      tag_292\n      jump\t// in\n    tag_380:\n        /* \"#utility.yul\":2695:2725   */\n      swap1\n      pop\n        /* \"#utility.yul\":2734:2767   */\n      tag_381\n        /* \"#utility.yul\":2762:2766   */\n      dup3\n        /* \"#utility.yul\":2754:2760   */\n      dup3\n        /* \"#utility.yul\":2734:2767   */\n      tag_300\n      jump\t// in\n    tag_381:\n        /* \"#utility.yul\":2644:2773   */\n      swap2\n      swap1\n      pop\n      jump\t// out\n        /* \"#utility.yul\":2779:3086   */\n    tag_302:\n        /* \"#utility.yul\":2840:2844   */\n      0x00\n        /* \"#utility.yul\":2930:2948   */\n      0xffffffffffffffff\n        /* \"#utility.yul\":2922:2928   */\n      dup3\n        /* \"#utility.yul\":2919:2949   */\n      gt\n        /* \"#utility.yul\":2916:2972   */\n      iszero\n      tag_383\n      jumpi\n        /* \"#utility.yul\":2952:2970   */\n      tag_384\n      tag_83\n      jump\t// in\n    tag_384:\n        /* \"#utility.yul\":2916:2972   */\n    tag_383:\n        /* \"#utility.yul\":2990:3019   */\n      tag_385\n        /* \"#utility.yul\":3012:3018   */\n      dup3\n        /* \"#utility.yul\":2990:3019   */\n      tag_290\n      jump\t// in\n    tag_385:\n        /* \"#utility.yul\":2982:3019   */\n      swap1\n      pop\n        /* \"#utility.yul\":3074:3078   */\n      0x20\n        /* \"#utility.yul\":3068:3072   */\n      dup2\n        /* \"#utility.yul\":3064:3079   */\n      add\n        /* \"#utility.yul\":3056:3079   */\n      swap1\n      pop\n        /* \"#utility.yul\":2779:3086   */\n      swap2\n      swap1\n      pop\n      jump\t// out\n        /* \"#utility.yul\":3092:3240   */\n    tag_303:\n        /* \"#utility.yul\":3190:3196   */\n      dup3\n        /* \"#utility.yul\":3185:3188   */\n      dup2\n        /* \"#utility.yul\":3180:3183   */\n      dup4\n        /* \"#utility.yul\":3167:3197   */\n      calldatacopy\n        /* \"#utility.yul\":3231:3232   */\n      0x00\n        /* \"#utility.yul\":3222:3228   */\n      dup4\n        /* \"#utility.yul\":3217:3220   */\n      dup4\n        /* \"#utility.yul\":3213:3229   */\n      add\n        /* \"#utility.yul\":3206:3233   */\n      mstore\n        /* \"#utility.yul\":3092:3240   */\n      pop\n      pop\n      pop\n      jump\t// out\n        /* \"#utility.yul\":3246:3669   */\n    tag_304:\n        /* \"#utility.yul\":3323:3328   */\n      0x00\n        /* \"#utility.yul\":3348:3413   */\n      tag_388\n        /* \"#utility.yul\":3364:3412   */\n      tag_389\n        /* \"#utility.yul\":3405:3411   */\n      dup5\n        /* \"#utility.yul\":3364:3412   */\n      tag_302\n      jump\t// in\n    tag_389:\n        /* \"#utility.yul\":3348:3413   */\n      tag_301\n      jump\t// in\n    tag_388:\n        /* \"#utility.yul\":3339:3413   */\n      swap1\n      pop\n        /* \"#utility.yul\":3436:3442   */\n      dup3\n        /* \"#utility.yul\":3429:3434   */\n      dup2\n        /* \"#utility.yul\":3422:3443   */\n      mstore\n        /* \"#utility.yul\":3474:3478   */\n      0x20\n        /* \"#utility.yul\":3467:3472   */\n      dup2\n        /* \"#utility.yul\":3463:3479   */\n      add\n        /* \"#utility.yul\":3512:3515   */\n      dup5\n        /* \"#utility.yul\":3503:3509   */\n      dup5\n        /* \"#utility.yul\":3498:3501   */\n      dup5\n        /* \"#utility.yul\":3494:3510   */\n      add\n        /* \"#utility.yul\":3491:3516   */\n      gt\n        /* \"#utility.yul\":3488:3600   */\n      iszero\n      tag_390\n      jumpi\n        /* \"#utility.yul\":3519:3598   */\n      tag_391\n      tag_299\n      jump\t// in\n    tag_391:\n        /* \"#utility.yul\":3488:3600   */\n    tag_390:\n        /* \"#utility.yul\":3609:3663   */\n      tag_392\n        /* \"#utility.yul\":3656:3662   */\n      dup5\n        /* \"#utility.yul\":3651:3654   */\n      dup3\n        /* \"#utility.yul\":3646:3649   */\n      dup6\n        /* \"#utility.yul\":3609:3663   */\n      tag_303\n      jump\t// in\n    tag_392:\n        /* \"#utility.yul\":3329:3669   */\n      pop\n        /* \"#utility.yul\":3246:3669   */\n      swap4\n      swap3\n      pop\n      pop\n      pop\n      jump\t// out\n        /* \"#utility.yul\":3688:4026   */\n    tag_305:\n        /* \"#utility.yul\":3743:3748   */\n      0x00\n        /* \"#utility.yul\":3792:3795   */\n      dup3\n        /* \"#utility.yul\":3785:3789   */\n      0x1f\n        /* \"#utility.yul\":3777:3783   */\n      dup4\n        /* \"#utility.yul\":3773:3790   */\n      add\n        /* \"#utility.yul\":3769:3796   */\n      slt\n        /* \"#utility.yul\":3759:3881   */\n      tag_394\n      jumpi\n        /* \"#utility.yul\":3800:3879   */\n      tag_395\n      tag_298\n      jump\t// in\n    tag_395:\n        /* \"#utility.yul\":3759:3881   */\n    tag_394:\n        /* \"#utility.yul\":3917:3923   */\n      dup2\n        /* \"#utility.yul\":3904:3924   */\n      calldataload\n        /* \"#utility.yul\":3942:4020   */\n      tag_396\n        /* \"#utility.yul\":4016:4019   */\n      dup5\n        /* \"#utility.yul\":4008:4014   */\n      dup3\n        /* \"#utility.yul\":4001:4005   */\n      0x20\n        /* \"#utility.yul\":3993:3999   */\n      dup7\n        /* \"#utility.yul\":3989:4006   */\n      add\n        /* \"#utility.yul\":3942:4020   */\n      tag_304\n      jump\t// in\n    tag_396:\n        /* \"#utility.yul\":3933:4020   */\n      swap2\n      pop\n        /* \"#utility.yul\":3749:4026   */\n      pop\n        /* \"#utility.yul\":3688:4026   */\n      swap3\n      swap2\n      pop\n      pop\n      jump\t// out\n        /* \"#utility.yul\":4032:5007   */\n    tag_19:\n        /* \"#utility.yul\":4127:4133   */\n      0x00\n        /* \"#utility.yul\":4135:4141   */\n      0x00\n        /* \"#utility.yul\":4143:4149   */\n      0x00\n        /* \"#utility.yul\":4192:4194   */\n      0x60\n        /* \"#utility.yul\":4180:4189   */\n      dup5\n        /* \"#utility.yul\":4171:4178   */\n      dup7\n        /* \"#utility.yul\":4167:4190   */\n      sub\n        /* \"#utility.yul\":4163:4195   */\n      slt\n        /* \"#utility.yul\":4160:4279   */\n      iszero\n      tag_398\n      jumpi\n        /* \"#utility.yul\":4198:4277   */\n      tag_399\n      tag_293\n      jump\t// in\n    tag_399:\n        /* \"#utility.yul\":4160:4279   */\n    tag_398:\n        /* \"#utility.yul\":4318:4319   */\n      0x00\n        /* \"#utility.yul\":4343:4396   */\n      tag_400\n        /* \"#utility.yul\":4388:4395   */\n      dup7\n        /* \"#utility.yul\":4379:4385   */\n      dup3\n        /* \"#utility.yul\":4368:4377   */\n      dup8\n        /* \"#utility.yul\":4364:4386   */\n      add\n        /* \"#utility.yul\":4343:4396   */\n      tag_297\n      jump\t// in\n    tag_400:\n        /* \"#utility.yul\":4333:4396   */\n      swap4\n      pop\n        /* \"#utility.yul\":4289:4406   */\n      pop\n        /* \"#utility.yul\":4473:4475   */\n      0x20\n        /* \"#utility.yul\":4462:4471   */\n      dup5\n        /* \"#utility.yul\":4458:4476   */\n      add\n        /* \"#utility.yul\":4445:4477   */\n      calldataload\n        /* \"#utility.yul\":4504:4522   */\n      0xffffffffffffffff\n        /* \"#utility.yul\":4496:4502   */\n      dup2\n        /* \"#utility.yul\":4493:4523   */\n      gt\n        /* \"#utility.yul\":4490:4607   */\n      iszero\n      tag_401\n      jumpi\n        /* \"#utility.yul\":4526:4605   */\n      tag_402\n      tag_294\n      jump\t// in\n    tag_402:\n        /* \"#utility.yul\":4490:4607   */\n    tag_401:\n        /* \"#utility.yul\":4631:4693   */\n      tag_403\n        /* \"#utility.yul\":4685:4692   */\n      dup7\n        /* \"#utility.yul\":4676:4682   */\n      dup3\n        /* \"#utility.yul\":4665:4674   */\n      dup8\n        /* \"#utility.yul\":4661:4683   */\n      add\n        /* \"#utility.yul\":4631:4693   */\n      tag_305\n      jump\t// in\n    tag_403:\n        /* \"#utility.yul\":4621:4693   */\n      swap3\n      pop\n        /* \"#utility.yul\":4416:4703   */\n      pop\n        /* \"#utility.yul\":4770:4772   */\n      0x40\n        /* \"#utility.yul\":4759:4768   */\n      dup5\n        /* \"#utility.yul\":4755:4773   */\n      add\n        /* \"#utility.yul\":4742:4774   */\n      calldataload\n        /* \"#utility.yul\":4801:4819   */\n      0xffffffffffffffff\n        /* \"#utility.yul\":4793:4799   */\n      dup2\n        /* \"#utility.yul\":4790:4820   */\n      gt\n        /* \"#utility.yul\":4787:4904   */\n      iszero\n      tag_404\n      jumpi\n        /* \"#utility.yul\":4823:4902   */\n      tag_405\n      tag_294\n      jump\t// in\n    tag_405:\n        /* \"#utility.yul\":4787:4904   */\n    tag_404:\n        /* \"#utility.yul\":4928:4990   */\n      tag_406\n        /* \"#utility.yul\":4982:4989   */\n      dup7\n        /* \"#utility.yul\":4973:4979   */\n      dup3\n        /* \"#utility.yul\":4962:4971   */\n      dup8\n        /* \"#utility.yul\":4958:4980   */\n      add\n        /* \"#utility.yul\":4928:4990   */\n      tag_305\n      jump\t// in\n    tag_406:\n        /* \"#utility.yul\":4918:4990   */\n      swap2\n      pop\n        /* \"#utility.yul\":4713:5000   */\n      pop\n        /* \"#utility.yul\":4032:5007   */\n      swap3\n      pop\n      swap3\n      pop\n      swap3\n      jump\t// out\n        /* \"#utility.yul\":5013:5111   */\n    tag_306:\n        /* \"#utility.yul\":5064:5070   */\n      0x00\n        /* \"#utility.yul\":5098:5103   */\n      dup2\n        /* \"#utility.yul\":5092:5104   */\n      mload\n        /* \"#utility.yul\":5082:5104   */\n      swap1\n      pop\n        /* \"#utility.yul\":5013:5111   */\n      swap2\n      swap1\n      pop\n      jump\t// out\n        /* \"#utility.yul\":5117:5285   */\n    tag_307:\n        /* \"#utility.yul\":5200:5211   */\n      0x00\n        /* \"#utility.yul\":5234:5240   */\n      dup3\n        /* \"#utility.yul\":5229:5232   */\n      dup3\n        /* \"#utility.yul\":5222:5241   */\n      mstore\n        /* \"#utility.yul\":5274:5278   */\n      0x20\n        /* \"#utility.yul\":5269:5272   */\n      dup3\n        /* \"#utility.yul\":5265:5279   */\n      add\n        /* \"#utility.yul\":5250:5279   */\n      swap1\n      pop\n        /* \"#utility.yul\":5117:5285   */\n      swap3\n      swap2\n      pop\n      pop\n      jump\t// out\n        /* \"#utility.yul\":5291:5664   */\n    tag_308:\n        /* \"#utility.yul\":5377:5380   */\n      0x00\n        /* \"#utility.yul\":5405:5443   */\n      tag_410\n        /* \"#utility.yul\":5437:5442   */\n      dup3\n        /* \"#utility.yul\":5405:5443   */\n      tag_306\n      jump\t// in\n    tag_410:\n        /* \"#utility.yul\":5459:5529   */\n      tag_411\n        /* \"#utility.yul\":5522:5528   */\n      dup2\n        /* \"#utility.yul\":5517:5520   */\n      dup6\n        /* \"#utility.yul\":5459:5529   */\n      tag_307\n      jump\t// in\n    tag_411:\n        /* \"#utility.yul\":5452:5529   */\n      swap4\n      pop\n        /* \"#utility.yul\":5538:5603   */\n      tag_412\n        /* \"#utility.yul\":5596:5602   */\n      dup2\n        /* \"#utility.yul\":5591:5594   */\n      dup6\n        /* \"#utility.yul\":5584:5588   */\n      0x20\n        /* \"#utility.yul\":5577:5582   */\n      dup7\n        /* \"#utility.yul\":5573:5589   */\n      add\n        /* \"#utility.yul\":5538:5603   */\n      tag_289\n      jump\t// in\n    tag_412:\n        /* \"#utility.yul\":5628:5657   */\n      tag_413\n        /* \"#utility.yul\":5650:5656   */\n      dup2\n        /* \"#utility.yul\":5628:5657   */\n      tag_290\n      jump\t// in\n    tag_413:\n        /* \"#utility.yul\":5623:5626   */\n      dup5\n        /* \"#utility.yul\":5619:5658   */\n      add\n        /* \"#utility.yul\":5612:5658   */\n      swap2\n      pop\n        /* \"#utility.yul\":5381:5664   */\n      pop\n        /* \"#utility.yul\":5291:5664   */\n      swap3\n      swap2\n      pop\n      pop\n      jump\t// out\n        /* \"#utility.yul\":5670:5979   */\n    tag_24:\n        /* \"#utility.yul\":5781:5785   */\n      0x00\n        /* \"#utility.yul\":5819:5821   */\n      0x20\n        /* \"#utility.yul\":5808:5817   */\n      dup3\n        /* \"#utility.yul\":5804:5822   */\n      add\n        /* \"#utility.yul\":5796:5822   */\n      swap1\n      pop\n        /* \"#utility.yul\":5868:5877   */\n      dup2\n        /* \"#utility.yul\":5862:5866   */\n      dup2\n        /* \"#utility.yul\":5858:5878   */\n      sub\n        /* \"#utility.yul\":5854:5855   */\n      0x00\n        /* \"#utility.yul\":5843:5852   */\n      dup4\n        /* \"#utility.yul\":5839:5856   */\n      add\n        /* \"#utility.yul\":5832:5879   */\n      mstore\n        /* \"#utility.yul\":5896:5972   */\n      tag_415\n        /* \"#utility.yul\":5967:5971   */\n      dup2\n        /* \"#utility.yul\":5958:5964   */\n      dup5\n        /* \"#utility.yul\":5896:5972   */\n      tag_308\n      jump\t// in\n    tag_415:\n        /* \"#utility.yul\":5888:5972   */\n      swap1\n      pop\n        /* \"#utility.yul\":5670:5979   */\n      swap3\n      swap2\n      pop\n      pop\n      jump\t// out\n        /* \"#utility.yul\":5985:6103   */\n    tag_309:\n        /* \"#utility.yul\":6072:6096   */\n      tag_417\n        /* \"#utility.yul\":6090:6095   */\n      dup2\n        /* \"#utility.yul\":6072:6096   */\n      tag_295\n      jump\t// in\n    tag_417:\n        /* \"#utility.yul\":6067:6070   */\n      dup3\n        /* \"#utility.yul\":6060:6097   */\n      mstore\n        /* \"#utility.yul\":5985:6103   */\n      pop\n      pop\n      jump\t// out\n        /* \"#utility.yul\":6109:6331   */\n    tag_34:\n        /* \"#utility.yul\":6202:6206   */\n      0x00\n        /* \"#utility.yul\":6240:6242   */\n      0x20\n        /* \"#utility.yul\":6229:6238   */\n      dup3\n        /* \"#utility.yul\":6225:6243   */\n      add\n        /* \"#utility.yul\":6217:6243   */\n      swap1\n      pop\n        /* \"#utility.yul\":6253:6324   */\n      tag_419\n        /* \"#utility.yul\":6321:6322   */\n      0x00\n        /* \"#utility.yul\":6310:6319   */\n      dup4\n        /* \"#utility.yul\":6306:6323   */\n      add\n        /* \"#utility.yul\":6297:6303   */\n      dup5\n        /* \"#utility.yul\":6253:6324   */\n      tag_309\n      jump\t// in\n    tag_419:\n        /* \"#utility.yul\":6109:6331   */\n      swap3\n      swap2\n      pop\n      pop\n      jump\t// out\n        /* \"#utility.yul\":6337:6645   */\n    tag_310:\n        /* \"#utility.yul\":6399:6403   */\n      0x00\n        /* \"#utility.yul\":6489:6507   */\n      0xffffffffffffffff\n        /* \"#utility.yul\":6481:6487   */\n      dup3\n        /* \"#utility.yul\":6478:6508   */\n      gt\n        /* \"#utility.yul\":6475:6531   */\n      iszero\n      tag_421\n      jumpi\n        /* \"#utility.yul\":6511:6529   */\n      tag_422\n      tag_83\n      jump\t// in\n    tag_422:\n        /* \"#utility.yul\":6475:6531   */\n    tag_421:\n        /* \"#utility.yul\":6549:6578   */\n      tag_423\n        /* \"#utility.yul\":6571:6577   */\n      dup3\n        /* \"#utility.yul\":6549:6578   */\n      tag_290\n      jump\t// in\n    tag_423:\n        /* \"#utility.yul\":6541:6578   */\n      swap1\n      pop\n        /* \"#utility.yul\":6633:6637   */\n      0x20\n        /* \"#utility.yul\":6627:6631   */\n      dup2\n        /* \"#utility.yul\":6623:6638   */\n      add\n        /* \"#utility.yul\":6615:6638   */\n      swap1\n      pop\n        /* \"#utility.yul\":6337:6645   */\n      swap2\n      swap1\n      pop\n      jump\t// out\n        /* \"#utility.yul\":6651:7076   */\n    tag_311:\n        /* \"#utility.yul\":6729:6734   */\n      0x00\n        /* \"#utility.yul\":6754:6820   */\n      tag_425\n        /* \"#utility.yul\":6770:6819   */\n      tag_426\n        /* \"#utility.yul\":6812:6818   */\n      dup5\n        /* \"#utility.yul\":6770:6819   */\n      tag_310\n      jump\t// in\n    tag_426:\n        /* \"#utility.yul\":6754:6820   */\n      tag_301\n      jump\t// in\n    tag_425:\n        /* \"#utility.yul\":6745:6820   */\n      swap1\n      pop\n        /* \"#utility.yul\":6843:6849   */\n      dup3\n        /* \"#utility.yul\":6836:6841   */\n      dup2\n        /* \"#utility.yul\":6829:6850   */\n      mstore\n        /* \"#utility.yul\":6881:6885   */\n      0x20\n        /* \"#utility.yul\":6874:6879   */\n      dup2\n        /* \"#utility.yul\":6870:6886   */\n      add\n        /* \"#utility.yul\":6919:6922   */\n      dup5\n        /* \"#utility.yul\":6910:6916   */\n      dup5\n        /* \"#utility.yul\":6905:6908   */\n      dup5\n        /* \"#utility.yul\":6901:6917   */\n      add\n        /* \"#utility.yul\":6898:6923   */\n      gt\n        /* \"#utility.yul\":6895:7007   */\n      iszero\n      tag_427\n      jumpi\n        /* \"#utility.yul\":6926:7005   */\n      tag_428\n      tag_299\n      jump\t// in\n    tag_428:\n        /* \"#utility.yul\":6895:7007   */\n    tag_427:\n        /* \"#utility.yul\":7016:7070   */\n      tag_429\n        /* \"#utility.yul\":7063:7069   */\n      dup5\n        /* \"#utility.yul\":7058:7061   */\n      dup3\n        /* \"#utility.yul\":7053:7056   */\n      dup6\n        /* \"#utility.yul\":7016:7070   */\n      tag_303\n      jump\t// in\n    tag_429:\n        /* \"#utility.yul\":6735:7076   */\n      pop\n        /* \"#utility.yul\":6651:7076   */\n      swap4\n      swap3\n      pop\n      pop\n      pop\n      jump\t// out\n        /* \"#utility.yul\":7096:7436   */\n    tag_312:\n        /* \"#utility.yul\":7152:7157   */\n      0x00\n        /* \"#utility.yul\":7201:7204   */\n      dup3\n        /* \"#utility.yul\":7194:7198   */\n      0x1f\n        /* \"#utility.yul\":7186:7192   */\n      dup4\n        /* \"#utility.yul\":7182:7199   */\n      add\n        /* \"#utility.yul\":7178:7205   */\n      slt\n        /* \"#utility.yul\":7168:7290   */\n      tag_431\n      jumpi\n        /* \"#utility.yul\":7209:7288   */\n      tag_432\n      tag_298\n      jump\t// in\n    tag_432:\n        /* \"#utility.yul\":7168:7290   */\n    tag_431:\n        /* \"#utility.yul\":7326:7332   */\n      dup2\n        /* \"#utility.yul\":7313:7333   */\n      calldataload\n        /* \"#utility.yul\":7351:7430   */\n      tag_433\n        /* \"#utility.yul\":7426:7429   */\n      dup5\n        /* \"#utility.yul\":7418:7424   */\n      dup3\n        /* \"#utility.yul\":7411:7415   */\n      0x20\n        /* \"#utility.yul\":7403:7409   */\n      dup7\n        /* \"#utility.yul\":7399:7416   */\n      add\n        /* \"#utility.yul\":7351:7430   */\n      tag_311\n      jump\t// in\n    tag_433:\n        /* \"#utility.yul\":7342:7430   */\n      swap2\n      pop\n        /* \"#utility.yul\":7158:7436   */\n      pop\n        /* \"#utility.yul\":7096:7436   */\n      swap3\n      swap2\n      pop\n      pop\n      jump\t// out\n        /* \"#utility.yul\":7442:7543   */\n    tag_313:\n        /* \"#utility.yul\":7478:7485   */\n      0x00\n        /* \"#utility.yul\":7518:7536   */\n      0xffffffffffffffff\n        /* \"#utility.yul\":7511:7516   */\n      dup3\n        /* \"#utility.yul\":7507:7537   */\n      and\n        /* \"#utility.yul\":7496:7537   */\n      swap1\n      pop\n        /* \"#utility.yul\":7442:7543   */\n      swap2\n      swap1\n      pop\n      jump\t// out\n        /* \"#utility.yul\":7549:7669   */\n    tag_314:\n        /* \"#utility.yul\":7621:7644   */\n      tag_436\n        /* \"#utility.yul\":7638:7643   */\n      dup2\n        /* \"#utility.yul\":7621:7644   */\n      tag_313\n      jump\t// in\n    tag_436:\n        /* \"#utility.yul\":7614:7619   */\n      dup2\n        /* \"#utility.yul\":7611:7645   */\n      eq\n        /* \"#utility.yul\":7601:7663   */\n      tag_437\n      jumpi\n        /* \"#utility.yul\":7659:7660   */\n      0x00\n        /* \"#utility.yul\":7656:7657   */\n      0x00\n        /* \"#utility.yul\":7649:7661   */\n      revert\n        /* \"#utility.yul\":7601:7663   */\n    tag_437:\n        /* \"#utility.yul\":7549:7669   */\n      pop\n      jump\t// out\n        /* \"#utility.yul\":7675:7812   */\n    tag_315:\n        /* \"#utility.yul\":7720:7725   */\n      0x00\n        /* \"#utility.yul\":7758:7764   */\n      dup2\n        /* \"#utility.yul\":7745:7765   */\n      calldataload\n        /* \"#utility.yul\":7736:7765   */\n      swap1\n      pop\n        /* \"#utility.yul\":7774:7806   */\n      tag_439\n        /* \"#utility.yul\":7800:7805   */\n      dup2\n        /* \"#utility.yul\":7774:7806   */\n      tag_314\n      jump\t// in\n    tag_439:\n        /* \"#utility.yul\":7675:7812   */\n      swap3\n      swap2\n      pop\n      pop\n      jump\t// out\n        /* \"#utility.yul\":7818:8470   */\n    tag_43:\n        /* \"#utility.yul\":7895:7901   */\n      0x00\n        /* \"#utility.yul\":7903:7909   */\n      0x00\n        /* \"#utility.yul\":7952:7954   */\n      0x40\n        /* \"#utility.yul\":7940:7949   */\n      dup4\n        /* \"#utility.yul\":7931:7938   */\n      dup6\n        /* \"#utility.yul\":7927:7950   */\n      sub\n        /* \"#utility.yul\":7923:7955   */\n      slt\n        /* \"#utility.yul\":7920:8039   */\n      iszero\n      tag_441\n      jumpi\n        /* \"#utility.yul\":7958:8037   */\n      tag_442\n      tag_293\n      jump\t// in\n    tag_442:\n        /* \"#utility.yul\":7920:8039   */\n    tag_441:\n        /* \"#utility.yul\":8106:8107   */\n      0x00\n        /* \"#utility.yul\":8095:8104   */\n      dup4\n        /* \"#utility.yul\":8091:8108   */\n      add\n        /* \"#utility.yul\":8078:8109   */\n      calldataload\n        /* \"#utility.yul\":8136:8154   */\n      0xffffffffffffffff\n        /* \"#utility.yul\":8128:8134   */\n      dup2\n        /* \"#utility.yul\":8125:8155   */\n      gt\n        /* \"#utility.yul\":8122:8239   */\n      iszero\n      tag_443\n      jumpi\n        /* \"#utility.yul\":8158:8237   */\n      tag_444\n      tag_294\n      jump\t// in\n    tag_444:\n        /* \"#utility.yul\":8122:8239   */\n    tag_443:\n        /* \"#utility.yul\":8263:8326   */\n      tag_445\n        /* \"#utility.yul\":8318:8325   */\n      dup6\n        /* \"#utility.yul\":8309:8315   */\n      dup3\n        /* \"#utility.yul\":8298:8307   */\n      dup7\n        /* \"#utility.yul\":8294:8316   */\n      add\n        /* \"#utility.yul\":8263:8326   */\n      tag_312\n      jump\t// in\n    tag_445:\n        /* \"#utility.yul\":8253:8326   */\n      swap3\n      pop\n        /* \"#utility.yul\":8049:8336   */\n      pop\n        /* \"#utility.yul\":8375:8377   */\n      0x20\n        /* \"#utility.yul\":8401:8453   */\n      tag_446\n        /* \"#utility.yul\":8445:8452   */\n      dup6\n        /* \"#utility.yul\":8436:8442   */\n      dup3\n        /* \"#utility.yul\":8425:8434   */\n      dup7\n        /* \"#utility.yul\":8421:8443   */\n      add\n        /* \"#utility.yul\":8401:8453   */\n      tag_315\n      jump\t// in\n    tag_446:\n        /* \"#utility.yul\":8391:8453   */\n      swap2\n      pop\n        /* \"#utility.yul\":8346:8463   */\n      pop\n        /* \"#utility.yul\":7818:8470   */\n      swap3\n      pop\n      swap3\n      swap1\n      pop\n      jump\t// out\n        /* \"#utility.yul\":8476:8656   */\n    tag_316:\n        /* \"#utility.yul\":8524:8601   */\n      0x4e487b7100000000000000000000000000000000000000000000000000000000\n        /* \"#utility.yul\":8521:8522   */\n      0x00\n        /* \"#utility.yul\":8514:8602   */\n      mstore\n        /* \"#utility.yul\":8621:8625   */\n      0x22\n        /* \"#utility.yul\":8618:8619   */\n      0x04\n        /* \"#utility.yul\":8611:8626   */\n      mstore\n        /* \"#utility.yul\":8645:8649   */\n      0x24\n        /* \"#utility.yul\":8642:8643   */\n      0x00\n        /* \"#utility.yul\":8635:8650   */\n      revert\n        /* \"#utility.yul\":8662:8982   */\n    tag_47:\n        /* \"#utility.yul\":8706:8712   */\n      0x00\n        /* \"#utility.yul\":8743:8744   */\n      0x02\n        /* \"#utility.yul\":8737:8741   */\n      dup3\n        /* \"#utility.yul\":8733:8745   */\n      div\n        /* \"#utility.yul\":8723:8745   */\n      swap1\n      pop\n        /* \"#utility.yul\":8790:8791   */\n      0x01\n        /* \"#utility.yul\":8784:8788   */\n      dup3\n        /* \"#utility.yul\":8780:8792   */\n      and\n        /* \"#utility.yul\":8811:8829   */\n      dup1\n        /* \"#utility.yul\":8801:8882   */\n      tag_449\n      jumpi\n        /* \"#utility.yul\":8867:8871   */\n      0x7f\n        /* \"#utility.yul\":8859:8865   */\n      dup3\n        /* \"#utility.yul\":8855:8872   */\n      and\n        /* \"#utility.yul\":8845:8872   */\n      swap2\n      pop\n        /* \"#utility.yul\":8801:8882   */\n    tag_449:\n        /* \"#utility.yul\":8929:8931   */\n      0x20\n        /* \"#utility.yul\":8921:8927   */\n      dup3\n        /* \"#utility.yul\":8918:8932   */\n      lt\n        /* \"#utility.yul\":8898:8916   */\n      dup2\n        /* \"#utility.yul\":8895:8933   */\n      sub\n        /* \"#utility.yul\":8892:8976   */\n      tag_450\n      jumpi\n        /* \"#utility.yul\":8948:8966   */\n      tag_451\n      tag_316\n      jump\t// in\n    tag_451:\n        /* \"#utility.yul\":8892:8976   */\n    tag_450:\n        /* \"#utility.yul\":8713:8982   */\n      pop\n        /* \"#utility.yul\":8662:8982   */\n      swap2\n      swap1\n      pop\n      jump\t// out\n        /* \"#utility.yul\":8988:9168   */\n    tag_88:\n        /* \"#utility.yul\":9036:9113   */\n      0x4e487b7100000000000000000000000000000000000000000000000000000000\n        /* \"#utility.yul\":9033:9034   */\n      0x00\n        /* \"#utility.yul\":9026:9114   */\n      mstore\n        /* \"#utility.yul\":9133:9137   */\n      0x32\n        /* \"#utility.yul\":9130:9131   */\n      0x04\n        /* \"#utility.yul\":9123:9138   */\n      mstore\n        /* \"#utility.yul\":9157:9161   */\n      0x24\n        /* \"#utility.yul\":9154:9155   */\n      0x00\n        /* \"#utility.yul\":9147:9162   */\n      revert\n        /* \"#utility.yul\":9174:9315   */\n    tag_317:\n        /* \"#utility.yul\":9223:9227   */\n      0x00\n        /* \"#utility.yul\":9246:9249   */\n      dup2\n        /* \"#utility.yul\":9238:9249   */\n      swap1\n      pop\n        /* \"#utility.yul\":9269:9272   */\n      dup2\n        /* \"#utility.yul\":9266:9267   */\n      0x00\n        /* \"#utility.yul\":9259:9273   */\n      mstore\n        /* \"#utility.yul\":9303:9307   */\n      0x20\n        /* \"#utility.yul\":9300:9301   */\n      0x00\n        /* \"#utility.yul\":9290:9308   */\n      keccak256\n        /* \"#utility.yul\":9282:9308   */\n      swap1\n      pop\n        /* \"#utility.yul\":9174:9315   */\n      swap2\n      swap1\n      pop\n      jump\t// out\n        /* \"#utility.yul\":9321:9414   */\n    tag_318:\n        /* \"#utility.yul\":9358:9364   */\n      0x00\n        /* \"#utility.yul\":9405:9407   */\n      0x20\n        /* \"#utility.yul\":9400:9402   */\n      0x1f\n        /* \"#utility.yul\":9393:9398   */\n      dup4\n        /* \"#utility.yul\":9389:9403   */\n      add\n        /* \"#utility.yul\":9385:9408   */\n      div\n        /* \"#utility.yul\":9375:9408   */\n      swap1\n      pop\n        /* \"#utility.yul\":9321:9414   */\n      swap2\n      swap1\n      pop\n      jump\t// out\n        /* \"#utility.yul\":9420:9527   */\n    tag_319:\n        /* \"#utility.yul\":9464:9472   */\n      0x00\n        /* \"#utility.yul\":9514:9519   */\n      dup3\n        /* \"#utility.yul\":9508:9512   */\n      dup3\n        /* \"#utility.yul\":9504:9520   */\n      shl\n        /* \"#utility.yul\":9483:9520   */\n      swap1\n      pop\n        /* \"#utility.yul\":9420:9527   */\n      swap3\n      swap2\n      pop\n      pop\n      jump\t// out\n        /* \"#utility.yul\":9533:9926   */\n    tag_320:\n        /* \"#utility.yul\":9602:9608   */\n      0x00\n        /* \"#utility.yul\":9652:9653   */\n      0x08\n        /* \"#utility.yul\":9640:9650   */\n      dup4\n        /* \"#utility.yul\":9636:9654   */\n      mul\n        /* \"#utility.yul\":9675:9772   */\n      tag_457\n        /* \"#utility.yul\":9705:9771   */\n      0xffffffffffffffffffffffffffffffffffffffffffffffffffffffffffffffff\n        /* \"#utility.yul\":9694:9703   */\n      dup3\n        /* \"#utility.yul\":9675:9772   */\n      tag_319\n      jump\t// in\n    tag_457:\n        /* \"#utility.yul\":9793:9832   */\n      tag_458\n        /* \"#utility.yul\":9823:9831   */\n      dup7\n        /* \"#utility.yul\":9812:9821   */\n      dup4\n        /* \"#utility.yul\":9793:9832   */\n      tag_319\n      jump\t// in\n    tag_458:\n        /* \"#utility.yul\":9781:9832   */\n      swap6\n      pop\n        /* \"#utility.yul\":9865:9869   */\n      dup1\n        /* \"#utility.yul\":9861:9870   */\n      not\n        /* \"#utility.yul\":9854:9859   */\n      dup5\n        /* \"#utility.yul\":9850:9871   */\n      and\n        /* \"#utility.yul\":9841:9871   */\n      swap4\n      pop\n        /* \"#utility.yul\":9914:9918   */\n      dup1\n        /* \"#utility.yul\":9904:9912   */\n      dup7\n        /* \"#utility.yul\":9900:9919   */\n      and\n        /* \"#utility.yul\":9893:9898   */\n      dup5\n        /* \"#utility.yul\":9890:9920   */\n      or\n        /* \"#utility.yul\":9880:9920   */\n      swap3\n      pop\n        /* \"#utility.yul\":9609:9926   */\n      pop\n      pop\n        /* \"#utility.yul\":9533:9926   */\n      swap4\n      swap3\n      pop\n      pop\n      pop\n      jump\t// out\n        /* \"#utility.yul\":9932:10009   */\n    tag_321:\n        /* \"#utility.yul\":9969:9976   */\n      0x00\n        /* \"#utility.yul\":9998:10003   */\n      dup2\n        /* \"#utility.yul\":9987:10003   */\n      swap1\n      pop\n        /* \"#utility.yul\":9932:10009   */\n      swap2\n      swap1\n      pop\n      jump\t// out\n        /* \"#utility.yul\":10015:10075   */\n    tag_322:\n        /* \"#utility.yul\":10043:10046   */\n      0x00\n        /* \"#utility.yul\":10064:10069   */\n      dup2\n        /* \"#utility.yul\":10057:10069   */\n      swap1\n      pop\n        /* \"#utility.yul\":10015:10075   */\n      swap2\n      swap1\n      pop\n      jump\t// out\n        /* \"#utility.yul\":10081:10223   */\n    tag_323:\n        /* \"#utility.yul\":10131:10140   */\n      0x00\n        /* \"#utility.yul\":10164:10217   */\n      tag_462\n        /* \"#utility.yul\":10182:10216   */\n      tag_463\n        /* \"#utility.yul\":10191:10215   */\n      tag_464\n        /* \"#utility.yul\":10209:10214   */\n      dup5\n        /* \"#utility.yul\":10191:10215   */\n      tag_321\n      jump\t// in\n    tag_464:\n        /* \"#utility.yul\":10182:10216   */\n      tag_322\n      jump\t// in\n    tag_463:\n        /* \"#utility.yul\":10164:10217   */\n      tag_321\n      jump\t// in\n    tag_462:\n        /* \"#utility.yul\":10151:10217   */\n      swap1\n      pop\n        /* \"#utility.yul\":10081:10223   */\n      swap2\n      swap1\n      pop\n      jump\t// out\n        /* \"#utility.yul\":10229:10304   */\n    tag_324:\n        /* \"#utility.yul\":10272:10275   */\n      0x00\n        /* \"#utility.yul\":10293:10298   */\n      dup2\n        /* \"#utility.yul\":10286:10298   */\n      swap1\n      pop\n        /* \"#utility.yul\":10229:10304   */\n      swap2\n      swap1\n      pop\n      jump\t// out\n        /* \"#utility.yul\":10310:10579   */\n    tag_325:\n        /* \"#utility.yul\":10420:10459   */\n      tag_467\n        /* \"#utility.yul\":10451:10458   */\n      dup4\n        /* \"#utility.yul\":10420:10459   */\n      tag_323\n      jump\t// in\n    tag_467:\n        /* \"#utility.yul\":10481:10572   */\n      tag_468\n        /* \"#utility.yul\":10530:10571   */\n      tag_469\n        /* \"#utility.yul\":10554:10570   */\n      dup3\n        /* \"#utility.yul\":10530:10571   */\n      tag_324\n      jump\t// in\n    tag_469:\n        /* \"#utility.yul\":10522:10528   */\n      dup5\n        /* \"#utility.yul\":10515:10519   */\n      dup5\n        /* \"#utility.yul\":10509:10520   */\n      sload\n        /* \"#utility.yul\":10481:10572   */\n      tag_320\n      jump\t// in\n    tag_468:\n        /* \"#utility.yul\":10475:10479   */\n      dup3\n        /* \"#utility.yul\":10468:10573   */\n      sstore\n        /* \"#utility.yul\":10386:10579   */\n      pop\n        /* \"#utility.yul\":10310:10579   */\n      pop\n      pop\n      pop\n      jump\t// out\n        /* \"#utility.yul\":10585:10658   */\n    tag_326:\n        /* \"#utility.yul\":10630:10633   */\n      0x00\n        /* \"#utility.yul\":10651:10652   */\n      0x00\n        /* \"#utility.yul\":10644:10652   */\n      swap1\n      pop\n        /* \"#utility.yul\":10585:10658   */\n      swap1\n      jump\t// out\n        /* \"#utility.yul\":10664:10853   */\n    tag_327:\n        /* \"#utility.yul\":10741:10773   */\n      tag_472\n      tag_326\n      jump\t// in\n    tag_472:\n        /* \"#utility.yul\":10782:10847   */\n      tag_473\n        /* \"#utility.yul\":10840:10846   */\n      dup2\n        /* \"#utility.yul\":10832:10838   */\n      dup5\n        /* \"#utility.yul\":10826:10830   */\n      dup5\n        /* \"#utility.yul\":10782:10847   */\n      tag_325\n      jump\t// in\n    tag_473:\n        /* \"#utility.yul\":10717:10853   */\n      pop\n        /* \"#utility.yul\":10664:10853   */\n      pop\n      pop\n      jump\t// out\n        /* \"#utility.yul\":10859:11073   */\n    tag_328:\n        /* \"#utility.yul\":10944:10945   */\n      0x00\n        /* \"#utility.yul\":10929:11067   */\n    tag_475:\n        /* \"#utility.yul\":10954:10963   */\n      dup3\n        /* \"#utility.yul\":10951:10952   */\n      dup2\n        /* \"#utility.yul\":10948:10964   */\n      lt\n        /* \"#utility.yul\":10929:11067   */\n      iszero\n      tag_477\n      jumpi\n        /* \"#utility.yul\":11006:11057   */\n      tag_478\n        /* \"#utility.yul\":11055:11056   */\n      0x00\n        /* \"#utility.yul\":11051:11052   */\n      dup3\n        /* \"#utility.yul\":11040:11049   */\n      dup5\n        /* \"#utility.yul\":11036:11053   */\n      add\n        /* \"#utility.yul\":11006:11057   */\n      tag_327\n      jump\t// in\n    tag_478:\n        /* \"#utility.yul\":10979:10980   */\n      0x01\n        /* \"#utility.yul\":10976:10977   */\n      dup2\n        /* \"#utility.yul\":10972:10981   */\n      add\n        /* \"#utility.yul\":10967:10981   */\n      swap1\n      pop\n        /* \"#utility.yul\":10929:11067   */\n      jump(tag_475)\n    tag_477:\n        /* \"#utility.yul\":10933:10947   */\n      pop\n        /* \"#utility.yul\":10859:11073   */\n      pop\n      pop\n      jump\t// out\n        /* \"#utility.yul\":11079:11825   */\n    tag_329:\n        /* \"#utility.yul\":11180:11182   */\n      0x1f\n        /* \"#utility.yul\":11175:11178   */\n      dup3\n        /* \"#utility.yul\":11172:11183   */\n      gt\n        /* \"#utility.yul\":11169:11818   */\n      iszero\n      tag_480\n      jumpi\n        /* \"#utility.yul\":11209:11219   */\n      dup3\n        /* \"#utility.yul\":11204:11207   */\n      dup3\n        /* \"#utility.yul\":11201:11220   */\n      gt\n        /* \"#utility.yul\":11198:11808   */\n      iszero\n      tag_481\n      jumpi\n        /* \"#utility.yul\":11255:11293   */\n      tag_482\n        /* \"#utility.yul\":11287:11292   */\n      dup2\n        /* \"#utility.yul\":11255:11293   */\n      tag_317\n      jump\t// in\n    tag_482:\n        /* \"#utility.yul\":11330:11352   */\n      tag_483\n        /* \"#utility.yul\":11348:11351   */\n      dup4\n        /* \"#utility.yul\":11330:11352   */\n      tag_318\n      jump\t// in\n    tag_483:\n        /* \"#utility.yul\":11389:11418   */\n      tag_484\n        /* \"#utility.yul\":11407:11417   */\n      dup6\n        /* \"#utility.yul\":11389:11418   */\n      tag_318\n      jump\t// in\n    tag_484:\n        /* \"#utility.yul\":11579:11581   */\n      0x20\n        /* \"#utility.yul\":11567:11577   */\n      dup7\n        /* \"#utility.yul\":11564:11582   */\n      lt\n        /* \"#utility.yul\":11561:11640   */\n      iszero\n      tag_485\n      jumpi\n        /* \"#utility.yul\":11621:11622   */\n      0x00\n        /* \"#utility.yul\":11605:11622   */\n      swap1\n      pop\n        /* \"#utility.yul\":11561:11640   */\n    tag_485:\n        /* \"#utility.yul\":11690:11702   */\n      dup1\n        /* \"#utility.yul\":11680:11688   */\n      dup4\n        /* \"#utility.yul\":11676:11703   */\n      add\n        /* \"#utility.yul\":11720:11794   */\n      tag_486\n        /* \"#utility.yul\":11780:11792   */\n      dup3\n        /* \"#utility.yul\":11766:11778   */\n      dup5\n        /* \"#utility.yul\":11762:11793   */\n      sub\n        /* \"#utility.yul\":11749:11760   */\n      dup3\n        /* \"#utility.yul\":11720:11794   */\n      tag_328\n      jump\t// in\n    tag_486:\n        /* \"#utility.yul\":11221:11808   */\n      pop\n      pop\n      pop\n      pop\n        /* \"#utility.yul\":11198:11808   */\n    tag_481:\n        /* \"#utility.yul\":11169:11818   */\n    tag_480:\n        /* \"#utility.yul\":11079:11825   */\n      pop\n      pop\n      pop\n      jump\t// out\n        /* \"#utility.yul\":11831:11948   */\n    tag_330:\n        /* \"#utility.yul\":11885:11893   */\n      0x00\n        /* \"#utility.yul\":11935:11940   */\n      dup3\n        /* \"#utility.yul\":11929:11933   */\n      dup3\n        /* \"#utility.yul\":11925:11941   */\n      shr\n        /* \"#utility.yul\":11904:11941   */\n      swap1\n      pop\n        /* \"#utility.yul\":11831:11948   */\n      swap3\n      swap2\n      pop\n      pop\n      jump\t// out\n        /* \"#utility.yul\":11954:12123   */\n    tag_331:\n        /* \"#utility.yul\":11998:12004   */\n      0x00\n        /* \"#utility.yul\":12031:12082   */\n      tag_489\n        /* \"#utility.yul\":12079:12080   */\n      0x00\n        /* \"#utility.yul\":12075:12081   */\n      not\n        /* \"#utility.yul\":12067:12072   */\n      dup5\n        /* \"#utility.yul\":12064:12065   */\n      0x08\n        /* \"#utility.yul\":12060:12073   */\n      mul\n        /* \"#utility.yul\":12031:12082   */\n      tag_330\n      jump\t// in\n    tag_489:\n        /* \"#utility.yul\":12027:12083   */\n      not\n        /* \"#utility.yul\":12112:12116   */\n      dup1\n        /* \"#utility.yul\":12106:12110   */\n      dup4\n        /* \"#utility.yul\":12102:12117   */\n      and\n        /* \"#utility.yul\":12092:12117   */\n      swap2\n      pop\n        /* \"#utility.yul\":12005:12123   */\n      pop\n        /* \"#utility.yul\":11954:12123   */\n      swap3\n      swap2\n      pop\n      pop\n      jump\t// out\n        /* \"#utility.yul\":12128:12423   */\n    tag_332:\n        /* \"#utility.yul\":12204:12208   */\n      0x00\n        /* \"#utility.yul\":12350:12379   */\n      tag_491\n        /* \"#utility.yul\":12375:12378   */\n      dup4\n        /* \"#utility.yul\":12369:12373   */\n      dup4\n        /* \"#utility.yul\":12350:12379   */\n      tag_331\n      jump\t// in\n    tag_491:\n        /* \"#utility.yul\":12342:12379   */\n      swap2\n      pop\n        /* \"#utility.yul\":12412:12415   */\n      dup3\n        /* \"#utility.yul\":12409:12410   */\n      0x02\n        /* \"#utility.yul\":12405:12416   */\n      mul\n        /* \"#utility.yul\":12399:12403   */\n      dup3\n        /* \"#utility.yul\":12396:12417   */\n      or\n        /* \"#utility.yul\":12388:12417   */\n      swap1\n      pop\n        /* \"#utility.yul\":12128:12423   */\n      swap3\n      swap2\n      pop\n      pop\n      jump\t// out\n        /* \"#utility.yul\":12428:13823   */\n    tag_96:\n        /* \"#utility.yul\":12545:12582   */\n      tag_493\n        /* \"#utility.yul\":12578:12581   */\n      dup3\n        /* \"#utility.yul\":12545:12582   */\n      tag_287\n      jump\t// in\n    tag_493:\n        /* \"#utility.yul\":12647:12665   */\n      0xffffffffffffffff\n        /* \"#utility.yul\":12639:12645   */\n      dup2\n        /* \"#utility.yul\":12636:12666   */\n      gt\n        /* \"#utility.yul\":12633:12689   */\n      iszero\n      tag_494\n      jumpi\n        /* \"#utility.yul\":12669:12687   */\n      tag_495\n      tag_83\n      jump\t// in\n    tag_495:\n        /* \"#utility.yul\":12633:12689   */\n    tag_494:\n        /* \"#utility.yul\":12713:12751   */\n      tag_496\n        /* \"#utility.yul\":12745:12749   */\n      dup3\n        /* \"#utility.yul\":12739:12750   */\n      sload\n        /* \"#utility.yul\":12713:12751   */\n      tag_47\n      jump\t// in\n    tag_496:\n        /* \"#utility.yul\":12798:12865   */\n      tag_497\n        /* \"#utility.yul\":12858:12864   */\n      dup3\n        /* \"#utility.yul\":12850:12856   */\n      dup3\n        /* \"#utility.yul\":12844:12848   */\n      dup6\n        /* \"#utility.yul\":12798:12865   */\n      tag_329\n      jump\t// in\n    tag_497:\n        /* \"#utility.yul\":12892:12893   */\n      0x00\n        /* \"#utility.yul\":12916:12920   */\n      0x20\n        /* \"#utility.yul\":12903:12920   */\n      swap1\n      pop\n        /* \"#utility.yul\":12948:12950   */\n      0x1f\n        /* \"#utility.yul\":12940:12946   */\n      dup4\n        /* \"#utility.yul\":12937:12951   */\n      gt\n        /* \"#utility.yul\":12965:12966   */\n      0x01\n        /* \"#utility.yul\":12960:13578   */\n      dup2\n      eq\n      tag_499\n      jumpi\n        /* \"#utility.yul\":13622:13623   */\n      0x00\n        /* \"#utility.yul\":13639:13645   */\n      dup5\n        /* \"#utility.yul\":13636:13713   */\n      iszero\n      tag_500\n      jumpi\n        /* \"#utility.yul\":13688:13697   */\n      dup3\n        /* \"#utility.yul\":13683:13686   */\n      dup8\n        /* \"#utility.yul\":13679:13698   */\n      add\n        /* \"#utility.yul\":13673:13699   */\n      mload\n        /* \"#utility.yul\":13664:13699   */\n      swap1\n      pop\n        /* \"#utility.yul\":13636:13713   */\n    tag_500:\n        /* \"#utility.yul\":13739:13806   */\n      tag_501\n        /* \"#utility.yul\":13799:13805   */\n      dup6\n        /* \"#utility.yul\":13792:13797   */\n      dup3\n        /* \"#utility.yul\":13739:13806   */\n      tag_332\n      jump\t// in\n    tag_501:\n        /* \"#utility.yul\":13733:13737   */\n      dup7\n        /* \"#utility.yul\":13726:13807   */\n      sstore\n        /* \"#utility.yul\":13595:13817   */\n      pop\n        /* \"#utility.yul\":12930:13817   */\n      jump(tag_498)\n        /* \"#utility.yul\":12960:13578   */\n    tag_499:\n        /* \"#utility.yul\":13012:13016   */\n      0x1f\n        /* \"#utility.yul\":13008:13017   */\n      not\n        /* \"#utility.yul\":13000:13006   */\n      dup5\n        /* \"#utility.yul\":12996:13018   */\n      and\n        /* \"#utility.yul\":13046:13083   */\n      tag_502\n        /* \"#utility.yul\":13078:13082   */\n      dup7\n        /* \"#utility.yul\":13046:13083   */\n      tag_317\n      jump\t// in\n    tag_502:\n        /* \"#utility.yul\":13105:13106   */\n      0x00\n        /* \"#utility.yul\":13119:13327   */\n    tag_503:\n        /* \"#utility.yul\":13133:13140   */\n      dup3\n        /* \"#utility.yul\":13130:13131   */\n      dup2\n        /* \"#utility.yul\":13127:13141   */\n      lt\n        /* \"#utility.yul\":13119:13327   */\n      iszero\n      tag_505\n      jumpi\n        /* \"#utility.yul\":13212:13221   */\n      dup5\n        /* \"#utility.yul\":13207:13210   */\n      dup10\n        /* \"#utility.yul\":13203:13222   */\n      add\n        /* \"#utility.yul\":13197:13223   */\n      mload\n        /* \"#utility.yul\":13189:13195   */\n      dup3\n        /* \"#utility.yul\":13182:13224   */\n      sstore\n        /* \"#utility.yul\":13263:13264   */\n      0x01\n        /* \"#utility.yul\":13255:13261   */\n      dup3\n        /* \"#utility.yul\":13251:13265   */\n      add\n        /* \"#utility.yul\":13241:13265   */\n      swap2\n      pop\n        /* \"#utility.yul\":13310:13312   */\n      0x20\n        /* \"#utility.yul\":13299:13308   */\n      dup6\n        /* \"#utility.yul\":13295:13313   */\n      add\n        /* \"#utility.yul\":13282:13313   */\n      swap5\n      pop\n        /* \"#utility.yul\":13156:13160   */\n      0x20\n        /* \"#utility.yul\":13153:13154   */\n      dup2\n        /* \"#utility.yul\":13149:13161   */\n      add\n        /* \"#utility.yul\":13144:13161   */\n      swap1\n      pop\n        /* \"#utility.yul\":13119:13327   */\n      jump(tag_503)\n    tag_505:\n        /* \"#utility.yul\":13355:13361   */\n      dup7\n        /* \"#utility.yul\":13346:13353   */\n      dup4\n        /* \"#utility.yul\":13343:13362   */\n      lt\n        /* \"#utility.yul\":13340:13519   */\n      iszero\n      tag_506\n      jumpi\n        /* \"#utility.yul\":13413:13422   */\n      dup5\n        /* \"#utility.yul\":13408:13411   */\n      dup10\n        /* \"#utility.yul\":13404:13423   */\n      add\n        /* \"#utility.yul\":13398:13424   */\n      mload\n        /* \"#utility.yul\":13456:13504   */\n      tag_507\n        /* \"#utility.yul\":13498:13502   */\n      0x1f\n        /* \"#utility.yul\":13490:13496   */\n      dup10\n        /* \"#utility.yul\":13486:13503   */\n      and\n        /* \"#utility.yul\":13475:13484   */\n      dup3\n        /* \"#utility.yul\":13456:13504   */\n      tag_331\n      jump\t// in\n    tag_507:\n        /* \"#utility.yul\":13448:13454   */\n      dup4\n        /* \"#utility.yul\":13441:13505   */\n      sstore\n        /* \"#utility.yul\":13363:13519   */\n      pop\n        /* \"#utility.yul\":13340:13519   */\n    tag_506:\n        /* \"#utility.yul\":13565:13566   */\n      0x01\n        /* \"#utility.yul\":13561:13562   */\n      0x02\n        /* \"#utility.yul\":13553:13559   */\n      dup9\n        /* \"#utility.yul\":13549:13563   */\n      mul\n        /* \"#utility.yul\":13545:13567   */\n      add\n        /* \"#utility.yul\":13539:13543   */\n      dup9\n        /* \"#utility.yul\":13532:13568   */\n      sstore\n        /* \"#utility.yul\":12967:13578   */\n      pop\n      pop\n      pop\n        /* \"#utility.yul\":12930:13817   */\n    tag_498:\n      pop\n        /* \"#utility.yul\":12520:13823   */\n      pop\n      pop\n      pop\n        /* \"#utility.yul\":12428:13823   */\n      pop\n      pop\n      jump\t// out\n        /* \"#utility.yul\":13829:13969   */\n    tag_333:\n        /* \"#utility.yul\":13877:13881   */\n      0x00\n        /* \"#utility.yul\":13900:13903   */\n      dup2\n        /* \"#utility.yul\":13892:13903   */\n      swap1\n      pop\n        /* \"#utility.yul\":13923:13926   */\n      dup2\n        /* \"#utility.yul\":13920:13921   */\n      0x00\n        /* \"#utility.yul\":13913:13927   */\n      mstore\n        /* \"#utility.yul\":13957:13961   */\n      0x20\n        /* \"#utility.yul\":13954:13955   */\n      0x00\n        /* \"#utility.yul\":13944:13962   */\n      keccak256\n        /* \"#utility.yul\":13936:13962   */\n      swap1\n      pop\n        /* \"#utility.yul\":13829:13969   */\n      swap2\n      swap1\n      pop\n      jump\t// out\n        /* \"#utility.yul\":13975:14719   */\n    tag_334:\n        /* \"#utility.yul\":14075:14077   */\n      0x1f\n        /* \"#utility.yul\":14070:14073   */\n      dup3\n        /* \"#utility.yul\":14067:14078   */\n      gt\n        /* \"#utility.yul\":14064:14712   */\n      iszero\n      tag_510\n      jumpi\n        /* \"#utility.yul\":14104:14114   */\n      dup3\n        /* \"#utility.yul\":14099:14102   */\n      dup3\n        /* \"#utility.yul\":14096:14115   */\n      gt\n        /* \"#utility.yul\":14093:14702   */\n      iszero\n      tag_511\n      jumpi\n        /* \"#utility.yul\":14150:14187   */\n      tag_512\n        /* \"#utility.yul\":14181:14186   */\n      dup2\n        /* \"#utility.yul\":14150:14187   */\n      tag_333\n      jump\t// in\n    tag_512:\n        /* \"#utility.yul\":14224:14246   */\n      tag_513\n        /* \"#utility.yul\":14242:14245   */\n      dup4\n        /* \"#utility.yul\":14224:14246   */\n      tag_318\n      jump\t// in\n    tag_513:\n        /* \"#utility.yul\":14283:14312   */\n      tag_514\n        /* \"#utility.yul\":14301:14311   */\n      dup6\n        /* \"#utility.yul\":14283:14312   */\n      tag_318\n      jump\t// in\n    tag_514:\n        /* \"#utility.yul\":14473:14475   */\n      0x20\n        /* \"#utility.yul\":14461:14471   */\n      dup7\n        /* \"#utility.yul\":14458:14476   */\n      lt\n        /* \"#utility.yul\":14455:14534   */\n      iszero\n      tag_515\n      jumpi\n        /* \"#utility.yul\":14515:14516   */\n      0x00\n        /* \"#utility.yul\":14499:14516   */\n      swap1\n      pop\n        /* \"#utility.yul\":14455:14534   */\n    tag_515:\n        /* \"#utility.yul\":14584:14596   */\n      dup1\n        /* \"#utility.yul\":14574:14582   */\n      dup4\n        /* \"#utility.yul\":14570:14597   */\n      add\n        /* \"#utility.yul\":14614:14688   */\n      tag_516\n        /* \"#utility.yul\":14674:14686   */\n      dup3\n        /* \"#utility.yul\":14660:14672   */\n      dup5\n        /* \"#utility.yul\":14656:14687   */\n      sub\n        /* \"#utility.yul\":14643:14654   */\n      dup3\n        /* \"#utility.yul\":14614:14688   */\n      tag_328\n      jump\t// in\n    tag_516:\n        /* \"#utility.yul\":14116:14702   */\n      pop\n      pop\n      pop\n      pop\n        /* \"#utility.yul\":14093:14702   */\n    tag_511:\n        /* \"#utility.yul\":14064:14712   */\n    tag_510:\n        /* \"#utility.yul\":13975:14719   */\n      pop\n      pop\n      pop\n      jump\t// out\n        /* \"#utility.yul\":14725:16115   */\n    tag_101:\n        /* \"#utility.yul\":14840:14876   */\n      tag_518\n        /* \"#utility.yul\":14872:14875   */\n      dup3\n        /* \"#utility.yul\":14840:14876   */\n      tag_306\n      jump\t// in\n    tag_518:\n        /* \"#utility.yul\":14941:14959   */\n      0xffffffffffffffff\n        /* \"#utility.yul\":14933:14939   */\n      dup2\n        /* \"#utility.yul\":14930:14960   */\n      gt\n        /* \"#utility.yul\":14927:14983   */\n      iszero\n      tag_519\n      jumpi\n        /* \"#utility.yul\":14963:14981   */\n      tag_520\n      tag_83\n      jump\t// in\n    tag_520:\n        /* \"#utility.yul\":14927:14983   */\n    tag_519:\n        /* \"#utility.yul\":15007:15045   */\n      tag_521\n        /* \"#utility.yul\":15039:15043   */\n      dup3\n        /* \"#utility.yul\":15033:15044   */\n      sload\n        /* \"#utility.yul\":15007:15045   */\n      tag_47\n      jump\t// in\n    tag_521:\n        /* \"#utility.yul\":15092:15158   */\n      tag_522\n        /* \"#utility.yul\":15151:15157   */\n      dup3\n        /* \"#utility.yul\":15143:15149   */\n      dup3\n        /* \"#utility.yul\":15137:15141   */\n      dup6\n        /* \"#utility.yul\":15092:15158   */\n      tag_334\n      jump\t// in\n    tag_522:\n        /* \"#utility.yul\":15185:15186   */\n      0x00\n        /* \"#utility.yul\":15209:15213   */\n      0x20\n        /* \"#utility.yul\":15196:15213   */\n      swap1\n      pop\n        /* \"#utility.yul\":15241:15243   */\n      0x1f\n        /* \"#utility.yul\":15233:15239   */\n      dup4\n        /* \"#utility.yul\":15230:15244   */\n      gt\n        /* \"#utility.yul\":15258:15259   */\n      0x01\n        /* \"#utility.yul\":15253:15870   */\n      dup2\n      eq\n      tag_524\n      jumpi\n        /* \"#utility.yul\":15914:15915   */\n      0x00\n        /* \"#utility.yul\":15931:15937   */\n      dup5\n        /* \"#utility.yul\":15928:16005   */\n      iszero\n      tag_525\n      jumpi\n        /* \"#utility.yul\":15980:15989   */\n      dup3\n        /* \"#utility.yul\":15975:15978   */\n      dup8\n        /* \"#utility.yul\":15971:15990   */\n      add\n        /* \"#utility.yul\":15965:15991   */\n      mload\n        /* \"#utility.yul\":15956:15991   */\n      swap1\n      pop\n        /* \"#utility.yul\":15928:16005   */\n    tag_525:\n        /* \"#utility.yul\":16031:16098   */\n      tag_526\n        /* \"#utility.yul\":16091:16097   */\n      dup6\n        /* \"#utility.yul\":16084:16089   */\n      dup3\n        /* \"#utility.yul\":16031:16098   */\n      tag_332\n      jump\t// in\n    tag_526:\n        /* \"#utility.yul\":16025:16029   */\n      dup7\n        /* \"#utility.yul\":16018:16099   */\n      sstore\n        /* \"#utility.yul\":15887:16109   */\n      pop\n        /* \"#utility.yul\":15223:16109   */\n      jump(tag_523)\n        /* \"#utility.yul\":15253:15870   */\n    tag_524:\n        /* \"#utility.yul\":15305:15309   */\n      0x1f\n        /* \"#utility.yul\":15301:15310   */\n      not\n        /* \"#utility.yul\":15293:15299   */\n      dup5\n        /* \"#utility.yul\":15289:15311   */\n      and\n        /* \"#utility.yul\":15339:15375   */\n      tag_527\n        /* \"#utility.yul\":15370:15374   */\n      dup7\n        /* \"#utility.yul\":15339:15375   */\n      tag_333\n      jump\t// in\n    tag_527:\n        /* \"#utility.yul\":15397:15398   */\n      0x00\n        /* \"#utility.yul\":15411:15619   */\n    tag_528:\n        /* \"#utility.yul\":15425:15432   */\n      dup3\n        /* \"#utility.yul\":15422:15423   */\n      dup2\n        /* \"#utility.yul\":15419:15433   */\n      lt\n        /* \"#utility.yul\":15411:15619   */\n      iszero\n      tag_530\n      jumpi\n        /* \"#utility.yul\":15504:15513   */\n      dup5\n        /* \"#utility.yul\":15499:15502   */\n      dup10\n        /* \"#utility.yul\":15495:15514   */\n      add\n        /* \"#utility.yul\":15489:15515   */\n      mload\n        /* \"#utility.yul\":15481:15487   */\n      dup3\n        /* \"#utility.yul\":15474:15516   */\n      sstore\n        /* \"#utility.yul\":15555:15556   */\n      0x01\n        /* \"#utility.yul\":15547:15553   */\n      dup3\n        /* \"#utility.yul\":15543:15557   */\n      add\n        /* \"#utility.yul\":15533:15557   */\n      swap2\n      pop\n        /* \"#utility.yul\":15602:15604   */\n      0x20\n        /* \"#utility.yul\":15591:15600   */\n      dup6\n        /* \"#utility.yul\":15587:15605   */\n      add\n        /* \"#utility.yul\":15574:15605   */\n      swap5\n      pop\n        /* \"#utility.yul\":15448:15452   */\n      0x20\n        /* \"#utility.yul\":15445:15446   */\n      dup2\n        /* \"#utility.yul\":15441:15453   */\n      add\n        /* \"#utility.yul\":15436:15453   */\n      swap1\n      pop\n        /* \"#utility.yul\":15411:15619   */\n      jump(tag_528)\n    tag_530:\n        /* \"#utility.yul\":15647:15653   */\n      dup7\n        /* \"#utility.yul\":15638:15645   */\n      dup4\n        /* \"#utility.yul\":15635:15654   */\n      lt\n        /* \"#utility.yul\":15632:15811   */\n      iszero\n      tag_531\n      jumpi\n        /* \"#utility.yul\":15705:15714   */\n      dup5\n        /* \"#utility.yul\":15700:15703   */\n      dup10\n        /* \"#utility.yul\":15696:15715   */\n      add\n        /* \"#utility.yul\":15690:15716   */\n      mload\n        /* \"#utility.yul\":15748:15796   */\n      tag_532\n        /* \"#utility.yul\":15790:15794   */\n      0x1f\n        /* \"#utility.yul\":15782:15788   */\n      dup10\n        /* \"#utility.yul\":15778:15795   */\n      and\n        /* \"#utility.yul\":15767:15776   */\n      dup3\n        /* \"#utility.yul\":15748:15796   */\n      tag_331\n      jump\t// in\n    tag_532:\n        /* \"#utility.yul\":15740:15746   */\n      dup4\n        /* \"#utility.yul\":15733:15797   */\n      sstore\n        /* \"#utility.yul\":15655:15811   */\n      pop\n        /* \"#utility.yul\":15632:15811   */\n    tag_531:\n        /* \"#utility.yul\":15857:15858   */\n      0x01\n        /* \"#utility.yul\":15853:15854   */\n      0x02\n        /* \"#utility.yul\":15845:15851   */\n      dup9\n        /* \"#utility.yul\":15841:15855   */\n      mul\n        /* \"#utility.yul\":15837:15859   */\n      add\n        /* \"#utility.yul\":15831:15835   */\n      dup9\n        /* \"#utility.yul\":15824:15860   */\n      sstore\n        /* \"#utility.yul\":15260:15870   */\n      pop\n      pop\n      pop\n        /* \"#utility.yul\":15223:16109   */\n    tag_523:\n      pop\n        /* \"#utility.yul\":14815:16115   */\n      pop\n      pop\n      pop\n        /* \"#utility.yul\":14725:16115   */\n      pop\n      pop\n      jump\t// out\n        /* \"#utility.yul\":16121:16274   */\n    tag_335:\n        /* \"#utility.yul\":16174:16180   */\n      0x00\n        /* \"#utility.yul\":16208:16213   */\n      dup2\n        /* \"#utility.yul\":16202:16214   */\n      sload\n        /* \"#utility.yul\":16192:16214   */\n      swap1\n      pop\n        /* \"#utility.yul\":16234:16267   */\n      tag_534\n        /* \"#utility.yul\":16260:16266   */\n      dup2\n        /* \"#utility.yul\":16234:16267   */\n      tag_47\n      jump\t// in\n    tag_534:\n        /* \"#utility.yul\":16224:16267   */\n      swap1\n      pop\n        /* \"#utility.yul\":16121:16274   */\n      swap2\n      swap1\n      pop\n      jump\t// out\n        /* \"#utility.yul\":16280:16425   */\n    tag_336:\n        /* \"#utility.yul\":16333:16337   */\n      0x00\n        /* \"#utility.yul\":16356:16359   */\n      dup2\n        /* \"#utility.yul\":16348:16359   */\n      swap1\n      pop\n        /* \"#utility.yul\":16379:16382   */\n      dup2\n        /* \"#utility.yul\":16376:16377   */\n      0x00\n        /* \"#utility.yul\":16369:16383   */\n      mstore\n        /* \"#utility.yul\":16413:16417   */\n      0x20\n        /* \"#utility.yul\":16410:16411   */\n      0x00\n        /* \"#utility.yul\":16400:16418   */\n      keccak256\n        /* \"#utility.yul\":16392:16418   */\n      swap1\n      pop\n        /* \"#utility.yul\":16280:16425   */\n      swap2\n      swap1\n      pop\n      jump\t// out\n        /* \"#utility.yul\":16431:17894   */\n    tag_105:\n        /* \"#utility.yul\":16546:16549   */\n      dup2\n        /* \"#utility.yul\":16540:16544   */\n      dup2\n        /* \"#utility.yul\":16537:16550   */\n      sub\n        /* \"#utility.yul\":16534:16560   */\n      tag_537\n      jumpi\n        /* \"#utility.yul\":16553:16558   */\n      pop\n      pop\n      jump(tag_536)\n        /* \"#utility.yul\":16534:16560   */\n    tag_537:\n        /* \"#utility.yul\":16584:16622   */\n      tag_538\n        /* \"#utility.yul\":16618:16621   */\n      dup3\n        /* \"#utility.yul\":16584:16622   */\n      tag_335\n      jump\t// in\n    tag_538:\n        /* \"#utility.yul\":16687:16705   */\n      0xffffffffffffffff\n        /* \"#utility.yul\":16679:16685   */\n      dup2\n        /* \"#utility.yul\":16676:16706   */\n      gt\n        /* \"#utility.yul\":16673:16729   */\n      iszero\n      tag_539\n      jumpi\n        /* \"#utility.yul\":16709:16727   */\n      tag_540\n      tag_83\n      jump\t// in\n    tag_540:\n        /* \"#utility.yul\":16673:16729   */\n    tag_539:\n        /* \"#utility.yul\":16753:16791   */\n      tag_541\n        /* \"#utility.yul\":16785:16789   */\n      dup3\n        /* \"#utility.yul\":16779:16790   */\n      sload\n        /* \"#utility.yul\":16753:16791   */\n      tag_47\n      jump\t// in\n    tag_541:\n        /* \"#utility.yul\":16838:16905   */\n      tag_542\n        /* \"#utility.yul\":16898:16904   */\n      dup3\n        /* \"#utility.yul\":16890:16896   */\n      dup3\n        /* \"#utility.yul\":16884:16888   */\n      dup6\n        /* \"#utility.yul\":16838:16905   */\n      tag_329\n      jump\t// in\n    tag_542:\n        /* \"#utility.yul\":16932:16933   */\n      0x00\n        /* \"#utility.yul\":16961:16963   */\n      0x1f\n        /* \"#utility.yul\":16953:16959   */\n      dup4\n        /* \"#utility.yul\":16950:16964   */\n      gt\n        /* \"#utility.yul\":16978:16979   */\n      0x01\n        /* \"#utility.yul\":16973:17649   */\n      dup2\n      eq\n      tag_544\n      jumpi\n        /* \"#utility.yul\":17693:17694   */\n      0x00\n        /* \"#utility.yul\":17710:17716   */\n      dup5\n        /* \"#utility.yul\":17707:17784   */\n      iszero\n      tag_545\n      jumpi\n        /* \"#utility.yul\":17759:17768   */\n      dup3\n        /* \"#utility.yul\":17754:17757   */\n      dup8\n        /* \"#utility.yul\":17750:17769   */\n      add\n        /* \"#utility.yul\":17744:17770   */\n      sload\n        /* \"#utility.yul\":17735:17770   */\n      swap1\n      pop\n        /* \"#utility.yul\":17707:17784   */\n    tag_545:\n        /* \"#utility.yul\":17810:17877   */\n      tag_546\n        /* \"#utility.yul\":17870:17876   */\n      dup6\n        /* \"#utility.yul\":17863:17868   */\n      dup3\n        /* \"#utility.yul\":17810:17877   */\n      tag_332\n      jump\t// in\n    tag_546:\n        /* \"#utility.yul\":17804:17808   */\n      dup7\n        /* \"#utility.yul\":17797:17878   */\n      sstore\n        /* \"#utility.yul\":17666:17888   */\n      pop\n        /* \"#utility.yul\":16943:17888   */\n      jump(tag_543)\n        /* \"#utility.yul\":16973:17649   */\n    tag_544:\n        /* \"#utility.yul\":17025:17029   */\n      0x1f\n        /* \"#utility.yul\":17021:17030   */\n      not\n        /* \"#utility.yul\":17013:17019   */\n      dup5\n        /* \"#utility.yul\":17009:17031   */\n      and\n        /* \"#utility.yul\":17051:17091   */\n      tag_547\n        /* \"#utility.yul\":17087:17090   */\n      dup8\n        /* \"#utility.yul\":17051:17091   */\n      tag_336\n      jump\t// in\n    tag_547:\n        /* \"#utility.yul\":17044:17091   */\n      swap7\n      pop\n        /* \"#utility.yul\":17118:17155   */\n      tag_548\n        /* \"#utility.yul\":17150:17154   */\n      dup7\n        /* \"#utility.yul\":17118:17155   */\n      tag_317\n      jump\t// in\n    tag_548:\n        /* \"#utility.yul\":17177:17178   */\n      0x00\n        /* \"#utility.yul\":17191:17398   */\n    tag_549:\n        /* \"#utility.yul\":17205:17212   */\n      dup3\n        /* \"#utility.yul\":17202:17203   */\n      dup2\n        /* \"#utility.yul\":17199:17213   */\n      lt\n        /* \"#utility.yul\":17191:17398   */\n      iszero\n      tag_551\n      jumpi\n        /* \"#utility.yul\":17284:17293   */\n      dup5\n        /* \"#utility.yul\":17279:17282   */\n      dup10\n        /* \"#utility.yul\":17275:17294   */\n      add\n        /* \"#utility.yul\":17269:17295   */\n      sload\n        /* \"#utility.yul\":17261:17267   */\n      dup3\n        /* \"#utility.yul\":17254:17296   */\n      sstore\n        /* \"#utility.yul\":17335:17336   */\n      0x01\n        /* \"#utility.yul\":17327:17333   */\n      dup3\n        /* \"#utility.yul\":17323:17337   */\n      add\n        /* \"#utility.yul\":17313:17337   */\n      swap2\n      pop\n        /* \"#utility.yul\":17382:17383   */\n      0x01\n        /* \"#utility.yul\":17371:17380   */\n      dup6\n        /* \"#utility.yul\":17367:17384   */\n      add\n        /* \"#utility.yul\":17354:17384   */\n      swap5\n      pop\n        /* \"#utility.yul\":17228:17232   */\n      0x20\n        /* \"#utility.yul\":17225:17226   */\n      dup2\n        /* \"#utility.yul\":17221:17233   */\n      add\n        /* \"#utility.yul\":17216:17233   */\n      swap1\n      pop\n        /* \"#utility.yul\":17191:17398   */\n      jump(tag_549)\n    tag_551:\n        /* \"#utility.yul\":17426:17432   */\n      dup7\n        /* \"#utility.yul\":17417:17424   */\n      dup4\n        /* \"#utility.yul\":17414:17433   */\n      lt\n        /* \"#utility.yul\":17411:17590   */\n      iszero\n      tag_552\n      jumpi\n        /* \"#utility.yul\":17484:17493   */\n      dup5\n        /* \"#utility.yul\":17479:17482   */\n      dup10\n        /* \"#utility.yul\":17475:17494   */\n      add\n        /* \"#utility.yul\":17469:17495   */\n      sload\n        /* \"#utility.yul\":17527:17575   */\n      tag_553\n        /* \"#utility.yul\":17569:17573   */\n      0x1f\n        /* \"#utility.yul\":17561:17567   */\n      dup10\n        /* \"#utility.yul\":17557:17574   */\n      and\n        /* \"#utility.yul\":17546:17555   */\n      dup3\n        /* \"#utility.yul\":17527:17575   */\n      tag_331\n      jump\t// in\n    tag_553:\n        /* \"#utility.yul\":17519:17525   */\n      dup4\n        /* \"#utility.yul\":17512:17576   */\n      sstore\n        /* \"#utility.yul\":17434:17590   */\n      pop\n        /* \"#utility.yul\":17411:17590   */\n    tag_552:\n        /* \"#utility.yul\":17636:17637   */\n      0x01\n        /* \"#utility.yul\":17632:17633   */\n      0x02\n        /* \"#utility.yul\":17624:17630   */\n      dup9\n        /* \"#utility.yul\":17620:17634   */\n      mul\n        /* \"#utility.yul\":17616:17638   */\n      add\n        /* \"#utility.yul\":17610:17614   */\n      dup9\n        /* \"#utility.yul\":17603:17639   */\n      sstore\n        /* \"#utility.yul\":16980:17649   */\n      pop\n      pop\n      pop\n        /* \"#utility.yul\":16943:17888   */\n    tag_543:\n      pop\n        /* \"#utility.yul\":16524:17894   */\n      pop\n      pop\n      pop\n        /* \"#utility.yul\":16431:17894   */\n      pop\n      pop\n    tag_536:\n      jump\t// out\n        /* \"#utility.yul\":17924:18755   */\n    tag_337:\n        /* \"#utility.yul\":18009:18012   */\n      0x00\n        /* \"#utility.yul\":18046:18051   */\n      dup2\n        /* \"#utility.yul\":18040:18052   */\n      sload\n        /* \"#utility.yul\":18075:18111   */\n      tag_555\n        /* \"#utility.yul\":18101:18110   */\n      dup2\n        /* \"#utility.yul\":18075:18111   */\n      tag_47\n      jump\t// in\n    tag_555:\n        /* \"#utility.yul\":18127:18198   */\n      tag_556\n        /* \"#utility.yul\":18191:18197   */\n      dup2\n        /* \"#utility.yul\":18186:18189   */\n      dup7\n        /* \"#utility.yul\":18127:18198   */\n      tag_288\n      jump\t// in\n    tag_556:\n        /* \"#utility.yul\":18120:18198   */\n      swap5\n      pop\n        /* \"#utility.yul\":18229:18230   */\n      0x01\n        /* \"#utility.yul\":18218:18227   */\n      dup3\n        /* \"#utility.yul\":18214:18231   */\n      and\n        /* \"#utility.yul\":18245:18246   */\n      0x00\n        /* \"#utility.yul\":18240:18404   */\n      dup2\n      eq\n      tag_558\n      jumpi\n        /* \"#utility.yul\":18418:18419   */\n      0x01\n        /* \"#utility.yul\":18413:18749   */\n      dup2\n      eq\n      tag_559\n      jumpi\n        /* \"#utility.yul\":18207:18749   */\n      jump(tag_557)\n        /* \"#utility.yul\":18240:18404   */\n    tag_558:\n        /* \"#utility.yul\":18324:18328   */\n      0xff\n        /* \"#utility.yul\":18320:18329   */\n      not\n        /* \"#utility.yul\":18309:18318   */\n      dup4\n        /* \"#utility.yul\":18305:18330   */\n      and\n        /* \"#utility.yul\":18300:18303   */\n      dup7\n        /* \"#utility.yul\":18293:18331   */\n      mstore\n        /* \"#utility.yul\":18384:18390   */\n      dup2\n        /* \"#utility.yul\":18377:18391   */\n      iszero\n        /* \"#utility.yul\":18370:18392   */\n      iszero\n        /* \"#utility.yul\":18364:18368   */\n      0x20\n        /* \"#utility.yul\":18360:18393   */\n      mul\n        /* \"#utility.yul\":18355:18358   */\n      dup7\n        /* \"#utility.yul\":18351:18394   */\n      add\n        /* \"#utility.yul\":18344:18394   */\n      swap4\n      pop\n        /* \"#utility.yul\":18240:18404   */\n      jump(tag_557)\n        /* \"#utility.yul\":18413:18749   */\n    tag_559:\n        /* \"#utility.yul\":18480:18518   */\n      tag_560\n        /* \"#utility.yul\":18512:18517   */\n      dup6\n        /* \"#utility.yul\":18480:18518   */\n      tag_317\n      jump\t// in\n    tag_560:\n        /* \"#utility.yul\":18540:18541   */\n      0x00\n        /* \"#utility.yul\":18554:18708   */\n    tag_561:\n        /* \"#utility.yul\":18568:18574   */\n      dup4\n        /* \"#utility.yul\":18565:18566   */\n      dup2\n        /* \"#utility.yul\":18562:18575   */\n      lt\n        /* \"#utility.yul\":18554:18708   */\n      iszero\n      tag_563\n      jumpi\n        /* \"#utility.yul\":18642:18649   */\n      dup2\n        /* \"#utility.yul\":18636:18650   */\n      sload\n        /* \"#utility.yul\":18632:18633   */\n      dup2\n        /* \"#utility.yul\":18627:18630   */\n      dup10\n        /* \"#utility.yul\":18623:18634   */\n      add\n        /* \"#utility.yul\":18616:18651   */\n      mstore\n        /* \"#utility.yul\":18692:18693   */\n      0x01\n        /* \"#utility.yul\":18683:18690   */\n      dup3\n        /* \"#utility.yul\":18679:18694   */\n      add\n        /* \"#utility.yul\":18668:18694   */\n      swap2\n      pop\n        /* \"#utility.yul\":18590:18594   */\n      0x20\n        /* \"#utility.yul\":18587:18588   */\n      dup2\n        /* \"#utility.yul\":18583:18595   */\n      add\n        /* \"#utility.yul\":18578:18595   */\n      swap1\n      pop\n        /* \"#utility.yul\":18554:18708   */\n      jump(tag_561)\n    tag_563:\n        /* \"#utility.yul\":18737:18738   */\n      dup1\n        /* \"#utility.yul\":18732:18735   */\n      dup9\n        /* \"#utility.yul\":18728:18739   */\n      add\n        /* \"#utility.yul\":18721:18739   */\n      swap6\n      pop\n        /* \"#utility.yul\":18420:18749   */\n      pop\n      pop\n        /* \"#utility.yul\":18207:18749   */\n    tag_557:\n      pop\n        /* \"#utility.yul\":18013:18755   */\n      pop\n      pop\n        /* \"#utility.yul\":17924:18755   */\n      swap3\n      swap2\n      pop\n      pop\n      jump\t// out\n        /* \"#utility.yul\":18783:19610   */\n    tag_338:\n        /* \"#utility.yul\":18866:18869   */\n      0x00\n        /* \"#utility.yul\":18903:18908   */\n      dup2\n        /* \"#utility.yul\":18897:18909   */\n      sload\n        /* \"#utility.yul\":18932:18968   */\n      tag_565\n        /* \"#utility.yul\":18958:18967   */\n      dup2\n        /* \"#utility.yul\":18932:18968   */\n      tag_47\n      jump\t// in\n    tag_565:\n        /* \"#utility.yul\":18984:19054   */\n      tag_566\n        /* \"#utility.yul\":19047:19053   */\n      dup2\n        /* \"#utility.yul\":19042:19045   */\n      dup7\n        /* \"#utility.yul\":18984:19054   */\n      tag_307\n      jump\t// in\n    tag_566:\n        /* \"#utility.yul\":18977:19054   */\n      swap5\n      pop\n        /* \"#utility.yul\":19085:19086   */\n      0x01\n        /* \"#utility.yul\":19074:19083   */\n      dup3\n        /* \"#utility.yul\":19070:19087   */\n      and\n        /* \"#utility.yul\":19101:19102   */\n      0x00\n        /* \"#utility.yul\":19096:19260   */\n      dup2\n      eq\n      tag_568\n      jumpi\n        /* \"#utility.yul\":19274:19275   */\n      0x01\n        /* \"#utility.yul\":19269:19604   */\n      dup2\n      eq\n      tag_569\n      jumpi\n        /* \"#utility.yul\":19063:19604   */\n      jump(tag_567)\n        /* \"#utility.yul\":19096:19260   */\n    tag_568:\n        /* \"#utility.yul\":19180:19184   */\n      0xff\n        /* \"#utility.yul\":19176:19185   */\n      not\n        /* \"#utility.yul\":19165:19174   */\n      dup4\n        /* \"#utility.yul\":19161:19186   */\n      and\n        /* \"#utility.yul\":19156:19159   */\n      dup7\n        /* \"#utility.yul\":19149:19187   */\n      mstore\n        /* \"#utility.yul\":19240:19246   */\n      dup2\n        /* \"#utility.yul\":19233:19247   */\n      iszero\n        /* \"#utility.yul\":19226:19248   */\n      iszero\n        /* \"#utility.yul\":19220:19224   */\n      0x20\n        /* \"#utility.yul\":19216:19249   */\n      mul\n        /* \"#utility.yul\":19211:19214   */\n      dup7\n        /* \"#utility.yul\":19207:19250   */\n      add\n        /* \"#utility.yul\":19200:19250   */\n      swap4\n      pop\n        /* \"#utility.yul\":19096:19260   */\n      jump(tag_567)\n        /* \"#utility.yul\":19269:19604   */\n    tag_569:\n        /* \"#utility.yul\":19336:19373   */\n      tag_570\n        /* \"#utility.yul\":19367:19372   */\n      dup6\n        /* \"#utility.yul\":19336:19373   */\n      tag_333\n      jump\t// in\n    tag_570:\n        /* \"#utility.yul\":19395:19396   */\n      0x00\n        /* \"#utility.yul\":19409:19563   */\n    tag_571:\n        /* \"#utility.yul\":19423:19429   */\n      dup4\n        /* \"#utility.yul\":19420:19421   */\n      dup2\n        /* \"#utility.yul\":19417:19430   */\n      lt\n        /* \"#utility.yul\":19409:19563   */\n      iszero\n      tag_573\n      jumpi\n        /* \"#utility.yul\":19497:19504   */\n      dup2\n        /* \"#utility.yul\":19491:19505   */\n      sload\n        /* \"#utility.yul\":19487:19488   */\n      dup2\n        /* \"#utility.yul\":19482:19485   */\n      dup10\n        /* \"#utility.yul\":19478:19489   */\n      add\n        /* \"#utility.yul\":19471:19506   */\n      mstore\n        /* \"#utility.yul\":19547:19548   */\n      0x01\n        /* \"#utility.yul\":19538:19545   */\n      dup3\n        /* \"#utility.yul\":19534:19549   */\n      add\n        /* \"#utility.yul\":19523:19549   */\n      swap2\n      pop\n        /* \"#utility.yul\":19445:19449   */\n      0x20\n        /* \"#utility.yul\":19442:19443   */\n      dup2\n        /* \"#utility.yul\":19438:19450   */\n      add\n        /* \"#utility.yul\":19433:19450   */\n      swap1\n      pop\n        /* \"#utility.yul\":19409:19563   */\n      jump(tag_571)\n    tag_573:\n        /* \"#utility.yul\":19592:19593   */\n      dup1\n        /* \"#utility.yul\":19587:19590   */\n      dup9\n        /* \"#utility.yul\":19583:19594   */\n      add\n        /* \"#utility.yul\":19576:19594   */\n      swap6\n      pop\n        /* \"#utility.yul\":19276:19604   */\n      pop\n      pop\n        /* \"#utility.yul\":19063:19604   */\n    tag_567:\n      pop\n        /* \"#utility.yul\":18870:19610   */\n      pop\n      pop\n        /* \"#utility.yul\":18783:19610   */\n      swap3\n      swap2\n      pop\n      pop\n      jump\t// out\n        /* \"#utility.yul\":19616:20305   */\n    tag_107:\n        /* \"#utility.yul\":19812:19816   */\n      0x00\n        /* \"#utility.yul\":19850:19852   */\n      0x60\n        /* \"#utility.yul\":19839:19848   */\n      dup3\n        /* \"#utility.yul\":19835:19853   */\n      add\n        /* \"#utility.yul\":19827:19853   */\n      swap1\n      pop\n        /* \"#utility.yul\":19899:19908   */\n      dup2\n        /* \"#utility.yul\":19893:19897   */\n      dup2\n        /* \"#utility.yul\":19889:19909   */\n      sub\n        /* \"#utility.yul\":19885:19886   */\n      0x00\n        /* \"#utility.yul\":19874:19883   */\n      dup4\n        /* \"#utility.yul\":19870:19887   */\n      add\n        /* \"#utility.yul\":19863:19910   */\n      mstore\n        /* \"#utility.yul\":19927:20002   */\n      tag_575\n        /* \"#utility.yul\":19997:20001   */\n      dup2\n        /* \"#utility.yul\":19988:19994   */\n      dup7\n        /* \"#utility.yul\":19927:20002   */\n      tag_337\n      jump\t// in\n    tag_575:\n        /* \"#utility.yul\":19919:20002   */\n      swap1\n      pop\n        /* \"#utility.yul\":20049:20058   */\n      dup2\n        /* \"#utility.yul\":20043:20047   */\n      dup2\n        /* \"#utility.yul\":20039:20059   */\n      sub\n        /* \"#utility.yul\":20034:20036   */\n      0x20\n        /* \"#utility.yul\":20023:20032   */\n      dup4\n        /* \"#utility.yul\":20019:20037   */\n      add\n        /* \"#utility.yul\":20012:20060   */\n      mstore\n        /* \"#utility.yul\":20077:20150   */\n      tag_576\n        /* \"#utility.yul\":20145:20149   */\n      dup2\n        /* \"#utility.yul\":20136:20142   */\n      dup6\n        /* \"#utility.yul\":20077:20150   */\n      tag_338\n      jump\t// in\n    tag_576:\n        /* \"#utility.yul\":20069:20150   */\n      swap1\n      pop\n        /* \"#utility.yul\":20197:20206   */\n      dup2\n        /* \"#utility.yul\":20191:20195   */\n      dup2\n        /* \"#utility.yul\":20187:20207   */\n      sub\n        /* \"#utility.yul\":20182:20184   */\n      0x40\n        /* \"#utility.yul\":20171:20180   */\n      dup4\n        /* \"#utility.yul\":20167:20185   */\n      add\n        /* \"#utility.yul\":20160:20208   */\n      mstore\n        /* \"#utility.yul\":20225:20298   */\n      tag_577\n        /* \"#utility.yul\":20293:20297   */\n      dup2\n        /* \"#utility.yul\":20284:20290   */\n      dup5\n        /* \"#utility.yul\":20225:20298   */\n      tag_338\n      jump\t// in\n    tag_577:\n        /* \"#utility.yul\":20217:20298   */\n      swap1\n      pop\n        /* \"#utility.yul\":19616:20305   */\n      swap5\n      swap4\n      pop\n      pop\n      pop\n      pop\n      jump\t// out\n        /* \"#utility.yul\":20311:20491   */\n    tag_121:\n        /* \"#utility.yul\":20359:20436   */\n      0x4e487b7100000000000000000000000000000000000000000000000000000000\n        /* \"#utility.yul\":20356:20357   */\n      0x00\n        /* \"#utility.yul\":20349:20437   */\n      mstore\n        /* \"#utility.yul\":20456:20460   */\n      0x21\n        /* \"#utility.yul\":20453:20454   */\n      0x04\n        /* \"#utility.yul\":20446:20461   */\n      mstore\n        /* \"#utility.yul\":20480:20484   */\n      0x24\n        /* \"#utility.yul\":20477:20478   */\n      0x00\n        /* \"#utility.yul\":20470:20485   */\n      revert\n        /* \"#utility.yul\":20497:20612   */\n    tag_339:\n        /* \"#utility.yul\":20582:20605   */\n      tag_580\n        /* \"#utility.yul\":20599:20604   */\n      dup2\n        /* \"#utility.yul\":20582:20605   */\n      tag_313\n      jump\t// in\n    tag_580:\n        /* \"#utility.yul\":20577:20580   */\n      dup3\n        /* \"#utility.yul\":20570:20606   */\n      mstore\n        /* \"#utility.yul\":20497:20612   */\n      pop\n      pop\n      jump\t// out\n        /* \"#utility.yul\":20618:20707   */\n    tag_340:\n        /* \"#utility.yul\":20654:20661   */\n      0x00\n        /* \"#utility.yul\":20694:20700   */\n      0xffff\n        /* \"#utility.yul\":20687:20692   */\n      dup3\n        /* \"#utility.yul\":20683:20701   */\n      and\n        /* \"#utility.yul\":20672:20701   */\n      swap1\n      pop\n        /* \"#utility.yul\":20618:20707   */\n      swap2\n      swap1\n      pop\n      jump\t// out\n        /* \"#utility.yul\":20713:20828   */\n    tag_341:\n        /* \"#utility.yul\":20798:20821   */\n      tag_583\n        /* \"#utility.yul\":20815:20820   */\n      dup2\n        /* \"#utility.yul\":20798:20821   */\n      tag_340\n      jump\t// in\n    tag_583:\n        /* \"#utility.yul\":20793:20796   */\n      dup3\n        /* \"#utility.yul\":20786:20822   */\n      mstore\n        /* \"#utility.yul\":20713:20828   */\n      pop\n      pop\n      jump\t// out\n        /* \"#utility.yul\":20834:20927   */\n    tag_342:\n        /* \"#utility.yul\":20870:20877   */\n      0x00\n        /* \"#utility.yul\":20910:20920   */\n      0xffffffff\n        /* \"#utility.yul\":20903:20908   */\n      dup3\n        /* \"#utility.yul\":20899:20921   */\n      and\n        /* \"#utility.yul\":20888:20921   */\n      swap1\n      pop\n        /* \"#utility.yul\":20834:20927   */\n      swap2\n      swap1\n      pop\n      jump\t// out\n        /* \"#utility.yul\":20933:21048   */\n    tag_343:\n        /* \"#utility.yul\":21018:21041   */\n      tag_586\n        /* \"#utility.yul\":21035:21040   */\n      dup2\n        /* \"#utility.yul\":21018:21041   */\n      tag_342\n      jump\t// in\n    tag_586:\n        /* \"#utility.yul\":21013:21016   */\n      dup3\n        /* \"#utility.yul\":21006:21042   */\n      mstore\n        /* \"#utility.yul\":20933:21048   */\n      pop\n      pop\n      jump\t// out\n        /* \"#utility.yul\":21054:21793   */\n    tag_166:\n        /* \"#utility.yul\":21271:21275   */\n      0x00\n        /* \"#utility.yul\":21309:21312   */\n      0xa0\n        /* \"#utility.yul\":21298:21307   */\n      dup3\n        /* \"#utility.yul\":21294:21313   */\n      add\n        /* \"#utility.yul\":21286:21313   */\n      swap1\n      pop\n        /* \"#utility.yul\":21323:21392   */\n      tag_588\n        /* \"#utility.yul\":21389:21390   */\n      0x00\n        /* \"#utility.yul\":21378:21387   */\n      dup4\n        /* \"#utility.yul\":21374:21391   */\n      add\n        /* \"#utility.yul\":21365:21371   */\n      dup9\n        /* \"#utility.yul\":21323:21392   */\n      tag_339\n      jump\t// in\n    tag_588:\n        /* \"#utility.yul\":21439:21448   */\n      dup2\n        /* \"#utility.yul\":21433:21437   */\n      dup2\n        /* \"#utility.yul\":21429:21449   */\n      sub\n        /* \"#utility.yul\":21424:21426   */\n      0x20\n        /* \"#utility.yul\":21413:21422   */\n      dup4\n        /* \"#utility.yul\":21409:21427   */\n      add\n        /* \"#utility.yul\":21402:21450   */\n      mstore\n        /* \"#utility.yul\":21467:21543   */\n      tag_589\n        /* \"#utility.yul\":21538:21542   */\n      dup2\n        /* \"#utility.yul\":21529:21535   */\n      dup8\n        /* \"#utility.yul\":21467:21543   */\n      tag_308\n      jump\t// in\n    tag_589:\n        /* \"#utility.yul\":21459:21543   */\n      swap1\n      pop\n        /* \"#utility.yul\":21553:21623   */\n      tag_590\n        /* \"#utility.yul\":21619:21621   */\n      0x40\n        /* \"#utility.yul\":21608:21617   */\n      dup4\n        /* \"#utility.yul\":21604:21622   */\n      add\n        /* \"#utility.yul\":21595:21601   */\n      dup7\n        /* \"#utility.yul\":21553:21623   */\n      tag_341\n      jump\t// in\n    tag_590:\n        /* \"#utility.yul\":21633:21703   */\n      tag_591\n        /* \"#utility.yul\":21699:21701   */\n      0x60\n        /* \"#utility.yul\":21688:21697   */\n      dup4\n        /* \"#utility.yul\":21684:21702   */\n      add\n        /* \"#utility.yul\":21675:21681   */\n      dup6\n        /* \"#utility.yul\":21633:21703   */\n      tag_343\n      jump\t// in\n    tag_591:\n        /* \"#utility.yul\":21713:21786   */\n      tag_592\n        /* \"#utility.yul\":21781:21784   */\n      0x80\n        /* \"#utility.yul\":21770:21779   */\n      dup4\n        /* \"#utility.yul\":21766:21785   */\n      add\n        /* \"#utility.yul\":21757:21763   */\n      dup5\n        /* \"#utility.yul\":21713:21786   */\n      tag_309\n      jump\t// in\n    tag_592:\n        /* \"#utility.yul\":21054:21793   */\n      swap7\n      swap6\n      pop\n      pop\n      pop\n      pop\n      pop\n      pop\n      jump\t// out\n        /* \"#utility.yul\":21799:21942   */\n    tag_344:\n        /* \"#utility.yul\":21856:21861   */\n      0x00\n        /* \"#utility.yul\":21887:21893   */\n      dup2\n        /* \"#utility.yul\":21881:21894   */\n      mload\n        /* \"#utility.yul\":21872:21894   */\n      swap1\n      pop\n        /* \"#utility.yul\":21903:21936   */\n      tag_594\n        /* \"#utility.yul\":21930:21935   */\n      dup2\n        /* \"#utility.yul\":21903:21936   */\n      tag_296\n      jump\t// in\n    tag_594:\n        /* \"#utility.yul\":21799:21942   */\n      swap3\n      swap2\n      pop\n      pop\n      jump\t// out\n        /* \"#utility.yul\":21948:22299   */\n    tag_170:\n        /* \"#utility.yul\":22018:22024   */\n      0x00\n        /* \"#utility.yul\":22067:22069   */\n      0x20\n        /* \"#utility.yul\":22055:22064   */\n      dup3\n        /* \"#utility.yul\":22046:22053   */\n      dup5\n        /* \"#utility.yul\":22042:22065   */\n      sub\n        /* \"#utility.yul\":22038:22070   */\n      slt\n        /* \"#utility.yul\":22035:22154   */\n      iszero\n      tag_596\n      jumpi\n        /* \"#utility.yul\":22073:22152   */\n      tag_597\n      tag_293\n      jump\t// in\n    tag_597:\n        /* \"#utility.yul\":22035:22154   */\n    tag_596:\n        /* \"#utility.yul\":22193:22194   */\n      0x00\n        /* \"#utility.yul\":22218:22282   */\n      tag_598\n        /* \"#utility.yul\":22274:22281   */\n      dup5\n        /* \"#utility.yul\":22265:22271   */\n      dup3\n        /* \"#utility.yul\":22254:22263   */\n      dup6\n        /* \"#utility.yul\":22250:22272   */\n      add\n        /* \"#utility.yul\":22218:22282   */\n      tag_344\n      jump\t// in\n    tag_598:\n        /* \"#utility.yul\":22208:22282   */\n      swap2\n      pop\n        /* \"#utility.yul\":22164:22292   */\n      pop\n        /* \"#utility.yul\":21948:22299   */\n      swap3\n      swap2\n      pop\n      pop\n      jump\t// out\n        /* \"#utility.yul\":22305:22423   */\n    tag_345:\n        /* \"#utility.yul\":22392:22416   */\n      tag_600\n        /* \"#utility.yul\":22410:22415   */\n      dup2\n        /* \"#utility.yul\":22392:22416   */\n      tag_321\n      jump\t// in\n    tag_600:\n        /* \"#utility.yul\":22387:22390   */\n      dup3\n        /* \"#utility.yul\":22380:22417   */\n      mstore\n        /* \"#utility.yul\":22305:22423   */\n      pop\n      pop\n      jump\t// out\n        /* \"#utility.yul\":22429:22651   */\n    tag_196:\n        /* \"#utility.yul\":22522:22526   */\n      0x00\n        /* \"#utility.yul\":22560:22562   */\n      0x20\n        /* \"#utility.yul\":22549:22558   */\n      dup3\n        /* \"#utility.yul\":22545:22563   */\n      add\n        /* \"#utility.yul\":22537:22563   */\n      swap1\n      pop\n        /* \"#utility.yul\":22573:22644   */\n      tag_602\n        /* \"#utility.yul\":22641:22642   */\n      0x00\n        /* \"#utility.yul\":22630:22639   */\n      dup4\n        /* \"#utility.yul\":22626:22643   */\n      add\n        /* \"#utility.yul\":22617:22623   */\n      dup5\n        /* \"#utility.yul\":22573:22644   */\n      tag_345\n      jump\t// in\n    tag_602:\n        /* \"#utility.yul\":22429:22651   */\n      swap3\n      swap2\n      pop\n      pop\n      jump\t// out\n        /* \"#utility.yul\":22657:22837   */\n    tag_346:\n        /* \"#utility.yul\":22705:22782   */\n      0x4e487b7100000000000000000000000000000000000000000000000000000000\n        /* \"#utility.yul\":22702:22703   */\n      0x00\n        /* \"#utility.yul\":22695:22783   */\n      mstore\n        /* \"#utility.yul\":22802:22806   */\n      0x11\n        /* \"#utility.yul\":22799:22800   */\n      0x04\n        /* \"#utility.yul\":22792:22807   */\n      mstore\n        /* \"#utility.yul\":22826:22830   */\n      0x24\n        /* \"#utility.yul\":22823:22824   */\n      0x00\n        /* \"#utility.yul\":22816:22831   */\n      revert\n        /* \"#utility.yul\":22843:23034   */\n    tag_201:\n        /* \"#utility.yul\":22883:22886   */\n      0x00\n        /* \"#utility.yul\":22902:22922   */\n      tag_605\n        /* \"#utility.yul\":22920:22921   */\n      dup3\n        /* \"#utility.yul\":22902:22922   */\n      tag_321\n      jump\t// in\n    tag_605:\n        /* \"#utility.yul\":22897:22922   */\n      swap2\n      pop\n        /* \"#utility.yul\":22936:22956   */\n      tag_606\n        /* \"#utility.yul\":22954:22955   */\n      dup4\n        /* \"#utility.yul\":22936:22956   */\n      tag_321\n      jump\t// in\n    tag_606:\n        /* \"#utility.yul\":22931:22956   */\n      swap3\n      pop\n        /* \"#utility.yul\":22979:22980   */\n      dup3\n        /* \"#utility.yul\":22976:22977   */\n      dup3\n        /* \"#utility.yul\":22972:22981   */\n      add\n        /* \"#utility.yul\":22965:22981   */\n      swap1\n      pop\n        /* \"#utility.yul\":23000:23003   */\n      dup1\n        /* \"#utility.yul\":22997:22998   */\n      dup3\n        /* \"#utility.yul\":22994:23004   */\n      gt\n        /* \"#utility.yul\":22991:23027   */\n      iszero\n      tag_607\n      jumpi\n        /* \"#utility.yul\":23007:23025   */\n      tag_608\n      tag_346\n      jump\t// in\n    tag_608:\n        /* \"#utility.yul\":22991:23027   */\n    tag_607:\n        /* \"#utility.yul\":22843:23034   */\n      swap3\n      swap2\n      pop\n      pop\n      jump\t// out\n        /* \"#utility.yul\":23040:23234   */\n    tag_205:\n        /* \"#utility.yul\":23080:23084   */\n      0x00\n        /* \"#utility.yul\":23100:23120   */\n      tag_610\n        /* \"#utility.yul\":23118:23119   */\n      dup3\n        /* \"#utility.yul\":23100:23120   */\n      tag_321\n      jump\t// in\n    tag_610:\n        /* \"#utility.yul\":23095:23120   */\n      swap2\n      pop\n        /* \"#utility.yul\":23134:23154   */\n      tag_611\n        /* \"#utility.yul\":23152:23153   */\n      dup4\n        /* \"#utility.yul\":23134:23154   */\n      tag_321\n      jump\t// in\n    tag_611:\n        /* \"#utility.yul\":23129:23154   */\n      swap3\n      pop\n        /* \"#utility.yul\":23178:23179   */\n      dup3\n        /* \"#utility.yul\":23175:23176   */\n      dup3\n        /* \"#utility.yul\":23171:23180   */\n      sub\n        /* \"#utility.yul\":23163:23180   */\n      swap1\n      pop\n        /* \"#utility.yul\":23202:23203   */\n      dup2\n        /* \"#utility.yul\":23196:23200   */\n      dup2\n        /* \"#utility.yul\":23193:23204   */\n      gt\n        /* \"#utility.yul\":23190:23227   */\n      iszero\n      tag_612\n      jumpi\n        /* \"#utility.yul\":23207:23225   */\n      tag_613\n      tag_346\n      jump\t// in\n    tag_613:\n        /* \"#utility.yul\":23190:23227   */\n    tag_612:\n        /* \"#utility.yul\":23040:23234   */\n      swap3\n      swap2\n      pop\n      pop\n      jump\t// out\n        /* \"#utility.yul\":23240:23420   */\n    tag_347:\n        /* \"#utility.yul\":23288:23365   */\n      0x4e487b7100000000000000000000000000000000000000000000000000000000\n        /* \"#utility.yul\":23285:23286   */\n      0x00\n        /* \"#utility.yul\":23278:23366   */\n      mstore\n        /* \"#utility.yul\":23385:23389   */\n      0x12\n        /* \"#utility.yul\":23382:23383   */\n      0x04\n        /* \"#utility.yul\":23375:23390   */\n      mstore\n        /* \"#utility.yul\":23409:23413   */\n      0x24\n        /* \"#utility.yul\":23406:23407   */\n      0x00\n        /* \"#utility.yul\":23399:23414   */\n      revert\n        /* \"#utility.yul\":23426:23602   */\n    tag_213:\n        /* \"#utility.yul\":23458:23459   */\n      0x00\n        /* \"#utility.yul\":23475:23495   */\n      tag_616\n        /* \"#utility.yul\":23493:23494   */\n      dup3\n        /* \"#utility.yul\":23475:23495   */\n      tag_321\n      jump\t// in\n    tag_616:\n        /* \"#utility.yul\":23470:23495   */\n      swap2\n      pop\n        /* \"#utility.yul\":23509:23529   */\n      tag_617\n        /* \"#utility.yul\":23527:23528   */\n      dup4\n        /* \"#utility.yul\":23509:23529   */\n      tag_321\n      jump\t// in\n    tag_617:\n        /* \"#utility.yul\":23504:23529   */\n      swap3\n      pop\n        /* \"#utility.yul\":23548:23549   */\n      dup3\n        /* \"#utility.yul\":23538:23573   */\n      tag_618\n      jumpi\n        /* \"#utility.yul\":23553:23571   */\n      tag_619\n      tag_347\n      jump\t// in\n    tag_619:\n        /* \"#utility.yul\":23538:23573   */\n    tag_618:\n        /* \"#utility.yul\":23594:23595   */\n      dup3\n        /* \"#utility.yul\":23591:23592   */\n      dup3\n        /* \"#utility.yul\":23587:23596   */\n      mod\n        /* \"#utility.yul\":23582:23596   */\n      swap1\n      pop\n        /* \"#utility.yul\":23426:23602   */\n      swap3\n      swap2\n      pop\n      pop\n      jump\t// out\n        /* \"#utility.yul\":23608:24018   */\n    tag_248:\n        /* \"#utility.yul\":23648:23655   */\n      0x00\n        /* \"#utility.yul\":23671:23691   */\n      tag_621\n        /* \"#utility.yul\":23689:23690   */\n      dup3\n        /* \"#utility.yul\":23671:23691   */\n      tag_321\n      jump\t// in\n    tag_621:\n        /* \"#utility.yul\":23666:23691   */\n      swap2\n      pop\n        /* \"#utility.yul\":23705:23725   */\n      tag_622\n        /* \"#utility.yul\":23723:23724   */\n      dup4\n        /* \"#utility.yul\":23705:23725   */\n      tag_321\n      jump\t// in\n    tag_622:\n        /* \"#utility.yul\":23700:23725   */\n      swap3\n      pop\n        /* \"#utility.yul\":23760:23761   */\n      dup3\n        /* \"#utility.yul\":23757:23758   */\n      dup3\n        /* \"#utility.yul\":23753:23762   */\n      mul\n        /* \"#utility.yul\":23782:23812   */\n      tag_623\n        /* \"#utility.yul\":23800:23811   */\n      dup2\n        /* \"#utility.yul\":23782:23812   */\n      tag_321\n      jump\t// in\n    tag_623:\n        /* \"#utility.yul\":23771:23812   */\n      swap2\n      pop\n        /* \"#utility.yul\":23961:23962   */\n      dup3\n        /* \"#utility.yul\":23952:23959   */\n      dup3\n        /* \"#utility.yul\":23948:23963   */\n      div\n        /* \"#utility.yul\":23945:23946   */\n      dup5\n        /* \"#utility.yul\":23942:23964   */\n      eq\n        /* \"#utility.yul\":23922:23923   */\n      dup4\n        /* \"#utility.yul\":23915:23924   */\n      iszero\n        /* \"#utility.yul\":23895:23978   */\n      or\n        /* \"#utility.yul\":23872:24011   */\n      tag_624\n      jumpi\n        /* \"#utility.yul\":23991:24009   */\n      tag_625\n      tag_346\n      jump\t// in\n    tag_625:\n        /* \"#utility.yul\":23872:24011   */\n    tag_624:\n        /* \"#utility.yul\":23656:24018   */\n      pop\n        /* \"#utility.yul\":23608:24018   */\n      swap3\n      swap2\n      pop\n      pop\n      jump\t// out\n        /* \"#utility.yul\":24024:24126   */\n    tag_348:\n        /* \"#utility.yul\":24066:24074   */\n      0x00\n        /* \"#utility.yul\":24113:24118   */\n      dup2\n        /* \"#utility.yul\":24110:24111   */\n      0x01\n        /* \"#utility.yul\":24106:24119   */\n      shr\n        /* \"#utility.yul\":24085:24119   */\n      swap1\n      pop\n        /* \"#utility.yul\":24024:24126   */\n      swap2\n      swap1\n      pop\n      jump\t// out\n        /* \"#utility.yul\":24132:24980   */\n    tag_349:\n        /* \"#utility.yul\":24193:24198   */\n      0x00\n        /* \"#utility.yul\":24200:24204   */\n      0x00\n        /* \"#utility.yul\":24224:24230   */\n      dup3\n        /* \"#utility.yul\":24215:24230   */\n      swap2\n      pop\n        /* \"#utility.yul\":24248:24253   */\n      dup4\n        /* \"#utility.yul\":24239:24253   */\n      swap1\n      pop\n        /* \"#utility.yul\":24262:24974   */\n    tag_628:\n        /* \"#utility.yul\":24283:24284   */\n      0x01\n        /* \"#utility.yul\":24273:24281   */\n      dup6\n        /* \"#utility.yul\":24270:24285   */\n      gt\n        /* \"#utility.yul\":24262:24974   */\n      iszero\n      tag_630\n      jumpi\n        /* \"#utility.yul\":24378:24382   */\n      dup1\n        /* \"#utility.yul\":24373:24376   */\n      dup7\n        /* \"#utility.yul\":24369:24383   */\n      div\n        /* \"#utility.yul\":24363:24367   */\n      dup2\n        /* \"#utility.yul\":24360:24384   */\n      gt\n        /* \"#utility.yul\":24357:24407   */\n      iszero\n      tag_631\n      jumpi\n        /* \"#utility.yul\":24387:24405   */\n      tag_632\n      tag_346\n      jump\t// in\n    tag_632:\n        /* \"#utility.yul\":24357:24407   */\n    tag_631:\n        /* \"#utility.yul\":24437:24438   */\n      0x01\n        /* \"#utility.yul\":24427:24435   */\n      dup6\n        /* \"#utility.yul\":24423:24439   */\n      and\n        /* \"#utility.yul\":24420:24871   */\n      iszero\n      tag_633\n      jumpi\n        /* \"#utility.yul\":24852:24856   */\n      dup1\n        /* \"#utility.yul\":24845:24850   */\n      dup3\n        /* \"#utility.yul\":24841:24857   */\n      mul\n        /* \"#utility.yul\":24832:24857   */\n      swap2\n      pop\n        /* \"#utility.yul\":24420:24871   */\n    tag_633:\n        /* \"#utility.yul\":24902:24906   */\n      dup1\n        /* \"#utility.yul\":24896:24900   */\n      dup2\n        /* \"#utility.yul\":24892:24907   */\n      mul\n        /* \"#utility.yul\":24884:24907   */\n      swap1\n      pop\n        /* \"#utility.yul\":24932:24964   */\n      tag_634\n        /* \"#utility.yul\":24955:24963   */\n      dup6\n        /* \"#utility.yul\":24932:24964   */\n      tag_348\n      jump\t// in\n    tag_634:\n        /* \"#utility.yul\":24920:24964   */\n      swap5\n      pop\n        /* \"#utility.yul\":24262:24974   */\n      jump(tag_628)\n    tag_630:\n        /* \"#utility.yul\":24132:24980   */\n      swap5\n      pop\n      swap5\n      swap3\n      pop\n      pop\n      pop\n      jump\t// out\n        /* \"#utility.yul\":24986:26059   */\n    tag_350:\n        /* \"#utility.yul\":25040:25045   */\n      0x00\n        /* \"#utility.yul\":25231:25239   */\n      dup3\n        /* \"#utility.yul\":25221:25261   */\n      tag_636\n      jumpi\n        /* \"#utility.yul\":25252:25253   */\n      0x01\n        /* \"#utility.yul\":25243:25253   */\n      swap1\n      pop\n        /* \"#utility.yul\":25254:25259   */\n      jump(tag_635)\n        /* \"#utility.yul\":25221:25261   */\n    tag_636:\n        /* \"#utility.yul\":25280:25284   */\n      dup2\n        /* \"#utility.yul\":25270:25306   */\n      tag_637\n      jumpi\n        /* \"#utility.yul\":25297:25298   */\n      0x00\n        /* \"#utility.yul\":25288:25298   */\n      swap1\n      pop\n        /* \"#utility.yul\":25299:25304   */\n      jump(tag_635)\n        /* \"#utility.yul\":25270:25306   */\n    tag_637:\n        /* \"#utility.yul\":25366:25370   */\n      dup2\n        /* \"#utility.yul\":25414:25415   */\n      0x01\n        /* \"#utility.yul\":25409:25436   */\n      dup2\n      eq\n      tag_639\n      jumpi\n        /* \"#utility.yul\":25450:25451   */\n      0x02\n        /* \"#utility.yul\":25445:25636   */\n      dup2\n      eq\n      tag_640\n      jumpi\n        /* \"#utility.yul\":25359:25636   */\n      jump(tag_638)\n        /* \"#utility.yul\":25409:25436   */\n    tag_639:\n        /* \"#utility.yul\":25427:25428   */\n      0x01\n        /* \"#utility.yul\":25418:25428   */\n      swap2\n      pop\n        /* \"#utility.yul\":25429:25434   */\n      pop\n      jump(tag_635)\n        /* \"#utility.yul\":25445:25636   */\n    tag_640:\n        /* \"#utility.yul\":25490:25493   */\n      0xff\n        /* \"#utility.yul\":25480:25488   */\n      dup5\n        /* \"#utility.yul\":25477:25494   */\n      gt\n        /* \"#utility.yul\":25474:25517   */\n      iszero\n      tag_641\n      jumpi\n        /* \"#utility.yul\":25497:25515   */\n      tag_642\n      tag_346\n      jump\t// in\n    tag_642:\n        /* \"#utility.yul\":25474:25517   */\n    tag_641:\n        /* \"#utility.yul\":25546:25554   */\n      dup4\n        /* \"#utility.yul\":25543:25544   */\n      0x02\n        /* \"#utility.yul\":25539:25555   */\n      exp\n        /* \"#utility.yul\":25530:25555   */\n      swap2\n      pop\n        /* \"#utility.yul\":25581:25584   */\n      dup5\n        /* \"#utility.yul\":25574:25579   */\n      dup3\n        /* \"#utility.yul\":25571:25585   */\n      gt\n        /* \"#utility.yul\":25568:25608   */\n      iszero\n      tag_643\n      jumpi\n        /* \"#utility.yul\":25588:25606   */\n      tag_644\n      tag_346\n      jump\t// in\n    tag_644:\n        /* \"#utility.yul\":25568:25608   */\n    tag_643:\n        /* \"#utility.yul\":25621:25626   */\n      pop\n      jump(tag_635)\n        /* \"#utility.yul\":25359:25636   */\n    tag_638:\n      pop\n        /* \"#utility.yul\":25745:25747   */\n      0x20\n        /* \"#utility.yul\":25735:25743   */\n      dup4\n        /* \"#utility.yul\":25732:25748   */\n      lt\n        /* \"#utility.yul\":25726:25729   */\n      0x0133\n        /* \"#utility.yul\":25720:25724   */\n      dup4\n        /* \"#utility.yul\":25717:25730   */\n      lt\n        /* \"#utility.yul\":25713:25749   */\n      and\n        /* \"#utility.yul\":25695:25697   */\n      0x4e\n        /* \"#utility.yul\":25685:25693   */\n      dup5\n        /* \"#utility.yul\":25682:25698   */\n      lt\n        /* \"#utility.yul\":25677:25679   */\n      0x0b\n        /* \"#utility.yul\":25671:25675   */\n      dup5\n        /* \"#utility.yul\":25668:25680   */\n      lt\n        /* \"#utility.yul\":25664:25699   */\n      and\n        /* \"#utility.yul\":25648:25759   */\n      or\n        /* \"#utility.yul\":25645:25891   */\n      iszero\n      tag_645\n      jumpi\n        /* \"#utility.yul\":25801:25809   */\n      dup3\n        /* \"#utility.yul\":25795:25799   */\n      dup3\n        /* \"#utility.yul\":25791:25810   */\n      exp\n        /* \"#utility.yul\":25782:25810   */\n      swap1\n      pop\n        /* \"#utility.yul\":25836:25839   */\n      dup4\n        /* \"#utility.yul\":25829:25834   */\n      dup2\n        /* \"#utility.yul\":25826:25840   */\n      gt\n        /* \"#utility.yul\":25823:25863   */\n      iszero\n      tag_646\n      jumpi\n        /* \"#utility.yul\":25843:25861   */\n      tag_647\n      tag_346\n      jump\t// in\n    tag_647:\n        /* \"#utility.yul\":25823:25863   */\n    tag_646:\n        /* \"#utility.yul\":25876:25881   */\n      jump(tag_635)\n        /* \"#utility.yul\":25645:25891   */\n    tag_645:\n        /* \"#utility.yul\":25916:25958   */\n      tag_648\n        /* \"#utility.yul\":25954:25957   */\n      dup5\n        /* \"#utility.yul\":25944:25952   */\n      dup5\n        /* \"#utility.yul\":25938:25942   */\n      dup5\n        /* \"#utility.yul\":25935:25936   */\n      0x01\n        /* \"#utility.yul\":25916:25958   */\n      tag_349\n      jump\t// in\n    tag_648:\n        /* \"#utility.yul\":25901:25958   */\n      swap3\n      pop\n      swap1\n      pop\n        /* \"#utility.yul\":25990:25994   */\n      dup2\n        /* \"#utility.yul\":25985:25988   */\n      dup5\n        /* \"#utility.yul\":25981:25995   */\n      div\n        /* \"#utility.yul\":25974:25979   */\n      dup2\n        /* \"#utility.yul\":25971:25996   */\n      gt\n        /* \"#utility.yul\":25968:26019   */\n      iszero\n      tag_649\n      jumpi\n        /* \"#utility.yul\":25999:26017   */\n      tag_650\n      tag_346\n      jump\t// in\n    tag_650:\n        /* \"#utility.yul\":25968:26019   */\n    tag_649:\n        /* \"#utility.yul\":26048:26052   */\n      dup2\n        /* \"#utility.yul\":26041:26046   */\n      dup2\n        /* \"#utility.yul\":26037:26053   */\n      mul\n        /* \"#utility.yul\":26028:26053   */\n      swap1\n      pop\n        /* \"#utility.yul\":24986:26059   */\n    tag_635:\n      swap4\n      swap3\n      pop\n      pop\n      pop\n      jump\t// out\n        /* \"#utility.yul\":26065:26350   */\n    tag_260:\n        /* \"#utility.yul\":26125:26130   */\n      0x00\n        /* \"#utility.yul\":26149:26172   */\n      tag_652\n        /* \"#utility.yul\":26167:26171   */\n      dup3\n        /* \"#utility.yul\":26149:26172   */\n      tag_321\n      jump\t// in\n    tag_652:\n        /* \"#utility.yul\":26141:26172   */\n      swap2\n      pop\n        /* \"#utility.yul\":26193:26220   */\n      tag_653\n        /* \"#utility.yul\":26211:26219   */\n      dup4\n        /* \"#utility.yul\":26193:26220   */\n      tag_321\n      jump\t// in\n    tag_653:\n        /* \"#utility.yul\":26181:26220   */\n      swap3\n      pop\n        /* \"#utility.yul\":26239:26343   */\n      tag_654\n        /* \"#utility.yul\":26276:26342   */\n      0xffffffffffffffffffffffffffffffffffffffffffffffffffffffffffffffff\n        /* \"#utility.yul\":26266:26274   */\n      dup5\n        /* \"#utility.yul\":26260:26264   */\n      dup5\n        /* \"#utility.yul\":26239:26343   */\n      tag_350\n      jump\t// in\n    tag_654:\n        /* \"#utility.yul\":26230:26343   */\n      swap1\n      pop\n        /* \"#utility.yul\":26065:26350   */\n      swap3\n      swap2\n      pop\n      pop\n      jump\t// out\n    stop\n    data_6ed21e9c87a8dfef6fdf85f2f7bdf69a9b42c764c66081ff64c14457b3f6fcc6 636f6e73742063697479203d20617267735b305d3b636f6e737420617069526573706f6e7365203d2061776169742046756e6374696f6e732e6d616b654874747052657175657374287b75726c3a206068747470733a2f2f777474722e696e2f247b636974797d3f666f726d61743d33266d602c726573706f6e7365547970653a202774657874277d293b69662028617069526573706f6e73652e6572726f7229207b7468726f77204572726f72282752657175657374206661696c656427293b7d636f6e7374207b2064617461207d203d20617069526573706f6e73653b72657475726e2046756e6374696f6e732e656e636f6465537472696e672864617461293b\n\n    auxdata: 0xa26469706673582212202b06e244c6ec6b34fc7efcdf5654da65cdeed418163fe5f597e79b7f27e898f764736f6c63430008220033\n}\n",
				"bytecode": {
					"linkReferences": {},
					"object": "60a0604052348015600e575f5ffd5b5073b83e47c2bc239b3bf370bc41e1459a34b41238d08073ffffffffffffffffffffffffffffffffffffffff1660808173ffffffffffffffffffffffffffffffffffffffff16815250505060805161232c6100785f395f81816102400152610b9c015261232c5ff3fe608060405234801561000f575f5ffd5b5060043610610091575f3560e01c80636e0e7c3b116100645780636e0e7c3b1461010b578063b1e2174914610129578063d50cbe9814610147578063f230b4c214610165578063f343f1e11461018357610091565b80630845284e146100955780630ca76175146100b35780633944ea3a146100cf5780634b0795a8146100ed575b5f5ffd5b61009d6101b3565b6040516100aa919061138e565b60405180910390f35b6100cd60048036038101906100c8919061151e565b61023e565b005b6100d7610300565b6040516100e491906115f8565b60405180910390f35b6100f561038c565b60405161010291906115f8565b60405180910390f35b610113610418565b604051610120919061138e565b60405180910390f35b6101316104a4565b60405161013e9190611627565b60405180910390f35b61014f6104aa565b60405161015c919061138e565b60405180910390f35b61016d610536565b60405161017a919061138e565b60405180910390f35b61019d6004803603810190610198919061171b565b610555565b6040516101aa9190611627565b60405180910390f35b5f80546101bf906117a2565b80601f01602080910402602001604051908101604052809291908181526020018280546101eb906117a2565b80156102365780601f1061020d57610100808354040283529160200191610236565b820191905f5260205f20905b81548152906001019060200180831161021957829003601f168201915b505050505081565b7f000000000000000000000000000000000000000000000000000000000000000073ffffffffffffffffffffffffffffffffffffffff163373ffffffffffffffffffffffffffffffffffffffff16146102c3576040517fc6829f8300000000000000000000000000000000000000000000000000000000815260040160405180910390fd5b6102ce83838361066c565b827f85e1543bf2f84fe80c6badbce3648c8539ad1df4d2b3d822938ca0538be727e660405160405180910390a2505050565b6004805461030d906117a2565b80601f0160208091040260200160405190810160405280929190818152602001828054610339906117a2565b80156103845780601f1061035b57610100808354040283529160200191610384565b820191905f5260205f20905b81548152906001019060200180831161036757829003601f168201915b505050505081565b60058054610399906117a2565b80601f01602080910402602001604051908101604052809291908181526020018280546103c5906117a2565b80156104105780601f106103e757610100808354040283529160200191610410565b820191905f5260205f20905b8154815290600101906020018083116103f357829003601f168201915b505050505081565b60018054610425906117a2565b80601f0160208091040260200160405190810160405280929190818152602001828054610451906117a2565b801561049c5780601f106104735761010080835404028352916020019161049c565b820191905f5260205f20905b81548152906001019060200180831161047f57829003601f168201915b505050505081565b60035481565b600280546104b7906117a2565b80601f01602080910402602001604051908101604052809291908181526020018280546104e3906117a2565b801561052e5780601f106105055761010080835404028352916020019161052e565b820191905f5260205f20905b81548152906001019060200180831161051157829003601f168201915b505050505081565b60405180610140016040528061010381526020016121f4610103913981565b5f61055e611277565b61058c60405180610140016040528061010381526020016121f461010391398261073690919063ffffffff16565b5f600167ffffffffffffffff8111156105a8576105a76113fa565b5b6040519080825280602002602001820160405280156105db57816020015b60608152602001906001900390816105c65790505b50905084815f815181106105f2576105f16117d2565b5b6020026020010181905250610610818361074690919063ffffffff16565b61064961061c8361078d565b85620493e07f66756e2d657468657265756d2d7365706f6c69612d31000000000000000000005f1b610b98565b600381905550846001908161065e91906119b9565b506003549250505092915050565b82600354146106b257826040517fd068bf5b0000000000000000000000000000000000000000000000000000000081526004016106a99190611627565b60405180910390fd5b80600590816106c19190611aed565b5081600490816106d19190611aed565b5081600290816106e191906119b9565b5060015f90816106f19190611be3565b50827f160ed0aaffbef6885155188b91459cb5a97d5daadccf7561d8c46deea6641b5060026004600560405161072993929190611dca565b60405180910390a2505050565b610742825f5f84610c77565b5050565b5f815103610780576040517ffe936cb700000000000000000000000000000000000000000000000000000000815260040160405180910390fd5b808260a001819052505050565b60605f61079b610100610d1d565b90506107e56040518060400160405280600c81526020017f636f64654c6f636174696f6e000000000000000000000000000000000000000081525082610d4290919063ffffffff16565b61080d835f015160028111156107fe576107fd611e14565b5b82610d6a90919063ffffffff16565b6108556040518060400160405280600881526020017f6c616e677561676500000000000000000000000000000000000000000000000081525082610d4290919063ffffffff16565b61087d83604001515f81111561086e5761086d611e14565b5b82610d6a90919063ffffffff16565b6108c56040518060400160405280600681526020017f736f75726365000000000000000000000000000000000000000000000000000081525082610d4290919063ffffffff16565b6108dc836060015182610d4290919063ffffffff16565b5f8360a00151511115610993576109316040518060400160405280600481526020017f617267730000000000000000000000000000000000000000000000000000000081525082610d4290919063ffffffff16565b61093a81610db9565b5f5f90505b8360a00151518110156109885761097d8460a001518281518110610966576109656117d2565b5b602002602001015183610d4290919063ffffffff16565b80600101905061093f565b5061099281610de1565b5b5f8360800151511115610ad2575f60028111156109b3576109b2611e14565b5b836020015160028111156109ca576109c9611e14565b5b03610a01576040517fa80d31f700000000000000000000000000000000000000000000000000000000815260040160405180910390fd5b610a496040518060400160405280600f81526020017f736563726574734c6f636174696f6e000000000000000000000000000000000081525082610d4290919063ffffffff16565b610a7283602001516002811115610a6357610a62611e14565b5b82610d6a90919063ffffffff16565b610aba6040518060400160405280600781526020017f736563726574730000000000000000000000000000000000000000000000000081525082610d4290919063ffffffff16565b610ad1836080015182610e0990919063ffffffff16565b5b5f8360c00151511115610b8957610b276040518060400160405280600981526020017f627974657341726773000000000000000000000000000000000000000000000081525082610d4290919063ffffffff16565b610b3081610db9565b5f5f90505b8360c0015151811015610b7e57610b738460c001518281518110610b5c57610b5b6117d2565b5b602002602001015183610e0990919063ffffffff16565b806001019050610b35565b50610b8881610de1565b5b805f01515f0151915050919050565b5f5f7f000000000000000000000000000000000000000000000000000000000000000073ffffffffffffffffffffffffffffffffffffffff1663461d27628688600188886040518663ffffffff1660e01b8152600401610bfc959493929190611e8a565b6020604051808303815f875af1158015610c18573d5f5f3e3d5ffd5b505050506040513d601f19601f82011682018060405250810190610c3c9190611ef6565b9050807f1131472297a800fee664d1d89cfa8f7676ff07189ecc53f80bbb5f4969099db860405160405180910390a280915050949350505050565b5f815103610cb1576040517f22ce3edd00000000000000000000000000000000000000000000000000000000815260040160405180910390fd5b82845f01906002811115610cc857610cc7611e14565b5b90816002811115610cdc57610cdb611e14565b5b815250508184604001905f811115610cf757610cf6611e14565b5b90815f811115610d0a57610d09611e14565b5b8152505080846060018190525050505050565b610d256112e6565b610d32815f015183610e31565b505f816020018181525050919050565b610d4f8260038351610ea7565b610d6581835f015161104790919063ffffffff16565b505050565b610d8b60026005600660ff16901b17835f015161106390919063ffffffff16565b50610db58282604051602001610da19190611f30565b604051602081830303815290604052610e09565b5050565b610dc48160046110ca565b600181602001818151610dd79190611f76565b9150818152505050565b610dec8160076110ca565b600181602001818151610dff9190611fa9565b9150818152505050565b610e168260028351610ea7565b610e2c81835f015161104790919063ffffffff16565b505050565b610e39611305565b5f602083610e479190612009565b14610e7357602082610e599190612009565b6020610e659190611fa9565b82610e709190611f76565b91505b818360200181815250506040518084525f815282810160200181811015610e98575f5ffd5b80604052505082905092915050565b60178167ffffffffffffffff1611610ee157610edb8160058460ff16901b60ff1617845f015161106390919063ffffffff16565b50611042565b60ff8167ffffffffffffffff1611610f3d57610f13601860058460ff16901b17845f015161106390919063ffffffff16565b50610f378167ffffffffffffffff166001855f01516110ef9092919063ffffffff16565b50611041565b61ffff8167ffffffffffffffff1611610f9a57610f70601960058460ff16901b17845f015161106390919063ffffffff16565b50610f948167ffffffffffffffff166002855f01516110ef9092919063ffffffff16565b50611040565b63ffffffff8167ffffffffffffffff1611610ff957610fcf601a60058460ff16901b17845f015161106390919063ffffffff16565b50610ff38167ffffffffffffffff166004855f01516110ef9092919063ffffffff16565b5061103f565b611019601b60058460ff16901b17845f015161106390919063ffffffff16565b5061103d8167ffffffffffffffff166008855f01516110ef9092919063ffffffff16565b505b5b5b5b505050565b61104f611305565b61105b83838451611178565b905092915050565b61106b611305565b5f835f01515190505f6001826110819190611f76565b9050846020015182106110a5576110a48560028361109f9190612039565b611255565b5b845160208382010185815381518311156110bd578282525b5050849250505092915050565b6110ea601f60058360ff16901b17835f015161106390919063ffffffff16565b505050565b6110f7611305565b5f845f01515190505f818461110c9190611f76565b90508560200151811115611131576111308660028361112b9190612039565b611255565b5b5f60018561010061114291906121a9565b61114c9190611fa9565b905086518281018783198251161781528151841115611169578382525b50508693505050509392505050565b611180611305565b825182111561118d575f5ffd5b5f845f01515190505f83826111a29190611f76565b905085602001518111156111c7576111c6866002836111c19190612039565b611255565b5b5f5f875180518560208301019350808511156111e1578482525b60208901925050505b6020861061122857805182526020826112039190611f76565b91506020816112129190611f76565b90506020866112219190611fa9565b95506111ea565b5f6001876020036101000a0390508019825116818451168181178552505050879450505050509392505050565b5f825f015190506112668383610e31565b506112718382611047565b50505050565b6040518060e001604052805f600281111561129557611294611e14565b5b81526020015f60028111156112ad576112ac611e14565b5b81526020015f5f8111156112c4576112c3611e14565b5b8152602001606081526020016060815260200160608152602001606081525090565b60405180604001604052806112f9611305565b81526020015f81525090565b6040518060400160405280606081526020015f81525090565b5f81519050919050565b5f82825260208201905092915050565b8281835e5f83830152505050565b5f601f19601f8301169050919050565b5f6113608261131e565b61136a8185611328565b935061137a818560208601611338565b61138381611346565b840191505092915050565b5f6020820190508181035f8301526113a68184611356565b905092915050565b5f604051905090565b5f5ffd5b5f5ffd5b5f819050919050565b6113d1816113bf565b81146113db575f5ffd5b50565b5f813590506113ec816113c8565b92915050565b5f5ffd5b5f5ffd5b7f4e487b71000000000000000000000000000000000000000000000000000000005f52604160045260245ffd5b61143082611346565b810181811067ffffffffffffffff8211171561144f5761144e6113fa565b5b80604052505050565b5f6114616113ae565b905061146d8282611427565b919050565b5f67ffffffffffffffff82111561148c5761148b6113fa565b5b61149582611346565b9050602081019050919050565b828183375f83830152505050565b5f6114c26114bd84611472565b611458565b9050828152602081018484840111156114de576114dd6113f6565b5b6114e98482856114a2565b509392505050565b5f82601f830112611505576115046113f2565b5b81356115158482602086016114b0565b91505092915050565b5f5f5f60608486031215611535576115346113b7565b5b5f611542868287016113de565b935050602084013567ffffffffffffffff811115611563576115626113bb565b5b61156f868287016114f1565b925050604084013567ffffffffffffffff8111156115905761158f6113bb565b5b61159c868287016114f1565b9150509250925092565b5f81519050919050565b5f82825260208201905092915050565b5f6115ca826115a6565b6115d481856115b0565b93506115e4818560208601611338565b6115ed81611346565b840191505092915050565b5f6020820190508181035f83015261161081846115c0565b905092915050565b611621816113bf565b82525050565b5f60208201905061163a5f830184611618565b92915050565b5f67ffffffffffffffff82111561165a576116596113fa565b5b61166382611346565b9050602081019050919050565b5f61168261167d84611640565b611458565b90508281526020810184848401111561169e5761169d6113f6565b5b6116a98482856114a2565b509392505050565b5f82601f8301126116c5576116c46113f2565b5b81356116d5848260208601611670565b91505092915050565b5f67ffffffffffffffff82169050919050565b6116fa816116de565b8114611704575f5ffd5b50565b5f81359050611715816116f1565b92915050565b5f5f60408385031215611731576117306113b7565b5b5f83013567ffffffffffffffff81111561174e5761174d6113bb565b5b61175a858286016116b1565b925050602061176b85828601611707565b9150509250929050565b7f4e487b71000000000000000000000000000000000000000000000000000000005f52602260045260245ffd5b5f60028204905060018216806117b957607f821691505b6020821081036117cc576117cb611775565b5b50919050565b7f4e487b71000000000000000000000000000000000000000000000000000000005f52603260045260245ffd5b5f819050815f5260205f209050919050565b5f6020601f8301049050919050565b5f82821b905092915050565b5f6008830261185b7fffffffffffffffffffffffffffffffffffffffffffffffffffffffffffffffff82611820565b6118658683611820565b95508019841693508086168417925050509392505050565b5f819050919050565b5f819050919050565b5f6118a96118a461189f8461187d565b611886565b61187d565b9050919050565b5f819050919050565b6118c28361188f565b6118d66118ce826118b0565b84845461182c565b825550505050565b5f5f905090565b6118ed6118de565b6118f88184846118b9565b505050565b5f5b8281101561191e576119135f8284016118e5565b6001810190506118ff565b505050565b601f82111561197157828211156119705761193d816117ff565b61194683611811565b61194f85611811565b602086101561195c575f90505b80830161196b828403826118fd565b505050505b5b505050565b5f82821c905092915050565b5f6119915f1984600802611976565b1980831691505092915050565b5f6119a98383611982565b9150826002028217905092915050565b6119c28261131e565b67ffffffffffffffff8111156119db576119da6113fa565b5b6119e582546117a2565b6119f0828285611923565b5f60209050601f831160018114611a21575f8415611a0f578287015190505b611a19858261199e565b865550611a80565b601f198416611a2f866117ff565b5f5b82811015611a5657848901518255600182019150602085019450602081019050611a31565b86831015611a735784890151611a6f601f891682611982565b8355505b6001600288020188555050505b505050505050565b5f819050815f5260205f209050919050565b601f821115611ae85782821115611ae757611ab481611a88565b611abd83611811565b611ac685611811565b6020861015611ad3575f90505b808301611ae2828403826118fd565b505050505b5b505050565b611af6826115a6565b67ffffffffffffffff811115611b0f57611b0e6113fa565b5b611b1982546117a2565b611b24828285611a9a565b5f60209050601f831160018114611b55575f8415611b43578287015190505b611b4d858261199e565b865550611bb4565b601f198416611b6386611a88565b5f5b82811015611b8a57848901518255600182019150602085019450602081019050611b65565b86831015611ba75784890151611ba3601f891682611982565b8355505b6001600288020188555050505b505050505050565b5f81549050611bca816117a2565b9050919050565b5f819050815f5260205f209050919050565b818103611bf1575050611cc6565b611bfa82611bbc565b67ffffffffffffffff811115611c1357611c126113fa565b5b611c1d82546117a2565b611c28828285611923565b5f601f831160018114611c55575f8415611c43578287015490505b611c4d858261199e565b865550611cbf565b601f198416611c6387611bd1565b9650611c6e866117ff565b5f5b82811015611c9557848901548255600182019150600185019450602081019050611c70565b86831015611cb25784890154611cae601f891682611982565b8355505b6001600288020188555050505b5050505050505b565b5f8154611cd4816117a2565b611cde8186611328565b9450600182165f8114611cf85760018114611d0e57611d40565b60ff198316865281151560200286019350611d40565b611d17856117ff565b5f5b83811015611d3857815481890152600182019150602081019050611d19565b808801955050505b50505092915050565b5f8154611d55816117a2565b611d5f81866115b0565b9450600182165f8114611d795760018114611d8f57611dc1565b60ff198316865281151560200286019350611dc1565b611d9885611a88565b5f5b83811015611db957815481890152600182019150602081019050611d9a565b808801955050505b50505092915050565b5f6060820190508181035f830152611de28186611cc8565b90508181036020830152611df68185611d49565b90508181036040830152611e0a8184611d49565b9050949350505050565b7f4e487b71000000000000000000000000000000000000000000000000000000005f52602160045260245ffd5b611e4a816116de565b82525050565b5f61ffff82169050919050565b611e6681611e50565b82525050565b5f63ffffffff82169050919050565b611e8481611e6c565b82525050565b5f60a082019050611e9d5f830188611e41565b8181036020830152611eaf81876115c0565b9050611ebe6040830186611e5d565b611ecb6060830185611e7b565b611ed86080830184611618565b9695505050505050565b5f81519050611ef0816113c8565b92915050565b5f60208284031215611f0b57611f0a6113b7565b5b5f611f1884828501611ee2565b91505092915050565b611f2a8161187d565b82525050565b5f602082019050611f435f830184611f21565b92915050565b7f4e487b71000000000000000000000000000000000000000000000000000000005f52601160045260245ffd5b5f611f808261187d565b9150611f8b8361187d565b9250828201905080821115611fa357611fa2611f49565b5b92915050565b5f611fb38261187d565b9150611fbe8361187d565b9250828203905081811115611fd657611fd5611f49565b5b92915050565b7f4e487b71000000000000000000000000000000000000000000000000000000005f52601260045260245ffd5b5f6120138261187d565b915061201e8361187d565b92508261202e5761202d611fdc565b5b828206905092915050565b5f6120438261187d565b915061204e8361187d565b925082820261205c8161187d565b9150828204841483151761207357612072611f49565b5b5092915050565b5f8160011c9050919050565b5f5f8291508390505b60018511156120cf578086048111156120ab576120aa611f49565b5b60018516156120ba5780820291505b80810290506120c88561207a565b945061208f565b94509492505050565b5f826120e757600190506121a2565b816120f4575f90506121a2565b816001811461210a576002811461211457612143565b60019150506121a2565b60ff84111561212657612125611f49565b5b8360020a91508482111561213d5761213c611f49565b5b506121a2565b5060208310610133831016604e8410600b84101617156121785782820a90508381111561217357612172611f49565b5b6121a2565b6121858484846001612086565b9250905081840481111561219c5761219b611f49565b5b81810290505b9392505050565b5f6121b38261187d565b91506121be8361187d565b92506121eb7fffffffffffffffffffffffffffffffffffffffffffffffffffffffffffffffff84846120d8565b90509291505056fe636f6e73742063697479203d20617267735b305d3b636f6e737420617069526573706f6e7365203d2061776169742046756e6374696f6e732e6d616b654874747052657175657374287b75726c3a206068747470733a2f2f777474722e696e2f247b636974797d3f666f726d61743d33266d602c726573706f6e7365547970653a202774657874277d293b69662028617069526573706f6e73652e6572726f7229207b7468726f77204572726f72282752657175657374206661696c656427293b7d636f6e7374207b2064617461207d203d20617069526573706f6e73653b72657475726e2046756e6374696f6e732e656e636f6465537472696e672864617461293ba26469706673582212202b06e244c6ec6b34fc7efcdf5654da65cdeed418163fe5f597e79b7f27e898f764736f6c63430008220033",
					"opcodes": "PUSH1 0xA0 PUSH1 0x40 MSTORE CALLVALUE DUP1 ISZERO PUSH1 0xE JUMPI PUSH0 PUSH0 REVERT JUMPDEST POP PUSH20 0xB83E47C2BC239B3BF370BC41E1459A34B41238D0 DUP1 PUSH20 0xFFFFFFFFFFFFFFFFFFFFFFFFFFFFFFFFFFFFFFFF AND PUSH1 0x80 DUP2 PUSH20 0xFFFFFFFFFFFFFFFFFFFFFFFFFFFFFFFFFFFFFFFF AND DUP2 MSTORE POP POP POP PUSH1 0x80 MLOAD PUSH2 0x232C PUSH2 0x78 PUSH0 CODECOPY PUSH0 DUP2 DUP2 PUSH2 0x240 ADD MSTORE PUSH2 0xB9C ADD MSTORE PUSH2 0x232C PUSH0 RETURN INVALID PUSH1 0x80 PUSH1 0x40 MSTORE CALLVALUE DUP1 ISZERO PUSH2 0xF JUMPI PUSH0 PUSH0 REVERT JUMPDEST POP PUSH1 0x4 CALLDATASIZE LT PUSH2 0x91 JUMPI PUSH0 CALLDATALOAD PUSH1 0xE0 SHR DUP1 PUSH4 0x6E0E7C3B GT PUSH2 0x64 JUMPI DUP1 PUSH4 0x6E0E7C3B EQ PUSH2 0x10B JUMPI DUP1 PUSH4 0xB1E21749 EQ PUSH2 0x129 JUMPI DUP1 PUSH4 0xD50CBE98 EQ PUSH2 0x147 JUMPI DUP1 PUSH4 0xF230B4C2 EQ PUSH2 0x165 JUMPI DUP1 PUSH4 0xF343F1E1 EQ PUSH2 0x183 JUMPI PUSH2 0x91 JUMP JUMPDEST DUP1 PUSH4 0x845284E EQ PUSH2 0x95 JUMPI DUP1 PUSH4 0xCA76175 EQ PUSH2 0xB3 JUMPI DUP1 PUSH4 0x3944EA3A EQ PUSH2 0xCF JUMPI DUP1 PUSH4 0x4B0795A8 EQ PUSH2 0xED JUMPI JUMPDEST PUSH0 PUSH0 REVERT JUMPDEST PUSH2 0x9D PUSH2 0x1B3 JUMP JUMPDEST PUSH1 0x40 MLOAD PUSH2 0xAA SWAP2 SWAP1 PUSH2 0x138E JUMP JUMPDEST PUSH1 0x40 MLOAD DUP1 SWAP2 SUB SWAP1 RETURN JUMPDEST PUSH2 0xCD PUSH1 0x4 DUP1 CALLDATASIZE SUB DUP2 ADD SWAP1 PUSH2 0xC8 SWAP2 SWAP1 PUSH2 0x151E JUMP JUMPDEST PUSH2 0x23E JUMP JUMPDEST STOP JUMPDEST PUSH2 0xD7 PUSH2 0x300 JUMP JUMPDEST PUSH1 0x40 MLOAD PUSH2 0xE4 SWAP2 SWAP1 PUSH2 0x15F8 JUMP JUMPDEST PUSH1 0x40 MLOAD DUP1 SWAP2 SUB SWAP1 RETURN JUMPDEST PUSH2 0xF5 PUSH2 0x38C JUMP JUMPDEST PUSH1 0x40 MLOAD PUSH2 0x102 SWAP2 SWAP1 PUSH2 0x15F8 JUMP JUMPDEST PUSH1 0x40 MLOAD DUP1 SWAP2 SUB SWAP1 RETURN JUMPDEST PUSH2 0x113 PUSH2 0x418 JUMP JUMPDEST PUSH1 0x40 MLOAD PUSH2 0x120 SWAP2 SWAP1 PUSH2 0x138E JUMP JUMPDEST PUSH1 0x40 MLOAD DUP1 SWAP2 SUB SWAP1 RETURN JUMPDEST PUSH2 0x131 PUSH2 0x4A4 JUMP JUMPDEST PUSH1 0x40 MLOAD PUSH2 0x13E SWAP2 SWAP1 PUSH2 0x1627 JUMP JUMPDEST PUSH1 0x40 MLOAD DUP1 SWAP2 SUB SWAP1 RETURN JUMPDEST PUSH2 0x14F PUSH2 0x4AA JUMP JUMPDEST PUSH1 0x40 MLOAD PUSH2 0x15C SWAP2 SWAP1 PUSH2 0x138E JUMP JUMPDEST PUSH1 0x40 MLOAD DUP1 SWAP2 SUB SWAP1 RETURN JUMPDEST PUSH2 0x16D PUSH2 0x536 JUMP JUMPDEST PUSH1 0x40 MLOAD PUSH2 0x17A SWAP2 SWAP1 PUSH2 0x138E JUMP JUMPDEST PUSH1 0x40 MLOAD DUP1 SWAP2 SUB SWAP1 RETURN JUMPDEST PUSH2 0x19D PUSH1 0x4 DUP1 CALLDATASIZE SUB DUP2 ADD SWAP1 PUSH2 0x198 SWAP2 SWAP1 PUSH2 0x171B JUMP JUMPDEST PUSH2 0x555 JUMP JUMPDEST PUSH1 0x40 MLOAD PUSH2 0x1AA SWAP2 SWAP1 PUSH2 0x1627 JUMP JUMPDEST PUSH1 0x40 MLOAD DUP1 SWAP2 SUB SWAP1 RETURN JUMPDEST PUSH0 DUP1 SLOAD PUSH2 0x1BF SWAP1 PUSH2 0x17A2 JUMP JUMPDEST DUP1 PUSH1 0x1F ADD PUSH1 0x20 DUP1 SWAP2 DIV MUL PUSH1 0x20 ADD PUSH1 0x40 MLOAD SWAP1 DUP2 ADD PUSH1 0x40 MSTORE DUP1 SWAP3 SWAP2 SWAP1 DUP2 DUP2 MSTORE PUSH1 0x20 ADD DUP3 DUP1 SLOAD PUSH2 0x1EB SWAP1 PUSH2 0x17A2 JUMP JUMPDEST DUP1 ISZERO PUSH2 0x236 JUMPI DUP1 PUSH1 0x1F LT PUSH2 0x20D JUMPI PUSH2 0x100 DUP1 DUP4 SLOAD DIV MUL DUP4 MSTORE SWAP2 PUSH1 0x20 ADD SWAP2 PUSH2 0x236 JUMP JUMPDEST DUP3 ADD SWAP2 SWAP1 PUSH0 MSTORE PUSH1 0x20 PUSH0 KECCAK256 SWAP1 JUMPDEST DUP2 SLOAD DUP2 MSTORE SWAP1 PUSH1 0x1 ADD SWAP1 PUSH1 0x20 ADD DUP1 DUP4 GT PUSH2 0x219 JUMPI DUP3 SWAP1 SUB PUSH1 0x1F AND DUP3 ADD SWAP2 JUMPDEST POP POP POP POP POP DUP2 JUMP JUMPDEST PUSH32 0x0 PUSH20 0xFFFFFFFFFFFFFFFFFFFFFFFFFFFFFFFFFFFFFFFF AND CALLER PUSH20 0xFFFFFFFFFFFFFFFFFFFFFFFFFFFFFFFFFFFFFFFF AND EQ PUSH2 0x2C3 JUMPI PUSH1 0x40 MLOAD PUSH32 0xC6829F8300000000000000000000000000000000000000000000000000000000 DUP2 MSTORE PUSH1 0x4 ADD PUSH1 0x40 MLOAD DUP1 SWAP2 SUB SWAP1 REVERT JUMPDEST PUSH2 0x2CE DUP4 DUP4 DUP4 PUSH2 0x66C JUMP JUMPDEST DUP3 PUSH32 0x85E1543BF2F84FE80C6BADBCE3648C8539AD1DF4D2B3D822938CA0538BE727E6 PUSH1 0x40 MLOAD PUSH1 0x40 MLOAD DUP1 SWAP2 SUB SWAP1 LOG2 POP POP POP JUMP JUMPDEST PUSH1 0x4 DUP1 SLOAD PUSH2 0x30D SWAP1 PUSH2 0x17A2 JUMP JUMPDEST DUP1 PUSH1 0x1F ADD PUSH1 0x20 DUP1 SWAP2 DIV MUL PUSH1 0x20 ADD PUSH1 0x40 MLOAD SWAP1 DUP2 ADD PUSH1 0x40 MSTORE DUP1 SWAP3 SWAP2 SWAP1 DUP2 DUP2 MSTORE PUSH1 0x20 ADD DUP3 DUP1 SLOAD PUSH2 0x339 SWAP1 PUSH2 0x17A2 JUMP JUMPDEST DUP1 ISZERO PUSH2 0x384 JUMPI DUP1 PUSH1 0x1F LT PUSH2 0x35B JUMPI PUSH2 0x100 DUP1 DUP4 SLOAD DIV MUL DUP4 MSTORE SWAP2 PUSH1 0x20 ADD SWAP2 PUSH2 0x384 JUMP JUMPDEST DUP3 ADD SWAP2 SWAP1 PUSH0 MSTORE PUSH1 0x20 PUSH0 KECCAK256 SWAP1 JUMPDEST DUP2 SLOAD DUP2 MSTORE SWAP1 PUSH1 0x1 ADD SWAP1 PUSH1 0x20 ADD DUP1 DUP4 GT PUSH2 0x367 JUMPI DUP3 SWAP1 SUB PUSH1 0x1F AND DUP3 ADD SWAP2 JUMPDEST POP POP POP POP POP DUP2 JUMP JUMPDEST PUSH1 0x5 DUP1 SLOAD PUSH2 0x399 SWAP1 PUSH2 0x17A2 JUMP JUMPDEST DUP1 PUSH1 0x1F ADD PUSH1 0x20 DUP1 SWAP2 DIV MUL PUSH1 0x20 ADD PUSH1 0x40 MLOAD SWAP1 DUP2 ADD PUSH1 0x40 MSTORE DUP1 SWAP3 SWAP2 SWAP1 DUP2 DUP2 MSTORE PUSH1 0x20 ADD DUP3 DUP1 SLOAD PUSH2 0x3C5 SWAP1 PUSH2 0x17A2 JUMP JUMPDEST DUP1 ISZERO PUSH2 0x410 JUMPI DUP1 PUSH1 0x1F LT PUSH2 0x3E7 JUMPI PUSH2 0x100 DUP1 DUP4 SLOAD DIV MUL DUP4 MSTORE SWAP2 PUSH1 0x20 ADD SWAP2 PUSH2 0x410 JUMP JUMPDEST DUP3 ADD SWAP2 SWAP1 PUSH0 MSTORE PUSH1 0x20 PUSH0 KECCAK256 SWAP1 JUMPDEST DUP2 SLOAD DUP2 MSTORE SWAP1 PUSH1 0x1 ADD SWAP1 PUSH1 0x20 ADD DUP1 DUP4 GT PUSH2 0x3F3 JUMPI DUP3 SWAP1 SUB PUSH1 0x1F AND DUP3 ADD SWAP2 JUMPDEST POP POP POP POP POP DUP2 JUMP JUMPDEST PUSH1 0x1 DUP1 SLOAD PUSH2 0x425 SWAP1 PUSH2 0x17A2 JUMP JUMPDEST DUP1 PUSH1 0x1F ADD PUSH1 0x20 DUP1 SWAP2 DIV MUL PUSH1 0x20 ADD PUSH1 0x40 MLOAD SWAP1 DUP2 ADD PUSH1 0x40 MSTORE DUP1 SWAP3 SWAP2 SWAP1 DUP2 DUP2 MSTORE PUSH1 0x20 ADD DUP3 DUP1 SLOAD PUSH2 0x451 SWAP1 PUSH2 0x17A2 JUMP JUMPDEST DUP1 ISZERO PUSH2 0x49C JUMPI DUP1 PUSH1 0x1F LT PUSH2 0x473 JUMPI PUSH2 0x100 DUP1 DUP4 SLOAD DIV MUL DUP4 MSTORE SWAP2 PUSH1 0x20 ADD SWAP2 PUSH2 0x49C JUMP JUMPDEST DUP3 ADD SWAP2 SWAP1 PUSH0 MSTORE PUSH1 0x20 PUSH0 KECCAK256 SWAP1 JUMPDEST DUP2 SLOAD DUP2 MSTORE SWAP1 PUSH1 0x1 ADD SWAP1 PUSH1 0x20 ADD DUP1 DUP4 GT PUSH2 0x47F JUMPI DUP3 SWAP1 SUB PUSH1 0x1F AND DUP3 ADD SWAP2 JUMPDEST POP POP POP POP POP DUP2 JUMP JUMPDEST PUSH1 0x3 SLOAD DUP2 JUMP JUMPDEST PUSH1 0x2 DUP1 SLOAD PUSH2 0x4B7 SWAP1 PUSH2 0x17A2 JUMP JUMPDEST DUP1 PUSH1 0x1F ADD PUSH1 0x20 DUP1 SWAP2 DIV MUL PUSH1 0x20 ADD PUSH1 0x40 MLOAD SWAP1 DUP2 ADD PUSH1 0x40 MSTORE DUP1 SWAP3 SWAP2 SWAP1 DUP2 DUP2 MSTORE PUSH1 0x20 ADD DUP3 DUP1 SLOAD PUSH2 0x4E3 SWAP1 PUSH2 0x17A2 JUMP JUMPDEST DUP1 ISZERO PUSH2 0x52E JUMPI DUP1 PUSH1 0x1F LT PUSH2 0x505 JUMPI PUSH2 0x100 DUP1 DUP4 SLOAD DIV MUL DUP4 MSTORE SWAP2 PUSH1 0x20 ADD SWAP2 PUSH2 0x52E JUMP JUMPDEST DUP3 ADD SWAP2 SWAP1 PUSH0 MSTORE PUSH1 0x20 PUSH0 KECCAK256 SWAP1 JUMPDEST DUP2 SLOAD DUP2 MSTORE SWAP1 PUSH1 0x1 ADD SWAP1 PUSH1 0x20 ADD DUP1 DUP4 GT PUSH2 0x511 JUMPI DUP3 SWAP1 SUB PUSH1 0x1F AND DUP3 ADD SWAP2 JUMPDEST POP POP POP POP POP DUP2 JUMP JUMPDEST PUSH1 0x40 MLOAD DUP1 PUSH2 0x140 ADD PUSH1 0x40 MSTORE DUP1 PUSH2 0x103 DUP2 MSTORE PUSH1 0x20 ADD PUSH2 0x21F4 PUSH2 0x103 SWAP2 CODECOPY DUP2 JUMP JUMPDEST PUSH0 PUSH2 0x55E PUSH2 0x1277 JUMP JUMPDEST PUSH2 0x58C PUSH1 0x40 MLOAD DUP1 PUSH2 0x140 ADD PUSH1 0x40 MSTORE DUP1 PUSH2 0x103 DUP2 MSTORE PUSH1 0x20 ADD PUSH2 0x21F4 PUSH2 0x103 SWAP2 CODECOPY DUP3 PUSH2 0x736 SWAP1 SWAP2 SWAP1 PUSH4 0xFFFFFFFF AND JUMP JUMPDEST PUSH0 PUSH1 0x1 PUSH8 0xFFFFFFFFFFFFFFFF DUP2 GT ISZERO PUSH2 0x5A8 JUMPI PUSH2 0x5A7 PUSH2 0x13FA JUMP JUMPDEST JUMPDEST PUSH1 0x40 MLOAD SWAP1 DUP1 DUP3 MSTORE DUP1 PUSH1 0x20 MUL PUSH1 0x20 ADD DUP3 ADD PUSH1 0x40 MSTORE DUP1 ISZERO PUSH2 0x5DB JUMPI DUP2 PUSH1 0x20 ADD JUMPDEST PUSH1 0x60 DUP2 MSTORE PUSH1 0x20 ADD SWAP1 PUSH1 0x1 SWAP1 SUB SWAP1 DUP2 PUSH2 0x5C6 JUMPI SWAP1 POP JUMPDEST POP SWAP1 POP DUP5 DUP2 PUSH0 DUP2 MLOAD DUP2 LT PUSH2 0x5F2 JUMPI PUSH2 0x5F1 PUSH2 0x17D2 JUMP JUMPDEST JUMPDEST PUSH1 0x20 MUL PUSH1 0x20 ADD ADD DUP2 SWAP1 MSTORE POP PUSH2 0x610 DUP2 DUP4 PUSH2 0x746 SWAP1 SWAP2 SWAP1 PUSH4 0xFFFFFFFF AND JUMP JUMPDEST PUSH2 0x649 PUSH2 0x61C DUP4 PUSH2 0x78D JUMP JUMPDEST DUP6 PUSH3 0x493E0 PUSH32 0x66756E2D657468657265756D2D7365706F6C69612D3100000000000000000000 PUSH0 SHL PUSH2 0xB98 JUMP JUMPDEST PUSH1 0x3 DUP2 SWAP1 SSTORE POP DUP5 PUSH1 0x1 SWAP1 DUP2 PUSH2 0x65E SWAP2 SWAP1 PUSH2 0x19B9 JUMP JUMPDEST POP PUSH1 0x3 SLOAD SWAP3 POP POP POP SWAP3 SWAP2 POP POP JUMP JUMPDEST DUP3 PUSH1 0x3 SLOAD EQ PUSH2 0x6B2 JUMPI DUP3 PUSH1 0x40 MLOAD PUSH32 0xD068BF5B00000000000000000000000000000000000000000000000000000000 DUP2 MSTORE PUSH1 0x4 ADD PUSH2 0x6A9 SWAP2 SWAP1 PUSH2 0x1627 JUMP JUMPDEST PUSH1 0x40 MLOAD DUP1 SWAP2 SUB SWAP1 REVERT JUMPDEST DUP1 PUSH1 0x5 SWAP1 DUP2 PUSH2 0x6C1 SWAP2 SWAP1 PUSH2 0x1AED JUMP JUMPDEST POP DUP2 PUSH1 0x4 SWAP1 DUP2 PUSH2 0x6D1 SWAP2 SWAP1 PUSH2 0x1AED JUMP JUMPDEST POP DUP2 PUSH1 0x2 SWAP1 DUP2 PUSH2 0x6E1 SWAP2 SWAP1 PUSH2 0x19B9 JUMP JUMPDEST POP PUSH1 0x1 PUSH0 SWAP1 DUP2 PUSH2 0x6F1 SWAP2 SWAP1 PUSH2 0x1BE3 JUMP JUMPDEST POP DUP3 PUSH32 0x160ED0AAFFBEF6885155188B91459CB5A97D5DAADCCF7561D8C46DEEA6641B50 PUSH1 0x2 PUSH1 0x4 PUSH1 0x5 PUSH1 0x40 MLOAD PUSH2 0x729 SWAP4 SWAP3 SWAP2 SWAP1 PUSH2 0x1DCA JUMP JUMPDEST PUSH1 0x40 MLOAD DUP1 SWAP2 SUB SWAP1 LOG2 POP POP POP JUMP JUMPDEST PUSH2 0x742 DUP3 PUSH0 PUSH0 DUP5 PUSH2 0xC77 JUMP JUMPDEST POP POP JUMP JUMPDEST PUSH0 DUP2 MLOAD SUB PUSH2 0x780 JUMPI PUSH1 0x40 MLOAD PUSH32 0xFE936CB700000000000000000000000000000000000000000000000000000000 DUP2 MSTORE PUSH1 0x4 ADD PUSH1 0x40 MLOAD DUP1 SWAP2 SUB SWAP1 REVERT JUMPDEST DUP1 DUP3 PUSH1 0xA0 ADD DUP2 SWAP1 MSTORE POP POP POP JUMP JUMPDEST PUSH1 0x60 PUSH0 PUSH2 0x79B PUSH2 0x100 PUSH2 0xD1D JUMP JUMPDEST SWAP1 POP PUSH2 0x7E5 PUSH1 0x40 MLOAD DUP1 PUSH1 0x40 ADD PUSH1 0x40 MSTORE DUP1 PUSH1 0xC DUP2 MSTORE PUSH1 0x20 ADD PUSH32 0x636F64654C6F636174696F6E0000000000000000000000000000000000000000 DUP2 MSTORE POP DUP3 PUSH2 0xD42 SWAP1 SWAP2 SWAP1 PUSH4 0xFFFFFFFF AND JUMP JUMPDEST PUSH2 0x80D DUP4 PUSH0 ADD MLOAD PUSH1 0x2 DUP2 GT ISZERO PUSH2 0x7FE JUMPI PUSH2 0x7FD PUSH2 0x1E14 JUMP JUMPDEST JUMPDEST DUP3 PUSH2 0xD6A SWAP1 SWAP2 SWAP1 PUSH4 0xFFFFFFFF AND JUMP JUMPDEST PUSH2 0x855 PUSH1 0x40 MLOAD DUP1 PUSH1 0x40 ADD PUSH1 0x40 MSTORE DUP1 PUSH1 0x8 DUP2 MSTORE PUSH1 0x20 ADD PUSH32 0x6C616E6775616765000000000000000000000000000000000000000000000000 DUP2 MSTORE POP DUP3 PUSH2 0xD42 SWAP1 SWAP2 SWAP1 PUSH4 0xFFFFFFFF AND JUMP JUMPDEST PUSH2 0x87D DUP4 PUSH1 0x40 ADD MLOAD PUSH0 DUP2 GT ISZERO PUSH2 0x86E JUMPI PUSH2 0x86D PUSH2 0x1E14 JUMP JUMPDEST JUMPDEST DUP3 PUSH2 0xD6A SWAP1 SWAP2 SWAP1 PUSH4 0xFFFFFFFF AND JUMP JUMPDEST PUSH2 0x8C5 PUSH1 0x40 MLOAD DUP1 PUSH1 0x40 ADD PUSH1 0x40 MSTORE DUP1 PUSH1 0x6 DUP2 MSTORE PUSH1 0x20 ADD PUSH32 0x736F757263650000000000000000000000000000000000000000000000000000 DUP2 MSTORE POP DUP3 PUSH2 0xD42 SWAP1 SWAP2 SWAP1 PUSH4 0xFFFFFFFF AND JUMP JUMPDEST PUSH2 0x8DC DUP4 PUSH1 0x60 ADD MLOAD DUP3 PUSH2 0xD42 SWAP1 SWAP2 SWAP1 PUSH4 0xFFFFFFFF AND JUMP JUMPDEST PUSH0 DUP4 PUSH1 0xA0 ADD MLOAD MLOAD GT ISZERO PUSH2 0x993 JUMPI PUSH2 0x931 PUSH1 0x40 MLOAD DUP1 PUSH1 0x40 ADD PUSH1 0x40 MSTORE DUP1 PUSH1 0x4 DUP2 MSTORE PUSH1 0x20 ADD PUSH32 0x6172677300000000000000000000000000000000000000000000000000000000 DUP2 MSTORE POP DUP3 PUSH2 0xD42 SWAP1 SWAP2 SWAP1 PUSH4 0xFFFFFFFF AND JUMP JUMPDEST PUSH2 0x93A DUP2 PUSH2 0xDB9 JUMP JUMPDEST PUSH0 PUSH0 SWAP1 POP JUMPDEST DUP4 PUSH1 0xA0 ADD MLOAD MLOAD DUP2 LT ISZERO PUSH2 0x988 JUMPI PUSH2 0x97D DUP5 PUSH1 0xA0 ADD MLOAD DUP3 DUP2 MLOAD DUP2 LT PUSH2 0x966 JUMPI PUSH2 0x965 PUSH2 0x17D2 JUMP JUMPDEST JUMPDEST PUSH1 0x20 MUL PUSH1 0x20 ADD ADD MLOAD DUP4 PUSH2 0xD42 SWAP1 SWAP2 SWAP1 PUSH4 0xFFFFFFFF AND JUMP JUMPDEST DUP1 PUSH1 0x1 ADD SWAP1 POP PUSH2 0x93F JUMP JUMPDEST POP PUSH2 0x992 DUP2 PUSH2 0xDE1 JUMP JUMPDEST JUMPDEST PUSH0 DUP4 PUSH1 0x80 ADD MLOAD MLOAD GT ISZERO PUSH2 0xAD2 JUMPI PUSH0 PUSH1 0x2 DUP2 GT ISZERO PUSH2 0x9B3 JUMPI PUSH2 0x9B2 PUSH2 0x1E14 JUMP JUMPDEST JUMPDEST DUP4 PUSH1 0x20 ADD MLOAD PUSH1 0x2 DUP2 GT ISZERO PUSH2 0x9CA JUMPI PUSH2 0x9C9 PUSH2 0x1E14 JUMP JUMPDEST JUMPDEST SUB PUSH2 0xA01 JUMPI PUSH1 0x40 MLOAD PUSH32 0xA80D31F700000000000000000000000000000000000000000000000000000000 DUP2 MSTORE PUSH1 0x4 ADD PUSH1 0x40 MLOAD DUP1 SWAP2 SUB SWAP1 REVERT JUMPDEST PUSH2 0xA49 PUSH1 0x40 MLOAD DUP1 PUSH1 0x40 ADD PUSH1 0x40 MSTORE DUP1 PUSH1 0xF DUP2 MSTORE PUSH1 0x20 ADD PUSH32 0x736563726574734C6F636174696F6E0000000000000000000000000000000000 DUP2 MSTORE POP DUP3 PUSH2 0xD42 SWAP1 SWAP2 SWAP1 PUSH4 0xFFFFFFFF AND JUMP JUMPDEST PUSH2 0xA72 DUP4 PUSH1 0x20 ADD MLOAD PUSH1 0x2 DUP2 GT ISZERO PUSH2 0xA63 JUMPI PUSH2 0xA62 PUSH2 0x1E14 JUMP JUMPDEST JUMPDEST DUP3 PUSH2 0xD6A SWAP1 SWAP2 SWAP1 PUSH4 0xFFFFFFFF AND JUMP JUMPDEST PUSH2 0xABA PUSH1 0x40 MLOAD DUP1 PUSH1 0x40 ADD PUSH1 0x40 MSTORE DUP1 PUSH1 0x7 DUP2 MSTORE PUSH1 0x20 ADD PUSH32 0x7365637265747300000000000000000000000000000000000000000000000000 DUP2 MSTORE POP DUP3 PUSH2 0xD42 SWAP1 SWAP2 SWAP1 PUSH4 0xFFFFFFFF AND JUMP JUMPDEST PUSH2 0xAD1 DUP4 PUSH1 0x80 ADD MLOAD DUP3 PUSH2 0xE09 SWAP1 SWAP2 SWAP1 PUSH4 0xFFFFFFFF AND JUMP JUMPDEST JUMPDEST PUSH0 DUP4 PUSH1 0xC0 ADD MLOAD MLOAD GT ISZERO PUSH2 0xB89 JUMPI PUSH2 0xB27 PUSH1 0x40 MLOAD DUP1 PUSH1 0x40 ADD PUSH1 0x40 MSTORE DUP1 PUSH1 0x9 DUP2 MSTORE PUSH1 0x20 ADD PUSH32 0x6279746573417267730000000000000000000000000000000000000000000000 DUP2 MSTORE POP DUP3 PUSH2 0xD42 SWAP1 SWAP2 SWAP1 PUSH4 0xFFFFFFFF AND JUMP JUMPDEST PUSH2 0xB30 DUP2 PUSH2 0xDB9 JUMP JUMPDEST PUSH0 PUSH0 SWAP1 POP JUMPDEST DUP4 PUSH1 0xC0 ADD MLOAD MLOAD DUP2 LT ISZERO PUSH2 0xB7E JUMPI PUSH2 0xB73 DUP5 PUSH1 0xC0 ADD MLOAD DUP3 DUP2 MLOAD DUP2 LT PUSH2 0xB5C JUMPI PUSH2 0xB5B PUSH2 0x17D2 JUMP JUMPDEST JUMPDEST PUSH1 0x20 MUL PUSH1 0x20 ADD ADD MLOAD DUP4 PUSH2 0xE09 SWAP1 SWAP2 SWAP1 PUSH4 0xFFFFFFFF AND JUMP JUMPDEST DUP1 PUSH1 0x1 ADD SWAP1 POP PUSH2 0xB35 JUMP JUMPDEST POP PUSH2 0xB88 DUP2 PUSH2 0xDE1 JUMP JUMPDEST JUMPDEST DUP1 PUSH0 ADD MLOAD PUSH0 ADD MLOAD SWAP2 POP POP SWAP2 SWAP1 POP JUMP JUMPDEST PUSH0 PUSH0 PUSH32 0x0 PUSH20 0xFFFFFFFFFFFFFFFFFFFFFFFFFFFFFFFFFFFFFFFF AND PUSH4 0x461D2762 DUP7 DUP9 PUSH1 0x1 DUP9 DUP9 PUSH1 0x40 MLOAD DUP7 PUSH4 0xFFFFFFFF AND PUSH1 0xE0 SHL DUP2 MSTORE PUSH1 0x4 ADD PUSH2 0xBFC SWAP6 SWAP5 SWAP4 SWAP3 SWAP2 SWAP1 PUSH2 0x1E8A JUMP JUMPDEST PUSH1 0x20 PUSH1 0x40 MLOAD DUP1 DUP4 SUB DUP2 PUSH0 DUP8 GAS CALL ISZERO DUP1 ISZERO PUSH2 0xC18 JUMPI RETURNDATASIZE PUSH0 PUSH0 RETURNDATACOPY RETURNDATASIZE PUSH0 REVERT JUMPDEST POP POP POP POP PUSH1 0x40 MLOAD RETURNDATASIZE PUSH1 0x1F NOT PUSH1 0x1F DUP3 ADD AND DUP3 ADD DUP1 PUSH1 0x40 MSTORE POP DUP2 ADD SWAP1 PUSH2 0xC3C SWAP2 SWAP1 PUSH2 0x1EF6 JUMP JUMPDEST SWAP1 POP DUP1 PUSH32 0x1131472297A800FEE664D1D89CFA8F7676FF07189ECC53F80BBB5F4969099DB8 PUSH1 0x40 MLOAD PUSH1 0x40 MLOAD DUP1 SWAP2 SUB SWAP1 LOG2 DUP1 SWAP2 POP POP SWAP5 SWAP4 POP POP POP POP JUMP JUMPDEST PUSH0 DUP2 MLOAD SUB PUSH2 0xCB1 JUMPI PUSH1 0x40 MLOAD PUSH32 0x22CE3EDD00000000000000000000000000000000000000000000000000000000 DUP2 MSTORE PUSH1 0x4 ADD PUSH1 0x40 MLOAD DUP1 SWAP2 SUB SWAP1 REVERT JUMPDEST DUP3 DUP5 PUSH0 ADD SWAP1 PUSH1 0x2 DUP2 GT ISZERO PUSH2 0xCC8 JUMPI PUSH2 0xCC7 PUSH2 0x1E14 JUMP JUMPDEST JUMPDEST SWAP1 DUP2 PUSH1 0x2 DUP2 GT ISZERO PUSH2 0xCDC JUMPI PUSH2 0xCDB PUSH2 0x1E14 JUMP JUMPDEST JUMPDEST DUP2 MSTORE POP POP DUP2 DUP5 PUSH1 0x40 ADD SWAP1 PUSH0 DUP2 GT ISZERO PUSH2 0xCF7 JUMPI PUSH2 0xCF6 PUSH2 0x1E14 JUMP JUMPDEST JUMPDEST SWAP1 DUP2 PUSH0 DUP2 GT ISZERO PUSH2 0xD0A JUMPI PUSH2 0xD09 PUSH2 0x1E14 JUMP JUMPDEST JUMPDEST DUP2 MSTORE POP POP DUP1 DUP5 PUSH1 0x60 ADD DUP2 SWAP1 MSTORE POP POP POP POP POP JUMP JUMPDEST PUSH2 0xD25 PUSH2 0x12E6 JUMP JUMPDEST PUSH2 0xD32 DUP2 PUSH0 ADD MLOAD DUP4 PUSH2 0xE31 JUMP JUMPDEST POP PUSH0 DUP2 PUSH1 0x20 ADD DUP2 DUP2 MSTORE POP POP SWAP2 SWAP1 POP JUMP JUMPDEST PUSH2 0xD4F DUP3 PUSH1 0x3 DUP4 MLOAD PUSH2 0xEA7 JUMP JUMPDEST PUSH2 0xD65 DUP2 DUP4 PUSH0 ADD MLOAD PUSH2 0x1047 SWAP1 SWAP2 SWAP1 PUSH4 0xFFFFFFFF AND JUMP JUMPDEST POP POP POP JUMP JUMPDEST PUSH2 0xD8B PUSH1 0x2 PUSH1 0x5 PUSH1 0x6 PUSH1 0xFF AND SWAP1 SHL OR DUP4 PUSH0 ADD MLOAD PUSH2 0x1063 SWAP1 SWAP2 SWAP1 PUSH4 0xFFFFFFFF AND JUMP JUMPDEST POP PUSH2 0xDB5 DUP3 DUP3 PUSH1 0x40 MLOAD PUSH1 0x20 ADD PUSH2 0xDA1 SWAP2 SWAP1 PUSH2 0x1F30 JUMP JUMPDEST PUSH1 0x40 MLOAD PUSH1 0x20 DUP2 DUP4 SUB SUB DUP2 MSTORE SWAP1 PUSH1 0x40 MSTORE PUSH2 0xE09 JUMP JUMPDEST POP POP JUMP JUMPDEST PUSH2 0xDC4 DUP2 PUSH1 0x4 PUSH2 0x10CA JUMP JUMPDEST PUSH1 0x1 DUP2 PUSH1 0x20 ADD DUP2 DUP2 MLOAD PUSH2 0xDD7 SWAP2 SWAP1 PUSH2 0x1F76 JUMP JUMPDEST SWAP2 POP DUP2 DUP2 MSTORE POP POP POP JUMP JUMPDEST PUSH2 0xDEC DUP2 PUSH1 0x7 PUSH2 0x10CA JUMP JUMPDEST PUSH1 0x1 DUP2 PUSH1 0x20 ADD DUP2 DUP2 MLOAD PUSH2 0xDFF SWAP2 SWAP1 PUSH2 0x1FA9 JUMP JUMPDEST SWAP2 POP DUP2 DUP2 MSTORE POP POP POP JUMP JUMPDEST PUSH2 0xE16 DUP3 PUSH1 0x2 DUP4 MLOAD PUSH2 0xEA7 JUMP JUMPDEST PUSH2 0xE2C DUP2 DUP4 PUSH0 ADD MLOAD PUSH2 0x1047 SWAP1 SWAP2 SWAP1 PUSH4 0xFFFFFFFF AND JUMP JUMPDEST POP POP POP JUMP JUMPDEST PUSH2 0xE39 PUSH2 0x1305 JUMP JUMPDEST PUSH0 PUSH1 0x20 DUP4 PUSH2 0xE47 SWAP2 SWAP1 PUSH2 0x2009 JUMP JUMPDEST EQ PUSH2 0xE73 JUMPI PUSH1 0x20 DUP3 PUSH2 0xE59 SWAP2 SWAP1 PUSH2 0x2009 JUMP JUMPDEST PUSH1 0x20 PUSH2 0xE65 SWAP2 SWAP1 PUSH2 0x1FA9 JUMP JUMPDEST DUP3 PUSH2 0xE70 SWAP2 SWAP1 PUSH2 0x1F76 JUMP JUMPDEST SWAP2 POP JUMPDEST DUP2 DUP4 PUSH1 0x20 ADD DUP2 DUP2 MSTORE POP POP PUSH1 0x40 MLOAD DUP1 DUP5 MSTORE PUSH0 DUP2 MSTORE DUP3 DUP2 ADD PUSH1 0x20 ADD DUP2 DUP2 LT ISZERO PUSH2 0xE98 JUMPI PUSH0 PUSH0 REVERT JUMPDEST DUP1 PUSH1 0x40 MSTORE POP POP DUP3 SWAP1 POP SWAP3 SWAP2 POP POP JUMP JUMPDEST PUSH1 0x17 DUP2 PUSH8 0xFFFFFFFFFFFFFFFF AND GT PUSH2 0xEE1 JUMPI PUSH2 0xEDB DUP2 PUSH1 0x5 DUP5 PUSH1 0xFF AND SWAP1 SHL PUSH1 0xFF AND OR DUP5 PUSH0 ADD MLOAD PUSH2 0x1063 SWAP1 SWAP2 SWAP1 PUSH4 0xFFFFFFFF AND JUMP JUMPDEST POP PUSH2 0x1042 JUMP JUMPDEST PUSH1 0xFF DUP2 PUSH8 0xFFFFFFFFFFFFFFFF AND GT PUSH2 0xF3D JUMPI PUSH2 0xF13 PUSH1 0x18 PUSH1 0x5 DUP5 PUSH1 0xFF AND SWAP1 SHL OR DUP5 PUSH0 ADD MLOAD PUSH2 0x1063 SWAP1 SWAP2 SWAP1 PUSH4 0xFFFFFFFF AND JUMP JUMPDEST POP PUSH2 0xF37 DUP2 PUSH8 0xFFFFFFFFFFFFFFFF AND PUSH1 0x1 DUP6 PUSH0 ADD MLOAD PUSH2 0x10EF SWAP1 SWAP3 SWAP2 SWAP1 PUSH4 0xFFFFFFFF AND JUMP JUMPDEST POP PUSH2 0x1041 JUMP JUMPDEST PUSH2 0xFFFF DUP2 PUSH8 0xFFFFFFFFFFFFFFFF AND GT PUSH2 0xF9A JUMPI PUSH2 0xF70 PUSH1 0x19 PUSH1 0x5 DUP5 PUSH1 0xFF AND SWAP1 SHL OR DUP5 PUSH0 ADD MLOAD PUSH2 0x1063 SWAP1 SWAP2 SWAP1 PUSH4 0xFFFFFFFF AND JUMP JUMPDEST POP PUSH2 0xF94 DUP2 PUSH8 0xFFFFFFFFFFFFFFFF AND PUSH1 0x2 DUP6 PUSH0 ADD MLOAD PUSH2 0x10EF SWAP1 SWAP3 SWAP2 SWAP1 PUSH4 0xFFFFFFFF AND JUMP JUMPDEST POP PUSH2 0x1040 JUMP JUMPDEST PUSH4 0xFFFFFFFF DUP2 PUSH8 0xFFFFFFFFFFFFFFFF AND GT PUSH2 0xFF9 JUMPI PUSH2 0xFCF PUSH1 0x1A PUSH1 0x5 DUP5 PUSH1 0xFF AND SWAP1 SHL OR DUP5 PUSH0 ADD MLOAD PUSH2 0x1063 SWAP1 SWAP2 SWAP1 PUSH4 0xFFFFFFFF AND JUMP JUMPDEST POP PUSH2 0xFF3 DUP2 PUSH8 0xFFFFFFFFFFFFFFFF AND PUSH1 0x4 DUP6 PUSH0 ADD MLOAD PUSH2 0x10EF SWAP1 SWAP3 SWAP2 SWAP1 PUSH4 0xFFFFFFFF AND JUMP JUMPDEST POP PUSH2 0x103F JUMP JUMPDEST PUSH2 0x1019 PUSH1 0x1B PUSH1 0x5 DUP5 PUSH1 0xFF AND SWAP1 SHL OR DUP5 PUSH0 ADD MLOAD PUSH2 0x1063 SWAP1 SWAP2 SWAP1 PUSH4 0xFFFFFFFF AND JUMP JUMPDEST POP PUSH2 0x103D DUP2 PUSH8 0xFFFFFFFFFFFFFFFF AND PUSH1 0x8 DUP6 PUSH0 ADD MLOAD PUSH2 0x10EF SWAP1 SWAP3 SWAP2 SWAP1 PUSH4 0xFFFFFFFF AND JUMP JUMPDEST POP JUMPDEST JUMPDEST JUMPDEST JUMPDEST POP POP POP JUMP JUMPDEST PUSH2 0x104F PUSH2 0x1305 JUMP JUMPDEST PUSH2 0x105B DUP4 DUP4 DUP5 MLOAD PUSH2 0x1178 JUMP JUMPDEST SWAP1 POP SWAP3 SWAP2 POP POP JUMP JUMPDEST PUSH2 0x106B PUSH2 0x1305 JUMP JUMPDEST PUSH0 DUP4 PUSH0 ADD MLOAD MLOAD SWAP1 POP PUSH0 PUSH1 0x1 DUP3 PUSH2 0x1081 SWAP2 SWAP1 PUSH2 0x1F76 JUMP JUMPDEST SWAP1 POP DUP5 PUSH1 0x20 ADD MLOAD DUP3 LT PUSH2 0x10A5 JUMPI PUSH2 0x10A4 DUP6 PUSH1 0x2 DUP4 PUSH2 0x109F SWAP2 SWAP1 PUSH2 0x2039 JUMP JUMPDEST PUSH2 0x1255 JUMP JUMPDEST JUMPDEST DUP5 MLOAD PUSH1 0x20 DUP4 DUP3 ADD ADD DUP6 DUP2 MSTORE8 DUP2 MLOAD DUP4 GT ISZERO PUSH2 0x10BD JUMPI DUP3 DUP3 MSTORE JUMPDEST POP POP DUP5 SWAP3 POP POP POP SWAP3 SWAP2 POP POP JUMP JUMPDEST PUSH2 0x10EA PUSH1 0x1F PUSH1 0x5 DUP4 PUSH1 0xFF AND SWAP1 SHL OR DUP4 PUSH0 ADD MLOAD PUSH2 0x1063 SWAP1 SWAP2 SWAP1 PUSH4 0xFFFFFFFF AND JUMP JUMPDEST POP POP POP JUMP JUMPDEST PUSH2 0x10F7 PUSH2 0x1305 JUMP JUMPDEST PUSH0 DUP5 PUSH0 ADD MLOAD MLOAD SWAP1 POP PUSH0 DUP2 DUP5 PUSH2 0x110C SWAP2 SWAP1 PUSH2 0x1F76 JUMP JUMPDEST SWAP1 POP DUP6 PUSH1 0x20 ADD MLOAD DUP2 GT ISZERO PUSH2 0x1131 JUMPI PUSH2 0x1130 DUP7 PUSH1 0x2 DUP4 PUSH2 0x112B SWAP2 SWAP1 PUSH2 0x2039 JUMP JUMPDEST PUSH2 0x1255 JUMP JUMPDEST JUMPDEST PUSH0 PUSH1 0x1 DUP6 PUSH2 0x100 PUSH2 0x1142 SWAP2 SWAP1 PUSH2 0x21A9 JUMP JUMPDEST PUSH2 0x114C SWAP2 SWAP1 PUSH2 0x1FA9 JUMP JUMPDEST SWAP1 POP DUP7 MLOAD DUP3 DUP2 ADD DUP8 DUP4 NOT DUP3 MLOAD AND OR DUP2 MSTORE DUP2 MLOAD DUP5 GT ISZERO PUSH2 0x1169 JUMPI DUP4 DUP3 MSTORE JUMPDEST POP POP DUP7 SWAP4 POP POP POP POP SWAP4 SWAP3 POP POP POP JUMP JUMPDEST PUSH2 0x1180 PUSH2 0x1305 JUMP JUMPDEST DUP3 MLOAD DUP3 GT ISZERO PUSH2 0x118D JUMPI PUSH0 PUSH0 REVERT JUMPDEST PUSH0 DUP5 PUSH0 ADD MLOAD MLOAD SWAP1 POP PUSH0 DUP4 DUP3 PUSH2 0x11A2 SWAP2 SWAP1 PUSH2 0x1F76 JUMP JUMPDEST SWAP1 POP DUP6 PUSH1 0x20 ADD MLOAD DUP2 GT ISZERO PUSH2 0x11C7 JUMPI PUSH2 0x11C6 DUP7 PUSH1 0x2 DUP4 PUSH2 0x11C1 SWAP2 SWAP1 PUSH2 0x2039 JUMP JUMPDEST PUSH2 0x1255 JUMP JUMPDEST JUMPDEST PUSH0 PUSH0 DUP8 MLOAD DUP1 MLOAD DUP6 PUSH1 0x20 DUP4 ADD ADD SWAP4 POP DUP1 DUP6 GT ISZERO PUSH2 0x11E1 JUMPI DUP5 DUP3 MSTORE JUMPDEST PUSH1 0x20 DUP10 ADD SWAP3 POP POP POP JUMPDEST PUSH1 0x20 DUP7 LT PUSH2 0x1228 JUMPI DUP1 MLOAD DUP3 MSTORE PUSH1 0x20 DUP3 PUSH2 0x1203 SWAP2 SWAP1 PUSH2 0x1F76 JUMP JUMPDEST SWAP2 POP PUSH1 0x20 DUP2 PUSH2 0x1212 SWAP2 SWAP1 PUSH2 0x1F76 JUMP JUMPDEST SWAP1 POP PUSH1 0x20 DUP7 PUSH2 0x1221 SWAP2 SWAP1 PUSH2 0x1FA9 JUMP JUMPDEST SWAP6 POP PUSH2 0x11EA JUMP JUMPDEST PUSH0 PUSH1 0x1 DUP8 PUSH1 0x20 SUB PUSH2 0x100 EXP SUB SWAP1 POP DUP1 NOT DUP3 MLOAD AND DUP2 DUP5 MLOAD AND DUP2 DUP2 OR DUP6 MSTORE POP POP POP DUP8 SWAP5 POP POP POP POP POP SWAP4 SWAP3 POP POP POP JUMP JUMPDEST PUSH0 DUP3 PUSH0 ADD MLOAD SWAP1 POP PUSH2 0x1266 DUP4 DUP4 PUSH2 0xE31 JUMP JUMPDEST POP PUSH2 0x1271 DUP4 DUP3 PUSH2 0x1047 JUMP JUMPDEST POP POP POP POP JUMP JUMPDEST PUSH1 0x40 MLOAD DUP1 PUSH1 0xE0 ADD PUSH1 0x40 MSTORE DUP1 PUSH0 PUSH1 0x2 DUP2 GT ISZERO PUSH2 0x1295 JUMPI PUSH2 0x1294 PUSH2 0x1E14 JUMP JUMPDEST JUMPDEST DUP2 MSTORE PUSH1 0x20 ADD PUSH0 PUSH1 0x2 DUP2 GT ISZERO PUSH2 0x12AD JUMPI PUSH2 0x12AC PUSH2 0x1E14 JUMP JUMPDEST JUMPDEST DUP2 MSTORE PUSH1 0x20 ADD PUSH0 PUSH0 DUP2 GT ISZERO PUSH2 0x12C4 JUMPI PUSH2 0x12C3 PUSH2 0x1E14 JUMP JUMPDEST JUMPDEST DUP2 MSTORE PUSH1 0x20 ADD PUSH1 0x60 DUP2 MSTORE PUSH1 0x20 ADD PUSH1 0x60 DUP2 MSTORE PUSH1 0x20 ADD PUSH1 0x60 DUP2 MSTORE PUSH1 0x20 ADD PUSH1 0x60 DUP2 MSTORE POP SWAP1 JUMP JUMPDEST PUSH1 0x40 MLOAD DUP1 PUSH1 0x40 ADD PUSH1 0x40 MSTORE DUP1 PUSH2 0x12F9 PUSH2 0x1305 JUMP JUMPDEST DUP2 MSTORE PUSH1 0x20 ADD PUSH0 DUP2 MSTORE POP SWAP1 JUMP JUMPDEST PUSH1 0x40 MLOAD DUP1 PUSH1 0x40 ADD PUSH1 0x40 MSTORE DUP1 PUSH1 0x60 DUP2 MSTORE PUSH1 0x20 ADD PUSH0 DUP2 MSTORE POP SWAP1 JUMP JUMPDEST PUSH0 DUP2 MLOAD SWAP1 POP SWAP2 SWAP1 POP JUMP JUMPDEST PUSH0 DUP3 DUP3 MSTORE PUSH1 0x20 DUP3 ADD SWAP1 POP SWAP3 SWAP2 POP POP JUMP JUMPDEST DUP3 DUP2 DUP4 MCOPY PUSH0 DUP4 DUP4 ADD MSTORE POP POP POP JUMP JUMPDEST PUSH0 PUSH1 0x1F NOT PUSH1 0x1F DUP4 ADD AND SWAP1 POP SWAP2 SWAP1 POP JUMP JUMPDEST PUSH0 PUSH2 0x1360 DUP3 PUSH2 0x131E JUMP JUMPDEST PUSH2 0x136A DUP2 DUP6 PUSH2 0x1328 JUMP JUMPDEST SWAP4 POP PUSH2 0x137A DUP2 DUP6 PUSH1 0x20 DUP7 ADD PUSH2 0x1338 JUMP JUMPDEST PUSH2 0x1383 DUP2 PUSH2 0x1346 JUMP JUMPDEST DUP5 ADD SWAP2 POP POP SWAP3 SWAP2 POP POP JUMP JUMPDEST PUSH0 PUSH1 0x20 DUP3 ADD SWAP1 POP DUP2 DUP2 SUB PUSH0 DUP4 ADD MSTORE PUSH2 0x13A6 DUP2 DUP5 PUSH2 0x1356 JUMP JUMPDEST SWAP1 POP SWAP3 SWAP2 POP POP JUMP JUMPDEST PUSH0 PUSH1 0x40 MLOAD SWAP1 POP SWAP1 JUMP JUMPDEST PUSH0 PUSH0 REVERT JUMPDEST PUSH0 PUSH0 REVERT JUMPDEST PUSH0 DUP2 SWAP1 POP SWAP2 SWAP1 POP JUMP JUMPDEST PUSH2 0x13D1 DUP2 PUSH2 0x13BF JUMP JUMPDEST DUP2 EQ PUSH2 0x13DB JUMPI PUSH0 PUSH0 REVERT JUMPDEST POP JUMP JUMPDEST PUSH0 DUP2 CALLDATALOAD SWAP1 POP PUSH2 0x13EC DUP2 PUSH2 0x13C8 JUMP JUMPDEST SWAP3 SWAP2 POP POP JUMP JUMPDEST PUSH0 PUSH0 REVERT JUMPDEST PUSH0 PUSH0 REVERT JUMPDEST PUSH32 0x4E487B7100000000000000000000000000000000000000000000000000000000 PUSH0 MSTORE PUSH1 0x41 PUSH1 0x4 MSTORE PUSH1 0x24 PUSH0 REVERT JUMPDEST PUSH2 0x1430 DUP3 PUSH2 0x1346 JUMP JUMPDEST DUP2 ADD DUP2 DUP2 LT PUSH8 0xFFFFFFFFFFFFFFFF DUP3 GT OR ISZERO PUSH2 0x144F JUMPI PUSH2 0x144E PUSH2 0x13FA JUMP JUMPDEST JUMPDEST DUP1 PUSH1 0x40 MSTORE POP POP POP JUMP JUMPDEST PUSH0 PUSH2 0x1461 PUSH2 0x13AE JUMP JUMPDEST SWAP1 POP PUSH2 0x146D DUP3 DUP3 PUSH2 0x1427 JUMP JUMPDEST SWAP2 SWAP1 POP JUMP JUMPDEST PUSH0 PUSH8 0xFFFFFFFFFFFFFFFF DUP3 GT ISZERO PUSH2 0x148C JUMPI PUSH2 0x148B PUSH2 0x13FA JUMP JUMPDEST JUMPDEST PUSH2 0x1495 DUP3 PUSH2 0x1346 JUMP JUMPDEST SWAP1 POP PUSH1 0x20 DUP2 ADD SWAP1 POP SWAP2 SWAP1 POP JUMP JUMPDEST DUP3 DUP2 DUP4 CALLDATACOPY PUSH0 DUP4 DUP4 ADD MSTORE POP POP POP JUMP JUMPDEST PUSH0 PUSH2 0x14C2 PUSH2 0x14BD DUP5 PUSH2 0x1472 JUMP JUMPDEST PUSH2 0x1458 JUMP JUMPDEST SWAP1 POP DUP3 DUP2 MSTORE PUSH1 0x20 DUP2 ADD DUP5 DUP5 DUP5 ADD GT ISZERO PUSH2 0x14DE JUMPI PUSH2 0x14DD PUSH2 0x13F6 JUMP JUMPDEST JUMPDEST PUSH2 0x14E9 DUP5 DUP3 DUP6 PUSH2 0x14A2 JUMP JUMPDEST POP SWAP4 SWAP3 POP POP POP JUMP JUMPDEST PUSH0 DUP3 PUSH1 0x1F DUP4 ADD SLT PUSH2 0x1505 JUMPI PUSH2 0x1504 PUSH2 0x13F2 JUMP JUMPDEST JUMPDEST DUP2 CALLDATALOAD PUSH2 0x1515 DUP5 DUP3 PUSH1 0x20 DUP7 ADD PUSH2 0x14B0 JUMP JUMPDEST SWAP2 POP POP SWAP3 SWAP2 POP POP JUMP JUMPDEST PUSH0 PUSH0 PUSH0 PUSH1 0x60 DUP5 DUP7 SUB SLT ISZERO PUSH2 0x1535 JUMPI PUSH2 0x1534 PUSH2 0x13B7 JUMP JUMPDEST JUMPDEST PUSH0 PUSH2 0x1542 DUP7 DUP3 DUP8 ADD PUSH2 0x13DE JUMP JUMPDEST SWAP4 POP POP PUSH1 0x20 DUP5 ADD CALLDATALOAD PUSH8 0xFFFFFFFFFFFFFFFF DUP2 GT ISZERO PUSH2 0x1563 JUMPI PUSH2 0x1562 PUSH2 0x13BB JUMP JUMPDEST JUMPDEST PUSH2 0x156F DUP7 DUP3 DUP8 ADD PUSH2 0x14F1 JUMP JUMPDEST SWAP3 POP POP PUSH1 0x40 DUP5 ADD CALLDATALOAD PUSH8 0xFFFFFFFFFFFFFFFF DUP2 GT ISZERO PUSH2 0x1590 JUMPI PUSH2 0x158F PUSH2 0x13BB JUMP JUMPDEST JUMPDEST PUSH2 0x159C DUP7 DUP3 DUP8 ADD PUSH2 0x14F1 JUMP JUMPDEST SWAP2 POP POP SWAP3 POP SWAP3 POP SWAP3 JUMP JUMPDEST PUSH0 DUP2 MLOAD SWAP1 POP SWAP2 SWAP1 POP JUMP JUMPDEST PUSH0 DUP3 DUP3 MSTORE PUSH1 0x20 DUP3 ADD SWAP1 POP SWAP3 SWAP2 POP POP JUMP JUMPDEST PUSH0 PUSH2 0x15CA DUP3 PUSH2 0x15A6 JUMP JUMPDEST PUSH2 0x15D4 DUP2 DUP6 PUSH2 0x15B0 JUMP JUMPDEST SWAP4 POP PUSH2 0x15E4 DUP2 DUP6 PUSH1 0x20 DUP7 ADD PUSH2 0x1338 JUMP JUMPDEST PUSH2 0x15ED DUP2 PUSH2 0x1346 JUMP JUMPDEST DUP5 ADD SWAP2 POP POP SWAP3 SWAP2 POP POP JUMP JUMPDEST PUSH0 PUSH1 0x20 DUP3 ADD SWAP1 POP DUP2 DUP2 SUB PUSH0 DUP4 ADD MSTORE PUSH2 0x1610 DUP2 DUP5 PUSH2 0x15C0 JUMP JUMPDEST SWAP1 POP SWAP3 SWAP2 POP POP JUMP JUMPDEST PUSH2 0x1621 DUP2 PUSH2 0x13BF JUMP JUMPDEST DUP3 MSTORE POP POP JUMP JUMPDEST PUSH0 PUSH1 0x20 DUP3 ADD SWAP1 POP PUSH2 0x163A PUSH0 DUP4 ADD DUP5 PUSH2 0x1618 JUMP JUMPDEST SWAP3 SWAP2 POP POP JUMP JUMPDEST PUSH0 PUSH8 0xFFFFFFFFFFFFFFFF DUP3 GT ISZERO PUSH2 0x165A JUMPI PUSH2 0x1659 PUSH2 0x13FA JUMP JUMPDEST JUMPDEST PUSH2 0x1663 DUP3 PUSH2 0x1346 JUMP JUMPDEST SWAP1 POP PUSH1 0x20 DUP2 ADD SWAP1 POP SWAP2 SWAP1 POP JUMP JUMPDEST PUSH0 PUSH2 0x1682 PUSH2 0x167D DUP5 PUSH2 0x1640 JUMP JUMPDEST PUSH2 0x1458 JUMP JUMPDEST SWAP1 POP DUP3 DUP2 MSTORE PUSH1 0x20 DUP2 ADD DUP5 DUP5 DUP5 ADD GT ISZERO PUSH2 0x169E JUMPI PUSH2 0x169D PUSH2 0x13F6 JUMP JUMPDEST JUMPDEST PUSH2 0x16A9 DUP5 DUP3 DUP6 PUSH2 0x14A2 JUMP JUMPDEST POP SWAP4 SWAP3 POP POP POP JUMP JUMPDEST PUSH0 DUP3 PUSH1 0x1F DUP4 ADD SLT PUSH2 0x16C5 JUMPI PUSH2 0x16C4 PUSH2 0x13F2 JUMP JUMPDEST JUMPDEST DUP2 CALLDATALOAD PUSH2 0x16D5 DUP5 DUP3 PUSH1 0x20 DUP7 ADD PUSH2 0x1670 JUMP JUMPDEST SWAP2 POP POP SWAP3 SWAP2 POP POP JUMP JUMPDEST PUSH0 PUSH8 0xFFFFFFFFFFFFFFFF DUP3 AND SWAP1 POP SWAP2 SWAP1 POP JUMP JUMPDEST PUSH2 0x16FA DUP2 PUSH2 0x16DE JUMP JUMPDEST DUP2 EQ PUSH2 0x1704 JUMPI PUSH0 PUSH0 REVERT JUMPDEST POP JUMP JUMPDEST PUSH0 DUP2 CALLDATALOAD SWAP1 POP PUSH2 0x1715 DUP2 PUSH2 0x16F1 JUMP JUMPDEST SWAP3 SWAP2 POP POP JUMP JUMPDEST PUSH0 PUSH0 PUSH1 0x40 DUP4 DUP6 SUB SLT ISZERO PUSH2 0x1731 JUMPI PUSH2 0x1730 PUSH2 0x13B7 JUMP JUMPDEST JUMPDEST PUSH0 DUP4 ADD CALLDATALOAD PUSH8 0xFFFFFFFFFFFFFFFF DUP2 GT ISZERO PUSH2 0x174E JUMPI PUSH2 0x174D PUSH2 0x13BB JUMP JUMPDEST JUMPDEST PUSH2 0x175A DUP6 DUP3 DUP7 ADD PUSH2 0x16B1 JUMP JUMPDEST SWAP3 POP POP PUSH1 0x20 PUSH2 0x176B DUP6 DUP3 DUP7 ADD PUSH2 0x1707 JUMP JUMPDEST SWAP2 POP POP SWAP3 POP SWAP3 SWAP1 POP JUMP JUMPDEST PUSH32 0x4E487B7100000000000000000000000000000000000000000000000000000000 PUSH0 MSTORE PUSH1 0x22 PUSH1 0x4 MSTORE PUSH1 0x24 PUSH0 REVERT JUMPDEST PUSH0 PUSH1 0x2 DUP3 DIV SWAP1 POP PUSH1 0x1 DUP3 AND DUP1 PUSH2 0x17B9 JUMPI PUSH1 0x7F DUP3 AND SWAP2 POP JUMPDEST PUSH1 0x20 DUP3 LT DUP2 SUB PUSH2 0x17CC JUMPI PUSH2 0x17CB PUSH2 0x1775 JUMP JUMPDEST JUMPDEST POP SWAP2 SWAP1 POP JUMP JUMPDEST PUSH32 0x4E487B7100000000000000000000000000000000000000000000000000000000 PUSH0 MSTORE PUSH1 0x32 PUSH1 0x4 MSTORE PUSH1 0x24 PUSH0 REVERT JUMPDEST PUSH0 DUP2 SWAP1 POP DUP2 PUSH0 MSTORE PUSH1 0x20 PUSH0 KECCAK256 SWAP1 POP SWAP2 SWAP1 POP JUMP JUMPDEST PUSH0 PUSH1 0x20 PUSH1 0x1F DUP4 ADD DIV SWAP1 POP SWAP2 SWAP1 POP JUMP JUMPDEST PUSH0 DUP3 DUP3 SHL SWAP1 POP SWAP3 SWAP2 POP POP JUMP JUMPDEST PUSH0 PUSH1 0x8 DUP4 MUL PUSH2 0x185B PUSH32 0xFFFFFFFFFFFFFFFFFFFFFFFFFFFFFFFFFFFFFFFFFFFFFFFFFFFFFFFFFFFFFFFF DUP3 PUSH2 0x1820 JUMP JUMPDEST PUSH2 0x1865 DUP7 DUP4 PUSH2 0x1820 JUMP JUMPDEST SWAP6 POP DUP1 NOT DUP5 AND SWAP4 POP DUP1 DUP7 AND DUP5 OR SWAP3 POP POP POP SWAP4 SWAP3 POP POP POP JUMP JUMPDEST PUSH0 DUP2 SWAP1 POP SWAP2 SWAP1 POP JUMP JUMPDEST PUSH0 DUP2 SWAP1 POP SWAP2 SWAP1 POP JUMP JUMPDEST PUSH0 PUSH2 0x18A9 PUSH2 0x18A4 PUSH2 0x189F DUP5 PUSH2 0x187D JUMP JUMPDEST PUSH2 0x1886 JUMP JUMPDEST PUSH2 0x187D JUMP JUMPDEST SWAP1 POP SWAP2 SWAP1 POP JUMP JUMPDEST PUSH0 DUP2 SWAP1 POP SWAP2 SWAP1 POP JUMP JUMPDEST PUSH2 0x18C2 DUP4 PUSH2 0x188F JUMP JUMPDEST PUSH2 0x18D6 PUSH2 0x18CE DUP3 PUSH2 0x18B0 JUMP JUMPDEST DUP5 DUP5 SLOAD PUSH2 0x182C JUMP JUMPDEST DUP3 SSTORE POP POP POP POP JUMP JUMPDEST PUSH0 PUSH0 SWAP1 POP SWAP1 JUMP JUMPDEST PUSH2 0x18ED PUSH2 0x18DE JUMP JUMPDEST PUSH2 0x18F8 DUP2 DUP5 DUP5 PUSH2 0x18B9 JUMP JUMPDEST POP POP POP JUMP JUMPDEST PUSH0 JUMPDEST DUP3 DUP2 LT ISZERO PUSH2 0x191E JUMPI PUSH2 0x1913 PUSH0 DUP3 DUP5 ADD PUSH2 0x18E5 JUMP JUMPDEST PUSH1 0x1 DUP2 ADD SWAP1 POP PUSH2 0x18FF JUMP JUMPDEST POP POP POP JUMP JUMPDEST PUSH1 0x1F DUP3 GT ISZERO PUSH2 0x1971 JUMPI DUP3 DUP3 GT ISZERO PUSH2 0x1970 JUMPI PUSH2 0x193D DUP2 PUSH2 0x17FF JUMP JUMPDEST PUSH2 0x1946 DUP4 PUSH2 0x1811 JUMP JUMPDEST PUSH2 0x194F DUP6 PUSH2 0x1811 JUMP JUMPDEST PUSH1 0x20 DUP7 LT ISZERO PUSH2 0x195C JUMPI PUSH0 SWAP1 POP JUMPDEST DUP1 DUP4 ADD PUSH2 0x196B DUP3 DUP5 SUB DUP3 PUSH2 0x18FD JUMP JUMPDEST POP POP POP POP JUMPDEST JUMPDEST POP POP POP JUMP JUMPDEST PUSH0 DUP3 DUP3 SHR SWAP1 POP SWAP3 SWAP2 POP POP JUMP JUMPDEST PUSH0 PUSH2 0x1991 PUSH0 NOT DUP5 PUSH1 0x8 MUL PUSH2 0x1976 JUMP JUMPDEST NOT DUP1 DUP4 AND SWAP2 POP POP SWAP3 SWAP2 POP POP JUMP JUMPDEST PUSH0 PUSH2 0x19A9 DUP4 DUP4 PUSH2 0x1982 JUMP JUMPDEST SWAP2 POP DUP3 PUSH1 0x2 MUL DUP3 OR SWAP1 POP SWAP3 SWAP2 POP POP JUMP JUMPDEST PUSH2 0x19C2 DUP3 PUSH2 0x131E JUMP JUMPDEST PUSH8 0xFFFFFFFFFFFFFFFF DUP2 GT ISZERO PUSH2 0x19DB JUMPI PUSH2 0x19DA PUSH2 0x13FA JUMP JUMPDEST JUMPDEST PUSH2 0x19E5 DUP3 SLOAD PUSH2 0x17A2 JUMP JUMPDEST PUSH2 0x19F0 DUP3 DUP3 DUP6 PUSH2 0x1923 JUMP JUMPDEST PUSH0 PUSH1 0x20 SWAP1 POP PUSH1 0x1F DUP4 GT PUSH1 0x1 DUP2 EQ PUSH2 0x1A21 JUMPI PUSH0 DUP5 ISZERO PUSH2 0x1A0F JUMPI DUP3 DUP8 ADD MLOAD SWAP1 POP JUMPDEST PUSH2 0x1A19 DUP6 DUP3 PUSH2 0x199E JUMP JUMPDEST DUP7 SSTORE POP PUSH2 0x1A80 JUMP JUMPDEST PUSH1 0x1F NOT DUP5 AND PUSH2 0x1A2F DUP7 PUSH2 0x17FF JUMP JUMPDEST PUSH0 JUMPDEST DUP3 DUP2 LT ISZERO PUSH2 0x1A56 JUMPI DUP5 DUP10 ADD MLOAD DUP3 SSTORE PUSH1 0x1 DUP3 ADD SWAP2 POP PUSH1 0x20 DUP6 ADD SWAP5 POP PUSH1 0x20 DUP2 ADD SWAP1 POP PUSH2 0x1A31 JUMP JUMPDEST DUP7 DUP4 LT ISZERO PUSH2 0x1A73 JUMPI DUP5 DUP10 ADD MLOAD PUSH2 0x1A6F PUSH1 0x1F DUP10 AND DUP3 PUSH2 0x1982 JUMP JUMPDEST DUP4 SSTORE POP JUMPDEST PUSH1 0x1 PUSH1 0x2 DUP9 MUL ADD DUP9 SSTORE POP POP POP JUMPDEST POP POP POP POP POP POP JUMP JUMPDEST PUSH0 DUP2 SWAP1 POP DUP2 PUSH0 MSTORE PUSH1 0x20 PUSH0 KECCAK256 SWAP1 POP SWAP2 SWAP1 POP JUMP JUMPDEST PUSH1 0x1F DUP3 GT ISZERO PUSH2 0x1AE8 JUMPI DUP3 DUP3 GT ISZERO PUSH2 0x1AE7 JUMPI PUSH2 0x1AB4 DUP2 PUSH2 0x1A88 JUMP JUMPDEST PUSH2 0x1ABD DUP4 PUSH2 0x1811 JUMP JUMPDEST PUSH2 0x1AC6 DUP6 PUSH2 0x1811 JUMP JUMPDEST PUSH1 0x20 DUP7 LT ISZERO PUSH2 0x1AD3 JUMPI PUSH0 SWAP1 POP JUMPDEST DUP1 DUP4 ADD PUSH2 0x1AE2 DUP3 DUP5 SUB DUP3 PUSH2 0x18FD JUMP JUMPDEST POP POP POP POP JUMPDEST JUMPDEST POP POP POP JUMP JUMPDEST PUSH2 0x1AF6 DUP3 PUSH2 0x15A6 JUMP JUMPDEST PUSH8 0xFFFFFFFFFFFFFFFF DUP2 GT ISZERO PUSH2 0x1B0F JUMPI PUSH2 0x1B0E PUSH2 0x13FA JUMP JUMPDEST JUMPDEST PUSH2 0x1B19 DUP3 SLOAD PUSH2 0x17A2 JUMP JUMPDEST PUSH2 0x1B24 DUP3 DUP3 DUP6 PUSH2 0x1A9A JUMP JUMPDEST PUSH0 PUSH1 0x20 SWAP1 POP PUSH1 0x1F DUP4 GT PUSH1 0x1 DUP2 EQ PUSH2 0x1B55 JUMPI PUSH0 DUP5 ISZERO PUSH2 0x1B43 JUMPI DUP3 DUP8 ADD MLOAD SWAP1 POP JUMPDEST PUSH2 0x1B4D DUP6 DUP3 PUSH2 0x199E JUMP JUMPDEST DUP7 SSTORE POP PUSH2 0x1BB4 JUMP JUMPDEST PUSH1 0x1F NOT DUP5 AND PUSH2 0x1B63 DUP7 PUSH2 0x1A88 JUMP JUMPDEST PUSH0 JUMPDEST DUP3 DUP2 LT ISZERO PUSH2 0x1B8A JUMPI DUP5 DUP10 ADD MLOAD DUP3 SSTORE PUSH1 0x1 DUP3 ADD SWAP2 POP PUSH1 0x20 DUP6 ADD SWAP5 POP PUSH1 0x20 DUP2 ADD SWAP1 POP PUSH2 0x1B65 JUMP JUMPDEST DUP7 DUP4 LT ISZERO PUSH2 0x1BA7 JUMPI DUP5 DUP10 ADD MLOAD PUSH2 0x1BA3 PUSH1 0x1F DUP10 AND DUP3 PUSH2 0x1982 JUMP JUMPDEST DUP4 SSTORE POP JUMPDEST PUSH1 0x1 PUSH1 0x2 DUP9 MUL ADD DUP9 SSTORE POP POP POP JUMPDEST POP POP POP POP POP POP JUMP JUMPDEST PUSH0 DUP2 SLOAD SWAP1 POP PUSH2 0x1BCA DUP2 PUSH2 0x17A2 JUMP JUMPDEST SWAP1 POP SWAP2 SWAP1 POP JUMP JUMPDEST PUSH0 DUP2 SWAP1 POP DUP2 PUSH0 MSTORE PUSH1 0x20 PUSH0 KECCAK256 SWAP1 POP SWAP2 SWAP1 POP JUMP JUMPDEST DUP2 DUP2 SUB PUSH2 0x1BF1 JUMPI POP POP PUSH2 0x1CC6 JUMP JUMPDEST PUSH2 0x1BFA DUP3 PUSH2 0x1BBC JUMP JUMPDEST PUSH8 0xFFFFFFFFFFFFFFFF DUP2 GT ISZERO PUSH2 0x1C13 JUMPI PUSH2 0x1C12 PUSH2 0x13FA JUMP JUMPDEST JUMPDEST PUSH2 0x1C1D DUP3 SLOAD PUSH2 0x17A2 JUMP JUMPDEST PUSH2 0x1C28 DUP3 DUP3 DUP6 PUSH2 0x1923 JUMP JUMPDEST PUSH0 PUSH1 0x1F DUP4 GT PUSH1 0x1 DUP2 EQ PUSH2 0x1C55 JUMPI PUSH0 DUP5 ISZERO PUSH2 0x1C43 JUMPI DUP3 DUP8 ADD SLOAD SWAP1 POP JUMPDEST PUSH2 0x1C4D DUP6 DUP3 PUSH2 0x199E JUMP JUMPDEST DUP7 SSTORE POP PUSH2 0x1CBF JUMP JUMPDEST PUSH1 0x1F NOT DUP5 AND PUSH2 0x1C63 DUP8 PUSH2 0x1BD1 JUMP JUMPDEST SWAP7 POP PUSH2 0x1C6E DUP7 PUSH2 0x17FF JUMP JUMPDEST PUSH0 JUMPDEST DUP3 DUP2 LT ISZERO PUSH2 0x1C95 JUMPI DUP5 DUP10 ADD SLOAD DUP3 SSTORE PUSH1 0x1 DUP3 ADD SWAP2 POP PUSH1 0x1 DUP6 ADD SWAP5 POP PUSH1 0x20 DUP2 ADD SWAP1 POP PUSH2 0x1C70 JUMP JUMPDEST DUP7 DUP4 LT ISZERO PUSH2 0x1CB2 JUMPI DUP5 DUP10 ADD SLOAD PUSH2 0x1CAE PUSH1 0x1F DUP10 AND DUP3 PUSH2 0x1982 JUMP JUMPDEST DUP4 SSTORE POP JUMPDEST PUSH1 0x1 PUSH1 0x2 DUP9 MUL ADD DUP9 SSTORE POP POP POP JUMPDEST POP POP POP POP POP POP JUMPDEST JUMP JUMPDEST PUSH0 DUP2 SLOAD PUSH2 0x1CD4 DUP2 PUSH2 0x17A2 JUMP JUMPDEST PUSH2 0x1CDE DUP2 DUP7 PUSH2 0x1328 JUMP JUMPDEST SWAP5 POP PUSH1 0x1 DUP3 AND PUSH0 DUP2 EQ PUSH2 0x1CF8 JUMPI PUSH1 0x1 DUP2 EQ PUSH2 0x1D0E JUMPI PUSH2 0x1D40 JUMP JUMPDEST PUSH1 0xFF NOT DUP4 AND DUP7 MSTORE DUP2 ISZERO ISZERO PUSH1 0x20 MUL DUP7 ADD SWAP4 POP PUSH2 0x1D40 JUMP JUMPDEST PUSH2 0x1D17 DUP6 PUSH2 0x17FF JUMP JUMPDEST PUSH0 JUMPDEST DUP4 DUP2 LT ISZERO PUSH2 0x1D38 JUMPI DUP2 SLOAD DUP2 DUP10 ADD MSTORE PUSH1 0x1 DUP3 ADD SWAP2 POP PUSH1 0x20 DUP2 ADD SWAP1 POP PUSH2 0x1D19 JUMP JUMPDEST DUP1 DUP9 ADD SWAP6 POP POP POP JUMPDEST POP POP POP SWAP3 SWAP2 POP POP JUMP JUMPDEST PUSH0 DUP2 SLOAD PUSH2 0x1D55 DUP2 PUSH2 0x17A2 JUMP JUMPDEST PUSH2 0x1D5F DUP2 DUP7 PUSH2 0x15B0 JUMP JUMPDEST SWAP5 POP PUSH1 0x1 DUP3 AND PUSH0 DUP2 EQ PUSH2 0x1D79 JUMPI PUSH1 0x1 DUP2 EQ PUSH2 0x1D8F JUMPI PUSH2 0x1DC1 JUMP JUMPDEST PUSH1 0xFF NOT DUP4 AND DUP7 MSTORE DUP2 ISZERO ISZERO PUSH1 0x20 MUL DUP7 ADD SWAP4 POP PUSH2 0x1DC1 JUMP JUMPDEST PUSH2 0x1D98 DUP6 PUSH2 0x1A88 JUMP JUMPDEST PUSH0 JUMPDEST DUP4 DUP2 LT ISZERO PUSH2 0x1DB9 JUMPI DUP2 SLOAD DUP2 DUP10 ADD MSTORE PUSH1 0x1 DUP3 ADD SWAP2 POP PUSH1 0x20 DUP2 ADD SWAP1 POP PUSH2 0x1D9A JUMP JUMPDEST DUP1 DUP9 ADD SWAP6 POP POP POP JUMPDEST POP POP POP SWAP3 SWAP2 POP POP JUMP JUMPDEST PUSH0 PUSH1 0x60 DUP3 ADD SWAP1 POP DUP2 DUP2 SUB PUSH0 DUP4 ADD MSTORE PUSH2 0x1DE2 DUP2 DUP7 PUSH2 0x1CC8 JUMP JUMPDEST SWAP1 POP DUP2 DUP2 SUB PUSH1 0x20 DUP4 ADD MSTORE PUSH2 0x1DF6 DUP2 DUP6 PUSH2 0x1D49 JUMP JUMPDEST SWAP1 POP DUP2 DUP2 SUB PUSH1 0x40 DUP4 ADD MSTORE PUSH2 0x1E0A DUP2 DUP5 PUSH2 0x1D49 JUMP JUMPDEST SWAP1 POP SWAP5 SWAP4 POP POP POP POP JUMP JUMPDEST PUSH32 0x4E487B7100000000000000000000000000000000000000000000000000000000 PUSH0 MSTORE PUSH1 0x21 PUSH1 0x4 MSTORE PUSH1 0x24 PUSH0 REVERT JUMPDEST PUSH2 0x1E4A DUP2 PUSH2 0x16DE JUMP JUMPDEST DUP3 MSTORE POP POP JUMP JUMPDEST PUSH0 PUSH2 0xFFFF DUP3 AND SWAP1 POP SWAP2 SWAP1 POP JUMP JUMPDEST PUSH2 0x1E66 DUP2 PUSH2 0x1E50 JUMP JUMPDEST DUP3 MSTORE POP POP JUMP JUMPDEST PUSH0 PUSH4 0xFFFFFFFF DUP3 AND SWAP1 POP SWAP2 SWAP1 POP JUMP JUMPDEST PUSH2 0x1E84 DUP2 PUSH2 0x1E6C JUMP JUMPDEST DUP3 MSTORE POP POP JUMP JUMPDEST PUSH0 PUSH1 0xA0 DUP3 ADD SWAP1 POP PUSH2 0x1E9D PUSH0 DUP4 ADD DUP9 PUSH2 0x1E41 JUMP JUMPDEST DUP2 DUP2 SUB PUSH1 0x20 DUP4 ADD MSTORE PUSH2 0x1EAF DUP2 DUP8 PUSH2 0x15C0 JUMP JUMPDEST SWAP1 POP PUSH2 0x1EBE PUSH1 0x40 DUP4 ADD DUP7 PUSH2 0x1E5D JUMP JUMPDEST PUSH2 0x1ECB PUSH1 0x60 DUP4 ADD DUP6 PUSH2 0x1E7B JUMP JUMPDEST PUSH2 0x1ED8 PUSH1 0x80 DUP4 ADD DUP5 PUSH2 0x1618 JUMP JUMPDEST SWAP7 SWAP6 POP POP POP POP POP POP JUMP JUMPDEST PUSH0 DUP2 MLOAD SWAP1 POP PUSH2 0x1EF0 DUP2 PUSH2 0x13C8 JUMP JUMPDEST SWAP3 SWAP2 POP POP JUMP JUMPDEST PUSH0 PUSH1 0x20 DUP3 DUP5 SUB SLT ISZERO PUSH2 0x1F0B JUMPI PUSH2 0x1F0A PUSH2 0x13B7 JUMP JUMPDEST JUMPDEST PUSH0 PUSH2 0x1F18 DUP5 DUP3 DUP6 ADD PUSH2 0x1EE2 JUMP JUMPDEST SWAP2 POP POP SWAP3 SWAP2 POP POP JUMP JUMPDEST PUSH2 0x1F2A DUP2 PUSH2 0x187D JUMP JUMPDEST DUP3 MSTORE POP POP JUMP JUMPDEST PUSH0 PUSH1 0x20 DUP3 ADD SWAP1 POP PUSH2 0x1F43 PUSH0 DUP4 ADD DUP5 PUSH2 0x1F21 JUMP JUMPDEST SWAP3 SWAP2 POP POP JUMP JUMPDEST PUSH32 0x4E487B7100000000000000000000000000000000000000000000000000000000 PUSH0 MSTORE PUSH1 0x11 PUSH1 0x4 MSTORE PUSH1 0x24 PUSH0 REVERT JUMPDEST PUSH0 PUSH2 0x1F80 DUP3 PUSH2 0x187D JUMP JUMPDEST SWAP2 POP PUSH2 0x1F8B DUP4 PUSH2 0x187D JUMP JUMPDEST SWAP3 POP DUP3 DUP3 ADD SWAP1 POP DUP1 DUP3 GT ISZERO PUSH2 0x1FA3 JUMPI PUSH2 0x1FA2 PUSH2 0x1F49 JUMP JUMPDEST JUMPDEST SWAP3 SWAP2 POP POP JUMP JUMPDEST PUSH0 PUSH2 0x1FB3 DUP3 PUSH2 0x187D JUMP JUMPDEST SWAP2 POP PUSH2 0x1FBE DUP4 PUSH2 0x187D JUMP JUMPDEST SWAP3 POP DUP3 DUP3 SUB SWAP1 POP DUP2 DUP2 GT ISZERO PUSH2 0x1FD6 JUMPI PUSH2 0x1FD5 PUSH2 0x1F49 JUMP JUMPDEST JUMPDEST SWAP3 SWAP2 POP POP JUMP JUMPDEST PUSH32 0x4E487B7100000000000000000000000000000000000000000000000000000000 PUSH0 MSTORE PUSH1 0x12 PUSH1 0x4 MSTORE PUSH1 0x24 PUSH0 REVERT JUMPDEST PUSH0 PUSH2 0x2013 DUP3 PUSH2 0x187D JUMP JUMPDEST SWAP2 POP PUSH2 0x201E DUP4 PUSH2 0x187D JUMP JUMPDEST SWAP3 POP DUP3 PUSH2 0x202E JUMPI PUSH2 0x202D PUSH2 0x1FDC JUMP JUMPDEST JUMPDEST DUP3 DUP3 MOD SWAP1 POP SWAP3 SWAP2 POP POP JUMP JUMPDEST PUSH0 PUSH2 0x2043 DUP3 PUSH2 0x187D JUMP JUMPDEST SWAP2 POP PUSH2 0x204E DUP4 PUSH2 0x187D JUMP JUMPDEST SWAP3 POP DUP3 DUP3 MUL PUSH2 0x205C DUP2 PUSH2 0x187D JUMP JUMPDEST SWAP2 POP DUP3 DUP3 DIV DUP5 EQ DUP4 ISZERO OR PUSH2 0x2073 JUMPI PUSH2 0x2072 PUSH2 0x1F49 JUMP JUMPDEST JUMPDEST POP SWAP3 SWAP2 POP POP JUMP JUMPDEST PUSH0 DUP2 PUSH1 0x1 SHR SWAP1 POP SWAP2 SWAP1 POP JUMP JUMPDEST PUSH0 PUSH0 DUP3 SWAP2 POP DUP4 SWAP1 POP JUMPDEST PUSH1 0x1 DUP6 GT ISZERO PUSH2 0x20CF JUMPI DUP1 DUP7 DIV DUP2 GT ISZERO PUSH2 0x20AB JUMPI PUSH2 0x20AA PUSH2 0x1F49 JUMP JUMPDEST JUMPDEST PUSH1 0x1 DUP6 AND ISZERO PUSH2 0x20BA JUMPI DUP1 DUP3 MUL SWAP2 POP JUMPDEST DUP1 DUP2 MUL SWAP1 POP PUSH2 0x20C8 DUP6 PUSH2 0x207A JUMP JUMPDEST SWAP5 POP PUSH2 0x208F JUMP JUMPDEST SWAP5 POP SWAP5 SWAP3 POP POP POP JUMP JUMPDEST PUSH0 DUP3 PUSH2 0x20E7 JUMPI PUSH1 0x1 SWAP1 POP PUSH2 0x21A2 JUMP JUMPDEST DUP2 PUSH2 0x20F4 JUMPI PUSH0 SWAP1 POP PUSH2 0x21A2 JUMP JUMPDEST DUP2 PUSH1 0x1 DUP2 EQ PUSH2 0x210A JUMPI PUSH1 0x2 DUP2 EQ PUSH2 0x2114 JUMPI PUSH2 0x2143 JUMP JUMPDEST PUSH1 0x1 SWAP2 POP POP PUSH2 0x21A2 JUMP JUMPDEST PUSH1 0xFF DUP5 GT ISZERO PUSH2 0x2126 JUMPI PUSH2 0x2125 PUSH2 0x1F49 JUMP JUMPDEST JUMPDEST DUP4 PUSH1 0x2 EXP SWAP2 POP DUP5 DUP3 GT ISZERO PUSH2 0x213D JUMPI PUSH2 0x213C PUSH2 0x1F49 JUMP JUMPDEST JUMPDEST POP PUSH2 0x21A2 JUMP JUMPDEST POP PUSH1 0x20 DUP4 LT PUSH2 0x133 DUP4 LT AND PUSH1 0x4E DUP5 LT PUSH1 0xB DUP5 LT AND OR ISZERO PUSH2 0x2178 JUMPI DUP3 DUP3 EXP SWAP1 POP DUP4 DUP2 GT ISZERO PUSH2 0x2173 JUMPI PUSH2 0x2172 PUSH2 0x1F49 JUMP JUMPDEST JUMPDEST PUSH2 0x21A2 JUMP JUMPDEST PUSH2 0x2185 DUP5 DUP5 DUP5 PUSH1 0x1 PUSH2 0x2086 JUMP JUMPDEST SWAP3 POP SWAP1 POP DUP2 DUP5 DIV DUP2 GT ISZERO PUSH2 0x219C JUMPI PUSH2 0x219B PUSH2 0x1F49 JUMP JUMPDEST JUMPDEST DUP2 DUP2 MUL SWAP1 POP JUMPDEST SWAP4 SWAP3 POP POP POP JUMP JUMPDEST PUSH0 PUSH2 0x21B3 DUP3 PUSH2 0x187D JUMP JUMPDEST SWAP2 POP PUSH2 0x21BE DUP4 PUSH2 0x187D JUMP JUMPDEST SWAP3 POP PUSH2 0x21EB PUSH32 0xFFFFFFFFFFFFFFFFFFFFFFFFFFFFFFFFFFFFFFFFFFFFFFFFFFFFFFFFFFFFFFFF DUP5 DUP5 PUSH2 0x20D8 JUMP JUMPDEST SWAP1 POP SWAP3 SWAP2 POP POP JUMP INVALID PUSH4 0x6F6E7374 KECCAK256 PUSH4 0x69747920 RETURNDATASIZE KECCAK256 PUSH2 0x7267 PUSH20 0x5B305D3B636F6E737420617069526573706F6E73 PUSH6 0x203D20617761 PUSH10 0x742046756E6374696F6E PUSH20 0x2E6D616B654874747052657175657374287B7572 PUSH13 0x3A206068747470733A2F2F7774 PUSH21 0x722E696E2F247B636974797D3F666F726D61743D33 0x26 PUSH14 0x602C726573706F6E736554797065 GASPRICE KECCAK256 0x27 PUSH21 0x657874277D293B69662028617069526573706F6E73 PUSH6 0x2E6572726F72 0x29 KECCAK256 PUSH28 0x7468726F77204572726F72282752657175657374206661696C656427 0x29 EXTCODESIZE PUSH30 0x636F6E7374207B2064617461207D203D20617069526573706F6E73653B72 PUSH6 0x7475726E2046 PUSH22 0x6E6374696F6E732E656E636F6465537472696E672864 PUSH2 0x7461 0x29 EXTCODESIZE LOG2 PUSH5 0x6970667358 0x22 SLT KECCAK256 0x2B MOD 0xE2 PREVRANDAO 0xC6 EOFCREATE 0x6B CALLVALUE 0xFC PUSH31 0xFCDF5654DA65CDEED418163FE5F597E79B7F27E898F764736F6C6343000822 STOP CALLER "
				},
				"gasEstimates": {
					"creation": {
						"codeDepositCost": "1800800",
						"executionCost": "infinite",
						"totalCost": "infinite"
					},
					"external": {
						"SOURCE()": "infinite",
						"getTemperature(string,uint64)": "infinite",
						"handleOracleFulfillment(bytes32,bytes,bytes)": "infinite",
						"s_lastCity()": "infinite",
						"s_lastError()": "infinite",
						"s_lastRequestId()": "2447",
						"s_lastResponse()": "infinite",
						"s_lastTemperature()": "infinite",
						"s_requestedCity()": "infinite"
					},
					"internal": {
						"fulfillRequest(bytes32,bytes memory,bytes memory)": "infinite"
					}
				},
				"methodIdentifiers": {
					"SOURCE()": "f230b4c2",
					"getTemperature(string,uint64)": "f343f1e1",
					"handleOracleFulfillment(bytes32,bytes,bytes)": "0ca76175",
					"s_lastCity()": "0845284e",
					"s_lastError()": "4b0795a8",
					"s_lastRequestId()": "b1e21749",
					"s_lastResponse()": "3944ea3a",
					"s_lastTemperature()": "d50cbe98",
					"s_requestedCity()": "6e0e7c3b"
				}
			},
			"storageLayout": {
				"storage": [
					{
						"astId": 2081,
						"contract": "contracts/FunctionConsumer.sol:FunctionsConsumer",
						"label": "s_lastCity",
						"offset": 0,
						"slot": "0",
						"type": "t_string_storage"
					},
					{
						"astId": 2083,
						"contract": "contracts/FunctionConsumer.sol:FunctionsConsumer",
						"label": "s_requestedCity",
						"offset": 0,
						"slot": "1",
						"type": "t_string_storage"
					},
					{
						"astId": 2085,
						"contract": "contracts/FunctionConsumer.sol:FunctionsConsumer",
						"label": "s_lastTemperature",
						"offset": 0,
						"slot": "2",
						"type": "t_string_storage"
					},
					{
						"astId": 2087,
						"contract": "contracts/FunctionConsumer.sol:FunctionsConsumer",
						"label": "s_lastRequestId",
						"offset": 0,
						"slot": "3",
						"type": "t_bytes32"
					},
					{
						"astId": 2089,
						"contract": "contracts/FunctionConsumer.sol:FunctionsConsumer",
						"label": "s_lastResponse",
						"offset": 0,
						"slot": "4",
						"type": "t_bytes_storage"
					},
					{
						"astId": 2091,
						"contract": "contracts/FunctionConsumer.sol:FunctionsConsumer",
						"label": "s_lastError",
						"offset": 0,
						"slot": "5",
						"type": "t_bytes_storage"
					}
				],
				"types": {
					"t_bytes32": {
						"encoding": "inplace",
						"label": "bytes32",
						"numberOfBytes": "32"
					},
					"t_bytes_storage": {
						"encoding": "bytes",
						"label": "bytes",
						"numberOfBytes": "32"
					},
					"t_string_storage": {
						"encoding": "bytes",
						"label": "string",
						"numberOfBytes": "32"
					}
				}
			},
			"userdoc": {
				"kind": "user",
				"methods": {
					"handleOracleFulfillment(bytes32,bytes,bytes)": {
						"notice": "Chainlink Functions response handler called by the Functions Router during fullilment from the designated transmitter node in an OCR round."
					}
				},
				"version": 1
			}
		}
	}
}