{
	"data": {
		"bytecode": {
			"linkReferences": {},
			"object": "60a0604052348015600e575f5ffd5b5073b83e47c2bc239b3bf370bc41e1459a34b41238d08073ffffffffffffffffffffffffffffffffffffffff1660808173ffffffffffffffffffffffffffffffffffffffff16815250505060805161230e6100785f395f81816102400152610b9c015261230e5ff3fe608060405234801561000f575f5ffd5b5060043610610091575f3560e01c80636e0e7c3b116100645780636e0e7c3b1461010b578063b1e2174914610129578063d50cbe9814610147578063f230b4c214610165578063f343f1e11461018357610091565b80630845284e146100955780630ca76175146100b35780633944ea3a146100cf5780634b0795a8146100ed575b5f5ffd5b61009d6101b3565b6040516100aa919061138e565b60405180910390f35b6100cd60048036038101906100c8919061151e565b61023e565b005b6100d7610300565b6040516100e491906115f8565b60405180910390f35b6100f561038c565b60405161010291906115f8565b60405180910390f35b610113610418565b604051610120919061138e565b60405180910390f35b6101316104a4565b60405161013e9190611627565b60405180910390f35b61014f6104aa565b60405161015c919061138e565b60405180910390f35b61016d610536565b60405161017a919061138e565b60405180910390f35b61019d6004803603810190610198919061171b565b610555565b6040516101aa9190611627565b60405180910390f35b5f80546101bf906117a2565b80601f01602080910402602001604051908101604052809291908181526020018280546101eb906117a2565b80156102365780601f1061020d57610100808354040283529160200191610236565b820191905f5260205f20905b81548152906001019060200180831161021957829003601f168201915b505050505081565b7f000000000000000000000000000000000000000000000000000000000000000073ffffffffffffffffffffffffffffffffffffffff163373ffffffffffffffffffffffffffffffffffffffff16146102c3576040517fc6829f8300000000000000000000000000000000000000000000000000000000815260040160405180910390fd5b6102ce83838361066c565b827f85e1543bf2f84fe80c6badbce3648c8539ad1df4d2b3d822938ca0538be727e660405160405180910390a2505050565b6004805461030d906117a2565b80601f0160208091040260200160405190810160405280929190818152602001828054610339906117a2565b80156103845780601f1061035b57610100808354040283529160200191610384565b820191905f5260205f20905b81548152906001019060200180831161036757829003601f168201915b505050505081565b60058054610399906117a2565b80601f01602080910402602001604051908101604052809291908181526020018280546103c5906117a2565b80156104105780601f106103e757610100808354040283529160200191610410565b820191905f5260205f20905b8154815290600101906020018083116103f357829003601f168201915b505050505081565b60018054610425906117a2565b80601f0160208091040260200160405190810160405280929190818152602001828054610451906117a2565b801561049c5780601f106104735761010080835404028352916020019161049c565b820191905f5260205f20905b81548152906001019060200180831161047f57829003601f168201915b505050505081565b60035481565b600280546104b7906117a2565b80601f01602080910402602001604051908101604052809291908181526020018280546104e3906117a2565b801561052e5780601f106105055761010080835404028352916020019161052e565b820191905f5260205f20905b81548152906001019060200180831161051157829003601f168201915b505050505081565b60405180610140016040528061010381526020016121d6610103913981565b5f61055e611277565b61058c60405180610140016040528061010381526020016121d661010391398261073690919063ffffffff16565b5f600167ffffffffffffffff8111156105a8576105a76113fa565b5b6040519080825280602002602001820160405280156105db57816020015b60608152602001906001900390816105c65790505b50905084815f815181106105f2576105f16117d2565b5b6020026020010181905250610610818361074690919063ffffffff16565b61064961061c8361078d565b85620493e07f66756e2d657468657265756d2d7365706f6c69612d31000000000000000000005f1b610b98565b600381905550846001908161065e91906119a8565b506003549250505092915050565b82600354146106b257826040517fd068bf5b0000000000000000000000000000000000000000000000000000000081526004016106a99190611627565b60405180910390fd5b80600590816106c19190611acf565b5081600490816106d19190611acf565b5081600290816106e191906119a8565b5060015f90816106f19190611bc5565b50827f160ed0aaffbef6885155188b91459cb5a97d5daadccf7561d8c46deea6641b5060026004600560405161072993929190611dac565b60405180910390a2505050565b610742825f5f84610c77565b5050565b5f815103610780576040517ffe936cb700000000000000000000000000000000000000000000000000000000815260040160405180910390fd5b808260a001819052505050565b60605f61079b610100610d1d565b90506107e56040518060400160405280600c81526020017f636f64654c6f636174696f6e000000000000000000000000000000000000000081525082610d4290919063ffffffff16565b61080d835f015160028111156107fe576107fd611df6565b5b82610d6a90919063ffffffff16565b6108556040518060400160405280600881526020017f6c616e677561676500000000000000000000000000000000000000000000000081525082610d4290919063ffffffff16565b61087d83604001515f81111561086e5761086d611df6565b5b82610d6a90919063ffffffff16565b6108c56040518060400160405280600681526020017f736f75726365000000000000000000000000000000000000000000000000000081525082610d4290919063ffffffff16565b6108dc836060015182610d4290919063ffffffff16565b5f8360a00151511115610993576109316040518060400160405280600481526020017f617267730000000000000000000000000000000000000000000000000000000081525082610d4290919063ffffffff16565b61093a81610db9565b5f5f90505b8360a00151518110156109885761097d8460a001518281518110610966576109656117d2565b5b602002602001015183610d4290919063ffffffff16565b80600101905061093f565b5061099281610de1565b5b5f8360800151511115610ad2575f60028111156109b3576109b2611df6565b5b836020015160028111156109ca576109c9611df6565b5b03610a01576040517fa80d31f700000000000000000000000000000000000000000000000000000000815260040160405180910390fd5b610a496040518060400160405280600f81526020017f736563726574734c6f636174696f6e000000000000000000000000000000000081525082610d4290919063ffffffff16565b610a7283602001516002811115610a6357610a62611df6565b5b82610d6a90919063ffffffff16565b610aba6040518060400160405280600781526020017f736563726574730000000000000000000000000000000000000000000000000081525082610d4290919063ffffffff16565b610ad1836080015182610e0990919063ffffffff16565b5b5f8360c00151511115610b8957610b276040518060400160405280600981526020017f627974657341726773000000000000000000000000000000000000000000000081525082610d4290919063ffffffff16565b610b3081610db9565b5f5f90505b8360c0015151811015610b7e57610b738460c001518281518110610b5c57610b5b6117d2565b5b602002602001015183610e0990919063ffffffff16565b806001019050610b35565b50610b8881610de1565b5b805f01515f0151915050919050565b5f5f7f000000000000000000000000000000000000000000000000000000000000000073ffffffffffffffffffffffffffffffffffffffff1663461d27628688600188886040518663ffffffff1660e01b8152600401610bfc959493929190611e6c565b6020604051808303815f875af1158015610c18573d5f5f3e3d5ffd5b505050506040513d601f19601f82011682018060405250810190610c3c9190611ed8565b9050807f1131472297a800fee664d1d89cfa8f7676ff07189ecc53f80bbb5f4969099db860405160405180910390a280915050949350505050565b5f815103610cb1576040517f22ce3edd00000000000000000000000000000000000000000000000000000000815260040160405180910390fd5b82845f01906002811115610cc857610cc7611df6565b5b90816002811115610cdc57610cdb611df6565b5b815250508184604001905f811115610cf757610cf6611df6565b5b90815f811115610d0a57610d09611df6565b5b8152505080846060018190525050505050565b610d256112e6565b610d32815f015183610e31565b505f816020018181525050919050565b610d4f8260038351610ea7565b610d6581835f015161104790919063ffffffff16565b505050565b610d8b60026005600660ff16901b17835f015161106390919063ffffffff16565b50610db58282604051602001610da19190611f12565b604051602081830303815290604052610e09565b5050565b610dc48160046110ca565b600181602001818151610dd79190611f58565b9150818152505050565b610dec8160076110ca565b600181602001818151610dff9190611f8b565b9150818152505050565b610e168260028351610ea7565b610e2c81835f015161104790919063ffffffff16565b505050565b610e39611305565b5f602083610e479190611feb565b14610e7357602082610e599190611feb565b6020610e659190611f8b565b82610e709190611f58565b91505b818360200181815250506040518084525f815282810160200181811015610e98575f5ffd5b80604052505082905092915050565b60178167ffffffffffffffff1611610ee157610edb8160058460ff16901b60ff1617845f015161106390919063ffffffff16565b50611042565b60ff8167ffffffffffffffff1611610f3d57610f13601860058460ff16901b17845f015161106390919063ffffffff16565b50610f378167ffffffffffffffff166001855f01516110ef9092919063ffffffff16565b50611041565b61ffff8167ffffffffffffffff1611610f9a57610f70601960058460ff16901b17845f015161106390919063ffffffff16565b50610f948167ffffffffffffffff166002855f01516110ef9092919063ffffffff16565b50611040565b63ffffffff8167ffffffffffffffff1611610ff957610fcf601a60058460ff16901b17845f015161106390919063ffffffff16565b50610ff38167ffffffffffffffff166004855f01516110ef9092919063ffffffff16565b5061103f565b611019601b60058460ff16901b17845f015161106390919063ffffffff16565b5061103d8167ffffffffffffffff166008855f01516110ef9092919063ffffffff16565b505b5b5b5b505050565b61104f611305565b61105b83838451611178565b905092915050565b61106b611305565b5f835f01515190505f6001826110819190611f58565b9050846020015182106110a5576110a48560028361109f919061201b565b611255565b5b845160208382010185815381518311156110bd578282525b5050849250505092915050565b6110ea601f60058360ff16901b17835f015161106390919063ffffffff16565b505050565b6110f7611305565b5f845f01515190505f818461110c9190611f58565b90508560200151811115611131576111308660028361112b919061201b565b611255565b5b5f600185610100611142919061218b565b61114c9190611f8b565b905086518281018783198251161781528151841115611169578382525b50508693505050509392505050565b611180611305565b825182111561118d575f5ffd5b5f845f01515190505f83826111a29190611f58565b905085602001518111156111c7576111c6866002836111c1919061201b565b611255565b5b5f5f875180518560208301019350808511156111e1578482525b60208901925050505b6020861061122857805182526020826112039190611f58565b91506020816112129190611f58565b90506020866112219190611f8b565b95506111ea565b5f6001876020036101000a0390508019825116818451168181178552505050879450505050509392505050565b5f825f015190506112668383610e31565b506112718382611047565b50505050565b6040518060e001604052805f600281111561129557611294611df6565b5b81526020015f60028111156112ad576112ac611df6565b5b81526020015f5f8111156112c4576112c3611df6565b5b8152602001606081526020016060815260200160608152602001606081525090565b60405180604001604052806112f9611305565b81526020015f81525090565b6040518060400160405280606081526020015f81525090565b5f81519050919050565b5f82825260208201905092915050565b8281835e5f83830152505050565b5f601f19601f8301169050919050565b5f6113608261131e565b61136a8185611328565b935061137a818560208601611338565b61138381611346565b840191505092915050565b5f6020820190508181035f8301526113a68184611356565b905092915050565b5f604051905090565b5f5ffd5b5f5ffd5b5f819050919050565b6113d1816113bf565b81146113db575f5ffd5b50565b5f813590506113ec816113c8565b92915050565b5f5ffd5b5f5ffd5b7f4e487b71000000000000000000000000000000000000000000000000000000005f52604160045260245ffd5b61143082611346565b810181811067ffffffffffffffff8211171561144f5761144e6113fa565b5b80604052505050565b5f6114616113ae565b905061146d8282611427565b919050565b5f67ffffffffffffffff82111561148c5761148b6113fa565b5b61149582611346565b9050602081019050919050565b828183375f83830152505050565b5f6114c26114bd84611472565b611458565b9050828152602081018484840111156114de576114dd6113f6565b5b6114e98482856114a2565b509392505050565b5f82601f830112611505576115046113f2565b5b81356115158482602086016114b0565b91505092915050565b5f5f5f60608486031215611535576115346113b7565b5b5f611542868287016113de565b935050602084013567ffffffffffffffff811115611563576115626113bb565b5b61156f868287016114f1565b925050604084013567ffffffffffffffff8111156115905761158f6113bb565b5b61159c868287016114f1565b9150509250925092565b5f81519050919050565b5f82825260208201905092915050565b5f6115ca826115a6565b6115d481856115b0565b93506115e4818560208601611338565b6115ed81611346565b840191505092915050565b5f6020820190508181035f83015261161081846115c0565b905092915050565b611621816113bf565b82525050565b5f60208201905061163a5f830184611618565b92915050565b5f67ffffffffffffffff82111561165a576116596113fa565b5b61166382611346565b9050602081019050919050565b5f61168261167d84611640565b611458565b90508281526020810184848401111561169e5761169d6113f6565b5b6116a98482856114a2565b509392505050565b5f82601f8301126116c5576116c46113f2565b5b81356116d5848260208601611670565b91505092915050565b5f67ffffffffffffffff82169050919050565b6116fa816116de565b8114611704575f5ffd5b50565b5f81359050611715816116f1565b92915050565b5f5f60408385031215611731576117306113b7565b5b5f83013567ffffffffffffffff81111561174e5761174d6113bb565b5b61175a858286016116b1565b925050602061176b85828601611707565b9150509250929050565b7f4e487b71000000000000000000000000000000000000000000000000000000005f52602260045260245ffd5b5f60028204905060018216806117b957607f821691505b6020821081036117cc576117cb611775565b5b50919050565b7f4e487b71000000000000000000000000000000000000000000000000000000005f52603260045260245ffd5b5f819050815f5260205f209050919050565b5f6020601f8301049050919050565b5f82821b905092915050565b5f6008830261185b7fffffffffffffffffffffffffffffffffffffffffffffffffffffffffffffffff82611820565b6118658683611820565b95508019841693508086168417925050509392505050565b5f819050919050565b5f819050919050565b5f6118a96118a461189f8461187d565b611886565b61187d565b9050919050565b5f819050919050565b6118c28361188f565b6118d66118ce826118b0565b84845461182c565b825550505050565b5f5f905090565b6118ed6118de565b6118f88184846118b9565b505050565b5b8181101561191b576119105f826118e5565b6001810190506118fe565b5050565b601f82111561196057611931816117ff565b61193a84611811565b81016020851015611949578190505b61195d61195585611811565b8301826118fd565b50505b505050565b5f82821c905092915050565b5f6119805f1984600802611965565b1980831691505092915050565b5f6119988383611971565b9150826002028217905092915050565b6119b18261131e565b67ffffffffffffffff8111156119ca576119c96113fa565b5b6119d482546117a2565b6119df82828561191f565b5f60209050601f831160018114611a10575f84156119fe578287015190505b611a08858261198d565b865550611a6f565b601f198416611a1e866117ff565b5f5b82811015611a4557848901518255600182019150602085019450602081019050611a20565b86831015611a625784890151611a5e601f891682611971565b8355505b6001600288020188555050505b505050505050565b5f819050815f5260205f209050919050565b601f821115611aca57611a9b81611a77565b611aa484611811565b81016020851015611ab3578190505b611ac7611abf85611811565b8301826118fd565b50505b505050565b611ad8826115a6565b67ffffffffffffffff811115611af157611af06113fa565b5b611afb82546117a2565b611b06828285611a89565b5f60209050601f831160018114611b37575f8415611b25578287015190505b611b2f858261198d565b865550611b96565b601f198416611b4586611a77565b5f5b82811015611b6c57848901518255600182019150602085019450602081019050611b47565b86831015611b895784890151611b85601f891682611971565b8355505b6001600288020188555050505b505050505050565b5f81549050611bac816117a2565b9050919050565b5f819050815f5260205f209050919050565b818103611bd3575050611ca8565b611bdc82611b9e565b67ffffffffffffffff811115611bf557611bf46113fa565b5b611bff82546117a2565b611c0a82828561191f565b5f601f831160018114611c37575f8415611c25578287015490505b611c2f858261198d565b865550611ca1565b601f198416611c4587611bb3565b9650611c50866117ff565b5f5b82811015611c7757848901548255600182019150600185019450602081019050611c52565b86831015611c945784890154611c90601f891682611971565b8355505b6001600288020188555050505b5050505050505b565b5f8154611cb6816117a2565b611cc08186611328565b9450600182165f8114611cda5760018114611cf057611d22565b60ff198316865281151560200286019350611d22565b611cf9856117ff565b5f5b83811015611d1a57815481890152600182019150602081019050611cfb565b808801955050505b50505092915050565b5f8154611d37816117a2565b611d4181866115b0565b9450600182165f8114611d5b5760018114611d7157611da3565b60ff198316865281151560200286019350611da3565b611d7a85611a77565b5f5b83811015611d9b57815481890152600182019150602081019050611d7c565b808801955050505b50505092915050565b5f6060820190508181035f830152611dc48186611caa565b90508181036020830152611dd88185611d2b565b90508181036040830152611dec8184611d2b565b9050949350505050565b7f4e487b71000000000000000000000000000000000000000000000000000000005f52602160045260245ffd5b611e2c816116de565b82525050565b5f61ffff82169050919050565b611e4881611e32565b82525050565b5f63ffffffff82169050919050565b611e6681611e4e565b82525050565b5f60a082019050611e7f5f830188611e23565b8181036020830152611e9181876115c0565b9050611ea06040830186611e3f565b611ead6060830185611e5d565b611eba6080830184611618565b9695505050505050565b5f81519050611ed2816113c8565b92915050565b5f60208284031215611eed57611eec6113b7565b5b5f611efa84828501611ec4565b91505092915050565b611f0c8161187d565b82525050565b5f602082019050611f255f830184611f03565b92915050565b7f4e487b71000000000000000000000000000000000000000000000000000000005f52601160045260245ffd5b5f611f628261187d565b9150611f6d8361187d565b9250828201905080821115611f8557611f84611f2b565b5b92915050565b5f611f958261187d565b9150611fa08361187d565b9250828203905081811115611fb857611fb7611f2b565b5b92915050565b7f4e487b71000000000000000000000000000000000000000000000000000000005f52601260045260245ffd5b5f611ff58261187d565b91506120008361187d565b9250826120105761200f611fbe565b5b828206905092915050565b5f6120258261187d565b91506120308361187d565b925082820261203e8161187d565b9150828204841483151761205557612054611f2b565b5b5092915050565b5f8160011c9050919050565b5f5f8291508390505b60018511156120b15780860481111561208d5761208c611f2b565b5b600185161561209c5780820291505b80810290506120aa8561205c565b9450612071565b94509492505050565b5f826120c95760019050612184565b816120d6575f9050612184565b81600181146120ec57600281146120f657612125565b6001915050612184565b60ff84111561210857612107611f2b565b5b8360020a91508482111561211f5761211e611f2b565b5b50612184565b5060208310610133831016604e8410600b841016171561215a5782820a90508381111561215557612154611f2b565b5b612184565b6121678484846001612068565b9250905081840481111561217e5761217d611f2b565b5b81810290505b9392505050565b5f6121958261187d565b91506121a08361187d565b92506121cd7fffffffffffffffffffffffffffffffffffffffffffffffffffffffffffffffff84846120ba565b90509291505056fe636f6e73742063697479203d20617267735b305d3b636f6e737420617069526573706f6e7365203d2061776169742046756e6374696f6e732e6d616b654874747052657175657374287b75726c3a206068747470733a2f2f777474722e696e2f247b636974797d3f666f726d61743d33266d602c726573706f6e7365547970653a202774657874277d293b69662028617069526573706f6e73652e6572726f7229207b7468726f77204572726f72282752657175657374206661696c656427293b7d636f6e7374207b2064617461207d203d20617069526573706f6e73653b72657475726e2046756e6374696f6e732e656e636f6465537472696e672864617461293ba2646970667358221220bf879ac51b331e82d472bfe3566ebc6c3c514c763db21ee2a4df74bb824b46d664736f6c634300081f0033",
			"opcodes": "PUSH1 0xA0 PUSH1 0x40 MSTORE CALLVALUE DUP1 ISZERO PUSH1 0xE JUMPI PUSH0 PUSH0 REVERT JUMPDEST POP PUSH20 0xB83E47C2BC239B3BF370BC41E1459A34B41238D0 DUP1 PUSH20 0xFFFFFFFFFFFFFFFFFFFFFFFFFFFFFFFFFFFFFFFF AND PUSH1 0x80 DUP2 PUSH20 0xFFFFFFFFFFFFFFFFFFFFFFFFFFFFFFFFFFFFFFFF AND DUP2 MSTORE POP POP POP PUSH1 0x80 MLOAD PUSH2 0x230E PUSH2 0x78 PUSH0 CODECOPY PUSH0 DUP2 DUP2 PUSH2 0x240 ADD MSTORE PUSH2 0xB9C ADD MSTORE PUSH2 0x230E PUSH0 RETURN INVALID PUSH1 0x80 PUSH1 0x40 MSTORE CALLVALUE DUP1 ISZERO PUSH2 0xF JUMPI PUSH0 PUSH0 REVERT JUMPDEST POP PUSH1 0x4 CALLDATASIZE LT PUSH2 0x91 JUMPI PUSH0 CALLDATALOAD PUSH1 0xE0 SHR DUP1 PUSH4 0x6E0E7C3B GT PUSH2 0x64 JUMPI DUP1 PUSH4 0x6E0E7C3B EQ PUSH2 0x10B JUMPI DUP1 PUSH4 0xB1E21749 EQ PUSH2 0x129 JUMPI DUP1 PUSH4 0xD50CBE98 EQ PUSH2 0x147 JUMPI DUP1 PUSH4 0xF230B4C2 EQ PUSH2 0x165 JUMPI DUP1 PUSH4 0xF343F1E1 EQ PUSH2 0x183 JUMPI PUSH2 0x91 JUMP JUMPDEST DUP1 PUSH4 0x845284E EQ PUSH2 0x95 JUMPI DUP1 PUSH4 0xCA76175 EQ PUSH2 0xB3 JUMPI DUP1 PUSH4 0x3944EA3A EQ PUSH2 0xCF JUMPI DUP1 PUSH4 0x4B0795A8 EQ PUSH2 0xED JUMPI JUMPDEST PUSH0 PUSH0 REVERT JUMPDEST PUSH2 0x9D PUSH2 0x1B3 JUMP JUMPDEST PUSH1 0x40 MLOAD PUSH2 0xAA SWAP2 SWAP1 PUSH2 0x138E JUMP JUMPDEST PUSH1 0x40 MLOAD DUP1 SWAP2 SUB SWAP1 RETURN JUMPDEST PUSH2 0xCD PUSH1 0x4 DUP1 CALLDATASIZE SUB DUP2 ADD SWAP1 PUSH2 0xC8 SWAP2 SWAP1 PUSH2 0x151E JUMP JUMPDEST PUSH2 0x23E JUMP JUMPDEST STOP JUMPDEST PUSH2 0xD7 PUSH2 0x300 JUMP JUMPDEST PUSH1 0x40 MLOAD PUSH2 0xE4 SWAP2 SWAP1 PUSH2 0x15F8 JUMP JUMPDEST PUSH1 0x40 MLOAD DUP1 SWAP2 SUB SWAP1 RETURN JUMPDEST PUSH2 0xF5 PUSH2 0x38C JUMP JUMPDEST PUSH1 0x40 MLOAD PUSH2 0x102 SWAP2 SWAP1 PUSH2 0x15F8 JUMP JUMPDEST PUSH1 0x40 MLOAD DUP1 SWAP2 SUB SWAP1 RETURN JUMPDEST PUSH2 0x113 PUSH2 0x418 JUMP JUMPDEST PUSH1 0x40 MLOAD PUSH2 0x120 SWAP2 SWAP1 PUSH2 0x138E JUMP JUMPDEST PUSH1 0x40 MLOAD DUP1 SWAP2 SUB SWAP1 RETURN JUMPDEST PUSH2 0x131 PUSH2 0x4A4 JUMP JUMPDEST PUSH1 0x40 MLOAD PUSH2 0x13E SWAP2 SWAP1 PUSH2 0x1627 JUMP JUMPDEST PUSH1 0x40 MLOAD DUP1 SWAP2 SUB SWAP1 RETURN JUMPDEST PUSH2 0x14F PUSH2 0x4AA JUMP JUMPDEST PUSH1 0x40 MLOAD PUSH2 0x15C SWAP2 SWAP1 PUSH2 0x138E JUMP JUMPDEST PUSH1 0x40 MLOAD DUP1 SWAP2 SUB SWAP1 RETURN JUMPDEST PUSH2 0x16D PUSH2 0x536 JUMP JUMPDEST PUSH1 0x40 MLOAD PUSH2 0x17A SWAP2 SWAP1 PUSH2 0x138E JUMP JUMPDEST PUSH1 0x40 MLOAD DUP1 SWAP2 SUB SWAP1 RETURN JUMPDEST PUSH2 0x19D PUSH1 0x4 DUP1 CALLDATASIZE SUB DUP2 ADD SWAP1 PUSH2 0x198 SWAP2 SWAP1 PUSH2 0x171B JUMP JUMPDEST PUSH2 0x555 JUMP JUMPDEST PUSH1 0x40 MLOAD PUSH2 0x1AA SWAP2 SWAP1 PUSH2 0x1627 JUMP JUMPDEST PUSH1 0x40 MLOAD DUP1 SWAP2 SUB SWAP1 RETURN JUMPDEST PUSH0 DUP1 SLOAD PUSH2 0x1BF SWAP1 PUSH2 0x17A2 JUMP JUMPDEST DUP1 PUSH1 0x1F ADD PUSH1 0x20 DUP1 SWAP2 DIV MUL PUSH1 0x20 ADD PUSH1 0x40 MLOAD SWAP1 DUP2 ADD PUSH1 0x40 MSTORE DUP1 SWAP3 SWAP2 SWAP1 DUP2 DUP2 MSTORE PUSH1 0x20 ADD DUP3 DUP1 SLOAD PUSH2 0x1EB SWAP1 PUSH2 0x17A2 JUMP JUMPDEST DUP1 ISZERO PUSH2 0x236 JUMPI DUP1 PUSH1 0x1F LT PUSH2 0x20D JUMPI PUSH2 0x100 DUP1 DUP4 SLOAD DIV MUL DUP4 MSTORE SWAP2 PUSH1 0x20 ADD SWAP2 PUSH2 0x236 JUMP JUMPDEST DUP3 ADD SWAP2 SWAP1 PUSH0 MSTORE PUSH1 0x20 PUSH0 KECCAK256 SWAP1 JUMPDEST DUP2 SLOAD DUP2 MSTORE SWAP1 PUSH1 0x1 ADD SWAP1 PUSH1 0x20 ADD DUP1 DUP4 GT PUSH2 0x219 JUMPI DUP3 SWAP1 SUB PUSH1 0x1F AND DUP3 ADD SWAP2 JUMPDEST POP POP POP POP POP DUP2 JUMP JUMPDEST PUSH32 0x0 PUSH20 0xFFFFFFFFFFFFFFFFFFFFFFFFFFFFFFFFFFFFFFFF AND CALLER PUSH20 0xFFFFFFFFFFFFFFFFFFFFFFFFFFFFFFFFFFFFFFFF AND EQ PUSH2 0x2C3 JUMPI PUSH1 0x40 MLOAD PUSH32 0xC6829F8300000000000000000000000000000000000000000000000000000000 DUP2 MSTORE PUSH1 0x4 ADD PUSH1 0x40 MLOAD DUP1 SWAP2 SUB SWAP1 REVERT JUMPDEST PUSH2 0x2CE DUP4 DUP4 DUP4 PUSH2 0x66C JUMP JUMPDEST DUP3 PUSH32 0x85E1543BF2F84FE80C6BADBCE3648C8539AD1DF4D2B3D822938CA0538BE727E6 PUSH1 0x40 MLOAD PUSH1 0x40 MLOAD DUP1 SWAP2 SUB SWAP1 LOG2 POP POP POP JUMP JUMPDEST PUSH1 0x4 DUP1 SLOAD PUSH2 0x30D SWAP1 PUSH2 0x17A2 JUMP JUMPDEST DUP1 PUSH1 0x1F ADD PUSH1 0x20 DUP1 SWAP2 DIV MUL PUSH1 0x20 ADD PUSH1 0x40 MLOAD SWAP1 DUP2 ADD PUSH1 0x40 MSTORE DUP1 SWAP3 SWAP2 SWAP1 DUP2 DUP2 MSTORE PUSH1 0x20 ADD DUP3 DUP1 SLOAD PUSH2 0x339 SWAP1 PUSH2 0x17A2 JUMP JUMPDEST DUP1 ISZERO PUSH2 0x384 JUMPI DUP1 PUSH1 0x1F LT PUSH2 0x35B JUMPI PUSH2 0x100 DUP1 DUP4 SLOAD DIV MUL DUP4 MSTORE SWAP2 PUSH1 0x20 ADD SWAP2 PUSH2 0x384 JUMP JUMPDEST DUP3 ADD SWAP2 SWAP1 PUSH0 MSTORE PUSH1 0x20 PUSH0 KECCAK256 SWAP1 JUMPDEST DUP2 SLOAD DUP2 MSTORE SWAP1 PUSH1 0x1 ADD SWAP1 PUSH1 0x20 ADD DUP1 DUP4 GT PUSH2 0x367 JUMPI DUP3 SWAP1 SUB PUSH1 0x1F AND DUP3 ADD SWAP2 JUMPDEST POP POP POP POP POP DUP2 JUMP JUMPDEST PUSH1 0x5 DUP1 SLOAD PUSH2 0x399 SWAP1 PUSH2 0x17A2 JUMP JUMPDEST DUP1 PUSH1 0x1F ADD PUSH1 0x20 DUP1 SWAP2 DIV MUL PUSH1 0x20 ADD PUSH1 0x40 MLOAD SWAP1 DUP2 ADD PUSH1 0x40 MSTORE DUP1 SWAP3 SWAP2 SWAP1 DUP2 DUP2 MSTORE PUSH1 0x20 ADD DUP3 DUP1 SLOAD PUSH2 0x3C5 SWAP1 PUSH2 0x17A2 JUMP JUMPDEST DUP1 ISZERO PUSH2 0x410 JUMPI DUP1 PUSH1 0x1F LT PUSH2 0x3E7 JUMPI PUSH2 0x100 DUP1 DUP4 SLOAD DIV MUL DUP4 MSTORE SWAP2 PUSH1 0x20 ADD SWAP2 PUSH2 0x410 JUMP JUMPDEST DUP3 ADD SWAP2 SWAP1 PUSH0 MSTORE PUSH1 0x20 PUSH0 KECCAK256 SWAP1 JUMPDEST DUP2 SLOAD DUP2 MSTORE SWAP1 PUSH1 0x1 ADD SWAP1 PUSH1 0x20 ADD DUP1 DUP4 GT PUSH2 0x3F3 JUMPI DUP3 SWAP1 SUB PUSH1 0x1F AND DUP3 ADD SWAP2 JUMPDEST POP POP POP POP POP DUP2 JUMP JUMPDEST PUSH1 0x1 DUP1 SLOAD PUSH2 0x425 SWAP1 PUSH2 0x17A2 JUMP JUMPDEST DUP1 PUSH1 0x1F ADD PUSH1 0x20 DUP1 SWAP2 DIV MUL PUSH1 0x20 ADD PUSH1 0x40 MLOAD SWAP1 DUP2 ADD PUSH1 0x40 MSTORE DUP1 SWAP3 SWAP2 SWAP1 DUP2 DUP2 MSTORE PUSH1 0x20 ADD DUP3 DUP1 SLOAD PUSH2 0x451 SWAP1 PUSH2 0x17A2 JUMP JUMPDEST DUP1 ISZERO PUSH2 0x49C JUMPI DUP1 PUSH1 0x1F LT PUSH2 0x473 JUMPI PUSH2 0x100 DUP1 DUP4 SLOAD DIV MUL DUP4 MSTORE SWAP2 PUSH1 0x20 ADD SWAP2 PUSH2 0x49C JUMP JUMPDEST DUP3 ADD SWAP2 SWAP1 PUSH0 MSTORE PUSH1 0x20 PUSH0 KECCAK256 SWAP1 JUMPDEST DUP2 SLOAD DUP2 MSTORE SWAP1 PUSH1 0x1 ADD SWAP1 PUSH1 0x20 ADD DUP1 DUP4 GT PUSH2 0x47F JUMPI DUP3 SWAP1 SUB PUSH1 0x1F AND DUP3 ADD SWAP2 JUMPDEST POP POP POP POP POP DUP2 JUMP JUMPDEST PUSH1 0x3 SLOAD DUP2 JUMP JUMPDEST PUSH1 0x2 DUP1 SLOAD PUSH2 0x4B7 SWAP1 PUSH2 0x17A2 JUMP JUMPDEST DUP1 PUSH1 0x1F ADD PUSH1 0x20 DUP1 SWAP2 DIV MUL PUSH1 0x20 ADD PUSH1 0x40 MLOAD SWAP1 DUP2 ADD PUSH1 0x40 MSTORE DUP1 SWAP3 SWAP2 SWAP1 DUP2 DUP2 MSTORE PUSH1 0x20 ADD DUP3 DUP1 SLOAD PUSH2 0x4E3 SWAP1 PUSH2 0x17A2 JUMP JUMPDEST DUP1 ISZERO PUSH2 0x52E JUMPI DUP1 PUSH1 0x1F LT PUSH2 0x505 JUMPI PUSH2 0x100 DUP1 DUP4 SLOAD DIV MUL DUP4 MSTORE SWAP2 PUSH1 0x20 ADD SWAP2 PUSH2 0x52E JUMP JUMPDEST DUP3 ADD SWAP2 SWAP1 PUSH0 MSTORE PUSH1 0x20 PUSH0 KECCAK256 SWAP1 JUMPDEST DUP2 SLOAD DUP2 MSTORE SWAP1 PUSH1 0x1 ADD SWAP1 PUSH1 0x20 ADD DUP1 DUP4 GT PUSH2 0x511 JUMPI DUP3 SWAP1 SUB PUSH1 0x1F AND DUP3 ADD SWAP2 JUMPDEST POP POP POP POP POP DUP2 JUMP JUMPDEST PUSH1 0x40 MLOAD DUP1 PUSH2 0x140 ADD PUSH1 0x40 MSTORE DUP1 PUSH2 0x103 DUP2 MSTORE PUSH1 0x20 ADD PUSH2 0x21D6 PUSH2 0x103 SWAP2 CODECOPY DUP2 JUMP JUMPDEST PUSH0 PUSH2 0x55E PUSH2 0x1277 JUMP JUMPDEST PUSH2 0x58C PUSH1 0x40 MLOAD DUP1 PUSH2 0x140 ADD PUSH1 0x40 MSTORE DUP1 PUSH2 0x103 DUP2 MSTORE PUSH1 0x20 ADD PUSH2 0x21D6 PUSH2 0x103 SWAP2 CODECOPY DUP3 PUSH2 0x736 SWAP1 SWAP2 SWAP1 PUSH4 0xFFFFFFFF AND JUMP JUMPDEST PUSH0 PUSH1 0x1 PUSH8 0xFFFFFFFFFFFFFFFF DUP2 GT ISZERO PUSH2 0x5A8 JUMPI PUSH2 0x5A7 PUSH2 0x13FA JUMP JUMPDEST JUMPDEST PUSH1 0x40 MLOAD SWAP1 DUP1 DUP3 MSTORE DUP1 PUSH1 0x20 MUL PUSH1 0x20 ADD DUP3 ADD PUSH1 0x40 MSTORE DUP1 ISZERO PUSH2 0x5DB JUMPI DUP2 PUSH1 0x20 ADD JUMPDEST PUSH1 0x60 DUP2 MSTORE PUSH1 0x20 ADD SWAP1 PUSH1 0x1 SWAP1 SUB SWAP1 DUP2 PUSH2 0x5C6 JUMPI SWAP1 POP JUMPDEST POP SWAP1 POP DUP5 DUP2 PUSH0 DUP2 MLOAD DUP2 LT PUSH2 0x5F2 JUMPI PUSH2 0x5F1 PUSH2 0x17D2 JUMP JUMPDEST JUMPDEST PUSH1 0x20 MUL PUSH1 0x20 ADD ADD DUP2 SWAP1 MSTORE POP PUSH2 0x610 DUP2 DUP4 PUSH2 0x746 SWAP1 SWAP2 SWAP1 PUSH4 0xFFFFFFFF AND JUMP JUMPDEST PUSH2 0x649 PUSH2 0x61C DUP4 PUSH2 0x78D JUMP JUMPDEST DUP6 PUSH3 0x493E0 PUSH32 0x66756E2D657468657265756D2D7365706F6C69612D3100000000000000000000 PUSH0 SHL PUSH2 0xB98 JUMP JUMPDEST PUSH1 0x3 DUP2 SWAP1 SSTORE POP DUP5 PUSH1 0x1 SWAP1 DUP2 PUSH2 0x65E SWAP2 SWAP1 PUSH2 0x19A8 JUMP JUMPDEST POP PUSH1 0x3 SLOAD SWAP3 POP POP POP SWAP3 SWAP2 POP POP JUMP JUMPDEST DUP3 PUSH1 0x3 SLOAD EQ PUSH2 0x6B2 JUMPI DUP3 PUSH1 0x40 MLOAD PUSH32 0xD068BF5B00000000000000000000000000000000000000000000000000000000 DUP2 MSTORE PUSH1 0x4 ADD PUSH2 0x6A9 SWAP2 SWAP1 PUSH2 0x1627 JUMP JUMPDEST PUSH1 0x40 MLOAD DUP1 SWAP2 SUB SWAP1 REVERT JUMPDEST DUP1 PUSH1 0x5 SWAP1 DUP2 PUSH2 0x6C1 SWAP2 SWAP1 PUSH2 0x1ACF JUMP JUMPDEST POP DUP2 PUSH1 0x4 SWAP1 DUP2 PUSH2 0x6D1 SWAP2 SWAP1 PUSH2 0x1ACF JUMP JUMPDEST POP DUP2 PUSH1 0x2 SWAP1 DUP2 PUSH2 0x6E1 SWAP2 SWAP1 PUSH2 0x19A8 JUMP JUMPDEST POP PUSH1 0x1 PUSH0 SWAP1 DUP2 PUSH2 0x6F1 SWAP2 SWAP1 PUSH2 0x1BC5 JUMP JUMPDEST POP DUP3 PUSH32 0x160ED0AAFFBEF6885155188B91459CB5A97D5DAADCCF7561D8C46DEEA6641B50 PUSH1 0x2 PUSH1 0x4 PUSH1 0x5 PUSH1 0x40 MLOAD PUSH2 0x729 SWAP4 SWAP3 SWAP2 SWAP1 PUSH2 0x1DAC JUMP JUMPDEST PUSH1 0x40 MLOAD DUP1 SWAP2 SUB SWAP1 LOG2 POP POP POP JUMP JUMPDEST PUSH2 0x742 DUP3 PUSH0 PUSH0 DUP5 PUSH2 0xC77 JUMP JUMPDEST POP POP JUMP JUMPDEST PUSH0 DUP2 MLOAD SUB PUSH2 0x780 JUMPI PUSH1 0x40 MLOAD PUSH32 0xFE936CB700000000000000000000000000000000000000000000000000000000 DUP2 MSTORE PUSH1 0x4 ADD PUSH1 0x40 MLOAD DUP1 SWAP2 SUB SWAP1 REVERT JUMPDEST DUP1 DUP3 PUSH1 0xA0 ADD DUP2 SWAP1 MSTORE POP POP POP JUMP JUMPDEST PUSH1 0x60 PUSH0 PUSH2 0x79B PUSH2 0x100 PUSH2 0xD1D JUMP JUMPDEST SWAP1 POP PUSH2 0x7E5 PUSH1 0x40 MLOAD DUP1 PUSH1 0x40 ADD PUSH1 0x40 MSTORE DUP1 PUSH1 0xC DUP2 MSTORE PUSH1 0x20 ADD PUSH32 0x636F64654C6F636174696F6E0000000000000000000000000000000000000000 DUP2 MSTORE POP DUP3 PUSH2 0xD42 SWAP1 SWAP2 SWAP1 PUSH4 0xFFFFFFFF AND JUMP JUMPDEST PUSH2 0x80D DUP4 PUSH0 ADD MLOAD PUSH1 0x2 DUP2 GT ISZERO PUSH2 0x7FE JUMPI PUSH2 0x7FD PUSH2 0x1DF6 JUMP JUMPDEST JUMPDEST DUP3 PUSH2 0xD6A SWAP1 SWAP2 SWAP1 PUSH4 0xFFFFFFFF AND JUMP JUMPDEST PUSH2 0x855 PUSH1 0x40 MLOAD DUP1 PUSH1 0x40 ADD PUSH1 0x40 MSTORE DUP1 PUSH1 0x8 DUP2 MSTORE PUSH1 0x20 ADD PUSH32 0x6C616E6775616765000000000000000000000000000000000000000000000000 DUP2 MSTORE POP DUP3 PUSH2 0xD42 SWAP1 SWAP2 SWAP1 PUSH4 0xFFFFFFFF AND JUMP JUMPDEST PUSH2 0x87D DUP4 PUSH1 0x40 ADD MLOAD PUSH0 DUP2 GT ISZERO PUSH2 0x86E JUMPI PUSH2 0x86D PUSH2 0x1DF6 JUMP JUMPDEST JUMPDEST DUP3 PUSH2 0xD6A SWAP1 SWAP2 SWAP1 PUSH4 0xFFFFFFFF AND JUMP JUMPDEST PUSH2 0x8C5 PUSH1 0x40 MLOAD DUP1 PUSH1 0x40 ADD PUSH1 0x40 MSTORE DUP1 PUSH1 0x6 DUP2 MSTORE PUSH1 0x20 ADD PUSH32 0x736F757263650000000000000000000000000000000000000000000000000000 DUP2 MSTORE POP DUP3 PUSH2 0xD42 SWAP1 SWAP2 SWAP1 PUSH4 0xFFFFFFFF AND JUMP JUMPDEST PUSH2 0x8DC DUP4 PUSH1 0x60 ADD MLOAD DUP3 PUSH2 0xD42 SWAP1 SWAP2 SWAP1 PUSH4 0xFFFFFFFF AND JUMP JUMPDEST PUSH0 DUP4 PUSH1 0xA0 ADD MLOAD MLOAD GT ISZERO PUSH2 0x993 JUMPI PUSH2 0x931 PUSH1 0x40 MLOAD DUP1 PUSH1 0x40 ADD PUSH1 0x40 MSTORE DUP1 PUSH1 0x4 DUP2 MSTORE PUSH1 0x20 ADD PUSH32 0x6172677300000000000000000000000000000000000000000000000000000000 DUP2 MSTORE POP DUP3 PUSH2 0xD42 SWAP1 SWAP2 SWAP1 PUSH4 0xFFFFFFFF AND JUMP JUMPDEST PUSH2 0x93A DUP2 PUSH2 0xDB9 JUMP JUMPDEST PUSH0 PUSH0 SWAP1 POP JUMPDEST DUP4 PUSH1 0xA0 ADD MLOAD MLOAD DUP2 LT ISZERO PUSH2 0x988 JUMPI PUSH2 0x97D DUP5 PUSH1 0xA0 ADD MLOAD DUP3 DUP2 MLOAD DUP2 LT PUSH2 0x966 JUMPI PUSH2 0x965 PUSH2 0x17D2 JUMP JUMPDEST JUMPDEST PUSH1 0x20 MUL PUSH1 0x20 ADD ADD MLOAD DUP4 PUSH2 0xD42 SWAP1 SWAP2 SWAP1 PUSH4 0xFFFFFFFF AND JUMP JUMPDEST DUP1 PUSH1 0x1 ADD SWAP1 POP PUSH2 0x93F JUMP JUMPDEST POP PUSH2 0x992 DUP2 PUSH2 0xDE1 JUMP JUMPDEST JUMPDEST PUSH0 DUP4 PUSH1 0x80 ADD MLOAD MLOAD GT ISZERO PUSH2 0xAD2 JUMPI PUSH0 PUSH1 0x2 DUP2 GT ISZERO PUSH2 0x9B3 JUMPI PUSH2 0x9B2 PUSH2 0x1DF6 JUMP JUMPDEST JUMPDEST DUP4 PUSH1 0x20 ADD MLOAD PUSH1 0x2 DUP2 GT ISZERO PUSH2 0x9CA JUMPI PUSH2 0x9C9 PUSH2 0x1DF6 JUMP JUMPDEST JUMPDEST SUB PUSH2 0xA01 JUMPI PUSH1 0x40 MLOAD PUSH32 0xA80D31F700000000000000000000000000000000000000000000000000000000 DUP2 MSTORE PUSH1 0x4 ADD PUSH1 0x40 MLOAD DUP1 SWAP2 SUB SWAP1 REVERT JUMPDEST PUSH2 0xA49 PUSH1 0x40 MLOAD DUP1 PUSH1 0x40 ADD PUSH1 0x40 MSTORE DUP1 PUSH1 0xF DUP2 MSTORE PUSH1 0x20 ADD PUSH32 0x736563726574734C6F636174696F6E0000000000000000000000000000000000 DUP2 MSTORE POP DUP3 PUSH2 0xD42 SWAP1 SWAP2 SWAP1 PUSH4 0xFFFFFFFF AND JUMP JUMPDEST PUSH2 0xA72 DUP4 PUSH1 0x20 ADD MLOAD PUSH1 0x2 DUP2 GT ISZERO PUSH2 0xA63 JUMPI PUSH2 0xA62 PUSH2 0x1DF6 JUMP JUMPDEST JUMPDEST DUP3 PUSH2 0xD6A SWAP1 SWAP2 SWAP1 PUSH4 0xFFFFFFFF AND JUMP JUMPDEST PUSH2 0xABA PUSH1 0x40 MLOAD DUP1 PUSH1 0x40 ADD PUSH1 0x40 MSTORE DUP1 PUSH1 0x7 DUP2 MSTORE PUSH1 0x20 ADD PUSH32 0x7365637265747300000000000000000000000000000000000000000000000000 DUP2 MSTORE POP DUP3 PUSH2 0xD42 SWAP1 SWAP2 SWAP1 PUSH4 0xFFFFFFFF AND JUMP JUMPDEST PUSH2 0xAD1 DUP4 PUSH1 0x80 ADD MLOAD DUP3 PUSH2 0xE09 SWAP1 SWAP2 SWAP1 PUSH4 0xFFFFFFFF AND JUMP JUMPDEST JUMPDEST PUSH0 DUP4 PUSH1 0xC0 ADD MLOAD MLOAD GT ISZERO PUSH2 0xB89 JUMPI PUSH2 0xB27 PUSH1 0x40 MLOAD DUP1 PUSH1 0x40 ADD PUSH1 0x40 MSTORE DUP1 PUSH1 0x9 DUP2 MSTORE PUSH1 0x20 ADD PUSH32 0x6279746573417267730000000000000000000000000000000000000000000000 DUP2 MSTORE POP DUP3 PUSH2 0xD42 SWAP1 SWAP2 SWAP1 PUSH4 0xFFFFFFFF AND JUMP JUMPDEST PUSH2 0xB30 DUP2 PUSH2 0xDB9 JUMP JUMPDEST PUSH0 PUSH0 SWAP1 POP JUMPDEST DUP4 PUSH1 0xC0 ADD MLOAD MLOAD DUP2 LT ISZERO PUSH2 0xB7E JUMPI PUSH2 0xB73 DUP5 PUSH1 0xC0 ADD MLOAD DUP3 DUP2 MLOAD DUP2 LT PUSH2 0xB5C JUMPI PUSH2 0xB5B PUSH2 0x17D2 JUMP JUMPDEST JUMPDEST PUSH1 0x20 MUL PUSH1 0x20 ADD ADD MLOAD DUP4 PUSH2 0xE09 SWAP1 SWAP2 SWAP1 PUSH4 0xFFFFFFFF AND JUMP JUMPDEST DUP1 PUSH1 0x1 ADD SWAP1 POP PUSH2 0xB35 JUMP JUMPDEST POP PUSH2 0xB88 DUP2 PUSH2 0xDE1 JUMP JUMPDEST JUMPDEST DUP1 PUSH0 ADD MLOAD PUSH0 ADD MLOAD SWAP2 POP POP SWAP2 SWAP1 POP JUMP JUMPDEST PUSH0 PUSH0 PUSH32 0x0 PUSH20 0xFFFFFFFFFFFFFFFFFFFFFFFFFFFFFFFFFFFFFFFF AND PUSH4 0x461D2762 DUP7 DUP9 PUSH1 0x1 DUP9 DUP9 PUSH1 0x40 MLOAD DUP7 PUSH4 0xFFFFFFFF AND PUSH1 0xE0 SHL DUP2 MSTORE PUSH1 0x4 ADD PUSH2 0xBFC SWAP6 SWAP5 SWAP4 SWAP3 SWAP2 SWAP1 PUSH2 0x1E6C JUMP JUMPDEST PUSH1 0x20 PUSH1 0x40 MLOAD DUP1 DUP4 SUB DUP2 PUSH0 DUP8 GAS CALL ISZERO DUP1 ISZERO PUSH2 0xC18 JUMPI RETURNDATASIZE PUSH0 PUSH0 RETURNDATACOPY RETURNDATASIZE PUSH0 REVERT JUMPDEST POP POP POP POP PUSH1 0x40 MLOAD RETURNDATASIZE PUSH1 0x1F NOT PUSH1 0x1F DUP3 ADD AND DUP3 ADD DUP1 PUSH1 0x40 MSTORE POP DUP2 ADD SWAP1 PUSH2 0xC3C SWAP2 SWAP1 PUSH2 0x1ED8 JUMP JUMPDEST SWAP1 POP DUP1 PUSH32 0x1131472297A800FEE664D1D89CFA8F7676FF07189ECC53F80BBB5F4969099DB8 PUSH1 0x40 MLOAD PUSH1 0x40 MLOAD DUP1 SWAP2 SUB SWAP1 LOG2 DUP1 SWAP2 POP POP SWAP5 SWAP4 POP POP POP POP JUMP JUMPDEST PUSH0 DUP2 MLOAD SUB PUSH2 0xCB1 JUMPI PUSH1 0x40 MLOAD PUSH32 0x22CE3EDD00000000000000000000000000000000000000000000000000000000 DUP2 MSTORE PUSH1 0x4 ADD PUSH1 0x40 MLOAD DUP1 SWAP2 SUB SWAP1 REVERT JUMPDEST DUP3 DUP5 PUSH0 ADD SWAP1 PUSH1 0x2 DUP2 GT ISZERO PUSH2 0xCC8 JUMPI PUSH2 0xCC7 PUSH2 0x1DF6 JUMP JUMPDEST JUMPDEST SWAP1 DUP2 PUSH1 0x2 DUP2 GT ISZERO PUSH2 0xCDC JUMPI PUSH2 0xCDB PUSH2 0x1DF6 JUMP JUMPDEST JUMPDEST DUP2 MSTORE POP POP DUP2 DUP5 PUSH1 0x40 ADD SWAP1 PUSH0 DUP2 GT ISZERO PUSH2 0xCF7 JUMPI PUSH2 0xCF6 PUSH2 0x1DF6 JUMP JUMPDEST JUMPDEST SWAP1 DUP2 PUSH0 DUP2 GT ISZERO PUSH2 0xD0A JUMPI PUSH2 0xD09 PUSH2 0x1DF6 JUMP JUMPDEST JUMPDEST DUP2 MSTORE POP POP DUP1 DUP5 PUSH1 0x60 ADD DUP2 SWAP1 MSTORE POP POP POP POP POP JUMP JUMPDEST PUSH2 0xD25 PUSH2 0x12E6 JUMP JUMPDEST PUSH2 0xD32 DUP2 PUSH0 ADD MLOAD DUP4 PUSH2 0xE31 JUMP JUMPDEST POP PUSH0 DUP2 PUSH1 0x20 ADD DUP2 DUP2 MSTORE POP POP SWAP2 SWAP1 POP JUMP JUMPDEST PUSH2 0xD4F DUP3 PUSH1 0x3 DUP4 MLOAD PUSH2 0xEA7 JUMP JUMPDEST PUSH2 0xD65 DUP2 DUP4 PUSH0 ADD MLOAD PUSH2 0x1047 SWAP1 SWAP2 SWAP1 PUSH4 0xFFFFFFFF AND JUMP JUMPDEST POP POP POP JUMP JUMPDEST PUSH2 0xD8B PUSH1 0x2 PUSH1 0x5 PUSH1 0x6 PUSH1 0xFF AND SWAP1 SHL OR DUP4 PUSH0 ADD MLOAD PUSH2 0x1063 SWAP1 SWAP2 SWAP1 PUSH4 0xFFFFFFFF AND JUMP JUMPDEST POP PUSH2 0xDB5 DUP3 DUP3 PUSH1 0x40 MLOAD PUSH1 0x20 ADD PUSH2 0xDA1 SWAP2 SWAP1 PUSH2 0x1F12 JUMP JUMPDEST PUSH1 0x40 MLOAD PUSH1 0x20 DUP2 DUP4 SUB SUB DUP2 MSTORE SWAP1 PUSH1 0x40 MSTORE PUSH2 0xE09 JUMP JUMPDEST POP POP JUMP JUMPDEST PUSH2 0xDC4 DUP2 PUSH1 0x4 PUSH2 0x10CA JUMP JUMPDEST PUSH1 0x1 DUP2 PUSH1 0x20 ADD DUP2 DUP2 MLOAD PUSH2 0xDD7 SWAP2 SWAP1 PUSH2 0x1F58 JUMP JUMPDEST SWAP2 POP DUP2 DUP2 MSTORE POP POP POP JUMP JUMPDEST PUSH2 0xDEC DUP2 PUSH1 0x7 PUSH2 0x10CA JUMP JUMPDEST PUSH1 0x1 DUP2 PUSH1 0x20 ADD DUP2 DUP2 MLOAD PUSH2 0xDFF SWAP2 SWAP1 PUSH2 0x1F8B JUMP JUMPDEST SWAP2 POP DUP2 DUP2 MSTORE POP POP POP JUMP JUMPDEST PUSH2 0xE16 DUP3 PUSH1 0x2 DUP4 MLOAD PUSH2 0xEA7 JUMP JUMPDEST PUSH2 0xE2C DUP2 DUP4 PUSH0 ADD MLOAD PUSH2 0x1047 SWAP1 SWAP2 SWAP1 PUSH4 0xFFFFFFFF AND JUMP JUMPDEST POP POP POP JUMP JUMPDEST PUSH2 0xE39 PUSH2 0x1305 JUMP JUMPDEST PUSH0 PUSH1 0x20 DUP4 PUSH2 0xE47 SWAP2 SWAP1 PUSH2 0x1FEB JUMP JUMPDEST EQ PUSH2 0xE73 JUMPI PUSH1 0x20 DUP3 PUSH2 0xE59 SWAP2 SWAP1 PUSH2 0x1FEB JUMP JUMPDEST PUSH1 0x20 PUSH2 0xE65 SWAP2 SWAP1 PUSH2 0x1F8B JUMP JUMPDEST DUP3 PUSH2 0xE70 SWAP2 SWAP1 PUSH2 0x1F58 JUMP JUMPDEST SWAP2 POP JUMPDEST DUP2 DUP4 PUSH1 0x20 ADD DUP2 DUP2 MSTORE POP POP PUSH1 0x40 MLOAD DUP1 DUP5 MSTORE PUSH0 DUP2 MSTORE DUP3 DUP2 ADD PUSH1 0x20 ADD DUP2 DUP2 LT ISZERO PUSH2 0xE98 JUMPI PUSH0 PUSH0 REVERT JUMPDEST DUP1 PUSH1 0x40 MSTORE POP POP DUP3 SWAP1 POP SWAP3 SWAP2 POP POP JUMP JUMPDEST PUSH1 0x17 DUP2 PUSH8 0xFFFFFFFFFFFFFFFF AND GT PUSH2 0xEE1 JUMPI PUSH2 0xEDB DUP2 PUSH1 0x5 DUP5 PUSH1 0xFF AND SWAP1 SHL PUSH1 0xFF AND OR DUP5 PUSH0 ADD MLOAD PUSH2 0x1063 SWAP1 SWAP2 SWAP1 PUSH4 0xFFFFFFFF AND JUMP JUMPDEST POP PUSH2 0x1042 JUMP JUMPDEST PUSH1 0xFF DUP2 PUSH8 0xFFFFFFFFFFFFFFFF AND GT PUSH2 0xF3D JUMPI PUSH2 0xF13 PUSH1 0x18 PUSH1 0x5 DUP5 PUSH1 0xFF AND SWAP1 SHL OR DUP5 PUSH0 ADD MLOAD PUSH2 0x1063 SWAP1 SWAP2 SWAP1 PUSH4 0xFFFFFFFF AND JUMP JUMPDEST POP PUSH2 0xF37 DUP2 PUSH8 0xFFFFFFFFFFFFFFFF AND PUSH1 0x1 DUP6 PUSH0 ADD MLOAD PUSH2 0x10EF SWAP1 SWAP3 SWAP2 SWAP1 PUSH4 0xFFFFFFFF AND JUMP JUMPDEST POP PUSH2 0x1041 JUMP JUMPDEST PUSH2 0xFFFF DUP2 PUSH8 0xFFFFFFFFFFFFFFFF AND GT PUSH2 0xF9A JUMPI PUSH2 0xF70 PUSH1 0x19 PUSH1 0x5 DUP5 PUSH1 0xFF AND SWAP1 SHL OR DUP5 PUSH0 ADD MLOAD PUSH2 0x1063 SWAP1 SWAP2 SWAP1 PUSH4 0xFFFFFFFF AND JUMP JUMPDEST POP PUSH2 0xF94 DUP2 PUSH8 0xFFFFFFFFFFFFFFFF AND PUSH1 0x2 DUP6 PUSH0 ADD MLOAD PUSH2 0x10EF SWAP1 SWAP3 SWAP2 SWAP1 PUSH4 0xFFFFFFFF AND JUMP JUMPDEST POP PUSH2 0x1040 JUMP JUMPDEST PUSH4 0xFFFFFFFF DUP2 PUSH8 0xFFFFFFFFFFFFFFFF AND GT PUSH2 0xFF9 JUMPI PUSH2 0xFCF PUSH1 0x1A PUSH1 0x5 DUP5 PUSH1 0xFF AND SWAP1 SHL OR DUP5 PUSH0 ADD MLOAD PUSH2 0x1063 SWAP1 SWAP2 SWAP1 PUSH4 0xFFFFFFFF AND JUMP JUMPDEST POP PUSH2 0xFF3 DUP2 PUSH8 0xFFFFFFFFFFFFFFFF AND PUSH1 0x4 DUP6 PUSH0 ADD MLOAD PUSH2 0x10EF SWAP1 SWAP3 SWAP2 SWAP1 PUSH4 0xFFFFFFFF AND JUMP JUMPDEST POP PUSH2 0x103F JUMP JUMPDEST PUSH2 0x1019 PUSH1 0x1B PUSH1 0x5 DUP5 PUSH1 0xFF AND SWAP1 SHL OR DUP5 PUSH0 ADD MLOAD PUSH2 0x1063 SWAP1 SWAP2 SWAP1 PUSH4 0xFFFFFFFF AND JUMP JUMPDEST POP PUSH2 0x103D DUP2 PUSH8 0xFFFFFFFFFFFFFFFF AND PUSH1 0x8 DUP6 PUSH0 ADD MLOAD PUSH2 0x10EF SWAP1 SWAP3 SWAP2 SWAP1 PUSH4 0xFFFFFFFF AND JUMP JUMPDEST POP JUMPDEST JUMPDEST JUMPDEST JUMPDEST POP POP POP JUMP JUMPDEST PUSH2 0x104F PUSH2 0x1305 JUMP JUMPDEST PUSH2 0x105B DUP4 DUP4 DUP5 MLOAD PUSH2 0x1178 JUMP JUMPDEST SWAP1 POP SWAP3 SWAP2 POP POP JUMP JUMPDEST PUSH2 0x106B PUSH2 0x1305 JUMP JUMPDEST PUSH0 DUP4 PUSH0 ADD MLOAD MLOAD SWAP1 POP PUSH0 PUSH1 0x1 DUP3 PUSH2 0x1081 SWAP2 SWAP1 PUSH2 0x1F58 JUMP JUMPDEST SWAP1 POP DUP5 PUSH1 0x20 ADD MLOAD DUP3 LT PUSH2 0x10A5 JUMPI PUSH2 0x10A4 DUP6 PUSH1 0x2 DUP4 PUSH2 0x109F SWAP2 SWAP1 PUSH2 0x201B JUMP JUMPDEST PUSH2 0x1255 JUMP JUMPDEST JUMPDEST DUP5 MLOAD PUSH1 0x20 DUP4 DUP3 ADD ADD DUP6 DUP2 MSTORE8 DUP2 MLOAD DUP4 GT ISZERO PUSH2 0x10BD JUMPI DUP3 DUP3 MSTORE JUMPDEST POP POP DUP5 SWAP3 POP POP POP SWAP3 SWAP2 POP POP JUMP JUMPDEST PUSH2 0x10EA PUSH1 0x1F PUSH1 0x5 DUP4 PUSH1 0xFF AND SWAP1 SHL OR DUP4 PUSH0 ADD MLOAD PUSH2 0x1063 SWAP1 SWAP2 SWAP1 PUSH4 0xFFFFFFFF AND JUMP JUMPDEST POP POP POP JUMP JUMPDEST PUSH2 0x10F7 PUSH2 0x1305 JUMP JUMPDEST PUSH0 DUP5 PUSH0 ADD MLOAD MLOAD SWAP1 POP PUSH0 DUP2 DUP5 PUSH2 0x110C SWAP2 SWAP1 PUSH2 0x1F58 JUMP JUMPDEST SWAP1 POP DUP6 PUSH1 0x20 ADD MLOAD DUP2 GT ISZERO PUSH2 0x1131 JUMPI PUSH2 0x1130 DUP7 PUSH1 0x2 DUP4 PUSH2 0x112B SWAP2 SWAP1 PUSH2 0x201B JUMP JUMPDEST PUSH2 0x1255 JUMP JUMPDEST JUMPDEST PUSH0 PUSH1 0x1 DUP6 PUSH2 0x100 PUSH2 0x1142 SWAP2 SWAP1 PUSH2 0x218B JUMP JUMPDEST PUSH2 0x114C SWAP2 SWAP1 PUSH2 0x1F8B JUMP JUMPDEST SWAP1 POP DUP7 MLOAD DUP3 DUP2 ADD DUP8 DUP4 NOT DUP3 MLOAD AND OR DUP2 MSTORE DUP2 MLOAD DUP5 GT ISZERO PUSH2 0x1169 JUMPI DUP4 DUP3 MSTORE JUMPDEST POP POP DUP7 SWAP4 POP POP POP POP SWAP4 SWAP3 POP POP POP JUMP JUMPDEST PUSH2 0x1180 PUSH2 0x1305 JUMP JUMPDEST DUP3 MLOAD DUP3 GT ISZERO PUSH2 0x118D JUMPI PUSH0 PUSH0 REVERT JUMPDEST PUSH0 DUP5 PUSH0 ADD MLOAD MLOAD SWAP1 POP PUSH0 DUP4 DUP3 PUSH2 0x11A2 SWAP2 SWAP1 PUSH2 0x1F58 JUMP JUMPDEST SWAP1 POP DUP6 PUSH1 0x20 ADD MLOAD DUP2 GT ISZERO PUSH2 0x11C7 JUMPI PUSH2 0x11C6 DUP7 PUSH1 0x2 DUP4 PUSH2 0x11C1 SWAP2 SWAP1 PUSH2 0x201B JUMP JUMPDEST PUSH2 0x1255 JUMP JUMPDEST JUMPDEST PUSH0 PUSH0 DUP8 MLOAD DUP1 MLOAD DUP6 PUSH1 0x20 DUP4 ADD ADD SWAP4 POP DUP1 DUP6 GT ISZERO PUSH2 0x11E1 JUMPI DUP5 DUP3 MSTORE JUMPDEST PUSH1 0x20 DUP10 ADD SWAP3 POP POP POP JUMPDEST PUSH1 0x20 DUP7 LT PUSH2 0x1228 JUMPI DUP1 MLOAD DUP3 MSTORE PUSH1 0x20 DUP3 PUSH2 0x1203 SWAP2 SWAP1 PUSH2 0x1F58 JUMP JUMPDEST SWAP2 POP PUSH1 0x20 DUP2 PUSH2 0x1212 SWAP2 SWAP1 PUSH2 0x1F58 JUMP JUMPDEST SWAP1 POP PUSH1 0x20 DUP7 PUSH2 0x1221 SWAP2 SWAP1 PUSH2 0x1F8B JUMP JUMPDEST SWAP6 POP PUSH2 0x11EA JUMP JUMPDEST PUSH0 PUSH1 0x1 DUP8 PUSH1 0x20 SUB PUSH2 0x100 EXP SUB SWAP1 POP DUP1 NOT DUP3 MLOAD AND DUP2 DUP5 MLOAD AND DUP2 DUP2 OR DUP6 MSTORE POP POP POP DUP8 SWAP5 POP POP POP POP POP SWAP4 SWAP3 POP POP POP JUMP JUMPDEST PUSH0 DUP3 PUSH0 ADD MLOAD SWAP1 POP PUSH2 0x1266 DUP4 DUP4 PUSH2 0xE31 JUMP JUMPDEST POP PUSH2 0x1271 DUP4 DUP3 PUSH2 0x1047 JUMP JUMPDEST POP POP POP POP JUMP JUMPDEST PUSH1 0x40 MLOAD DUP1 PUSH1 0xE0 ADD PUSH1 0x40 MSTORE DUP1 PUSH0 PUSH1 0x2 DUP2 GT ISZERO PUSH2 0x1295 JUMPI PUSH2 0x1294 PUSH2 0x1DF6 JUMP JUMPDEST JUMPDEST DUP2 MSTORE PUSH1 0x20 ADD PUSH0 PUSH1 0x2 DUP2 GT ISZERO PUSH2 0x12AD JUMPI PUSH2 0x12AC PUSH2 0x1DF6 JUMP JUMPDEST JUMPDEST DUP2 MSTORE PUSH1 0x20 ADD PUSH0 PUSH0 DUP2 GT ISZERO PUSH2 0x12C4 JUMPI PUSH2 0x12C3 PUSH2 0x1DF6 JUMP JUMPDEST JUMPDEST DUP2 MSTORE PUSH1 0x20 ADD PUSH1 0x60 DUP2 MSTORE PUSH1 0x20 ADD PUSH1 0x60 DUP2 MSTORE PUSH1 0x20 ADD PUSH1 0x60 DUP2 MSTORE PUSH1 0x20 ADD PUSH1 0x60 DUP2 MSTORE POP SWAP1 JUMP JUMPDEST PUSH1 0x40 MLOAD DUP1 PUSH1 0x40 ADD PUSH1 0x40 MSTORE DUP1 PUSH2 0x12F9 PUSH2 0x1305 JUMP JUMPDEST DUP2 MSTORE PUSH1 0x20 ADD PUSH0 DUP2 MSTORE POP SWAP1 JUMP JUMPDEST PUSH1 0x40 MLOAD DUP1 PUSH1 0x40 ADD PUSH1 0x40 MSTORE DUP1 PUSH1 0x60 DUP2 MSTORE PUSH1 0x20 ADD PUSH0 DUP2 MSTORE POP SWAP1 JUMP JUMPDEST PUSH0 DUP2 MLOAD SWAP1 POP SWAP2 SWAP1 POP JUMP JUMPDEST PUSH0 DUP3 DUP3 MSTORE PUSH1 0x20 DUP3 ADD SWAP1 POP SWAP3 SWAP2 POP POP JUMP JUMPDEST DUP3 DUP2 DUP4 MCOPY PUSH0 DUP4 DUP4 ADD MSTORE POP POP POP JUMP JUMPDEST PUSH0 PUSH1 0x1F NOT PUSH1 0x1F DUP4 ADD AND SWAP1 POP SWAP2 SWAP1 POP JUMP JUMPDEST PUSH0 PUSH2 0x1360 DUP3 PUSH2 0x131E JUMP JUMPDEST PUSH2 0x136A DUP2 DUP6 PUSH2 0x1328 JUMP JUMPDEST SWAP4 POP PUSH2 0x137A DUP2 DUP6 PUSH1 0x20 DUP7 ADD PUSH2 0x1338 JUMP JUMPDEST PUSH2 0x1383 DUP2 PUSH2 0x1346 JUMP JUMPDEST DUP5 ADD SWAP2 POP POP SWAP3 SWAP2 POP POP JUMP JUMPDEST PUSH0 PUSH1 0x20 DUP3 ADD SWAP1 POP DUP2 DUP2 SUB PUSH0 DUP4 ADD MSTORE PUSH2 0x13A6 DUP2 DUP5 PUSH2 0x1356 JUMP JUMPDEST SWAP1 POP SWAP3 SWAP2 POP POP JUMP JUMPDEST PUSH0 PUSH1 0x40 MLOAD SWAP1 POP SWAP1 JUMP JUMPDEST PUSH0 PUSH0 REVERT JUMPDEST PUSH0 PUSH0 REVERT JUMPDEST PUSH0 DUP2 SWAP1 POP SWAP2 SWAP1 POP JUMP JUMPDEST PUSH2 0x13D1 DUP2 PUSH2 0x13BF JUMP JUMPDEST DUP2 EQ PUSH2 0x13DB JUMPI PUSH0 PUSH0 REVERT JUMPDEST POP JUMP JUMPDEST PUSH0 DUP2 CALLDATALOAD SWAP1 POP PUSH2 0x13EC DUP2 PUSH2 0x13C8 JUMP JUMPDEST SWAP3 SWAP2 POP POP JUMP JUMPDEST PUSH0 PUSH0 REVERT JUMPDEST PUSH0 PUSH0 REVERT JUMPDEST PUSH32 0x4E487B7100000000000000000000000000000000000000000000000000000000 PUSH0 MSTORE PUSH1 0x41 PUSH1 0x4 MSTORE PUSH1 0x24 PUSH0 REVERT JUMPDEST PUSH2 0x1430 DUP3 PUSH2 0x1346 JUMP JUMPDEST DUP2 ADD DUP2 DUP2 LT PUSH8 0xFFFFFFFFFFFFFFFF DUP3 GT OR ISZERO PUSH2 0x144F JUMPI PUSH2 0x144E PUSH2 0x13FA JUMP JUMPDEST JUMPDEST DUP1 PUSH1 0x40 MSTORE POP POP POP JUMP JUMPDEST PUSH0 PUSH2 0x1461 PUSH2 0x13AE JUMP JUMPDEST SWAP1 POP PUSH2 0x146D DUP3 DUP3 PUSH2 0x1427 JUMP JUMPDEST SWAP2 SWAP1 POP JUMP JUMPDEST PUSH0 PUSH8 0xFFFFFFFFFFFFFFFF DUP3 GT ISZERO PUSH2 0x148C JUMPI PUSH2 0x148B PUSH2 0x13FA JUMP JUMPDEST JUMPDEST PUSH2 0x1495 DUP3 PUSH2 0x1346 JUMP JUMPDEST SWAP1 POP PUSH1 0x20 DUP2 ADD SWAP1 POP SWAP2 SWAP1 POP JUMP JUMPDEST DUP3 DUP2 DUP4 CALLDATACOPY PUSH0 DUP4 DUP4 ADD MSTORE POP POP POP JUMP JUMPDEST PUSH0 PUSH2 0x14C2 PUSH2 0x14BD DUP5 PUSH2 0x1472 JUMP JUMPDEST PUSH2 0x1458 JUMP JUMPDEST SWAP1 POP DUP3 DUP2 MSTORE PUSH1 0x20 DUP2 ADD DUP5 DUP5 DUP5 ADD GT ISZERO PUSH2 0x14DE JUMPI PUSH2 0x14DD PUSH2 0x13F6 JUMP JUMPDEST JUMPDEST PUSH2 0x14E9 DUP5 DUP3 DUP6 PUSH2 0x14A2 JUMP JUMPDEST POP SWAP4 SWAP3 POP POP POP JUMP JUMPDEST PUSH0 DUP3 PUSH1 0x1F DUP4 ADD SLT PUSH2 0x1505 JUMPI PUSH2 0x1504 PUSH2 0x13F2 JUMP JUMPDEST JUMPDEST DUP2 CALLDATALOAD PUSH2 0x1515 DUP5 DUP3 PUSH1 0x20 DUP7 ADD PUSH2 0x14B0 JUMP JUMPDEST SWAP2 POP POP SWAP3 SWAP2 POP POP JUMP JUMPDEST PUSH0 PUSH0 PUSH0 PUSH1 0x60 DUP5 DUP7 SUB SLT ISZERO PUSH2 0x1535 JUMPI PUSH2 0x1534 PUSH2 0x13B7 JUMP JUMPDEST JUMPDEST PUSH0 PUSH2 0x1542 DUP7 DUP3 DUP8 ADD PUSH2 0x13DE JUMP JUMPDEST SWAP4 POP POP PUSH1 0x20 DUP5 ADD CALLDATALOAD PUSH8 0xFFFFFFFFFFFFFFFF DUP2 GT ISZERO PUSH2 0x1563 JUMPI PUSH2 0x1562 PUSH2 0x13BB JUMP JUMPDEST JUMPDEST PUSH2 0x156F DUP7 DUP3 DUP8 ADD PUSH2 0x14F1 JUMP JUMPDEST SWAP3 POP POP PUSH1 0x40 DUP5 ADD CALLDATALOAD PUSH8 0xFFFFFFFFFFFFFFFF DUP2 GT ISZERO PUSH2 0x1590 JUMPI PUSH2 0x158F PUSH2 0x13BB JUMP JUMPDEST JUMPDEST PUSH2 0x159C DUP7 DUP3 DUP8 ADD PUSH2 0x14F1 JUMP JUMPDEST SWAP2 POP POP SWAP3 POP SWAP3 POP SWAP3 JUMP JUMPDEST PUSH0 DUP2 MLOAD SWAP1 POP SWAP2 SWAP1 POP JUMP JUMPDEST PUSH0 DUP3 DUP3 MSTORE PUSH1 0x20 DUP3 ADD SWAP1 POP SWAP3 SWAP2 POP POP JUMP JUMPDEST PUSH0 PUSH2 0x15CA DUP3 PUSH2 0x15A6 JUMP JUMPDEST PUSH2 0x15D4 DUP2 DUP6 PUSH2 0x15B0 JUMP JUMPDEST SWAP4 POP PUSH2 0x15E4 DUP2 DUP6 PUSH1 0x20 DUP7 ADD PUSH2 0x1338 JUMP JUMPDEST PUSH2 0x15ED DUP2 PUSH2 0x1346 JUMP JUMPDEST DUP5 ADD SWAP2 POP POP SWAP3 SWAP2 POP POP JUMP JUMPDEST PUSH0 PUSH1 0x20 DUP3 ADD SWAP1 POP DUP2 DUP2 SUB PUSH0 DUP4 ADD MSTORE PUSH2 0x1610 DUP2 DUP5 PUSH2 0x15C0 JUMP JUMPDEST SWAP1 POP SWAP3 SWAP2 POP POP JUMP JUMPDEST PUSH2 0x1621 DUP2 PUSH2 0x13BF JUMP JUMPDEST DUP3 MSTORE POP POP JUMP JUMPDEST PUSH0 PUSH1 0x20 DUP3 ADD SWAP1 POP PUSH2 0x163A PUSH0 DUP4 ADD DUP5 PUSH2 0x1618 JUMP JUMPDEST SWAP3 SWAP2 POP POP JUMP JUMPDEST PUSH0 PUSH8 0xFFFFFFFFFFFFFFFF DUP3 GT ISZERO PUSH2 0x165A JUMPI PUSH2 0x1659 PUSH2 0x13FA JUMP JUMPDEST JUMPDEST PUSH2 0x1663 DUP3 PUSH2 0x1346 JUMP JUMPDEST SWAP1 POP PUSH1 0x20 DUP2 ADD SWAP1 POP SWAP2 SWAP1 POP JUMP JUMPDEST PUSH0 PUSH2 0x1682 PUSH2 0x167D DUP5 PUSH2 0x1640 JUMP JUMPDEST PUSH2 0x1458 JUMP JUMPDEST SWAP1 POP DUP3 DUP2 MSTORE PUSH1 0x20 DUP2 ADD DUP5 DUP5 DUP5 ADD GT ISZERO PUSH2 0x169E JUMPI PUSH2 0x169D PUSH2 0x13F6 JUMP JUMPDEST JUMPDEST PUSH2 0x16A9 DUP5 DUP3 DUP6 PUSH2 0x14A2 JUMP JUMPDEST POP SWAP4 SWAP3 POP POP POP JUMP JUMPDEST PUSH0 DUP3 PUSH1 0x1F DUP4 ADD SLT PUSH2 0x16C5 JUMPI PUSH2 0x16C4 PUSH2 0x13F2 JUMP JUMPDEST JUMPDEST DUP2 CALLDATALOAD PUSH2 0x16D5 DUP5 DUP3 PUSH1 0x20 DUP7 ADD PUSH2 0x1670 JUMP JUMPDEST SWAP2 POP POP SWAP3 SWAP2 POP POP JUMP JUMPDEST PUSH0 PUSH8 0xFFFFFFFFFFFFFFFF DUP3 AND SWAP1 POP SWAP2 SWAP1 POP JUMP JUMPDEST PUSH2 0x16FA DUP2 PUSH2 0x16DE JUMP JUMPDEST DUP2 EQ PUSH2 0x1704 JUMPI PUSH0 PUSH0 REVERT JUMPDEST POP JUMP JUMPDEST PUSH0 DUP2 CALLDATALOAD SWAP1 POP PUSH2 0x1715 DUP2 PUSH2 0x16F1 JUMP JUMPDEST SWAP3 SWAP2 POP POP JUMP JUMPDEST PUSH0 PUSH0 PUSH1 0x40 DUP4 DUP6 SUB SLT ISZERO PUSH2 0x1731 JUMPI PUSH2 0x1730 PUSH2 0x13B7 JUMP JUMPDEST JUMPDEST PUSH0 DUP4 ADD CALLDATALOAD PUSH8 0xFFFFFFFFFFFFFFFF DUP2 GT ISZERO PUSH2 0x174E JUMPI PUSH2 0x174D PUSH2 0x13BB JUMP JUMPDEST JUMPDEST PUSH2 0x175A DUP6 DUP3 DUP7 ADD PUSH2 0x16B1 JUMP JUMPDEST SWAP3 POP POP PUSH1 0x20 PUSH2 0x176B DUP6 DUP3 DUP7 ADD PUSH2 0x1707 JUMP JUMPDEST SWAP2 POP POP SWAP3 POP SWAP3 SWAP1 POP JUMP JUMPDEST PUSH32 0x4E487B7100000000000000000000000000000000000000000000000000000000 PUSH0 MSTORE PUSH1 0x22 PUSH1 0x4 MSTORE PUSH1 0x24 PUSH0 REVERT JUMPDEST PUSH0 PUSH1 0x2 DUP3 DIV SWAP1 POP PUSH1 0x1 DUP3 AND DUP1 PUSH2 0x17B9 JUMPI PUSH1 0x7F DUP3 AND SWAP2 POP JUMPDEST PUSH1 0x20 DUP3 LT DUP2 SUB PUSH2 0x17CC JUMPI PUSH2 0x17CB PUSH2 0x1775 JUMP JUMPDEST JUMPDEST POP SWAP2 SWAP1 POP JUMP JUMPDEST PUSH32 0x4E487B7100000000000000000000000000000000000000000000000000000000 PUSH0 MSTORE PUSH1 0x32 PUSH1 0x4 MSTORE PUSH1 0x24 PUSH0 REVERT JUMPDEST PUSH0 DUP2 SWAP1 POP DUP2 PUSH0 MSTORE PUSH1 0x20 PUSH0 KECCAK256 SWAP1 POP SWAP2 SWAP1 POP JUMP JUMPDEST PUSH0 PUSH1 0x20 PUSH1 0x1F DUP4 ADD DIV SWAP1 POP SWAP2 SWAP1 POP JUMP JUMPDEST PUSH0 DUP3 DUP3 SHL SWAP1 POP SWAP3 SWAP2 POP POP JUMP JUMPDEST PUSH0 PUSH1 0x8 DUP4 MUL PUSH2 0x185B PUSH32 0xFFFFFFFFFFFFFFFFFFFFFFFFFFFFFFFFFFFFFFFFFFFFFFFFFFFFFFFFFFFFFFFF DUP3 PUSH2 0x1820 JUMP JUMPDEST PUSH2 0x1865 DUP7 DUP4 PUSH2 0x1820 JUMP JUMPDEST SWAP6 POP DUP1 NOT DUP5 AND SWAP4 POP DUP1 DUP7 AND DUP5 OR SWAP3 POP POP POP SWAP4 SWAP3 POP POP POP JUMP JUMPDEST PUSH0 DUP2 SWAP1 POP SWAP2 SWAP1 POP JUMP JUMPDEST PUSH0 DUP2 SWAP1 POP SWAP2 SWAP1 POP JUMP JUMPDEST PUSH0 PUSH2 0x18A9 PUSH2 0x18A4 PUSH2 0x189F DUP5 PUSH2 0x187D JUMP JUMPDEST PUSH2 0x1886 JUMP JUMPDEST PUSH2 0x187D JUMP JUMPDEST SWAP1 POP SWAP2 SWAP1 POP JUMP JUMPDEST PUSH0 DUP2 SWAP1 POP SWAP2 SWAP1 POP JUMP JUMPDEST PUSH2 0x18C2 DUP4 PUSH2 0x188F JUMP JUMPDEST PUSH2 0x18D6 PUSH2 0x18CE DUP3 PUSH2 0x18B0 JUMP JUMPDEST DUP5 DUP5 SLOAD PUSH2 0x182C JUMP JUMPDEST DUP3 SSTORE POP POP POP POP JUMP JUMPDEST PUSH0 PUSH0 SWAP1 POP SWAP1 JUMP JUMPDEST PUSH2 0x18ED PUSH2 0x18DE JUMP JUMPDEST PUSH2 0x18F8 DUP2 DUP5 DUP5 PUSH2 0x18B9 JUMP JUMPDEST POP POP POP JUMP JUMPDEST JUMPDEST DUP2 DUP2 LT ISZERO PUSH2 0x191B JUMPI PUSH2 0x1910 PUSH0 DUP3 PUSH2 0x18E5 JUMP JUMPDEST PUSH1 0x1 DUP2 ADD SWAP1 POP PUSH2 0x18FE JUMP JUMPDEST POP POP JUMP JUMPDEST PUSH1 0x1F DUP3 GT ISZERO PUSH2 0x1960 JUMPI PUSH2 0x1931 DUP2 PUSH2 0x17FF JUMP JUMPDEST PUSH2 0x193A DUP5 PUSH2 0x1811 JUMP JUMPDEST DUP2 ADD PUSH1 0x20 DUP6 LT ISZERO PUSH2 0x1949 JUMPI DUP2 SWAP1 POP JUMPDEST PUSH2 0x195D PUSH2 0x1955 DUP6 PUSH2 0x1811 JUMP JUMPDEST DUP4 ADD DUP3 PUSH2 0x18FD JUMP JUMPDEST POP POP JUMPDEST POP POP POP JUMP JUMPDEST PUSH0 DUP3 DUP3 SHR SWAP1 POP SWAP3 SWAP2 POP POP JUMP JUMPDEST PUSH0 PUSH2 0x1980 PUSH0 NOT DUP5 PUSH1 0x8 MUL PUSH2 0x1965 JUMP JUMPDEST NOT DUP1 DUP4 AND SWAP2 POP POP SWAP3 SWAP2 POP POP JUMP JUMPDEST PUSH0 PUSH2 0x1998 DUP4 DUP4 PUSH2 0x1971 JUMP JUMPDEST SWAP2 POP DUP3 PUSH1 0x2 MUL DUP3 OR SWAP1 POP SWAP3 SWAP2 POP POP JUMP JUMPDEST PUSH2 0x19B1 DUP3 PUSH2 0x131E JUMP JUMPDEST PUSH8 0xFFFFFFFFFFFFFFFF DUP2 GT ISZERO PUSH2 0x19CA JUMPI PUSH2 0x19C9 PUSH2 0x13FA JUMP JUMPDEST JUMPDEST PUSH2 0x19D4 DUP3 SLOAD PUSH2 0x17A2 JUMP JUMPDEST PUSH2 0x19DF DUP3 DUP3 DUP6 PUSH2 0x191F JUMP JUMPDEST PUSH0 PUSH1 0x20 SWAP1 POP PUSH1 0x1F DUP4 GT PUSH1 0x1 DUP2 EQ PUSH2 0x1A10 JUMPI PUSH0 DUP5 ISZERO PUSH2 0x19FE JUMPI DUP3 DUP8 ADD MLOAD SWAP1 POP JUMPDEST PUSH2 0x1A08 DUP6 DUP3 PUSH2 0x198D JUMP JUMPDEST DUP7 SSTORE POP PUSH2 0x1A6F JUMP JUMPDEST PUSH1 0x1F NOT DUP5 AND PUSH2 0x1A1E DUP7 PUSH2 0x17FF JUMP JUMPDEST PUSH0 JUMPDEST DUP3 DUP2 LT ISZERO PUSH2 0x1A45 JUMPI DUP5 DUP10 ADD MLOAD DUP3 SSTORE PUSH1 0x1 DUP3 ADD SWAP2 POP PUSH1 0x20 DUP6 ADD SWAP5 POP PUSH1 0x20 DUP2 ADD SWAP1 POP PUSH2 0x1A20 JUMP JUMPDEST DUP7 DUP4 LT ISZERO PUSH2 0x1A62 JUMPI DUP5 DUP10 ADD MLOAD PUSH2 0x1A5E PUSH1 0x1F DUP10 AND DUP3 PUSH2 0x1971 JUMP JUMPDEST DUP4 SSTORE POP JUMPDEST PUSH1 0x1 PUSH1 0x2 DUP9 MUL ADD DUP9 SSTORE POP POP POP JUMPDEST POP POP POP POP POP POP JUMP JUMPDEST PUSH0 DUP2 SWAP1 POP DUP2 PUSH0 MSTORE PUSH1 0x20 PUSH0 KECCAK256 SWAP1 POP SWAP2 SWAP1 POP JUMP JUMPDEST PUSH1 0x1F DUP3 GT ISZERO PUSH2 0x1ACA JUMPI PUSH2 0x1A9B DUP2 PUSH2 0x1A77 JUMP JUMPDEST PUSH2 0x1AA4 DUP5 PUSH2 0x1811 JUMP JUMPDEST DUP2 ADD PUSH1 0x20 DUP6 LT ISZERO PUSH2 0x1AB3 JUMPI DUP2 SWAP1 POP JUMPDEST PUSH2 0x1AC7 PUSH2 0x1ABF DUP6 PUSH2 0x1811 JUMP JUMPDEST DUP4 ADD DUP3 PUSH2 0x18FD JUMP JUMPDEST POP POP JUMPDEST POP POP POP JUMP JUMPDEST PUSH2 0x1AD8 DUP3 PUSH2 0x15A6 JUMP JUMPDEST PUSH8 0xFFFFFFFFFFFFFFFF DUP2 GT ISZERO PUSH2 0x1AF1 JUMPI PUSH2 0x1AF0 PUSH2 0x13FA JUMP JUMPDEST JUMPDEST PUSH2 0x1AFB DUP3 SLOAD PUSH2 0x17A2 JUMP JUMPDEST PUSH2 0x1B06 DUP3 DUP3 DUP6 PUSH2 0x1A89 JUMP JUMPDEST PUSH0 PUSH1 0x20 SWAP1 POP PUSH1 0x1F DUP4 GT PUSH1 0x1 DUP2 EQ PUSH2 0x1B37 JUMPI PUSH0 DUP5 ISZERO PUSH2 0x1B25 JUMPI DUP3 DUP8 ADD MLOAD SWAP1 POP JUMPDEST PUSH2 0x1B2F DUP6 DUP3 PUSH2 0x198D JUMP JUMPDEST DUP7 SSTORE POP PUSH2 0x1B96 JUMP JUMPDEST PUSH1 0x1F NOT DUP5 AND PUSH2 0x1B45 DUP7 PUSH2 0x1A77 JUMP JUMPDEST PUSH0 JUMPDEST DUP3 DUP2 LT ISZERO PUSH2 0x1B6C JUMPI DUP5 DUP10 ADD MLOAD DUP3 SSTORE PUSH1 0x1 DUP3 ADD SWAP2 POP PUSH1 0x20 DUP6 ADD SWAP5 POP PUSH1 0x20 DUP2 ADD SWAP1 POP PUSH2 0x1B47 JUMP JUMPDEST DUP7 DUP4 LT ISZERO PUSH2 0x1B89 JUMPI DUP5 DUP10 ADD MLOAD PUSH2 0x1B85 PUSH1 0x1F DUP10 AND DUP3 PUSH2 0x1971 JUMP JUMPDEST DUP4 SSTORE POP JUMPDEST PUSH1 0x1 PUSH1 0x2 DUP9 MUL ADD DUP9 SSTORE POP POP POP JUMPDEST POP POP POP POP POP POP JUMP JUMPDEST PUSH0 DUP2 SLOAD SWAP1 POP PUSH2 0x1BAC DUP2 PUSH2 0x17A2 JUMP JUMPDEST SWAP1 POP SWAP2 SWAP1 POP JUMP JUMPDEST PUSH0 DUP2 SWAP1 POP DUP2 PUSH0 MSTORE PUSH1 0x20 PUSH0 KECCAK256 SWAP1 POP SWAP2 SWAP1 POP JUMP JUMPDEST DUP2 DUP2 SUB PUSH2 0x1BD3 JUMPI POP POP PUSH2 0x1CA8 JUMP JUMPDEST PUSH2 0x1BDC DUP3 PUSH2 0x1B9E JUMP JUMPDEST PUSH8 0xFFFFFFFFFFFFFFFF DUP2 GT ISZERO PUSH2 0x1BF5 JUMPI PUSH2 0x1BF4 PUSH2 0x13FA JUMP JUMPDEST JUMPDEST PUSH2 0x1BFF DUP3 SLOAD PUSH2 0x17A2 JUMP JUMPDEST PUSH2 0x1C0A DUP3 DUP3 DUP6 PUSH2 0x191F JUMP JUMPDEST PUSH0 PUSH1 0x1F DUP4 GT PUSH1 0x1 DUP2 EQ PUSH2 0x1C37 JUMPI PUSH0 DUP5 ISZERO PUSH2 0x1C25 JUMPI DUP3 DUP8 ADD SLOAD SWAP1 POP JUMPDEST PUSH2 0x1C2F DUP6 DUP3 PUSH2 0x198D JUMP JUMPDEST DUP7 SSTORE POP PUSH2 0x1CA1 JUMP JUMPDEST PUSH1 0x1F NOT DUP5 AND PUSH2 0x1C45 DUP8 PUSH2 0x1BB3 JUMP JUMPDEST SWAP7 POP PUSH2 0x1C50 DUP7 PUSH2 0x17FF JUMP JUMPDEST PUSH0 JUMPDEST DUP3 DUP2 LT ISZERO PUSH2 0x1C77 JUMPI DUP5 DUP10 ADD SLOAD DUP3 SSTORE PUSH1 0x1 DUP3 ADD SWAP2 POP PUSH1 0x1 DUP6 ADD SWAP5 POP PUSH1 0x20 DUP2 ADD SWAP1 POP PUSH2 0x1C52 JUMP JUMPDEST DUP7 DUP4 LT ISZERO PUSH2 0x1C94 JUMPI DUP5 DUP10 ADD SLOAD PUSH2 0x1C90 PUSH1 0x1F DUP10 AND DUP3 PUSH2 0x1971 JUMP JUMPDEST DUP4 SSTORE POP JUMPDEST PUSH1 0x1 PUSH1 0x2 DUP9 MUL ADD DUP9 SSTORE POP POP POP JUMPDEST POP POP POP POP POP POP JUMPDEST JUMP JUMPDEST PUSH0 DUP2 SLOAD PUSH2 0x1CB6 DUP2 PUSH2 0x17A2 JUMP JUMPDEST PUSH2 0x1CC0 DUP2 DUP7 PUSH2 0x1328 JUMP JUMPDEST SWAP5 POP PUSH1 0x1 DUP3 AND PUSH0 DUP2 EQ PUSH2 0x1CDA JUMPI PUSH1 0x1 DUP2 EQ PUSH2 0x1CF0 JUMPI PUSH2 0x1D22 JUMP JUMPDEST PUSH1 0xFF NOT DUP4 AND DUP7 MSTORE DUP2 ISZERO ISZERO PUSH1 0x20 MUL DUP7 ADD SWAP4 POP PUSH2 0x1D22 JUMP JUMPDEST PUSH2 0x1CF9 DUP6 PUSH2 0x17FF JUMP JUMPDEST PUSH0 JUMPDEST DUP4 DUP2 LT ISZERO PUSH2 0x1D1A JUMPI DUP2 SLOAD DUP2 DUP10 ADD MSTORE PUSH1 0x1 DUP3 ADD SWAP2 POP PUSH1 0x20 DUP2 ADD SWAP1 POP PUSH2 0x1CFB JUMP JUMPDEST DUP1 DUP9 ADD SWAP6 POP POP POP JUMPDEST POP POP POP SWAP3 SWAP2 POP POP JUMP JUMPDEST PUSH0 DUP2 SLOAD PUSH2 0x1D37 DUP2 PUSH2 0x17A2 JUMP JUMPDEST PUSH2 0x1D41 DUP2 DUP7 PUSH2 0x15B0 JUMP JUMPDEST SWAP5 POP PUSH1 0x1 DUP3 AND PUSH0 DUP2 EQ PUSH2 0x1D5B JUMPI PUSH1 0x1 DUP2 EQ PUSH2 0x1D71 JUMPI PUSH2 0x1DA3 JUMP JUMPDEST PUSH1 0xFF NOT DUP4 AND DUP7 MSTORE DUP2 ISZERO ISZERO PUSH1 0x20 MUL DUP7 ADD SWAP4 POP PUSH2 0x1DA3 JUMP JUMPDEST PUSH2 0x1D7A DUP6 PUSH2 0x1A77 JUMP JUMPDEST PUSH0 JUMPDEST DUP4 DUP2 LT ISZERO PUSH2 0x1D9B JUMPI DUP2 SLOAD DUP2 DUP10 ADD MSTORE PUSH1 0x1 DUP3 ADD SWAP2 POP PUSH1 0x20 DUP2 ADD SWAP1 POP PUSH2 0x1D7C JUMP JUMPDEST DUP1 DUP9 ADD SWAP6 POP POP POP JUMPDEST POP POP POP SWAP3 SWAP2 POP POP JUMP JUMPDEST PUSH0 PUSH1 0x60 DUP3 ADD SWAP1 POP DUP2 DUP2 SUB PUSH0 DUP4 ADD MSTORE PUSH2 0x1DC4 DUP2 DUP7 PUSH2 0x1CAA JUMP JUMPDEST SWAP1 POP DUP2 DUP2 SUB PUSH1 0x20 DUP4 ADD MSTORE PUSH2 0x1DD8 DUP2 DUP6 PUSH2 0x1D2B JUMP JUMPDEST SWAP1 POP DUP2 DUP2 SUB PUSH1 0x40 DUP4 ADD MSTORE PUSH2 0x1DEC DUP2 DUP5 PUSH2 0x1D2B JUMP JUMPDEST SWAP1 POP SWAP5 SWAP4 POP POP POP POP JUMP JUMPDEST PUSH32 0x4E487B7100000000000000000000000000000000000000000000000000000000 PUSH0 MSTORE PUSH1 0x21 PUSH1 0x4 MSTORE PUSH1 0x24 PUSH0 REVERT JUMPDEST PUSH2 0x1E2C DUP2 PUSH2 0x16DE JUMP JUMPDEST DUP3 MSTORE POP POP JUMP JUMPDEST PUSH0 PUSH2 0xFFFF DUP3 AND SWAP1 POP SWAP2 SWAP1 POP JUMP JUMPDEST PUSH2 0x1E48 DUP2 PUSH2 0x1E32 JUMP JUMPDEST DUP3 MSTORE POP POP JUMP JUMPDEST PUSH0 PUSH4 0xFFFFFFFF DUP3 AND SWAP1 POP SWAP2 SWAP1 POP JUMP JUMPDEST PUSH2 0x1E66 DUP2 PUSH2 0x1E4E JUMP JUMPDEST DUP3 MSTORE POP POP JUMP JUMPDEST PUSH0 PUSH1 0xA0 DUP3 ADD SWAP1 POP PUSH2 0x1E7F PUSH0 DUP4 ADD DUP9 PUSH2 0x1E23 JUMP JUMPDEST DUP2 DUP2 SUB PUSH1 0x20 DUP4 ADD MSTORE PUSH2 0x1E91 DUP2 DUP8 PUSH2 0x15C0 JUMP JUMPDEST SWAP1 POP PUSH2 0x1EA0 PUSH1 0x40 DUP4 ADD DUP7 PUSH2 0x1E3F JUMP JUMPDEST PUSH2 0x1EAD PUSH1 0x60 DUP4 ADD DUP6 PUSH2 0x1E5D JUMP JUMPDEST PUSH2 0x1EBA PUSH1 0x80 DUP4 ADD DUP5 PUSH2 0x1618 JUMP JUMPDEST SWAP7 SWAP6 POP POP POP POP POP POP JUMP JUMPDEST PUSH0 DUP2 MLOAD SWAP1 POP PUSH2 0x1ED2 DUP2 PUSH2 0x13C8 JUMP JUMPDEST SWAP3 SWAP2 POP POP JUMP JUMPDEST PUSH0 PUSH1 0x20 DUP3 DUP5 SUB SLT ISZERO PUSH2 0x1EED JUMPI PUSH2 0x1EEC PUSH2 0x13B7 JUMP JUMPDEST JUMPDEST PUSH0 PUSH2 0x1EFA DUP5 DUP3 DUP6 ADD PUSH2 0x1EC4 JUMP JUMPDEST SWAP2 POP POP SWAP3 SWAP2 POP POP JUMP JUMPDEST PUSH2 0x1F0C DUP2 PUSH2 0x187D JUMP JUMPDEST DUP3 MSTORE POP POP JUMP JUMPDEST PUSH0 PUSH1 0x20 DUP3 ADD SWAP1 POP PUSH2 0x1F25 PUSH0 DUP4 ADD DUP5 PUSH2 0x1F03 JUMP JUMPDEST SWAP3 SWAP2 POP POP JUMP JUMPDEST PUSH32 0x4E487B7100000000000000000000000000000000000000000000000000000000 PUSH0 MSTORE PUSH1 0x11 PUSH1 0x4 MSTORE PUSH1 0x24 PUSH0 REVERT JUMPDEST PUSH0 PUSH2 0x1F62 DUP3 PUSH2 0x187D JUMP JUMPDEST SWAP2 POP PUSH2 0x1F6D DUP4 PUSH2 0x187D JUMP JUMPDEST SWAP3 POP DUP3 DUP3 ADD SWAP1 POP DUP1 DUP3 GT ISZERO PUSH2 0x1F85 JUMPI PUSH2 0x1F84 PUSH2 0x1F2B JUMP JUMPDEST JUMPDEST SWAP3 SWAP2 POP POP JUMP JUMPDEST PUSH0 PUSH2 0x1F95 DUP3 PUSH2 0x187D JUMP JUMPDEST SWAP2 POP PUSH2 0x1FA0 DUP4 PUSH2 0x187D JUMP JUMPDEST SWAP3 POP DUP3 DUP3 SUB SWAP1 POP DUP2 DUP2 GT ISZERO PUSH2 0x1FB8 JUMPI PUSH2 0x1FB7 PUSH2 0x1F2B JUMP JUMPDEST JUMPDEST SWAP3 SWAP2 POP POP JUMP JUMPDEST PUSH32 0x4E487B7100000000000000000000000000000000000000000000000000000000 PUSH0 MSTORE PUSH1 0x12 PUSH1 0x4 MSTORE PUSH1 0x24 PUSH0 REVERT JUMPDEST PUSH0 PUSH2 0x1FF5 DUP3 PUSH2 0x187D JUMP JUMPDEST SWAP2 POP PUSH2 0x2000 DUP4 PUSH2 0x187D JUMP JUMPDEST SWAP3 POP DUP3 PUSH2 0x2010 JUMPI PUSH2 0x200F PUSH2 0x1FBE JUMP JUMPDEST JUMPDEST DUP3 DUP3 MOD SWAP1 POP SWAP3 SWAP2 POP POP JUMP JUMPDEST PUSH0 PUSH2 0x2025 DUP3 PUSH2 0x187D JUMP JUMPDEST SWAP2 POP PUSH2 0x2030 DUP4 PUSH2 0x187D JUMP JUMPDEST SWAP3 POP DUP3 DUP3 MUL PUSH2 0x203E DUP2 PUSH2 0x187D JUMP JUMPDEST SWAP2 POP DUP3 DUP3 DIV DUP5 EQ DUP4 ISZERO OR PUSH2 0x2055 JUMPI PUSH2 0x2054 PUSH2 0x1F2B JUMP JUMPDEST JUMPDEST POP SWAP3 SWAP2 POP POP JUMP JUMPDEST PUSH0 DUP2 PUSH1 0x1 SHR SWAP1 POP SWAP2 SWAP1 POP JUMP JUMPDEST PUSH0 PUSH0 DUP3 SWAP2 POP DUP4 SWAP1 POP JUMPDEST PUSH1 0x1 DUP6 GT ISZERO PUSH2 0x20B1 JUMPI DUP1 DUP7 DIV DUP2 GT ISZERO PUSH2 0x208D JUMPI PUSH2 0x208C PUSH2 0x1F2B JUMP JUMPDEST JUMPDEST PUSH1 0x1 DUP6 AND ISZERO PUSH2 0x209C JUMPI DUP1 DUP3 MUL SWAP2 POP JUMPDEST DUP1 DUP2 MUL SWAP1 POP PUSH2 0x20AA DUP6 PUSH2 0x205C JUMP JUMPDEST SWAP5 POP PUSH2 0x2071 JUMP JUMPDEST SWAP5 POP SWAP5 SWAP3 POP POP POP JUMP JUMPDEST PUSH0 DUP3 PUSH2 0x20C9 JUMPI PUSH1 0x1 SWAP1 POP PUSH2 0x2184 JUMP JUMPDEST DUP2 PUSH2 0x20D6 JUMPI PUSH0 SWAP1 POP PUSH2 0x2184 JUMP JUMPDEST DUP2 PUSH1 0x1 DUP2 EQ PUSH2 0x20EC JUMPI PUSH1 0x2 DUP2 EQ PUSH2 0x20F6 JUMPI PUSH2 0x2125 JUMP JUMPDEST PUSH1 0x1 SWAP2 POP POP PUSH2 0x2184 JUMP JUMPDEST PUSH1 0xFF DUP5 GT ISZERO PUSH2 0x2108 JUMPI PUSH2 0x2107 PUSH2 0x1F2B JUMP JUMPDEST JUMPDEST DUP4 PUSH1 0x2 EXP SWAP2 POP DUP5 DUP3 GT ISZERO PUSH2 0x211F JUMPI PUSH2 0x211E PUSH2 0x1F2B JUMP JUMPDEST JUMPDEST POP PUSH2 0x2184 JUMP JUMPDEST POP PUSH1 0x20 DUP4 LT PUSH2 0x133 DUP4 LT AND PUSH1 0x4E DUP5 LT PUSH1 0xB DUP5 LT AND OR ISZERO PUSH2 0x215A JUMPI DUP3 DUP3 EXP SWAP1 POP DUP4 DUP2 GT ISZERO PUSH2 0x2155 JUMPI PUSH2 0x2154 PUSH2 0x1F2B JUMP JUMPDEST JUMPDEST PUSH2 0x2184 JUMP JUMPDEST PUSH2 0x2167 DUP5 DUP5 DUP5 PUSH1 0x1 PUSH2 0x2068 JUMP JUMPDEST SWAP3 POP SWAP1 POP DUP2 DUP5 DIV DUP2 GT ISZERO PUSH2 0x217E JUMPI PUSH2 0x217D PUSH2 0x1F2B JUMP JUMPDEST JUMPDEST DUP2 DUP2 MUL SWAP1 POP JUMPDEST SWAP4 SWAP3 POP POP POP JUMP JUMPDEST PUSH0 PUSH2 0x2195 DUP3 PUSH2 0x187D JUMP JUMPDEST SWAP2 POP PUSH2 0x21A0 DUP4 PUSH2 0x187D JUMP JUMPDEST SWAP3 POP PUSH2 0x21CD PUSH32 0xFFFFFFFFFFFFFFFFFFFFFFFFFFFFFFFFFFFFFFFFFFFFFFFFFFFFFFFFFFFFFFFF DUP5 DUP5 PUSH2 0x20BA JUMP JUMPDEST SWAP1 POP SWAP3 SWAP2 POP POP JUMP INVALID PUSH4 0x6F6E7374 KECCAK256 PUSH4 0x69747920 RETURNDATASIZE KECCAK256 PUSH2 0x7267 PUSH20 0x5B305D3B636F6E737420617069526573706F6E73 PUSH6 0x203D20617761 PUSH10 0x742046756E6374696F6E PUSH20 0x2E6D616B654874747052657175657374287B7572 PUSH13 0x3A206068747470733A2F2F7774 PUSH21 0x722E696E2F247B636974797D3F666F726D61743D33 0x26 PUSH14 0x602C726573706F6E736554797065 GASPRICE KECCAK256 0x27 PUSH21 0x657874277D293B69662028617069526573706F6E73 PUSH6 0x2E6572726F72 0x29 KECCAK256 PUSH28 0x7468726F77204572726F72282752657175657374206661696C656427 0x29 EXTCODESIZE PUSH30 0x636F6E7374207B2064617461207D203D20617069526573706F6E73653B72 PUSH6 0x7475726E2046 PUSH22 0x6E6374696F6E732E656E636F6465537472696E672864 PUSH2 0x7461 0x29 EXTCODESIZE LOG2 PUSH5 0x6970667358 0x22 SLT KECCAK256 0xBF DUP8 SWAP11 0xC5 SHL CALLER CLZ DUP3 0xD4 PUSH19 0xBFE3566EBC6C3C514C763DB21EE2A4DF74BB82 0x4B CHAINID 0xD6 PUSH5 0x736F6C6343 STOP ADDMOD 0x1F STOP CALLER "
		},
		"gasEstimates": {
			"creation": {
				"codeDepositCost": "1794800",
				"executionCost": "infinite",
				"totalCost": "infinite"
			},
			"external": {
				"SOURCE()": "infinite",
				"getTemperature(string,uint64)": "infinite",
				"handleOracleFulfillment(bytes32,bytes,bytes)": "infinite",
				"s_lastCity()": "infinite",
				"s_lastError()": "infinite",
				"s_lastRequestId()": "2447",
				"s_lastResponse()": "infinite",
				"s_lastTemperature()": "infinite",
				"s_requestedCity()": "infinite"
			},
			"internal": {
				"fulfillRequest(bytes32,bytes memory,bytes memory)": "infinite"
			}
		},
		"methodIdentifiers": {
			"SOURCE()": "f230b4c2",
			"getTemperature(string,uint64)": "f343f1e1",
			"handleOracleFulfillment(bytes32,bytes,bytes)": "0ca76175",
			"s_lastCity()": "0845284e",
			"s_lastError()": "4b0795a8",
			"s_lastRequestId()": "b1e21749",
			"s_lastResponse()": "3944ea3a",
			"s_lastTemperature()": "d50cbe98",
			"s_requestedCity()": "6e0e7c3b"
		}
	},
	"abi": [
		{
			"inputs": [],
			"stateMutability": "nonpayable",
			"type": "constructor"
		},
		{
			"inputs": [],
			"name": "EmptyArgs",
			"type": "error"
		},
		{
			"inputs": [],
			"name": "EmptySource",
			"type": "error"
		},
		{
			"inputs": [],
			"name": "NoInlineSecrets",
			"type": "error"
		},
		{
			"inputs": [],
			"name": "OnlyRouterCanFulfill",
			"type": "error"
		},
		{
			"inputs": [
				{
					"internalType": "bytes32",
					"name": "requestId",
					"type": "bytes32"
				}
			],
			"name": "UnexpectedRequestID",
			"type": "error"
		},
		{
			"anonymous": false,
			"inputs": [
				{
					"indexed": true,
					"internalType": "bytes32",
					"name": "id",
					"type": "bytes32"
				}
			],
			"name": "RequestFulfilled",
			"type": "event"
		},
		{
			"anonymous": false,
			"inputs": [
				{
					"indexed": true,
					"internalType": "bytes32",
					"name": "id",
					"type": "bytes32"
				}
			],
			"name": "RequestSent",
			"type": "event"
		},
		{
			"anonymous": false,
			"inputs": [
				{
					"indexed": true,
					"internalType": "bytes32",
					"name": "requestId",
					"type": "bytes32"
				},
				{
					"indexed": false,
					"internalType": "string",
					"name": "temperature",
					"type": "string"
				},
				{
					"indexed": false,
					"internalType": "bytes",
					"name": "response",
					"type": "bytes"
				},
				{
					"indexed": false,
					"internalType": "bytes",
					"name": "err",
					"type": "bytes"
				}
			],
			"name": "Response",
			"type": "event"
		},
		{
			"inputs": [],
			"name": "SOURCE",
			"outputs": [
				{
					"internalType": "string",
					"name": "",
					"type": "string"
				}
			],
			"stateMutability": "view",
			"type": "function"
		},
		{
			"inputs": [
				{
					"internalType": "string",
					"name": "city",
					"type": "string"
				},
				{
					"internalType": "uint64",
					"name": "subscriptionId",
					"type": "uint64"
				}
			],
			"name": "getTemperature",
			"outputs": [
				{
					"internalType": "bytes32",
					"name": "requestId",
					"type": "bytes32"
				}
			],
			"stateMutability": "nonpayable",
			"type": "function"
		},
		{
			"inputs": [
				{
					"internalType": "bytes32",
					"name": "requestId",
					"type": "bytes32"
				},
				{
					"internalType": "bytes",
					"name": "response",
					"type": "bytes"
				},
				{
					"internalType": "bytes",
					"name": "err",
					"type": "bytes"
				}
			],
			"name": "handleOracleFulfillment",
			"outputs": [],
			"stateMutability": "nonpayable",
			"type": "function"
		},
		{
			"inputs": [],
			"name": "s_lastCity",
			"outputs": [
				{
					"internalType": "string",
					"name": "",
					"type": "string"
				}
			],
			"stateMutability": "view",
			"type": "function"
		},
		{
			"inputs": [],
			"name": "s_lastError",
			"outputs": [
				{
					"internalType": "bytes",
					"name": "",
					"type": "bytes"
				}
			],
			"stateMutability": "view",
			"type": "function"
		},
		{
			"inputs": [],
			"name": "s_lastRequestId",
			"outputs": [
				{
					"internalType": "bytes32",
					"name": "",
					"type": "bytes32"
				}
			],
			"stateMutability": "view",
			"type": "function"
		},
		{
			"inputs": [],
			"name": "s_lastResponse",
			"outputs": [
				{
					"internalType": "bytes",
					"name": "",
					"type": "bytes"
				}
			],
			"stateMutability": "view",
			"type": "function"
		},
		{
			"inputs": [],
			"name": "s_lastTemperature",
			"outputs": [
				{
					"internalType": "string",
					"name": "",
					"type": "string"
				}
			],
			"stateMutability": "view",
			"type": "function"
		},
		{
			"inputs": [],
			"name": "s_requestedCity",
			"outputs": [
				{
					"internalType": "string",
					"name": "",
					"type": "string"
				}
			],
			"stateMutability": "view",
			"type": "function"
		}
	]
}